:020000040800F2
:10000000A8080020CD000008F14300084340000884
:1000100000000000000000000000000000000000E0
:10002000000000000000000000000000D163000894
:1000300000000000000000001D5B0008456400088F
:10004000DF00000800000000DF000008DF000008FB
:10005000DF0000088D1E0008A91E0008C51E00084C
:100060000000000011130008DF000008DF00000896
:10007000DF000008DF000008DF00000800000000CB
:10008000DF0000080000000000000000DF000008A2
:10009000DF0000083565000891650008DF000008F2
:1000A000DF000008DF000008DF000008DF000008B4
:1000B000DF0000080448854600F028FC004800479F
:1000C00009730008C046C046A808002004488047BD
:1000D00004480047FEE7FEE7FEE7FEE7FEE7FEE72F
:1000E0008D640008B500000830B50B4601460020BD
:1000F0002022012409E00D46D5409D4205D31D462E
:100100009540491B2546954040191546521E002D25
:10011000F1DC30BDF0B51FB40646002082B00546C4
:100120004024019100901BE0019922460F46304681
:1001300000F052FA049A059B801A994110D3104698
:100140001946224600F038FA361A8F4101972246A6
:1001500001200021009F00F02FFA38184D41009037
:100160002046641E0028DFDC019B009829463246A9
:1001700007B0F0BDF8B502464A40D40F42004B002C
:1001800052085B089A4202D20246084611464A00CB
:1001900023D0C30D4A00DDB2120EAD1A202D35DA80
:1001A00049020126490AF6058A19002C00D052425C
:1001B00020214F1B1146B9402A411018C20D9A4206
:1001C00021D0002C17D0012D08DCDA05801AD20FBF
:1001D0008019D207DBB200F018FAF8BDDA05801AF0
:1001E000012340001B06C01880185A428018CA0F0D
:1001F0001043490007E04908C2071143DA05801A95
:1002000080194008801800F0F8F9F8BD610001225B
:10021000511A001BF7E70122D2075140AAE7012239
:10022000D2075040A6E7024670B54A40D30FDB071D
:1002300040002DD04A002AD0010E140E00021202F6
:100240000919400A520A8418E50104465443000A79
:10025000120A2E045043A4194219200CC543AA18AF
:10026000120C0125AD03521C521912047F392404CB
:1002700000D0521C104301D44000491EC2B20C06EB
:10028000C0092018401C4008802A02D003E000204A
:1002900070BD40084000002900DA0020184370BDFE
:1002A00070B502464A40D50F40004A00ED074008AD
:1002B0005208002814D0002A12D0C40DD30D4102D8
:1002C0000120C0055202490A520AE41A09181218FC
:1002D0007D34914201D3641C00E04900002C01DA16
:1002E000002070BD0023914201D3891A03434008C6
:1002F00049000028F7D100290AD0914202D10121FA
:10030000C90705E0914201D2012101E00121C94361
:10031000E005C018401900F070F970BDF0B51FB4C9
:1003200088B00B990998002448400999C00F4900EA
:1003300049080991C0070B990090490049080B91A1
:1003400009990898A64608431CD00B990A980843B7
:1003500018D0099801244000420D4800410D099829
:1003600024050003000B204309900B980003000BA9
:1003700020430B9050181C4940180022019014464D
:10038000104605E0002001460DB0F0BD032801DA5B
:10039000034600E003239C46C11A0AAE0AE05F0050
:1003A00008ADED5B4F00F75B7D430027AA187C4149
:1003B000491C5B1E6145F2DD410004AB5A52210429
:1003C000120C0A43240C401C0828DFDB0198029021
:1003D0000099704601910090059B049A0799069830
:1003E00000F059F9D0E700000DFCFFFFF0B50C4616
:1003F0005C4085B0E40FE40703944C0000266408D9
:1004000059009446490802460296224321D062468A
:100410000A431ED06200570D4A000E032303550DF8
:10042000012402462C492405781B1B0B360B40186F
:1004300023432643614600901C46501AB44103D31F
:100440000098401C009002E0921800985B41002840
:1004500003DA0020014605B0F0BD002001210905A6
:100460000746864611E064461D46141BB54106D377
:100470006546521BB341744607430C43A646CD075D
:1004800040084908284392185B4105460D43EAD1CC
:100490001046184313D06046194650407140084337
:1004A00006D06046101AB34106D20122002306E0AE
:1004B00000220123DB0702E00122D24353100098FF
:1004C00074460105381C6141029C039D0019694175
:1004D00000F0D4F8BFE70000FD03000010B50022D3
:1004E0009623114600F091F810BD00000EB50549A5
:1004F0000291002100910A460B46019100F0CBF8D1
:1005000003B000BD33040000410040020122400A54
:10051000D205090E80187F2901DA0020704796293C
:1005200003DC9622511AC8407047963988407047BC
:10053000C20FD207400040080BD0C10D0723DB01DA
:10054000C91840020905400A1143C2084007114377
:100550007047002001467047CB0FDB07490010B5FC
:10056000490802460A4307D00A0D07240903E4019B
:10057000090B121B002A01DC002010BDC900440F2A
:100580000C43C100E018D205801800F036F810BD09
:100590000122D207002800DB101A002900DB511AC3
:1005A000814270470122D207002800DB101A00297F
:1005B00000DB511A8842704710B5202A04DB01463F
:1005C000203A9140002010BD914020239C1A034600
:1005D000E3401943904010BD10B5202A04DB0846C3
:1005E000203AD040002110BD0B46D340D0402024FB
:1005F000A21A91400843194610BD002904DA401C94
:10060000490001D140084000704770B40024050C37
:1006100005D11024000402D1002921D01124050E97
:1006200001D100020834050F01D10001241D850FFE
:1006300001D18000A41C002801DB4000641C0029BB
:1006400008D020252E1B0D46F540A14000D00121E9
:100650002943084301061B1B000ADB1D02D50020AD
:1006600070BC7047DB05181880180029F8DA401CA8
:100670004900F5D170BC40084000704710B5002B10
:1006800008DA0024401C614192185B411A4301D1F1
:100690004008400010BDF0B51FB482B005460C0004
:1006A00003D0084606F05EF902E006F05BF9203060
:1006B0000246009021462846FFF77EFF049B059ADC
:1006C00004460F4618431143084314D018461043FC
:1006D0001BD0009840210A1A18460599FFF77CFFA5
:1006E00005460E46009A05990498FFF765FF0843F2
:1006F00005D0012004E02046394607B0F0BD0020B7
:10070000C11705430E432C43374300990E986305E8
:10071000401A7905E40A00220C43FD0A0A3002D58A
:1007200000200146E9E70105101969410C9C0D9D67
:1007300000196941FFF7A2FFDFE70000F0B50746A7
:100740000846584087B0C00F049048000E46590034
:1007500040084908BC1A884105D2384631461E4631
:1007600017460B4602465800400810434DD0300D46
:10077000039040055900400D490D0590401A029024
:10078000402873DA18030121000B09050843019082
:1007900004980092002806D01146019A4942002090
:1007A000904100910190029840210A1A0199009805
:1007B000FFF702FF05460C466B4607CB00F0B8F882
:1007C000C0197141039A0E0D0023D71756401A46DF
:1007D0007A40164344D0049A002A2DD0029A012A66
:1007E000039A15DC1205C01A914101263605001C3A
:1007F0007141D20F059ED2070093019202962A46BC
:100800002346FFF748FF07B0F0BD38463146FAE708
:100810001605234A0F46B218C01AB741012109052F
:10082000001C4F4100187F41114618187941E20F12
:1008300010436D19644113E0E2076D081543640825
:10084000C2071443039A01261205C01A91413605C6
:10085000001C7141CE07400830434908C01851417F
:100860002A462346FFF70AFFCDE7FFE70498012257
:100870004000C117121A00238B4104983146C41757
:10088000381AA141EEE730B40124E407634030BCDC
:1008900054E730B40124E407614030BC4EE7000067
:1008A0000000E0FF4A0009030123090B1B0519435F
:1008B0000A4B10B5520D9A4202DA0020014610BDD3
:1008C000064B34339A4203DC9A1AFFF785FE10BDBB
:1008D000034BD218FFF770FE10BD0000FF030000AD
:1008E000CDFBFFFF10B5002904DB0124E4074042E3
:1008F0008C412146002B04DB1C460123DB075242BE
:10090000A341994200D1904210BD0000064C012540
:10091000064E05E0E36807CC2B430C3C98471034A7
:10092000B442F7D3FFF7CAFB0C7600082C76000818
:1009300010B5202A06DBCB170846203A1041C11714
:100940000B4306E00B461341D0402024A21A9140ED
:100950000843194610BD30B58C180278401C1307A7
:100960001B0F01D10378401C120906D10278401CEC
:1009700003E005780D70401C491C5B1EF9D101E0B5
:100980000B70491C521EFBD1A142E6D3002030BDA2
:10099000F0B52020002493B086461F4D1823214631
:1009A00068464A00491CAE5A89B286522029F8D3BB
:1009B000002100224D000BE05700BC46465BC75BA0
:1009C000BE4204D210976746C653109F4753521C2D
:1009D0008A42F1DD491C89B27145EAD30F498A6424
:1009E00000215A1E4D002D18ED88491C2C1989B282
:1009F0009142F7DD1846FFF771FD05462046FFF7E7
:100A00006DFD2946FFF74CFCFFF77EFD0349403999
:100A10000883119813B0F0BD1404002000010020D9
:100A200010B5234C21482060204601F0BDFB002872
:100A300000D0FEE7012080076060002023460121EE
:100A400004220C33A06007C360762076A176FF22D3
:100A5000E076C232E261164A206220321171A06251
:100A60000807E062124801F0F1FB002800D0FEE721
:100A70000F4801F0B7FA002800D0FEE70C48032128
:100A8000403001600121090341600146403801F016
:100A900001FB002800D0FEE720220649044801F0AF
:100AA000EDFC002800D0FEE710BD0000002401404E
:100AB000680100201404002070B5044600688168B5
:100AC000490720D5816810264907002905DA816881
:100AD000890702D481683143816002F079F90546C3
:100AE0000DE002F075F9401B022808D9A06B3043D5
:100AF000A063E06B01210843E063084670BD2068F5
:100B000080684007EDD4002070BD10B50146406AF2
:100B1000826B50231A420AD1816B01225202114387
:100B200081630168CA681205920F05D020E0006B4E
:100B3000026B0846904710BD827E002A18D10A68D1
:100B4000120715D58A6853070122002B09DB4B6871
:100B50000C24A3434B60816B1302994311438163BF
:100B600006E0816B202319438163C16B1143C1638C
:100B700001F018FB10BD10B5406A816B4022114393
:100B80008163C16B04221143C16301F05DFB10BDA1
:100B900010B5406A01F007FB10BDF8B504460068C7
:100BA00081688907890F012928D10168C90702D105
:100BB000C168090422D5816805221140102501264B
:100BC00001290FD18168022211438160216803202D
:100BD000086002F0FDF807460CE002F0F9F8C01BCF
:100BE000022807D9A06B2843A063E06B3043E06381
:100BF0000120F8BD20688068C007EED10020F8BD54
:100C0000F8B5044600200090206881688907890FA4
:100C1000012905D10168C9072CD1C168090429D46B
:100C20008168154A102611400125002915D18168D7
:100C300029438160124811490068FFF755FA00E026
:100C4000401E00900028FBD102F0C2F807460CE0DD
:100C500002F0BEF8C01B022807D9A06B3043A06386
:100C6000E06B2843E0630120F8BD20680068C043C2
:100C7000C007EDD10020F8BD1700008040420F00F2
:100C800054010020F0B589B064480190007B012830
:100C900029D1624A6032508A0790002823D0908A76
:100CA000069000281FD0104680381446403C01466C
:100CB000277B60310491017C0546491CC9B205912E
:100CC000417C0391867C0021C0353B0005F079FE14
:100CD000050414476C9A0B00D38F002B05D001221A
:100CE00022738174017409B0F0BD012EFBD1D28A48
:100CF000002AF8D18174F6E7D08F0028F3D1474E4F
:100D0000228FE03630467F21C038C905808F002A07
:100D100011D0002821D1B06AFFF72CFA07463064C1
:100D20000798FFF7DBFB3946FFF77DFAFFF7ECFB8F
:100D3000A882022010E000280FD0F06AFFF71AFA0C
:100D4000074630640698FFF7C9FB3946FFF76BFA90
:100D5000FFF7DAFBA882032020730A2050E0019BF2
:100D60005B7B002B00D121732B88002BBBD12B8BFD
:100D7000AE8AB34202D2EE8AB34202D3059B037419
:100D800000E00174067C039B9E420AD30423237374
:100D9000012383746420D0822187A1876980062182
:100DA00029E0817403202BE0019A927B002A00D174
:100DB0002173E27A022A2FD02A88002A93D12A8B23
:100DC000AB8A9A4202D2EB8A9A4202D3059A027403
:100DD00000E00174037C039A93420FD10422227332
:100DE00001226A80E38F002B85D002238374218740
:100DF000A1876A8007210498817274E781740120B9
:100E0000288070E768880028F7D1012E04D0022ED0
:100E100002D1108D2087A187217364E72000002074
:100E2000F8B501214903384801F0C6FF374D29467E
:100E300060390A460C4620328034E874012809D112
:100E4000287D002806D1107D002803D00120C8701D
:100E5000208E60812D4E203EF078002848D1107DF4
:100E60003746803701280FD0022841D1907A0028D8
:100E70003ED130464038C079002805D1707A01282B
:100E800008D0B07A01280FD020486038C0780128F7
:100E900016D02DE01EA005F055FD208E60811B4967
:100EA00001206039C87023E021A005F04BFD208EA1
:100EB0001649608101206039C8700020B07217E0C7
:100EC0006089002814D122A005F03CFD26A005F081
:100ED00039FD0E4900206039C870897C022907D08D
:100EE000218DB1876188E1870A21B980A083687567
:100EF0006089401E312804D2E87C012801D10820F5
:100F0000A872E87C2875F8BD000400486000002045
:100F10000A0DA6DBB0CAC3F6AAF9BA58BCD0312074
:100F20002620B5A5ABDDAEC9B6A1B35DA5DF000037
:100F30000A0DA6DBB0CAC3F6AAF9BA58BCD0322053
:100F40002620B5A5ABDDAEC9B6A1B35DA5DF000017
:100F50000A0DA6DBB0CAC3F6AAF9B5A5ABDDAEC9CA
:100F6000B6A1A8ECB94600000A0DC3F6AAF9AEC9AD
:100F7000B6A1B35DA5DF000010B5FF210920002256
:100F80000131C00601F01DFF10BD10B5012209207E
:100F90001102C00601F015FF10BD0000F8B5964C17
:100FA0000027A27AE07A824200D027739248924EBC
:100FB000C17B3225A036407B130005F002FD0BF209
:100FC0000719314A618B9AB8DFF8F200227B002AB8
:100FD00002D165730820D8E0002878D1DBE0B08A20
:100FE000002801D1A7722773607B002870D0FCE035
:100FF000227B002A71D1FF2065732D3072E0FFF74C
:10100000C4FF03E0002901D0FFF7B6FFB08A002833
:101010006CD0607B002802D1A07B002871D1A5E0B4
:10102000227B002A6ED1142060736420C9E0FFF790
:10103000ACFF03E0002901D0FFF79EFFB08A002833
:1010400073D0607B002871D1A07B00286ED0142063
:101050008AE0227B002A04D0002806D0FFF795FF03
:1010600007E0657301202073F8E7002901D0FFF73E
:1010700083FF607C0128CCD1A77227736774C8E70F
:10108000227B002A04D0002808D0FFF77EFF09E069
:1010900065730220A07401202073F6E7002901D0B7
:1010A000FFF76AFFA07C002801D1A7722773617B3C
:1010B000002902D1A17B002977D1E17B002905D14C
:1010C000217C002902D06573401EA0748DE05FE092
:1010D00068E002E0227B002A02D0002892D08EE74E
:1010E00065736420B0820120207388E7A77227739C
:1010F0008FE7227B002A06D000280BD0FFF745FFA0
:101100000CE052E056E0142060736420B0820120AD
:101110002073F3E7002901D0FFF72EFF607C012840
:101120008FD1A772277367748BE74EE050E0227B64
:10113000002A04D0002807D0FFF727FF08E06573D6
:10114000B58201202073F7E7002901D0FFF714FFD3
:10115000B08A002801D1A7722773607B002805D1CF
:10116000A07B002802D06420E0733EE0E07B0028F2
:101170003BD1207C002838D0657336E0227B1E25C9
:10118000002A00D028E765730520B0820120207373
:10119000FFF7FBFE23E70029FCD0FFF7EDFE1EE77B
:1011A00005E01EE0A07B00281FD0E5731DE0227B38
:1011B000002A03D0002800D13CE738E714206073F0
:1011C0000720B0820120207331E7A772277338E728
:1011D000E07B002809D1207C002806D01420607311
:1011E00003E02773FFF7C8FE6774A07AE072607BA4
:1011F000A073E07B2074F8BD6000002008B51348A0
:101200004269012149040A43426142690A4000924D
:10121000426949000A43426142690A4000924269B8
:1012200049000A43426142690A400092426949000A
:101230000A43426142690A400092426989000A43B6
:10124000426140690840009008BD00000010024063
:10125000F8B5264E0027338F3546B28F203D18460D
:101260002C4610436034002805D1E87F012802D1C4
:10127000E08DA085EF771D4840388179002B04D19F
:10128000012902D1A38D002B02D0002A0FD027E024
:1012900000F09AFC208DB0871448A78302214038C3
:1012A00081710120E87700F07BFE11A016E0022991
:1012B00016D1A08D002813D100F086FC208D308738
:1012C0000A49A783012040398871E877C81DF930A1
:1012D000016A491C016200F063FE09A005F032FBBF
:1012E00000F0EAFC03F09EFBF8BD00004000002087
:1012F0000A0D4E6F697365207465737420310000A8
:101300000A0D4E6F69736520746573742032000096
:1013100010B50248006B01F026F910BD68010020ED
:1013200010B504460068054940181421FEF7DCFE9C
:10133000800020640248E06310BD0000F8FFFDBF9C
:101340000000024030B5056C0124AC40C56B6C60F8
:10135000046863604368102B036803D099600068D9
:10136000C26030BD9A600068C16030BDFEB5C44C3B
:10137000E08E00287ED1C3A005F0E4FA274680372E
:101380002546388B40352887FFF7B0F8C84AC94B47
:10139000FEF7C4FFFFF7E0F82646C0363065306B35
:1013A000C5490290FEF73FFFFFF7C2F8C34AC44B9E
:1013B000FFF71CF8009001910298FFF7B9F8AA8E88
:1013C000029202460B46BFA005F0BCFA306DBA4946
:1013D0000290FEF728FFFFF7ABF8B84AB84BFFF7CB
:1013E00005F8009001910298FFF7A2F82A8F029267
:1013F00002460B46BFA005F0A5FA706BAE490290FD
:10140000FEF711FFFFF794F8AC4AAD4BFEF7EEFF85
:10141000009001910298FFF78BF8EA8E0292024643
:101420000B46C0A005F08EFAA98FCAA005F08AFA73
:10143000F06B4100CCA005F085FAD0A005F082FA4F
:10144000CFA005F07FFA698AD2A005F07BFAA98ABD
:10145000D7A005F077FAC9A005F074FA803DE979C4
:10146000DAA005F06FFA208FA18FE03E0843002834
:1014700060D000E002E1307E012815D1BFA005F068
:1014800061FA20464030808BFFF728F8DB49FEF7F1
:1014900007FFFFF74DF802460B46297DD8A005F05F
:1014A00051FADFA005F04EFA208F00281FD0FFF779
:1014B00015F8D249FEF7F4FEFFF73AF802460B465C
:1014C000DEA005F03FFA687AFFF708F80090A87AE6
:1014D000FFF704F8E049FEF7A6FE0099FEF7E0FEEC
:1014E000FFF726F802460B46DCA005F02BFAA08F8A
:1014F00000281FD0FEF7F2FFC049FEF7D1FEFFF72C
:1015000017F802460B46DAA005F01CFA687AFEF7D7
:10151000E5FF0090A87AFEF7E1FFCF49FEF783FED2
:101520000099FEF7BDFEFFF703F802460B46CBA07D
:1015300005F008FA52484030408900280BD0FEF7E9
:10154000CDFFAE49FEF7ACFEFEF7F2FF02460B46BA
:10155000CEA005F0F7F9217B002910D0D2A005F02C
:10156000F1F94748C030006CFEF7E2FF02460B4637
:10157000D2A005F0E7F9B98AD5A005F0E3F9B07A71
:10158000012803D1E17AD7A005F0DCF9A87C002876
:1015900015D07AA005F0D6F9A97CD9A005F0D2F92A
:1015A00037484030C08AFEF799FF9449FEF778FE2D
:1015B000FEF7BEFF02460B46D8A005F0C3F9E87B54
:1015C00001280DD16DA005F0BDF9DDA005F0BAF937
:1015D000B989E0A005F0B6F9398AE4A005F0B2F9BE
:1015E000274E4036708B002806D064A005F0AAF97B
:1015F000718BE4A005F0A6F9E87B002806D05FA077
:1016000005F0A0F9E97BE5A005F09CF9A078012898
:1016100009D15AA005F096F9E8A005F093F9A17850
:10162000EFA005F08FF9E078012809D153A005F06B
:1016300089F9EFA005F086F9E178F7A005F082F9C5
:101640000F4E2036B07A002806D04CA005F07AF96B
:10165000B17AF6A005F076F9A878012806D147A05E
:1016600005F070F9A978F6A005F06CF9F9A005F07D
:1016700069F96879012801D10A20E086FEBD0000E1
:10168000400000200A0D3D3D3D3D3D3D3D3D3D3D81
:101690003D3D3D3DAAACBA417363616E3D3D3D3D6C
:1016A0003D3D3D3D3D3D3D3D3D3D3D3D3D3D3D00A7
:1016B0006666666666664A3F0000A0413333333390
:1016C0003333FD3F0A0D20ABDDBEF7A457ADAD5659
:1016D000203D2025322E336620562F2049203D20E4
:1016E00025322E326620412F204144203D202564A2
:1016F000000000000A0D20A5D8AB65202020205650
:10170000203D2025322E336620562F2049203D20B3
:1017100025322E326620412F204144203D20256471
:10172000000000000A0D20ABDDBEF7A455ADAD569C
:10173000203D2025322E336620562F2049203D2083
:1017400025322E326620412F204144203D20256441
:10175000000000000A0A0D20ADADA6ECB0F5A6E62B
:101760004144203D202564000A0A0D20B942C2E010
:10177000A6B8BCC6203D2025640000000A00000079
:101780000A0D20A8BEA7A8B0F2B7C74144ADC83A19
:10179000000000000A0D204144435F4F50454E5F5A
:1017A0004D41585F313675203D2025640000000012
:1017B0000A0D204144435F434C4F53455F4D415810
:1017C0005F313675203D2025640000000A0D20A5FC
:1017D000D8AB65AAF9AAACBA41203D2025642020E7
:1017E00028303AB0B1A4EE2F313AB67DAAF9A4A4BC
:1017F0002F323AC3F6AAF9A4A42900000000204120
:101800000A0D20BD77A842B942C2E0AAACBA412075
:101810003D202564202825322E3066ACED290000BD
:101820000A0D2028313AAAECAC712F323AA4A4ACAC
:10183000712F333AA7C0AC71290000000A0A0D20AD
:10184000B67DAAF9B3D1BE6CAEC9B6A1203D2025A4
:10185000322E3166207300000000C8420A0D20B904
:1018600042C2E0B374ABD7203D2025332E32660050
:101870000A0A0D20C3F6AAF9B3D1BE6CAEC9B6A14F
:10188000203D2025322E3166207300000A0A0DC348
:10189000F6AAF9B5A5ABDDAEC9B6A1203D2025322B
:1018A0002E316620730000000A0A0DA8BEC0A3AA4C
:1018B000ACBA41203D202564000000000A0A0DA8B2
:1018C000BEC0A3ACC9C576ADAB203D2025660000E7
:1018D0000A0A0DA8BEC0A3ACC9ADADADC8203D205D
:1018E000256400000A0A0DB1B2B5A1C3F6AAF9AA8F
:1018F000ACBA4153545F436C6F73653D202564005F
:101900000A0D20A8BEA7A8C4B2B56F31B67DAAF94A
:1019100032C3F6AAF9282564290000000A0A0D201E
:10192000B67DAAF9A8BEA7A8B0B1A4EEB5A5ABDD57
:10193000AEC9B6A12825322E3066ACED29000000D4
:101940000A0D20B942C2E04144ADC828A759AEC92A
:10195000293A00000A0D204144435F4F50454E5F35
:101960004D41585F62203D20256400000A0D204152
:1019700044435F434C4F53455F4D41585F62203DA8
:10198000202564000A0D20544D5F4144435F526599
:101990006C616F64203D2025640000000A0D204129
:1019A00044435F4465746563745F53746172745F2C
:1019B000466C6167203D2025640000000A0D202F41
:1019C0002F2F2F2F2F2F2F2F2FACF5A57EBD75B0CA
:1019D000BBB4FAC4B2B56F5C5C5C5C5C0000000038
:1019E0000A0D20466C61675F4952203D2025640046
:1019F0000A0D202F2F2F2F2F2F2F2F2F2FB7CFC391
:101A0000FAB750B4FABEB9B0BBB4FAC4B2B56F5CA1
:101A10005C5C5C5C000000000A0D20466C61675F46
:101A2000534D4B203D202564000000000A0D20B8D6
:101A3000C1BBEFBEB9AAACBA41203D20256400006D
:101A40000A0D20ADADA6ECB0BBB4FAB67DA96C28EA
:101A5000256429000A0D00007D21890148430749BA
:101A600048610020886101220A610A69D30701D018
:101A7000D203FAD5086188617047000000E000E0F9
:101A800070B51248124D807D01281CD00122012121
:101A9000284601F096F90D482030808F00280CD0A0
:101AA0000A4CE034A069FFF7D7FF01220221284643
:101AB00001F087F9A069FFF7CFFF064802F016F89A
:101AC000002802D0FEE70022E1E770BD20000020E0
:101AD00000040048F401002070B51048104D807DCE
:101AE000012818D001220121284601F06AF90B4C87
:101AF000E034A069FFF7B0FF01220221284601F07F
:101B000060F9A069FFF7A8FF092000224021C00664
:101B100001F057F970BD0022E5E700002000002029
:101B20000004004870B51248124D807D01281CD079
:101B300000220121284601F044F90D482030008F91
:101B400000280CD00A4CE034A069FFF785FF012281
:101B50000221284601F035F9A069FFF77DFF06480C
:101B600001F0C4FF002802D0FEE70122E1E770BDCA
:101B70002000002000040048F401002070B5104847
:101B8000104D807D012818D000220121284601F047
:101B900018F90B4CE034A069FFF75EFF0122022127
:101BA000284601F00EF9A069FFF756FF0920002230
:101BB0004021C00601F005F970BD0122E5E70000F3
:101BC000200000200004004810B50E4C02212046E1
:101BD00001F0F2F8002813D00B4801F097FF00281D
:101BE00000D0FEE7092001224021C00601F0E9F8FB
:101BF00000220221204601F0E4F804A004F0A2FE35
:101C000010BD000000040048F40100200A0D20531C
:101C1000544F507E3100000010B5104C0221204678
:101C200001F0CAF8002818D00D4801F06FFF002815
:101C300000D0FEE7092001224021C00601F0C1F8D2
:101C400000220221204601F0BCF801221146204664
:101C500001F0B7F803A004F075FE10BD00040048C1
:101C6000F40100200A0D2053544F507E3200000032
:101C700070B50F4D0221284601F09EF8002816D0BD
:101C8000092001224021C00601F09BF8094CA069FF
:101C9000FFF7E2FE00220221284601F092F8A06937
:101CA000FFF7DAFE00220121284601F08AF870BD14
:101CB0000004004800010020F8B55B4BD87E0128E5
:101CC0004DD100211E46D976203EB0791A466032A9
:101CD000864650889D7A8446B07C009014463046F3
:101CE000012740344030002D02D0012D21D02FE0BB
:101CF0007346002B05D0012B06D0022B06D0F171C4
:101D000024E0F171017321E0F7715BE0009B022B8D
:101D10001ED00223F3710187138D8387143BC38781
:101D20006346D3870A23A3803F4BF1704033597534
:101D30000EE03D4D76462035ED7A002E10D0012E76
:101D40003AD0022E46D0384B203BD971018781878B
:101D5000038F808F034302D0322050839183F8BDDC
:101D6000314C203CE679012E02D0022E0BD020E02F
:101D7000058FD5800187002D01D01F7719E01977D5
:101D80005977997715E0868F1681012D02D0022DA3
:101D900008D00DE0002E01D05F7709E059770223CB
:101DA000C37205E0002E01D09F7701E09977C772DA
:101DB0008187E1710173CBE71B4D203DEF711977EE
:101DC000597799778187138D03876346D3870A23D1
:101DD000A380BDE7009E022EBAD0134E0227203EFC
:101DE000F77101871F7F012F04D0012D04D0022D30
:101DF0000DD011E0138D0EE05B7F002B05D0138911
:101E000083879BB20A3BC38706E0538DF8E79B7F2D
:101E1000002B07D0138983876346D3870A23A380C7
:101E2000F17095E7E388F6E720000020F8B5154C3F
:101E3000607E0A2824D1607925460A27002660356D
:101E4000012812D001206071AE72FFF795F8FFF7FC
:101E500093F8FFF791F8FFF78FF8FFF78DF80A482E
:101E600002F008F8002807D0FEE76671064801F086
:101E7000E4FF002802D0FEE702F0D2FEAF726676E1
:101E8000F8BD0000000000203402002010B5054815
:101E90004169890704D502214161084600F07CFCB4
:101EA00010BD00000004014010B505484169090754
:101EB00004D508214161084600F06EFC10BD000009
:101EC0000004014010B514494869400501D50815C2
:101ED0001FE04869000505D50120C00219E000F0A7
:101EE0005BFC10BD4869C00402D50120000310E06E
:101EF0004869000602D580204861F0E7486900047F
:101F000002D50120C00304E048698004E9D501201E
:101F100040034861E3E700000004014000B51B48AE
:101F200087B042690121C9040A43426142690A40FB
:101F30000592426949100A43426142690A4005928A
:101F4000426909010A43426140690840059010480E
:101F500001900020029007208002009069460D4801
:101F600000F086FE8020009069460B4800F080FE5D
:101F70000520400300906946084800F079FE0022E1
:101F80000121072001F07EF907B000BD00100240DA
:101F90000000211000080048001400480004004818
:101FA00070B50AA004F0CEFC01220C4DD4022146EB
:101FB000284600F006FF0A488069FFF74DFD002221
:101FC0002146284600F0FDFE70BD00000A0D2D2DB3
:101FD0002D2D4558545F434E540000000004004826
:101FE00000010020F8B5054604462035287D00266E
:101FF000012808D001202875206881688907890F89
:10200000012908D101E00220F8BD0168C90738D1D3
:10201000C168090435D4A16BFF2201329143022229
:102020001143A163C1688907890F0091C1688908BC
:102030008900C1602068816892071143816000F0C7
:10204000C7FE07460EE000F0C3FEC01B022809D9F8
:10205000A06B0221884310210843A063002028754B
:102060000120F8BD206880680028ECDB2068C1688A
:10207000009A1143C160A06B80088000401CA063DF
:1020800004E0A06B20210843A063012600202875EE
:102090003046F8BDF8B50025044620340095227D71
:1020A000012A39D00122227503689E68760767D419
:1020B000384F4E68BE424DD09E6A0F78BA401643E4
:1020C0009E620123C26A1B079A421FD0012A1DD0BB
:1020D000022A1BD0032A19D0042A17D0052A15D0AA
:1020E000062A13D0072A11D002688B685669760732
:1020F000760FB3420AD05369DB08DB0053610068F6
:1021000042690B7A5B075B0F1A4342610A68102A27
:1021100004D0112A02D038E00220F8BD1E4883689E
:10212000102A07D001229205134383600868102803
:1021300003D02AE00122D205F6E7194817490068C2
:10214000FDF7D2FF0A21484300E0401E009000281E
:10215000FBD11AE0986A0E78B24090439862096801
:10216000102901D0112910D10B488268102904D000
:10217000012189058A43826007E00121C905F9E749
:10218000816B2022114381630125002020752846A0
:10219000F8BD0000011000000027014040420F0080
:1021A000540100207047704770B504003BD0A06B0D
:1021B00002210843A0632046FEF77EFC0026054668
:1021C000002832D0012D2AD021684A689F208243FE
:1021D0004A60216808602068C168184A1140C160DF
:1021E0002068016989008908016120684169C9087E
:1021F000C90041612068016A114A114001622068EA
:10220000816AC90CC90481620E4881680322920563
:1022100091438160204600F0D5F8E663A663203440
:102220002675284670BD012070BD2046FEF7B5FC1E
:1022300005460128F3D00120A063C5E700023E83D4
:1022400000F000F00027014070470000F8B50026BC
:102250000446002805D0A06B25462035002802D072
:1022600007E00120F8BD0020E0632875204600F05B
:10227000BDF8A06B1022C006002870DB20688168C2
:1022800049076CD4A16B1301994302231943A1633D
:1022900081688907890F012905D10168C9070FD114
:1022A000C16809040CD4C16818239943A368194371
:1022B000C160206801696368890089081943016168
:1022C0002068C1683D4B1940C160207E617E80035B
:1022D000C9030843A17E4B031843A36A012B02D014
:1022E00001231B0300E000231843E368184323691C
:1022F000022B09D0002318432B79E57E5B0018439D
:102300000123012D02D00AE00423F4E7002927D09D
:10231000A16B20252943A163E16B1943E163E169C6
:102320000D46FF3DC23D02D0256A2943084321687E
:10233000CD680543CD600125E16A2D07A94213D080
:10234000012911D002290FD003290DD004290BD067
:10235000052909D0062907D0072905D010E028E073
:10236000012109040843DAE721684D69ED08ED0011
:102370004D6121684D69A78D7F077F0F3D434D61FA
:102380002168C9680E4D2940814207D10020E063D1
:10239000A06B80088000401CA06308E0A06B0221B5
:1023A00088431043A063E06B1843E0630126304686
:1023B000F8BDA06B1043A063F8E700001902FEFF10
:1023C000E7FF3F8310B50848C26841150A43C26061
:1023D000C2688A43C26082698A43826109200121FE
:1023E000C00600F06FF910BD0010024070B5204922
:1023F00086B04A6905460120400402434A614A69A1
:10240000024005928A69001202438A618A69024089
:1024100005924A69012002434A6149690026014048
:102420000591009003200190092069460296C0069C
:1024300000F01EFC0F48104C41C4802026606060F4
:102440004000A0608000E06020202061C001606149
:102450000948083C00F062F8204600F0D3F82C63ED
:10246000002203210920656200F00CFF06B070BD58
:10247000001002400800024064040020F7B5044642
:1024800000680025806840073DD426462036307D10
:1024900001280AD001273775607E012807D0204621
:1024A000FEF7AEFB050002D02EE00220FEBDA06BC1
:1024B00016490840FF2101310843A0630020E06372
:1024C0003075216B12488862216B1248C862216BFB
:1024D0001148086321681C200860206841681022A8
:1024E000114341602068C1683943C1602168206B95
:1024F0004031029B019A00F0AFF820688168042205
:102500001143816000E002252846FEBDFEF1FFFF79
:102510000B0B0008910B0008770B000870B5040046
:102520001FD0206801684908490001602068002523
:10253000056020684560206885602068C560204689
:10254000FEF7EEFE216C01208840E16B4860A56239
:10255000E56225636563A5632034657025700020FE
:1025600070BD012070BDF0B4C16B0D6801680C68CE
:102570000422066C1346B3402B420DD063070BD5E3
:102580000B689B0602D40B6893430B60016C8A4076
:10259000C16B4A60C16A19E00227B74002462F406A
:1025A00001232032002F15D0A70713D50C68A406ED
:1025B00004D40C680A25AC430C605370036C0221F0
:1025C0009940C36B596000211170816A002916D0AF
:1025D000F0BC08470827B7402F4210D024070ED57B
:1025E0000C680E25AC430C60046C1946A140C46B0A
:1025F00061608363537000211170016BE6E7F0BCEA
:102600007047000070B5040021D002212046203020
:1026100005464170226811680E48A3680140606851
:1026200026691843E3683343184363691843A36971
:102630001843E3691843084310602046FEF770FE14
:102640000021A163012068702970084670BD012037
:1026500070BD00000FC0FFFFF8B504468C46203067
:1026600001780025012909D001260670417800274C
:10267000012905D0077002252846F8BD0220F8BDC3
:1026800002214170A7632068016849084900016080
:1026900061462046FEF756FEE06A00282068016881
:1026A00002D00E22114306E00A2211430160206885
:1026B0000168042291430160206801683143016090
:1026C000DAE70000F0B5002258E0012393401C46F1
:1026D0000C4052D096082B4DB6007519AF68AC4629
:1026E00095072E0F0F25B540AE463D400927FF0642
:1026F000B84201D100270FE0234FB84201D1012792
:102700000AE0224FB84201D1022705E0204FB8422B
:1027100001D1032700E00527B740AF4212D11D4D7C
:102720002E68A6432E606E68A6436E60AE68A64310
:10273000AE60EE68A643EE606546AD687446A5439C
:102740006446A560056856000324B440A5430560AF
:10275000D508AD002D182E6AAC465507EF0E0F2593
:10276000BD40AE4365462E628568A54385604568D9
:102770009D434560C368A343C360521C0B46D340CE
:10278000A3D1F0BD0000014000040048000800484B
:10279000000C004800040140F8B50546DDA004F037
:1027A000D1F8E049002048730C468873403420700B
:1027B000C879DC4E607201218446A072C902374696
:1027C00028466B1A0922203701256036884230D00E
:1027D0001ADC022870D008286FD080286ED0012122
:1027E000890288426BD1B272CE4800224276E278EA
:1027F000012A64D00079012861D0707A2843707270
:10280000787D01285CD089E0581AC7497ED0401AEB
:102810007DD003214903884251D1E570FFF7D4F9F7
:102820006420FFF719F9BF48FD7685710572042011
:10283000ADE0BC48417E491CC9B241760A2919D095
:10284000B272E17801293AD00179012937D001210A
:10285000F976002585712573C573B17A092900D0F1
:10286000B572717A0222114371720746C07801284D
:1028700003D00AE00021B172E3E7AA4EABA0803694
:10288000718904F05FF8308E7081A078012801D141
:10289000A5703D73208FA18F0246084301D001200F
:1028A000A071002A01D0022002E0002901D00420FA
:1028B0003872BD74A5A0AEE018E1FCE0AEE067E0C0
:1028C000A54800F079FA6073964E1AE0707B401CC0
:1028D0007073A2A004F036F8012189029E4800F02E
:1028E0006BFA6073707BF97B88420AD920780028E4
:1028F00001D1FFF743F925709EA004F023F8FFF7FC
:102900003DF9607B0028E1D0717B01E026E0BCE06E
:102910009DA004F017F82078012803D0607A0228DF
:1029200004D014E0FFF7A4F99CA074E0A0A004F088
:1029300009F8FFF749F96420FFF78EF8794900227A
:102940008D700846227380304388C3870A74E5710E
:102950007448FD76857105729CA05CE0B272714886
:1029600000224276E278012A12D0827C022A0FD01D
:10297000007901280CD0A078012807D0707A0422B1
:1029800010437072787D012803D028E00320B072D4
:10299000F8BD6549704800F00FFA6073614E14E0AD
:1029A000707B401C70738CA003F0CCFF5E496A48BA
:1029B00000F002FA6073717BF87B814205D92570C3
:1029C0008BA003F0BFFFFFF787F8607B0028E7D0FC
:1029D000717B6DA003F0B6FF20780128A2D0607A49
:1029E000012810D172A003F0ADFFFFF7EDF86420CD
:1029F000FFF732F84B4900208D700A462073803271
:102A00005388D387087425724648FD760221817168
:102A1000032101727CA003F095FFF8BD7DA003F0B7
:102A200091FF404900204876F87D0128F5D18021AA
:102A30007B4800F0C1F960731EE03A48817B79A0C1
:102A400003F080FF37483749807B401C8873802122
:102A5000734800F0B1F960733248397C807B88425A
:102A60000AD93048017901290AD00571657305201A
:102A7000B07273A003F066FF607B0028DDD0F8BD64
:102A800000210171657372A0F4E76046022802D04C
:102A9000A08F0028F3D00020A087A570FFF794F83E
:102AA0006420FEF7D9FF1F48FD7685711E21017352
:102AB000057202206BE71B48017A491CC9B20172FA
:102AC000042900D90572B272017A012906D00229BF
:102AD0000AD0032904D0042904D105E0857101E05E
:102AE00002218171FD76F8BD0021FAE7208F0028D0
:102AF00001D01E2000E0BE20FEF7AEFF092002211B
:102B0000C00600F059F90028EDD1FFF75DF855A097
:102B100081E700000A0DB1B1A8EEBEB9ABFCA54F2C
:102B20003A20000000000020001000000A0DADABAC
:102B3000B773B8FCA44AB5A5ABDDC3F6AAF9AEC914
:102B4000B6A13A202564206D730000000A0D53548D
:102B50004F50210A00000000000800480A0D4F50A5
:102B6000454E206B65792E2E2E2E2E707265737356
:102B70000A0000000A0D4A4F47204D6F64653A4F26
:102B800050454E2E2E2E0A000A0D436F6E74696E4C
:102B90007565203D2025640A000000000A0D446F81
:102BA0006F722053746F702E2E2E2E2E0A0000008E
:102BB0000A0D2D2D2D2D2D2D2D2DA5DFA759A4CF9F
:102BC000C2E02D2D2D2D2D2D2D2D00000A0D4F5045
:102BD000454E210A000000000A0D434C4F5345208A
:102BE0006B65792E2E2E2E2E70726573730A00007F
:102BF0000A0D4A4F47204D6F64653A434C4F534589
:102C00002E2E2E0A000000000A0D436C6F73652102
:102C10000A0000000A0D4C6F636B210A00000000DF
:102C2000001400480A0D4C4F434B206B65792E2E43
:102C30002E2E2E70726573732025640A000000002A
:102C40000A0D4C4F434B7E7E7E7E7E7E210A000025
:102C50000A0D554E4C4F434B7E7E7E7E7E7E210A72
:102C6000000000000A0D204F4320576F726B0000D8
:102C7000F8B500238DE001249C40A44622407DD07D
:102C80004C68022C01D0122C0CD1DC08A4002718AF
:102C90003C6A5D07ED0E0F26AE40B4430E69AE40B0
:102CA00026433E6205685E000324B4400F79A543C5
:102CB000BF07BF0FB7402F4307604D68012D05D0F8
:102CC000022D03D0112D01D0122D0ED18568CF68B1
:102CD000A543B7402F43876047686546AF430D79EA
:102CE000ED06ED0F9D403D434560C568A5438C68EA
:102CF000B4402C43C4604C68E40049D5284CA56915
:102D000001263543A561A4699D0834400094254CF3
:102D1000AD002F19BC689D072E0F0F25B540AC43A1
:102D20000925ED06A84201D100250FE01E4DA8425D
:102D300001D101250AE01D4DA84201D1022505E07F
:102D40001B4DA84201D1032500E00525B5402543D0
:102D5000BD60184C25684E689543F60300D51543B1
:102D6000256065684E689543B60300D515436560D8
:102D7000A5684E689543F60202D500E008E01543C9
:102D8000A560E5684E689543B60200D51543E56039
:102D90005B1C0A681446DC4000D06CE7F8BD0000FC
:102DA00000100240000001400004004800080048F4
:102DB000000C0048000401400069084000D00120D8
:102DC0007047002A01D0816170478162704700001E
:102DD00001488068704700005801002070B5024625
:102DE00040325378202B1CD11378012B19D00123AA
:102DF000137024245470046825689D43256004687A
:102E000025681E03B5432560046825680D432560C9
:102E10000068016819430160202050700020107084
:102E200070BD022070BD406C7047000070B504009A
:102E300006D02546403568780026002802D005E0F7
:102E4000012070BD2E70204600F09AF92420687091
:102E5000206801684908490001600F21606809067F
:102E600088432168086121688A680120C003824381
:102E70008A60E1680129A16808D0212292021143E9
:102E800022689160E168022902D005E00143F7E77A
:102E900001212268C902516021684A680F4B1A4318
:102EA0004A602168CA688243CA6061692069084330
:102EB000A169090208432168C860216AE0690843E2
:102EC000216808602068016801221143016066647E
:102ED000202068702663AE70002070BD0080000264
:102EE000FFB5054604464035687883B0202875D183
:102EF0000C98002814D00D98002811D028780128AB
:102F00006CD001202870FFF763FF07460122009074
:102F10001923D103204601F053F9002874D103E0AE
:102F20000120400260646FE0222068704020A87099
:102F3000002666640C9860620D98608566630E9842
:102F40000090019704A90EC9204601F0C5F8002899
:102F500001D02E7058E0618D3448FF2905D9FF2239
:102F6000228501231B06009006E0618D21850090DB
:102F7000208D0123C2B25B062046049901F00CF9B2
:102F800000970022042120460E9B01F019F9002829
:102F90003AD12068406A616A0870606A401C6062C9
:102FA000208D401E81B22185608D401E6085608D20
:102FB00000281FD000291DD1009700228021204623
:102FC0000E9B01F0FDF800281ED1608DFF2806D968
:102FD000FF22228501231B06009607E024E0608D76
:102FE00020850096208D0123C2B25B0620460499FD
:102FF00001F0D2F8608D0028C2D13A4620460E99E1
:1030000001F005F9002802D0012007B0F0BD2068CA
:103010002021C16120684268054B1A4042606970F6
:10302000AE702E700020F0E70220EEE70024008052
:1030300000E800FEFFB5054604464035687883B0D9
:10304000202872D10C98002814D00D98002811D097
:103050002878012869D001202870FFF7B9FE0746BB
:10306000012200901923D103204601F0A9F800287D
:1030700071D103E00120400260646CE0212068709F
:103080004020A870002666640C9860620D986085E8
:1030900066630E980090019704A90EC9204601F0BE
:1030A0004BF8002801D02E7055E0608DFF2805D91F
:1030B000FF22228501231B06009606E0608D2085F5
:1030C0000096208D0123C2B25B062046049901F0D0
:1030D00063F83A4620460E9901F0BFF800283AD12D
:1030E000606A216800788862606A401C6062608D56
:1030F000401E6085208D401E80B22085618D002994
:103100001FD000281DD100970022802120460E9B51
:1031100001F056F800281ED1608DFF2806D9FF2245
:10312000228501231B06009607E024E0608D2085A0
:103130000096208D0123C2B25B062046049901F05F
:103140002BF8608D0028C4D13A4620460E9901F034
:103150005EF8002802D0012007B0F0BD20682021D1
:10316000C16120684268054B1A4042606970AE70C8
:103170002E700020F0E70220EEE7000000E800FEDD
:1031800030B58BB0202005901020089005A800F0E5
:103190007DF816484269012189040A434261426967
:1031A0000A40099242690A43426142690A4009920F
:1031B000C269C9000A43C261C0690124084009907C
:1031C00040200090122001900320094D03900294AA
:1031D000694604942846FFF74BFD8020009069461D
:1031E00004942846FFF744FD0BB030BD00100240A8
:1031F000000400480248816802788918816070479D
:103200005801002010B506480168102211430160E2
:10321000032000F007F800F027F8002010BD0000A0
:103220000020024070B504460D4D7D202978C00075
:10323000FCF75AFF01460B480068FCF755FF00F009
:1032400031FB002809D1042C07D200222146401E60
:1032500000F018F800206C6070BD012070BD000007
:10326000580100205401002070470000002805DBB1
:10327000C106C90E0120884001490860704700005E
:1032800000E100E010B503F0A9FB10BDF8B505465C
:103290000068354CC00352D5E0690026C00007D451
:1032A000E16920040143E161E169014001260091E7
:1032B0002E480168C90510D40168821511430160C8
:1032C000FFF786FD074604E0FFF782FDC01B642878
:1032D00024D826480068C005F6D5206A03273F0297
:1032E000384020D06968394081421CD0206A226A67
:1032F000B843012109040A432262226A8A432262F6
:103300002062C0070FD0FFF763FD009008E0FFF7D1
:103310005FFD0099411A1648814201D90320F8BD8A
:10332000206A8007F3D5206A6968B84308432062A1
:10333000002E04D0E169012000078143E161287873
:10334000C00705D0206BA96880088000084320636F
:103350002878800605D5206B10218843E96808434A
:1033600020630020F8BD0000001002400070004003
:1033700088130000F8B50F46060059D03A4D28686A
:10338000C007C00FB84209D228684008400038433F
:1033900028602868C007C00FB84249D13068334C54
:1033A00081070CD5400704D560680721090208434E
:1033B00060606068F0218843B168084360603078DD
:1033C000C00726D0706801280ED0216802280ED0D0
:1033D000890700292CDA6168890889000143616046
:1033E000FFF7F6FC00900DE021688903F1E7890101
:1033F000EFE7FFF7EDFC0099411A1D48814201D922
:103400000320F8BD60680C2108407168890088427B
:10341000EFD12868C007C00FB8420BD92868400810
:103420004000384328602868C007C00FB84201D068
:103430000120F8BD3078400706D5606807210902F1
:103440008843F1680843606000F028F86168094A21
:103450000906090F515CC840074908600320FFF7BF
:10346000E1FE0020F8BD00000020024000100240F4
:1034700088130000F4750008540100200448054931
:1034800000684968044A4905490F515CC8407047C3
:1034900054010020001002400476000810B514A367
:1034A0000FCB88B06C460FC415A30FCB0FC4184ABE
:1034B00051680C200B4603401648042B16D0082BED
:1034C00014D18B021B0F6C46E45CD26A04AB12076A
:1034D000120F9A5CC90305D500231946FCF71AFEA2
:1034E000214601E020460C4903F053FA08B010BD14
:1034F00002030405060708090A0B0C0D0E0F101035
:103500000102030405060708090A0B0C0D0E0F1033
:103510000010024000127A0000093D00FEB50400D0
:1035200070D02078DC4DC0074AD068680007800F53
:10353000012807D068680007800F022809D1686851
:10354000C00306D5286880033AD560680028E7D014
:1035500036E06168012914D001208004002901D0DF
:10356000052914D02A68012109048A432A602968A0
:10357000814329606068002816D0FFF729FC0646C1
:103580000EE028680121090408432860F2E7296851
:1035900001432960F5E7FFF71BFC801B64286ED808
:1035A00028688003F7D50BE0FFF712FC064604E01D
:1035B000FFF70EFC801B6428F1D828688003F7D43D
:1035C00020780126800700283CDA68680007800F11
:1035D00007D068680007800F022809D16868C00317
:1035E00006D42868800716D5E06801280AD112E0C1
:1035F000E0680028286816D030432860FFF7E8FB11
:10360000074605E043E1FFF7E3FBC01B0228C6D8ED
:1036100028688007F7D52868F82188432169C90000
:10362000084328600EE0400840002860FFF7D0FB08
:10363000074604E0FFF7CCFBC01B0228AFD8286880
:103640008007F7D42078000722D5E0690028686A4F
:103650000ED030436862FFF7BBFB074604E0FFF77C
:10366000B7FBC01B02289AD8686A8007F7D50FE01D
:10367000400840006862FFF7ABFB074605E09DE0AD
:10368000FFF7A6FBC01B022889D8686A8007F7D419
:10369000207804274007002860DA00200190E869BC
:1036A000C00008D4E969B8060143E961E96901404D
:1036B00001200091019079480168C90511D4016881
:1036C000821511430160FFF783FB009005E0FFF7CF
:1036D0007FFB0099401A642870D870480068C005C4
:1036E000F5D5A06801280AD0002801D0052810D0FF
:1036F000286A400840002862286AB84301E0286A26
:1037000030432862A068002812D0FFF761FB0090C8
:103710000AE0286A38432862F1E7FFF759FB00996D
:10372000411A5F48814249D8286A8007F5D50DE0E3
:10373000FFF74EFB009006E0FFF74AFB0099411AA5
:10374000574881423AD8286A8007F5D40198002862
:1037500004D0E969012000078143E9612078C006AF
:1037600035D5606901280CD0401D686B23D03843E3
:103770006863686B400840006863FFF729FB0646F2
:1037800022E0686B38436863686B30436863FFF717
:103790001FFB064604E0FFF71BFB801B02285BD8DB
:1037A000686B8007F7D5686BF8218843A169C90069
:1037B000084368630BE0B8436863F4E74CE0FFF745
:1037C00007FB801B022847D8686B8007F7D4206A64
:1037D00000285ED069680907890F022942D00126B6
:1037E00036060228286805D0B0432860FFF7F0FAB3
:1037F000044633E0B0432860FFF7EAFA074604E0E6
:10380000FFF7E6FAC01B022826D828688001F7D403
:10381000E86AE16A000900010843E862616AA06A97
:10382000084369683D221204914308436860286890
:1038300030432860FFF7CCFA044604E0FFF7C8FAEB
:10384000001B022808D828688001F7D521E0FFF77F
:10385000BFFA001B022801D90320FEBD28688001A1
:10386000F5D416E00128F8D06868E96A012212044C
:10387000636A02409A420AD10907E26A090F91423B
:1038800005D10F2189040840A16A884201D0012096
:10389000FEBD0020FEBD0000001002400070004090
:1038A00088130000094910B5401E884201D9012043
:1038B00010BD074C60610321081F03F08FF8002042
:1038C000A06107202061002010BD0000FFFFFF0065
:1038D00000E000E070B50446006801690025C943B6
:1038E0008907002915DBC168C943890711D4E91E7E
:1038F000016101202077206880698007204602D07E
:1039000000F01AF904E000F0C9F9204600F0C7F908
:10391000257720680169C943490717D4C168C9439D
:10392000490713D40421C94301610220207720688C
:1039300080698005800F204602D000F0FDF804E089
:1039400000F0ACF9204600F0AAF92577206801695B
:10395000C943090716D4C168C943090712D408210D
:10396000C9430161042020772068C0698007204690
:1039700002D000F0E1F804E000F090F9204600F0F9
:103980008EF9257720680169C943C90617D4C16833
:10399000C943C90613D41021C94301610820207707
:1039A0002068C0698005800F204602D000F0C4F86E
:1039B00004E000F073F9204600F071F925772068E3
:1039C0000169C943C90708D1C168C943C90704D1FE
:1039D000891E0161204600F02FF820680169C94363
:1039E000090609D4C168C943090605D48021C94321
:1039F0000161204600F03AF820680169C943490690
:103A000009D4C168C943490605D44021C9430161AD
:103A1000204600F011FA20680169C943890609D4DB
:103A2000C168C943890605D42021C94301612046E4
:103A300000F01DF870BD000010B50B48C17A491C9C
:103A4000C9B2C172427A914201D10021C172827A17
:103A50000920C9B2C006914201D2002200E0012231
:103A60004021FFF7AEF910BD0000002070477047FD
:103A700070B5040005D025462035687F002802D0A7
:103A800006E0012070BD00202877204600F00AF8EB
:103A900002206877211D206802F088FD01206877E8
:103AA000002070BD08B510488269012149040A430D
:103AB000826182690A400092826949000A438261F8
:103AC000806900220840009002211520FFF7DAFBF0
:103AD000012202211620FFF7D5FB1520FFF7C6FBB8
:103AE0001620FFF7C3FB08BD001002400268D36830
:103AF00001210B43D360006882685207520F062AE7
:103B000002D002680A430260002070470168CA6858
:103B100052085200CA600068016A064A114207D181
:103B2000016A9210114203D10168490849000160FD
:103B30000020704711110000704770B504460068FE
:103B400001690025C9438907002915DBC168C943FC
:103B5000890711D4E91E016101202077206880695E
:103B60008007204602D0FFF7E7FF04E000F096F858
:103B7000204600F094F8257720680169C943490779
:103B800017D4C168C943490713D40421C94301614B
:103B900002202077206880698005800F204602D0AF
:103BA000FFF7CAFF04E000F079F8204600F077F84C
:103BB000257720680169C943090716D4C168C9433C
:103BC000090712D40821C943016104202077206825
:103BD000C0698007204602D0FFF7AEFF04E000F086
:103BE0005DF8204600F05BF8257720680169C9433D
:103BF000C90617D4C168C943C90613D41021C943E3
:103C00000161082020772068C0698005800F204668
:103C100002D0FFF791FF04E000F040F8204600F0EA
:103C20003EF8257720680169C943C90708D1C168F2
:103C3000C943C90704D1891E0161204600F030F84C
:103C400020680169C943090609D4C168C943090646
:103C500005D48021C94301612046FFF707FF206892
:103C60000169C943490609D4C168C943490605D455
:103C70004021C9430161204600F0DEF82068016957
:103C8000C943890609D4C168C943890605D42021DE
:103C9000C94301612046FFF7EAFE70BD70477047D7
:103CA000F8B5634C208A2746401C80B22082E18907
:103CB000203F491CE181A189491CA1810A280FD11B
:103CC000787B02F06DFC7873F87B02F069FC254686
:103CD000F873803DE87D02F063FCE87500202082E7
:103CE000E08964287DD1524E403E308F02F058FC6E
:103CF0003087B08F02F054FCB087E08F02F050FCA8
:103D00003546E0878035288802F04AFC288068889C
:103D100002F046FC6880A88802F042FCA880A088D7
:103D200002F03EFCA080F08E02F03AFCF086A08DFE
:103D300002F036FCA085608902F032FC6081E08AE6
:103D400002F02EFCE082608B02F02AFC6083F08F90
:103D500002F026FCF087E88D02F022FCE885E88F6F
:103D600002F01EFCE887C036F08902F019FCF081F1
:103D7000288D02F015FC2885688D02F011FC6885FD
:103D8000A88D02F00DFCA885288F02F009FC288779
:103D9000688F02F005FC6887A88F02F001FCA887F5
:103DA000308902F0FDFB3081708902F0F9FB7081EF
:103DB000B08902F0F5FBB081A08B1E49884201D08A
:103DC000401C80B2A083B08A02F0EAFBB082F08A85
:103DD00002F0E6FBF082A08C02F0E2FBA084E08C13
:103DE00000E004E002F0DCFBE0840020E081A08938
:103DF0007D21C90088420FD10D4D0020A081803D5A
:103E0000287B02F0CDFB2873208B02F0C9FB2083B6
:103E1000E08B02F0C5FBE083787B002802D0FDF741
:103E2000B4F8F8BDF87B0028FBD0FDF7A5F8F8BD85
:103E300080000020FFFF0000704770B5040017D01D
:103E400024206067206801684908490001602068F3
:103E5000002505602068456020688560204600F0E8
:103E60003FF8E5676567A56760342574002070BD7D
:103E7000012070BD10B5040003D0606F002802D08F
:103E800007E0012010BD002170200155204600F000
:103E90003FF82420606720680168490849000160F4
:103EA000204602F05DFC0128ECD0606A002802D0B8
:103EB000204602F0BFFB206841680122D2029143F4
:103EC0004160206881680822914381602068016810
:103ED000012211430160204602F012FC10BD0000D7
:103EE00010B50A48C268012189030A43C260C2684A
:103EF0008A43C26009244115E4062046FEF7E2FB2E
:103F0000012189022046FEF7DDFB10BD00100240B2
:103F100030B5174887B04269012149040A4342611C
:103F200042690A40059242690A43426142690A4075
:103F300005928269C9100A438261806901240840A0
:103F40000590481100900220019003200925ED06FC
:103F500003900294694604942846FEF789FEA00265
:103F60000090694604942846FEF782FE07B030BDF3
:103F700000100240FFB50446406F83B017460D465F
:103F800020285CD1002D0AD0002F08D0A168C001E4
:103F9000814207D12069002804D1E80702D001201E
:103FA00007B0F0BD204660300290007C012846D06A
:103FB0000298012101740020E06721206067FEF76C
:103FC00007FF264640360190378277820120A1689C
:103FD0000003814202D12069002802D02F4600252B
:103FE00011E000270FE000228021204602F05CFC57
:103FF000002815D1002F15D02168387808857F1C3E
:10400000708A401E7082708A019B0028069800907A
:10401000E9D100224021204602F046FC002808D0C9
:104020000320BDE728882168C005C00D0885AD1CA8
:10403000E6E720206067029900200874B0E70220BC
:10404000AEE7FEE701688A69D243920701D40022F5
:104050008A6200688169C943C90703D08169012266
:104060001143816170470000F7B5044600680E46B1
:104070008069C043C0062BD42027254640352068E0
:104080008069C043800612D5701CF8D0FEF7A0FEF0
:104090000299401AB04201D8002EF0D1606C38432A
:1040A00060646F700020A87028700120FEBD216838
:1040B0001020C8612068C7612046FFF7C3FF206851
:1040C0004168044A11404160606C04210843E7E7FD
:1040D0000020FEBD00E800FEF8B50446164615486F
:1040E0001D46DAB20090079F0023204600F054F8E6
:1040F0003A462046069900F0B0F8002818D1284624
:10410000F5B2012809D02168300A88623A46204673
:10411000069900F0A2F800280AD12068856200976D
:10412000002240212046069B00F04AF8002800D0DB
:104130000120F8BD00200080F8B504461646154859
:104140001D46DAB2C3020090079F204600F024F813
:104150003A462046069900F080F8002818D12846F3
:10416000F5B2012809D02168300A88623A46204613
:10417000069900F072F800280AD12068856200973D
:10418000002280212046069B00F01AF8002800D06B
:104190000120F8BD00200080F0B50668059C756818
:1041A000064F600D384385438805800D1104084390
:1041B0001843204305437560F0BD0000FF63FF0313
:1041C000F8B51D4617460E46044609E0681C07D0A0
:1041D000FEF7FEFD0699401AA8420BD8002D09D023
:1041E00020688169304688430FD00020B842EDD066
:1041F0000020F8BD616C2020014361644034607090
:104200000020A07020700120F8BD0120EEE770B5FD
:1042100016460D4604460FE0324629462046FFF773
:1042200023FF002801D0012070BDFEF7D1FD801BC7
:10423000A84208D8002D06D020688069C0438006B7
:10424000EAD4002070BD616C2020014361644034D9
:1042500060700020A0702070E5E770B516460D462E
:10426000044611E0324629462046FFF7FDFE0028AD
:1042700001D0012070BD681C06D0FEF7A9FD801B8F
:10428000A84208D8002D06D020688069C043800766
:10429000E8D4002070BD616C20200143616440348B
:1042A00060700020A0702070E3E7000010B50122CC
:1042B00051030248FEF785FD10BD000000080048CC
:1042C000F8B52948007E012843D12748274C2030E3
:1042D000018F808F264F01433CD02246403AB88B55
:1042E000918B1546C03D884207D2042000F074FB34
:1042F000012028750A20F8841CE0D28B891881429D
:1043000013D9032000F068FB02202875A06BFCF78E
:104310000FF905460E46F88EFCF7E8F8154A164BDD
:10432000FBF7FCFF2A4633460EE0042000F054FB66
:1043300003202875F88EFCF7D9F80E4A0E4BFBF7D0
:10434000EDFF0C4A0D4B5242FBF7E8FFFCF704F976
:104350002063F8BDF88EFCF7C9F8064A064BFBF758
:10436000DDFF074A074BEFE7200000200001002097
:10437000800000206666666666664A3F9999F13F4E
:10438000CDCCCCCCCCCCF43F70B5164C01206060C9
:104390000220A0600320E060134D206021462846E3
:1043A000FEF766FC40200926F606206021463046CE
:1043B000FEF75EFC01204003206021460B48FEF71B
:1043C00057FC012240213046FEF7FBFC0022012170
:1043D0002846FEF7F6FC002202212846FEF7F1FCF3
:1043E00070BD0000000300200004004800080048E1
:1043F00070470000F0B56B488BB001468288A03949
:104400000691897A0A4379D10446C03CA1780546D1
:10441000403D002974D0008B6887FCF767F8624A3A
:10442000624BFBF77BFFFCF797F8E11DF931C8649D
:10443000096BFCF7ADF861D809200221C006FEF730
:10444000BBFC00285AD1A888E17D084356D12846F4
:10445000418F8187403D2E8FAF8F00202887A8870E
:10446000FDF7B2FB52A002F06DFAE01DF930C06C0E
:1044700055490290FBF7D7FEFCF75AF8534A544BC4
:10448000FBF7B4FF009001910298FCF751F8224627
:104490008032528F029202460B464EA002F052FA30
:1044A00020468030C08EFCF719F8E11DF931896B88
:1044B000FBF7B9FEFCF73CF802900391E01DF930E0
:1044C000006B41490490FBF7AEFEFCF731F83F4A20
:1044D0003F4BFBF78BFF009001910498FCF728F805
:1044E00002460B4647A002F02DFA20466030002E0F
:1044F00031D00699097D012907D00CE050E0FFE793
:104500000520A8800120A07049E0264940390A8E84
:104510004A810121E170A17CE174022901D10021CD
:10452000A1740121297100226A71C1710272417462
:10453000A176FDF7A5FA1B484038018D891B01843F
:1045400002202072FDF740FB3AA002F0FBF93DA0EB
:1045500002F0F8F909E0002F07D0002129710122AB
:104560006A71C1710272FDF7DDFA002F08D00D48A3
:104570004038018DC91B418404202072FDF74CFB9B
:10458000002E01D00120A0750698807A012802D162
:10459000002E00D0E87200202873A0700220E07383
:1045A0000BB0F0BDC00000206666666666664A3FD6
:1045B0000A0A0DAAF9A8ECA6EC2DB0B1A4EEB942F6
:1045C000C2E0210A0A0000000000A0413333333367
:1045D0003333FD3F0A0D20A5D8AB6520202020569F
:1045E000203D2025322E336620562F2049203D20A5
:1045F00025322E326620412F204144203D20256463
:10460000000000000A0D20ABDDBEF7A455ADAD568D
:10461000203D2025322E336620562F2049203D2074
:1046200025322E326620412F204144203D20256432
:10463000000000000A0A0D20B67DAAF953544F501D
:10464000000000000A0A0D00FEB5664881880029B6
:104650004AD10146A0390191897A012944D10646FF
:10466000C03EB1780546403D002938D00446803C24
:10467000218F0746603F00296AD0008B6887FBF7CF
:1046800035FF594A594BFBF749FEFBF765FF2146B9
:10469000C031C864096BFBF77BFF25D809200221D4
:1046A000C006FEF789FB00281ED13146A888C97DC7
:1046B000084319D12846418F8187208F002500901B
:1046C0002587A587FDF780FA49A002F03BF9208FE6
:1046D000002819D00198007D012806D00DE00520A2
:1046E000A8800120B070F073FEBD3E484038018EB6
:1046F00041813C490120C039C8703A48C038817CAA
:10470000C174022900D18574012626716571FE717C
:104710003D727E74334FC03FBE76FDF7B1F9384627
:104720008030028D0099511A018402203872FDF701
:104730004BFA35A002F006F937A002F003F9BE7576
:10474000E6722587A5872573BD700220F873FEBD2C
:10475000A18F0029FBD0008BFBF7C8FE224A234B18
:10476000FBF7DCFDFBF7F8FE1E494031C864096B1E
:10477000FBF718FF0BD21B484030416BC06CFBF7B6
:1047800011FF04D2A888002801D1307EF0751548A9
:104790004030016BC06CFBF7FBFED8D811484030AD
:1047A000416BC06CFBF7FEFED1D8A888F17D0843B1
:1047B000CDD10FA002F0C6F8002020710121617157
:1047C000F8713972E17A012907D068842087A087BF
:1047D0002073B07004203072FEBD698DA28F891ADB
:1047E0006984F3E7C00000206666666666664A3F35
:1047F0000A0A0DAAF9A8ECA6EC2DB0B1A4EEB942B4
:10480000C2E0210A0A0000000A0A0D20B67DAAF9BA
:1048100053544F50000000000A0A0D00F8B5334D04
:10482000E97B2C46C034002920D027462646803F0D
:10483000403E01291FD0022917D12DA002F082F895
:10484000718B33A002F07EF8A97C37A002F07AF8D1
:10485000E97C3AA002F076F8718BE87C01430020F5
:1048600000292CD0E873E874E873F8BD208BA08190
:10487000E081208221E0F08C0028F6D1E87901283F
:104880000AD00228F1D1F88F0028EED0208B218A9F
:1048900088420FD92082F8BD388F0028FBD0208BAA
:1048A000A189884201D9A081F8BDE1898842FBD263
:1048B000E081F8BD618A8842FBD26082F8BD397917
:1048C00001290AD079790129CDD1218AB28A914270
:1048D000C9D9B182618A6181C5E7A189728A914291
:1048E000C1D97182E1892181BDE70000000000206B
:1048F0000A0D204144435F4465746563745F5374DB
:104900006172745F466C6167203D20256400000081
:104910000A0D20544D5F4144435F52656C616F64E2
:10492000203D2025640000000A0D20416E74695F5F
:104930004576656E74203D20256400000A0D2041F7
:104940006E74695F4576656E745F627566203D20A2
:1049500025640000FEB51C4EB07D012833D1F01D4A
:10496000F930C06B194C010A20706170010CA17004
:10497000000EE07030468030018C2171090A6171AF
:10498000418CA171090AE171418A2172090A61729F
:10499000808AA072000A0827E07200250C4861197D
:1049A0002A46009102900123C8320197A0210948AC
:1049B000FEF740FB0620FDF74FF80835EDB2102D4D
:1049C000ECD30020B075FEBD000000205404002090
:1049D00010270000B402002070B50525042203262C
:1049E00001240F49030001F0ECFF0705080A0C1130
:1049F00014170A008C72022006E08E720AE08A7296
:104A00000BE0632088726420487270BD8C724E7215
:104A100070BD8C724A7270BD8C724D7270BD000098
:104A200000000020F8B56C4C00252646403EA08FC3
:104A30003746203700280AD0208F002807D0FDF7FE
:104A4000C3F82587A58765A001F07CFF49E0012117
:104A500049036848FEF7B0F9A18F002902D0002869
:104A600000D1A587F0796072B87A0028208F04D031
:104A700000280BD0FDF756F833E00028FAD1A08FBC
:104A8000002806D1FDF7A0F8B57029E0A08F002816
:104A900002D0FCF7F5FF24E0B570FDF795F804208F
:104AA0002073F079012818D0022819D1387F012805
:104AB00004D0E07A012803D002280ED101200BE0B7
:104AC0004DA001F03FFF444840300088002804D149
:104AD00049A001F037FF0220E0723D777D77BD7776
:104AE000F571208F062802D8A08F062804D9FFF779
:104AF00081FCFFF7A9FD20E0B97A01291CD100282B
:104B00001AD1354840300088002815D0B07C0028E4
:104B100012D13BA001F016FFE17A3CA001F012FF98
:104B2000E07A012802D0022806D006E02571012093
:104B300060710220F07300E0F573274EA28F4036BB
:104B40003280238F0121C902002B06D009200022C8
:104B5000C006FEF736F9012207E0002A00D0012244
:104B60000920C006FEF72DF90022012109200903C2
:104B7000C006FEF726F9A08F002802D11649203181
:104B80004D75218F014306D1787CFFF725FF208FDB
:104B9000A18F084308D01E20B084218F002918D08F
:104BA000608F002810D014E0B08C0028F5D1114D92
:104BB00001212846FEF700F90028EED0002201214D
:104BC0002846FEF7FEF8E8E70348C030C26B521CE7
:104BD000C2636187F8BD0000400000200A0A0D4E44
:104BE000473AB942C2E0AEC9B6A1A650AEC93E30FE
:104BF00000000000000400485445535420303100A8
:104C00000A0A0D48656C6C6F787878000A0A0D53B3
:104C1000545F436C6F7365203D20256400000000E5
:104C2000F8B5FCF7A9F973A001F08CFE71A001F0B2
:104C300089FE7A4C7AA0616A01F084FE81A001F0BD
:104C400081FEE01FF9380378427F017F87A001F0E1
:104C500079FE68A001F076FE66A001F073FE8EA0DA
:104C600001F070FE94A001F06DFE8BA001F06AFED1
:104C700099A001F067FE2546E03DE97A9FA001F08A
:104C800061FEA97AA2A001F05DFE297BA5A001F03A
:104C900059FE297DA8A001F055FE697DADA001F067
:104CA00051FEA97DB0A001F04DFEE97DB3A001F059
:104CB00049FEA97C91A001F045FEE97CB4A001F079
:104CC00041FE2746C03F7978B6A001F03BFE297E21
:104CD000B9A001F037FE697BBCA001F033FEA97BCF
:104CE000C0A001F02FFEC5A001F02CFE2646803E9C
:104CF000308DFBF7FBFBC64AC64BFBF70FFB0246AA
:104D00000B46C5A001F01EFEF08DFBF7EFFBC04A7D
:104D1000C04BFBF703FB02460B46C9A001F012FE95
:104D2000708DFBF7E3FBBA4ABA4BFBF7F7FA024682
:104D30000B46CDA001F006FE308EFBF7D7FBB44A40
:104D4000B44BFBF7EBFA02460B46D1A001F0FAFD9B
:104D5000708EFBF7CBFBAE4AAE4BFBF7DFFA024699
:104D60000B46D5A001F0EEFDE01FF938007EFBF701
:104D7000BDFBA74AA74BFBF7D1FA02460B46D8A0CA
:104D800001F0E0FD4036B08BFBF7B0FBA04AA14B31
:104D9000FBF7C4FA02460B46DBA001F0D3FDF08B13
:104DA000FBF7A4FB9A4A9B4BFBF7B8FA02460B466B
:104DB000DFA001F0C7FD206BFBF7BAFB02460B46F4
:104DC000E5A001F0BFFDA06AFBF7B2FB02460B466F
:104DD000EBA001F0B7FDE06AFBF7AAFB02460B4629
:104DE000F0A001F0AFFDE97BF7A001F0ABFD297C5D
:104DF000F6E100000A0D2A2A2A2A2A2A2A2A2A2A21
:104E00002A2A2A2A2A2A2A2A2A2A2A2A2A2A2A2A02
:104E10002A2A2A2A2A2A2A2A2A2A2A0000010020A3
:104E20000A0D2A2A2046696E616C204D6F646966FE
:104E30007920446174653A20256420202020202AAE
:104E40002A0000000A0D2A2A204D6F64656C3A2062
:104E50005459472D4E43502D5230312020202020D0
:104E60002020202020202020202A2A000A0D2A2A63
:104E70002056657273696F6E3A2048256456256422
:104E800020542564202020202020202020202020A5
:104E90002020202A2A0000000A0D3D3D3D3D3D3DD9
:104EA0003D3D3D3D3D3D3D3D3D3D3D3D3D3D3D3D32
:104EB0003D3D3D3D3D3D00000A0D3D3D3D3D3D3DFF
:104EC0003D3D3D3DB0D1BCC6B35DA9773D3D3D3DC7
:104ED0003D3D3D3D3D3D00000A0D2A2A2A2A2AA5D6
:104EE0005CAFE0B67DC3F628303AC3F6B3AC202FF2
:104EF00020313AB67DB1D229000000000A0D20AA67
:104F0000F8B4C1B4FAB8D520203A202564000000D6
:104F10000A0D20B1B2B5A1AAF9A55CAFE03A2025EF
:104F2000640000000A0D20A8BEA7A8A55CAFE02081
:104F3000203A2025640000000A0D20A6DBB0CAC379
:104F4000F6AAF920203A2025642028BCD2A6A1295F
:104F5000000000000A0D20A654B0CAA55CAFE020F6
:104F6000203A2025640000000A0D20B942C2E0A4C6
:104F7000E8A65620203A2025640000000A0D20C231
:104F8000EAB971A55CAFE020203A2025640000005A
:104F90000A0D20B4A3A5DCADB5202020203A2025A1
:104FA000640000000A0D20A6DBB0CAB7D3A9FA201E
:104FB000203A2025640000000A0D20BD77B1D2B050
:104FC000CAA55CAFE03A2025640000000A0D20A8C5
:104FD000BEA7A8A55CAFE028B67D2920203A2025F1
:104FE000640000000A0D20A8BEA7A8A55CAFE028B9
:104FF000C3F62920203A2025640000000A0A0D2A61
:105000002A2A2A2AB942C2E0B0D1BCC60000000058
:105010009A9999999999B93F0A0D20B67DC3F6AA34
:10502000F9B3CCA46AB942C2E0AEC9B6A12020202F
:105030002020203A2025342E316620ACED000000DF
:105040000A0D20AAF8B4C1B4FAB8D5B67DC3F6AA41
:10505000F9B6A1B96AAEC9B6A120203A2025342EEE
:10506000316620ACED0000000A0D20B1B2B5A1AA56
:10507000F9C3F6AAF9AEC9B6A128506172742031FD
:105080002920203A2025342E316620ACED00000086
:105090000A0D20A6DBB0CAC3F6AAF9AEC9B6A12094
:1050A00020202020202020202020203A2025342EBF
:1050B000316620ACED0000000A0D20B7D3A9FAAE8E
:1050C000C9B6A12020202020202020202020202020
:1050D0002020203A2025342E316620ACED0000003F
:1050E0000A0D20ABDDBEF7B971C0A3A6A8A5DFA944
:1050F000B5BFF0AEC9B6A120202020203A2025342B
:105100002E316620ACED00000A0D20BD77A842B913
:1051100042C2E028B2C431AC7129202020202020D6
:105120002020203A2025342E316620ACED000000EE
:105130000A0D20BD77A842B942C2E028B2C432AC01
:1051400071292020202020202020203A2025342EC4
:10515000316620ACED0000000A0D20ABDDBEF75635
:105160006F6C742020202020202020202020202050
:105170002020203A2025312E3266285629000000B2
:105180000A0D20A8BEA7A8C576ADAB284F50454E46
:1051900029202020202020202020203A2025322EC7
:1051A000336600000A0D20A8BEA7A8C576ADAB28BF
:1051B000434C4F5345292020202020202020203AF6
:1051C0002025322E336600000A0D20A654B0CAA74F
:1051D00050A977B0D1BCC6202020203A20256400F9
:1051E0009AA001F0AFFB697C9EA001F0ABFBE01F31
:1051F000F938407AFBF772F90546E01FF938807AF2
:10520000FBF76CF99D49FBF70EF82946FBF748F8C8
:10521000FBF78EF902460B4699A001F093FB9FA085
:10522000E16B01F08FFB718BA2A001F08BFBF18A87
:10523000A7A001F087FBF08AFBF758F90022AB4BDF
:10524000FBF76CF80022AA4BFBF7D0F802460B469E
:10525000A8A001F077FBE01FF938C07EFBF746F904
:10526000AB4AAC4BFBF75AF802460B46AAA001F03A
:1052700069FBB1A001F066FBB8A001F063FBB97B4C
:10528000BBA001F05FFBF97BBEA001F05BFB397CAA
:10529000C1A001F057FB308CFBF728F99C4A9D4BCD
:1052A000FBF73CF802460B46C0A001F04BFB708CAC
:1052B000FBF71CF9964A974BFBF730F802460B4672
:1052C000C0A001F03FFBB08CFBF710F9904A914B66
:1052D000FBF724F802460B46C0A001F033FBF08C2C
:1052E000FBF704F98A4A8B4BFBF718F802460B468A
:1052F000C0A001F027FBC5A001F024FBB97D9CA054
:1053000001F020FBF97D9FA001F01CFB397EA2A0DB
:1053100001F018FB308EFBF7E9F87D4A7D4BFAF778
:10532000FDFF02460B46A1A001F00CFB708EFBF7BF
:10533000DDF8774A774BFAF7F1FF02460B46A1A05A
:1053400001F000FBB08EFBF7D1F8714A714BFAF710
:10535000E5FF02460B46A1A001F0F4FAF08EFBF740
:10536000C5F86B4A6B4BFAF7D9FF02460B46A1A072
:1053700001F0E8FAAAA001F0E5FAB97F7CA001F0FB
:10538000E1FAF97F7FA001F0DDFA2046A03801782C
:1053900081A001F0D7FA2088FBF7A8F85C4A5D4BA2
:1053A000FAF7BCFF02460B4680A001F0CBFA6088FA
:1053B000FBF79CF8564A574BFAF7B0FF02460B46EC
:1053C00080A001F0BFFAA088FBF790F8504A514B3B
:1053D000FAF7A4FF02460B4680A001F0B3FAE0887A
:1053E000FBF784F84A4A4B4BFAF798FF02460B4604
:1053F00080A001F0A7FA8FA001F0A4FA97A001F015
:10540000A1FAFBF7B9FD9DA001F09CFA0020A44D84
:105410006064C100A3A001F095FA606CC00005E0D3
:10542000295CA3A001F08EFAA06C401CA064606C03
:10543000C100A06C08318142F2DC606C401C6064E9
:105440002028E6DB9CA001F07DFAF8BD0A0D20C201
:10545000EAB971A750A977B0D1BCC6202020203A64
:10546000202564000A0D20B942C2E0B374ABD728EE
:10547000307E33292020203A202564000000C842D5
:105480000A0D2050574D2044757479204379636C80
:105490006520203A2025332E316600000A0A0DB916
:1054A00042C2E0A6B8BCC620203A25642028A6B88F
:1054B000290000000A0A0D20AAF9A46AA470BFEF0F
:1054C000BEDC20202020202020203A25640000007F
:1054D0000A0D20A8BEA7A8A5B2B6B7B0CAA740AD0E
:1054E000C8284144293A25640000000000A08440F7
:1054F000000001410A0D20A8BEA7A8A5B2B6B7B00A
:10550000CAA740ADC8284129203A25322E3366006B
:105510009A9999999999B93F0A0A0D20B67DAAF9E5
:10552000B7D9A8AEB0CAA740AEC9B6A120203A25C7
:10553000322E3166000000000A0A0D2A2A2A2A2A81
:1055400053746174652D52656C617920706172616C
:105550006D657465722A2A2A2A2A00000A0D3D3DCB
:105560003D544D452D52656C61793D3D3D00000037
:105570000A0D20A6A8A5DFB1F8A5F3413A202564BD
:10558000000000000A0D20A6A8A5DFB1F8A5F3428F
:105590003A202564000000000A0D20B8D1B0A3B164
:1055A000F8A5F3203A202564000000000A0D20A68B
:1055B000A8A5DFAEC9B6A1413A2025342E31662018
:1055C000ACED00000A0D20A6A8A5DFAEC9B6A14229
:1055D0003A2025342E316620ACED00000A0D20B8AB
:1055E000D1B0A3AEC9B6A1203A2025342E31662011
:1055F000ACED00000A0D20BFE9A558AEC9B6A12048
:105600003A2025342E316620ACED00000A0A0D3D0B
:105610003D3D4143542D52656C61793D3D3D000057
:105620000A0A0D3D3D3D504F532D52656C61793D49
:105630003D3D00000A0A0D2A2A2A2A2A5374617461
:10564000652D52656C617920706172616D6574655C
:105650007220456E642A2A2A2A2A00000A0A0D3D71
:105660003D3D3D3D3D3D3DB0D1BCC6B35DA977203C
:10567000456E643D3D3D3D3D3D3D3D000A0A0D3DCD
:105680003D3D3D3D3D3D3D20454550524F4D205017
:1056900072696E74203D3D3D3D3D3D3D3D00000045
:1056A000140300200A0D2052253033643A200000F4
:1056B000253032582C2000000A0A0D3D3D3D3D3D6D
:1056C0003D3D3D20454550524F4D2046696E697322
:1056D00068203D3D3D3D3D3D3D3D0000FEB5FF2187
:1056E000F748F64A01316C4607C401230022A02185
:1056F0006038FDF7F5FB002806D0F1486038FDF76B
:1057000092FB042800D0FEE78021EE48FDF754FB11
:10571000ED490C4648702146274625466031403702
:10572000C0352034009101287ED0E54EE64831781E
:10573000017771784177B1788177F178C1773079E5
:10574000207070796070B079A070F079E070307A74
:105750002071707A6071B07AA071F07AE071307B5C
:105760002072707B6072307DE072707DA072B07DBF
:10577000A073F07D2075307E6075707EA075B07E60
:10578000E075F07EA074307FE074707F7870B07F39
:105790002076F07F60733046018D20466030C185F1
:1057A00030462A30417802780802214610436031A1
:1057B00048853046808D088530462E304178027805
:1057C00008022146104360310886308E4886322018
:1057D000305CFAF783FEBD49FAF762FD2146E031FD
:1057E00088633320305C60763420305CA0763520CE
:1057F000305CE0733620305C20743720305C60749D
:105800003A20305CA8833B20305C0A214843E8837F
:10581000B08F288430463E30417802780802104329
:1058200068844020805B00E07FE02886304642307C
:105830004178027808021043688644202146805B44
:10584000E03108803046463041780278080221462F
:105850001043E03148804820805BE88430464A307D
:105860004178027808021043E8864C202146805B8C
:10587000E031C88030464E3041780278080210434B
:10588000A8845020805BA886304652304178027848
:10589000080221461043E03188805420315C8A4858
:1058A00001765520305C68835620315C8648C1768D
:1058B0006420305CB8736520305CF8736620305C1F
:1058C000B8756720305CF8756820305CB87769205F
:1058D000305CF8776A20305C38746B20305C387646
:1058E0006C20315C0098017077486D214175002073
:1058F000774E734B0146F0635A18C032127ACF00CC
:10590000BA40491C1043C9B20429F5D3F063677E3D
:105910007049714A71483B0001F053F80B5C5456D2
:10592000585A5C5E606264665C000020E072A0729F
:1059300001216173A17320756075A175E175A07473
:10594000E174614B7870FF2220762D328033DA8546
:1059500082225A854B22D2001A8564221A865A86E0
:105960005F4E80339E6305266676A6763226E67302
:105970004B262674032666741426AE835026EE83C7
:10598000B873F87338740A262E841E266E840F2688
:10599000AE84EA84B875F875387614262E866E863D
:1059A0000A26AE86EA86B877F877009E30701E2009
:1059B00018800A20588005209880DA804248698340
:1059C000C17694E70B4611E013460FE0454B0DE01E
:1059D000454B0BE0034609E0444B07E0444B05E030
:1059E000444B03E0444B01E03F231B06B362A77E18
:1059F0003B0000F0E6FF0B1907090B0D190F1113FF
:105A00001517190008460FE010460DE035480BE069
:105A1000354809E0354807E0354805E0354803E0FA
:105A2000354801E03F200006F062A07C002801D14B
:105A300003206074607CFEF7CFFFFAF7A9FF2248CD
:105A40002F8B8030C7863846FAF748FDB16B01913D
:105A5000FAF7E9FBFAF758FD1B498031888638468A
:105A6000FAF744FD254A264BFAF758FC0746234A25
:105A7000244B0091FAF752FCFAF76EFD706301981F
:105A8000FAF756FD02460B4638460099FAF746FCEF
:105A9000FAF762FD3063607B01280DD0A07B0128FE
:105AA0000AD000202073698B00292FD016480129C5
:105AB00030D002292ED12BE00120F3E7102700007F
:105AC0001403002000080048000000200000C84225
:105AD000000100200AD7233C0AD7A33CCDCC4C3D83
