:020000040800F2
:1000000018060020CD000008B52100085F21000877
:1000100000000000000000000000000000000000E0
:100020000000000000000000000000002F24000875
:1000300000000000000000002D240008312400080A
:10004000DF00000800000000DF000008DF000008FB
:10005000DF000008DF000008DF000008B50D000821
:1000600000000000810B0008DF000008DF0000082E
:10007000DF000008DF000008DF00000800000000CB
:10008000DF0000080000000000000000DF000008A2
:10009000DF00000895240008DF000008DF000008EA
:1000A000DF000008DF000008DF000008DF000008B4
:1000B000DF0000080448854600F0D8FB00480047F0
:1000C0003D320008C046C04618060020044880475C
:1000D00004480047FEE7FEE7FEE7FEE7FEE7FEE72F
:1000E00039240008B500000830B50B460146002051
:1000F0002022012409E00D46D5409D4205D31D462E
:100100009540491B2546954040191546521E002D25
:10011000F1DC30BDF0B51FB40646002082B00546C4
:100120004024019100901BE0019922460F46304681
:1001300000F08AF9049A059B801A994110D3104661
:100140001946224600F070F9361A8F41019722466F
:1001500001200021009F00F067F938184D41009000
:100160002046641E0028DFDC019B009829463246A9
:1001700007B0F0BDF8B502464A40D40F42004B002C
:1001800052085B089A4202D20246084611464A00CB
:1001900023D0C30D4A00DDB2120EAD1A202D35DA80
:1001A00049020126490AF6058A19002C00D052425C
:1001B00020214F1B1146B9402A411018C20D9A4206
:1001C00021D0002C17D0012D08DCDA05801AD20FBF
:1001D0008019D207DBB200F050F9F8BDDA05801AB9
:1001E000012340001B06C01880185A428018CA0F0D
:1001F0001043490007E04908C2071143DA05801A95
:1002000080194008801800F030F9F8BD6100012223
:10021000511A001BF7E70122D2075140AAE7012239
:10022000D2075040A6E770B502464A40D50F4000BD
:100230004A00ED0740085208002814D0002A12D0C6
:10024000C40DD30D41020120C0055202490A520AD1
:10025000E41A091812187D34914201D3641C00E09D
:100260004900002C01DA002070BD0023914201D327
:10027000891A0343400849000028F7D100290AD011
:10028000914202D10121C90705E0914201D2012129
:1002900001E00121C943E005C018401900F0E5F86C
:1002A00070BD0000F0B51FB488B00B990998002408
:1002B00048400999C00F490049080991C0070B99A6
:1002C0000090490049080B9109990898A6460843EF
:1002D0001CD00B990A98084318D0099801244000B3
:1002E000420D4800410D099824050003000B2043EE
:1002F00009900B980003000B20430B9050181C49E9
:100300004018002201901446104605E000200146E6
:100310000DB0F0BD032801DA034600E003239C463C
:10032000C11A0AAE0AE05F0008ADED5B4F00F75B53
:100330007D430027AA187C41491C5B1E6145F2DD04
:10034000410004AB5A522104120C0A43240C401CF5
:100350000828DFDB01980290009970460191009017
:10036000059B049A0799069800F0CDF8D0E70000A5
:100370000DFCFFFF10B500229623114600F07DF81A
:1003800010BD00000EB505490291002100910A46FA
:100390000B46019100F0B7F803B000BD3304000034
:1003A000C20FD207400040080BD0C10D0723DB016C
:1003B000C91840020905400A1143C2084007114309
:1003C0007047002001467047CB0FDB07490010B58E
:1003D000490802460A4307D00A0D07240903E4012D
:1003E000090B121B002A01DC002010BDC900440FBC
:1003F0000C43C100E018D205801800F036F810BD9B
:100400000122D207002800DB101A002900DB511A54
:10041000814270470122D207002800DB101A002910
:1004200000DB511A8842704710B5202A04DB0146D0
:10043000203A9140002010BD914020239C1A034691
:10044000E3401943904010BD10B5202A04DB084654
:10045000203AD040002110BD0B46D340D04020248C
:10046000A21A91400843194610BD002904DA401C25
:10047000490001D140084000704770B40024050CC9
:1004800005D11024000402D1002921D01124050E29
:1004900001D100020834050F01D10001241D850F90
:1004A00001D18000A41C002801DB4000641C00294D
:1004B00008D020252E1B0D46F540A14000D001217B
:1004C0002943084301061B1B000ADB1D02D500203F
:1004D00070BC7047DB05181880180029F8DA401C3A
:1004E0004900F5D170BC40084000704710B5002BA2
:1004F00008DA0024401C614192185B411A4301D183
:100500004008400010BDF0B51FB482B005460C0095
:1005100003D0084602F0CCF902E002F0C9F920301D
:100520000246009021462846FFF77EFF049B059A6D
:1005300004460F4618431143084314D0184610438D
:100540001BD0009840210A1A18460599FFF77CFF36
:1005500005460E46009A05990498FFF765FF084383
:1005600005D0012004E02046394607B0F0BD002048
:10057000C11705430E432C43374300990E9863057A
:10058000401A7905E40A00220C43FD0A0A3002D51C
:1005900000200146E9E70105101969410C9C0D9DF9
:1005A00000196941FFF7A2FFDFE70000F0B5074639
:1005B0000846584087B0C00F049048000E465900C6
:1005C00040084908BC1A884105D2384631461E46C3
:1005D00017460B4602465800400810434DD0300DD8
:1005E000039040055900400D490D0590401A0290B6
:1005F000402873DA18030121000B09050843019014
:1006000004980092002806D01146019A4942002021
:10061000904100910190029840210A1A0199009896
:10062000FFF702FF05460C466B4607CB00F030F99A
:10063000C0197141039A0E0D0023D71756401A4670
:100640007A40164344D0049A002A2DD0029A012AF7
:10065000039A15DC1205C01A914101263605001CCB
:100660007141D20F059ED2070093019202962A464D
:100670002346FFF748FF07B0F0BD38463146FAE79A
:100680001605234A0F46B218C01AB74101210905C1
:10069000001C4F4100187F41114618187941E20FA4
:1006A00010436D19644113E0E2076D0815436408B7
:1006B000C2071443039A01261205C01A9141360558
:1006C000001C7141CE07400830434908C018514111
:1006D0002A462346FFF70AFFCDE7FFE704980122E9
:1006E0004000C117121A00238B4104983146C417E9
:1006F000381AA141EEE730B40124E407634030BC6E
:1007000054E730B40124E407614030BC4EE70000F8
:100710000000E0FFF0B50C465C4085B0E40FE40754
:1007200003944C0000266408590094464908024688
:100730000296224321D062460A431ED06200570D22
:100740004A000E032303550D012402462C492405BB
:10075000781B1B0B360B4018234326436146009041
:100760001C46501AB44103D30098401C009002E08C
:10077000921800985B41002803DA0020014605B07A
:10078000F0BD0020012109050746864611E06446B8
:100790001D46141BB54106D36546521BB341744632
:1007A00007430C43A646CD07400849082843921842
:1007B0005B4105460D43EAD11046184313D060460D
:1007C000194650407140084306D06046101AB341A4
:1007D00006D20122002306E000220123DB0702E00B
:1007E0000122D2435310009874460105381C614120
:1007F000029C039D00196941FFF778FEBFE70000E6
:10080000FD0300004A0009030123090B1B051943DE
:100810000A4B10B5520D9A4202DA0020014610BD73
:10082000064B34339A4203DC9A1AFFF70DFE10BDD3
:10083000034BD218FFF7F8FD10BD0000FF030000C6
:10084000CDFBFFFF10B5002904DB0124E407404283
:100850008C412146002B04DB1C460123DB0752425E
:10086000A341994200D1904210BD0000064C0125E1
:10087000064E05E0E36807CC2B430C3C9847103448
:10088000B442F7D3FFF71AFC34340008543400089C
:1008900010B5202A06DBCB170846203A1041C117B5
:1008A0000B4306E00B461341D0402024A21A91408E
:1008B0000843194610BD00000021064A08464300BF
:1008C000D35A401C591880B21F28F8D9C802000C0E
:1008D000704700009001002010B5234C2148206093
:1008E000204600F061FB002800D0FEE701208007D1
:1008F000606000202346012104220C33A06007C35E
:1009000060762076A176FF22E076C232E261164A56
:10091000206220321171A0620807E062124800F0E4
:1009200095FB002800D0FEE70F4800F05BFA002896
:1009300000D0FEE70C48032140300160012109038B
:1009400041600146403800F0A5FA002800D0FEE7DB
:1009500020220649044800F091FC002800D0FEE760
:1009600010BD000000240140700000209001002014
:1009700070B5044600688168490720D58168102653
:100980004907002905DA8168890702D48168314363
:10099000816000F0C9FE05460DE000F0C5FE401B79
:1009A000022808D9A06B3043A063E06B0121084303
:1009B000E063084670BD206880684007EDD40020E1
:1009C00070BD10B50146406A826B50231A420AD1AD
:1009D000816B01225202114381630168CA681205CA
:1009E000920F05D020E0006B026B0846904710BDC7
:1009F000827E002A18D10A68120715D58A68530723
:100A00000122002B09DB4B680C24A3434B60816B54
:100A1000130299431143816306E0816B202319433C
:100A20008163C16B1143C16300F0BCFA10BD10B506
:100A3000406A816B402211438163C16B04221143E0
:100A4000C16300F001FB10BD10B5406A00F0ABFAC5
:100A500010BDF8B50446006881688907890F01292F
:100A600028D10168C90702D1C168090422D581686B
:100A7000052211401025012601290FD1816802228B
:100A80001143816021680320086000F04DFE074695
:100A90000CE000F049FEC01B022807D9A06B2843D8
:100AA000A063E06B3043E0630120F8BD20688068FC
:100AB000C007EED10020F8BDF8B504460020009034
:100AC000206881688907890F012905D10168C90754
:100AD0002CD1C168090429D48168154A1026114017
:100AE0000125002915D181682943816012481149E7
:100AF0000068FFF7F9FA00E0401E00900028FBD1E3
:100B000000F012FE07460CE000F00EFEC01B0228AB
:100B100007D9A06B3043A063E06B2843E06301205A
:100B2000F8BD20680068C043C007EDD10020F8BDC3
:100B30001700008040420F005C00002008B50F48FD
:100B40004269012149040A43426142690A40009214
:100B5000426949000A43426142690A40009242697F
:100B600049000A43426142690A40009242694900D1
:100B70000A43426140690840009008BD00100240ED
:100B800010B50248006B00F0EEFB10BD70000020B5
:100B900010B504460068054940181421FFF7A4FA6F
:100BA000800020640248E06310BD0000F8FFFDBF34
:100BB0000000024030B5056C0124AC40C56B6C6090
:100BC000046863604368102B036803D09960006871
:100BD000C26030BD9A600068C16030BD7D2189016E
:100BE0004843074948610020886101220A610A6977
:100BF000D30701D0D203FAD508618861704700009D
:100C000000E000E070B50C4D01221146284600F0CE
:100C100085FD0A4CA06BFFF7E1FF01220221284667
:100C200000F07CFDA06BFFF7D9FF092000224021D6
:100C3000C00600F073FD70BD0004004800000020F5
:100C400070B50C4D00220121284600F067FD0A4CCA
:100C5000A06BFFF7C3FF01220221284600F05EFDD2
:100C6000A06BFFF7BBFF092000224021C00600F067
:100C700055FD70BD000400480000002070B509203B
:100C800001224021C00600F049FD094CA06BFFF78E
:100C9000A5FF084D00220221284600F03FFDA06B71
:100CA000FFF79CFF00220121284600F037FD70BDB0
:100CB0000000002000040048F0B53D480021027902
:100CC000012A6FD1017104460378A578667A6269BA
:100CD000002B02D0012B11D064E0002D03D0012D98
:100CE00003D0022D04D0816100E08261C16159E02E
:100CF000032E57D0C2618161142252E02C4C012393
:100D00000227247A002D04D0012D2CD0022D49D1A8
:100D10002EE0C278012A02D0022A0BD021E082699B
:100D2000C2628161002A01D043711AE04171817170
:100D3000C17116E01E4A012CD26902D0022C08D0E3
:100D40000EE00263002A01D0837109E0817107720D
:100D500006E00263002A01D0C37101E0C171037291
:100D6000C161C1701EE0C37041718171C171BCE786
:100D7000032E17D0C77081614379012B0FD00C4A25
:100D8000012C126B02D0022C05D009E08379002BD4
:100D900005D1426A03E0C379002B00D1826AC261A7
:100DA0000A220264C36982691A4300D18170F0BDCE
:100DB0000000002010B50A494869400501D5081512
:100DC00004E04869000505D50120C002486100F033
:100DD000E3FB10BD4869C004FBD501200003F5E723
:100DE00000040140F8B5054604462035287D00265C
:100DF000012808D001202875206881688907890F9B
:100E0000012908D101E00220F8BD0168C90738D1E5
:100E1000C168090435D4A16BFF220132914302223B
:100E20001143A163C1688907890F0091C1688908CE
:100E30008900C1602068816892071143816000F0D9
:100E400073FC07460EE000F06FFCC01B022809D9B6
:100E5000A06B0221884310210843A063002028755D
:100E60000120F8BD206880680028ECDB2068C1689C
:100E7000009A1143C160A06B80088000401CA063F1
:100E800004E0A06B20210843A06301260020287500
:100E90003046F8BDF8B50025044620340095227D83
:100EA000012A39D00122227503689E68760767D42B
:100EB000384F4E68BE424DD09E6A0F78BA401643F6
:100EC0009E620123C26A1B079A421FD0012A1DD0CD
:100ED000022A1BD0032A19D0042A17D0052A15D0BC
:100EE000062A13D0072A11D002688B685669760744
:100EF000760FB3420AD05369DB08DB005361006808
:100F000042690B7A5B075B0F1A4342610A68102A39
:100F100004D0112A02D038E00220F8BD1E488368B0
:100F2000102A07D001229205134383600868102815
:100F300003D02AE00122D205F6E7194817490068D4
:100F4000FFF7D2F80A21484300E0401E0090002835
:100F5000FBD11AE0986A0E78B24090439862096813
:100F6000102901D0112910D10B488268102904D012
:100F7000012189058A43826007E00121C905F9E75B
:100F8000816B2022114381630125002020752846B2
:100F9000F8BD0000011000000027014040420F0092
:100FA0005C0000207047704770B504003BD0A06B18
:100FB00002210843A0632046FFF7DAFC002605461D
:100FC000002832D0012D2AD021684A689F20824310
:100FD0004A60216808602068C168184A1140C160F1
:100FE0002068016989008908016120684169C90890
:100FF000C90041612068016A114A114001622068FC
:10100000816AC90CC90481620E4881680322920575
:1010100091438160204600F0D5F8E663A663203452
:101020002675284670BD012070BD2046FFF711FDD2
:1010300005460128F3D00120A063C5E700023E83E6
:1010400000F000F00027014070470000F8B50026CE
:101050000446002805D0A06B25462035002802D084
:1010600007E00120F8BD0020E0632875204600F06D
:10107000BDF8A06B1022C006002870DB20688168D4
:1010800049076CD4A16B1301994302231943A1634F
:1010900081688907890F012905D10168C9070FD126
:1010A000C16809040CD4C16818239943A368194383
:1010B000C16020680169636889008908194301617A
:1010C0002068C1683D4B1940C160207E617E80036D
:1010D000C9030843A17E4B031843A36A012B02D026
:1010E00001231B0300E000231843E368184323692E
:1010F000022B09D0002318432B79E57E5B001843AF
:101100000123012D02D00AE00423F4E7002927D0AF
:10111000A16B20252943A163E16B1943E163E169D8
:101120000D46FF3DC23D02D0256A29430843216890
:10113000CD680543CD600125E16A2D07A94213D092
:10114000012911D002290FD003290DD004290BD079
:10115000052909D0062907D0072905D010E028E085
:10116000012109040843DAE721684D69ED08ED0023
:101170004D6121684D69A78D7F077F0F3D434D610C
:101180002168C9680E4D2940814207D10020E063E3
:10119000A06B80088000401CA06308E0A06B0221C7
:1011A00088431043A063E06B1843E0630126304698
:1011B000F8BDA06B1043A063F8E700001902FEFF22
:1011C000E7FF3F8310B50848C26841150A43C26073
:1011D000C2688A43C26082698A4382610920012110
:1011E000C00600F06FF910BD0010024070B5204934
:1011F00086B04A6905460120400402434A614A69B3
:10120000024005928A69001202438A618A6902409B
:1012100005924A69012002434A614969002601405A
:101220000591009003200190092069460296C006AE
:1012300000F0D0F90F48104C41C480202660606057
:101240004000A0608000E06020202061C00160615B
:101250000948083C00F062F8204600F0D3F82C63FF
:10126000002203210920656200F0ACFA06B070BDCF
:101270000010024008000240D0010020F7B50446EB
:1012800000680025806840073DD426462036307D22
:1012900001280AD001273775607E012807D0204633
:1012A000FFF70AFC050002D02EE00220FEBDA06B75
:1012B00016490840FF2101310843A0630020E06384
:1012C0003075216B12488862216B1248C862216B0D
:1012D0001148086321681C200860206841681022BA
:1012E000114341602068C1683943C1602168206BA7
:1012F0004031029B019A00F0AFF820688168042217
:101300001143816000E002252846FEBDFEF1FFFF8B
:10131000C3090008490A00082F0A000870B5040034
:101320001FD0206801684908490001602068002535
:10133000056020684560206885602068C56020469B
:10134000FFF726FC216C01208840E16B4860A56214
:10135000E56225636563A563203465702570002010
:1013600070BD012070BDF0B4C16B0D6801680C68E0
:101370000422066C1346B3402B420DD063070BD5F5
:101380000B689B0602D40B6893430B60016C8A4088
:10139000C16B4A60C16A19E00227B74002462F407C
:1013A00001232032002F15D0A70713D50C68A406FF
:1013B00004D40C680A25AC430C605370036C022102
:1013C0009940C36B596000211170816A002916D0C1
:1013D000F0BC08470827B7402F4210D024070ED58D
:1013E0000C680E25AC430C60046C1946A140C46B1C
:1013F00061608363537000211170016BE6E7F0BCFC
:101400007047000070B5040021D002212046203032
:1014100005464170226811680E48A3680140606863
:1014200026691843E3683343184363691843A36983
:101430001843E3691843084310602046FFF7A8FBF0
:101440000021A163012068702970084670BD012049
:1014500070BD00000FC0FFFFF8B504468C46203079
:1014600001780025012909D001260670417800275E
:10147000012905D0077002252846F8BD0220F8BDD5
:1014800002214170A7632068016849084900016092
:1014900061462046FFF78EFBE06A0028206801685D
:1014A00002D00E22114306E00A2211430160206897
:1014B00001680422914301602068016831430160A2
:1014C000DAE70000F0B5002258E0012393401C4603
:1014D0000C4052D096082B4DB6007519AF68AC463B
:1014E00095072E0F0F25B540AE463D400927FF0654
:1014F000B84201D100270FE0234FB84201D10127A4
:101500000AE0224FB84201D1022705E0204FB8423D
:1015100001D1032700E00527B740AF4212D11D4D8E
:101520002E68A6432E606E68A6436E60AE68A64322
:10153000AE60EE68A643EE606546AD687446A543AE
:101540006446A560056856000324B440A5430560C1
:10155000D508AD002D182E6AAC465507EF0E0F25A5
:10156000BD40AE4365462E628568A54385604568EB
:101570009D434560C368A343C360521C0B46D340E0
:10158000A3D1F0BD0000014000040048000800485D
:10159000000C00480004014010B501239B02C41A4E
:1015A0000B4801218278002C0CD0E31A07D0CC0222
:1015B000A3420BD1002A09D10171022105E001717A
:1015C000002102E0002A01D10171817010BD0000EC
:1015D00000000020F8B500238DE001249C40A446C3
:1015E00022407DD04C68022C01D0122C0CD1DC089A
:1015F000A40027183C6A5D07ED0E0F26AE40B443E9
:101600000E69AE4026433E6205685E000324B44086
:101610000F79A543BF07BF0FB7402F4307604D6841
:10162000012D05D0022D03D0112D01D0122D0ED188
:101630008568CF68A543B7402F43876047686546F4
:10164000AF430D79ED06ED0F9D403D434560C56804
:10165000A5438C68B4402C43C4604C68E40049D571
:10166000284CA56901263543A561A4699D0834402D
:101670000094254CAD002F19BC689D072E0F0F2537
:10168000B540AC430925ED06A84201D100250FE085
:101690001E4DA84201D101250AE01D4DA84201D1ED
:1016A000022505E01B4DA84201D1032500E00525D8
:1016B000B5402543BD60184C25684E689543F60338
:1016C00000D51543256065684E689543B60300D57F
:1016D00015436560A5684E689543F60202D500E0A3
:1016E00008E01543A560E5684E689543B60200D54D
:1016F0001543E5605B1C0A681446DC4000D06CE7CB
:10170000F8BD000000100240000001400004004845
:1017100000080048000C004800040140002A01D0E5
:10172000816170478162704701488068704700009E
:101730006000002002488168027889188160704743
:101740006000002010B506480168102211430160B6
:10175000032000F007F800F027F8002010BD00007B
:101760000020024070B504460D4D7D202978C00050
:10177000FEF7BAFC01460B480068FEF7B5FC00F026
:10178000BDFA002809D1042C07D200222146401EB0
:1017900000F018F800206C6070BD012070BD0000E2
:1017A000600000205C00002070470000002805DB7E
:1017B000C106C90E01208840014908607047000039
:1017C00000E100E010B501F0A3F810BDF8B50F4638
:1017D000060059D03A4D2868C007C00FB84209D258
:1017E000286840084000384328602868C007C00FB8
:1017F000B84249D13068334C81070CD5400704D535
:10180000606807210902084360606068F02188432E
:10181000B168084360603078C00726D0706801283E
:101820000ED0216802280ED0890700292CDA6168C1
:101830008908890001436160FFF776FF00900DE0A1
:1018400021688903F1E78901EFE7FFF76DFF009950
:10185000411A1D48814201D90320F8BD60680C215E
:101860000840716889008842EFD12868C007C00F1E
:10187000B8420BD9286840084000384328602868DF
:10188000C007C00FB84201D00120F8BD3078400732
:1018900006D56068072109028843F1680843606043
:1018A00000F028F86168094A0906090F515CC84030
:1018B000074908600320FFF755FF0020F8BD00002E
:1018C0000020024000100240881300001C34000871
:1018D0005C0000200448054900684968044A49053D
:1018E000490F515CC84070475C0000200010024066
:1018F0002C34000810B514A30FCB88B06C460FC46D
:1019000015A30FCB0FC4184A51680C200B46034097
:101910001648042B16D0082B14D18B021B0F6C46D3
:10192000E45CD26A04AB1207120F9A5CC90305D5B6
:1019300000231946FEF7EEFB214601E020460C4944
:1019400000F0CDFF08B010BD02030405060708092A
:101950000A0B0C0D0E0F10100102030405060708F8
:10196000090A0B0C0D0E0F100010024000127A0035
:1019700000093D00FEB5040070D02078DC4DC007A2
:101980004AD068680007800F012807D06868000700
:10199000800F022809D16868C00306D52868800333
:1019A0003AD560680028E7D036E06168012914D094
:1019B00001208004002901D0052914D02A680121C2
:1019C00009048A432A6029688143296060680028E5
:1019D00016D0FFF7A9FE06460EE02868012109048B
:1019E00008432860F2E7296801432960F5E7FFF71B
:1019F0009BFE801B64286ED828688003F7D50BE017
:101A0000FFF792FE064604E0FFF78EFE801B642877
:101A1000F1D828688003F7D42078012680070028B1
:101A20003CDA68680007800F07D068680007800FFD
:101A3000022809D16868C00306D42868800716D533
:101A4000E06801280AD112E0E0680028286816D072
:101A500030432860FFF768FE074605E043E1FFF7E3
:101A600063FEC01B0228C6D828688007F7D52868FF
:101A7000F82188432169C900084328600EE0400826
:101A800040002860FFF750FE074604E0FFF74CFED9
:101A9000C01B0228AFD828688007F7D42078000739
:101AA00022D5E0690028686A0ED030436862FFF7EB
:101AB0003BFE074604E0FFF737FEC01B02289AD81A
:101AC000686A8007F7D50FE0400840006862FFF7BA
:101AD0002BFE074605E09DE0FFF726FEC01B02280F
:101AE00089D8686A8007F7D420780427400700283F
:101AF00060DA00200190E869C00008D4E969B806FE
:101B00000143E961E96901400120009101907948B0
:101B10000168C90511D40168821511430160FFF7FE
:101B200003FE009005E0FFF7FFFD0099401A6428CE
:101B300070D870480068C005F5D5A06801280AD0A3
:101B4000002801D0052810D0286A400840002862EB
:101B5000286AB84301E0286A30432862A068002858
:101B600012D0FFF7E1FD00900AE0286A38432862AE
:101B7000F1E7FFF7D9FD0099411A5F48814249D842
:101B8000286A8007F5D50DE0FFF7CEFD009006E04E
:101B9000FFF7CAFD0099411A574881423AD8286A8E
:101BA0008007F5D40198002804D0E96901200007D6
:101BB0008143E9612078C00635D5606901280CD0E1
:101BC000401D686B23D038436863686B4008400051
:101BD0006863FFF7A9FD064622E0686B3843686337
:101BE000686B30436863FFF79FFD064604E0FFF72C
:101BF0009BFD801B02285BD8686B8007F7D5686B5C
:101C0000F8218843A169C900084368630BE0B84321
:101C10006863F4E74CE0FFF787FD801B022847D894
:101C2000686B8007F7D4206A00285ED069680907CE
:101C3000890F022942D0012636060228286805D0DD
:101C4000B0432860FFF770FD044633E0B0432860DE
:101C5000FFF76AFD074604E0FFF766FDC01B022898
:101C600026D828688001F7D4E86AE16A00090001F3
:101C70000843E862616AA06A084369683D22120469
:101C8000914308436860286830432860FFF74CFDA3
:101C9000044604E0FFF748FD001B022808D8286826
:101CA0008001F7D521E0FFF73FFD001B022801D995
:101CB0000320FEBD28688001F5D416E00128F8D085
:101CC0006868E96A01221204636A02409A420AD1F2
:101CD0000907E26A090F914205D10F2189040840E2
:101CE000A16A884201D00120FEBD0020FEBD000097
:101CF000001002400070004088130000094910B530
:101D0000401E884201D9012010BD074C60610321AB
:101D1000081F00F0FDFD0020A061072020610020C9
:101D200010BD0000FFFFFF0000E000E070477047BB
:101D300070B5040005D025462035687F002802D004
:101D400006E0012070BD00202877204600F00AF848
:101D500002206877211D206800F0A8FB0120687729
:101D6000002070BD08B509488269012149040A4371
:101D70008261806901220840009003211520FFF74D
:101D800021FD1520FFF712FD08BD000000100240E4
:101D90000268D36801210B43D36000688268520750
:101DA000520F062A02D002680A43026000207047E0
:101DB000704770B50446006801690025C94389076A
:101DC000002915DBC168C943890711D4E91E0161E7
:101DD00001202077206880698007204602D0FFF725
:101DE000E7FF04E000F096F8204600F094F825772D
:101DF00020680169C943490717D4C168C943490725
:101E000013D40421C943016102202077206880692E
:101E10008005800F204602D0FFF7CAFF04E000F0E3
:101E200079F8204600F077F8257720680169C943E2
:101E3000090716D4C168C943090712D40821C94348
:101E40000161042020772068C0698007204602D005
:101E5000FFF7AEFF04E000F05DF8204600F05BF80D
:101E6000257720680169C943C90617D4C168C943E9
:101E7000C90613D41021C9430161082020772068C6
:101E8000C0698005800F204602D0FFF791FF04E073
:101E900000F040F8204600F03EF825772068016900
:101EA000C943C90708D1C168C943C90704D1891EFC
:101EB0000161204600F030F820680169C943090635
:101EC00009D4C168C943090605D48021C943016109
:101ED0002046FFF72BFF20680169C943490609D452
:101EE000C168C943490605D44021C9430161204660
:101EF00000F030F820680169C943890609D4C16837
:101F0000C943890605D42021C94301612046FFF752
:101F10000EFF70BD7047704710B50D4CA06900F002
:101F2000C1FAA061E06900F0BDFAE061206C00F048
:101F3000B9FA2064606C00F0B5FA6064206A00F0C1
:101F4000B1FA2062A08900F0ADFAA08110BD0000B6
:101F500000000020704770B5040017D0242060678F
:101F60002068016849084900016020680025056073
:101F70002068456020688560204600F03FF8E567EE
:101F80006567A56760342574002070BD012070BDB1
:101F900010B5040003D0606F002802D007E00120D4
:101FA00010BD002170200155204600F03FF824208C
:101FB000606720680168490849000160204600F018
:101FC00075FB0128ECD0606A002802D0204600F0A2
:101FD000D7FA206841680122D2029143416020680B
:101FE00081680822914381602068016801221143C1
:101FF0000160204600F02AFB10BD000010B50A4821
:10200000C268012189030A43C260C2688A43C26070
:1020100009244115E4062046FFF754FA01218902FC
:102020002046FFF74FFA10BD0010024030B51748A8
:1020300087B04269012149040A43426142690A406A
:10204000059242690A43426142690A4005928269E7
:10205000C9100A4382618069012408400590481133
:1020600000900220019003200925ED0603900294C0
:10207000694604942846FFF7ADFAA002009069462D
:1020800004942846FFF7A6FA07B030BD00100240BE
:10209000FFB50446406F83B017460D4620285CD13B
:1020A000002D0AD0002F08D0A168C001814207D1BD
:1020B0002069002804D1E80702D0012007B0F0BD54
:1020C000204660300290007C012846D00298012111
:1020D00001740020E06721206067FFF725FB26469A
:1020E00040360190378277820120A1680003814247
:1020F00002D12069002802D02F46002511E00027D8
:102100000FE000228021204600F074FB002815D14A
:10211000002F15D02168387808857F1C708A401EF2
:102120007082708A019B002806980090E9D10022F5
:102130004021204600F05EFB002808D00320BDE7C8
:1021400028882168C005C00D0885AD1CE6E7202061
:102150006067029900200874B0E70220AEE7FEE74E
:1021600070B5124C012060600220A0600320E06086
:102170000F4D206021462846FFF72CFA40202146CB
:1021800020600924E4062046FFF724FA01224021BA
:102190002046FFF7C3FA002201212846FFF7BEFAC6
:1021A000002202212846FFF7B9FA70BD7C01002009
:1021B0000004004870470000FEB5484C0121627AD7
:1021C0002046006C002A10D00027454D454E012ABC
:1021D0000FD0022A5CD0032A06D1E278606C10434B
:1021E00002D16069A061E170FEBD0028FCD061727F
:1021F000FEBD002802D027826782FEBD208A0A2801
:1022000008D2FEF759FBE081618A08186082208AB3
:10221000401C208280B20A28EFD16089FEF7AAF81C
:102220003149FEF700F87F21C905FDF7A3FF0746F6
:10223000A0650A21608AFDF757FFFEF7A3F82A463A
:102240003346FEF72FF805460091FEF7BDF8064627
:10225000E0643846FEF7A4F802460B46284600998B
:10226000FEF720F8FEF7B0F8A06402206072304656
:10227000FEF796F802460B461CA000F009FBA06C86
:10228000FEF78EF802460B461DA000F001FBFEBDD6
:10229000FEF712FBFEF776F82A463346FEF702F801
:1022A000FEF792F82065A16CFEF7B4F8EFD2A06CAF
:1022B000FEF776F805460E46206DFEF771F80246E9
:1022C0000B4613A00196009500F0E2FA032060721D
:1022D000E761E7700A206064FEBD00000000002096
:1022E000B4D934E70C684A3F0000C8420A0D566F63
:1022F000635F626173655F203D202566000000001A
:102300000A0D566F635F62617365203D202566008C
:102310002566203E202520660000000010B5114CE7
:10232000607800281AD0FEF7C7FAFEF72BF80E4A9D
:102330000E4BFDF7B7FFFEF747F82065616BFEF720
:102340005FF80AD2206A002807D109A000F0A0FA9D
:102350000020A061E0616072607010BD0520206205
:102360000120F9E700000020B4D934E70C684A3FA7
:102370000A0A446F6F72204F706572617465206540
:102380006E64210070B5284C2046E16980690029FF
:1023900001D0002807D122780025002A04D0002887
:1023A0001FD0FEF74DFC70BD002802D0FEF748FCA0
:1023B00003E0002904D0FEF725FCFFF7AFFF70BD56
:1023C000FEF75CFC6570E078012806D00228F6D1A3
:1023D000607A0328F3D2657270BD607A0028FAD162
:1023E00070BD002902D0FEF70DFC70BDFEF746FC63
:1023F000E07801280CD00228F7D1E570617901203E
:1024000001290BD0217A012907D0022906D006E044
:10241000E5706571A571E571DFE7022020726571D5
:10242000A571E571D4E700000000002070477047F7
:1024300010B5FFF77FF910BD134801680122114361
:1024400001604168114A114041600168104A114021
:1024500001600168012292049143016041683F22BA
:10246000120491434160C16A09090901C162016B0B
:10247000FF22143291430163416B490849004163D3
:102480000021816070470000001002400CB8FF0876
:10249000FFFFF6FE10B50248FFF78BFC10BD0000F1
:1024A000BC000020002800D0401E7047F0B5026834
:1024B0001A4B1B4C984201D0A04203D17025AA436D
:1024C0004D682A43174D184E184F98420AD0A04223
:1024D00008D0174CA04205D0A84203D0B04201D08A
:1024E000B84205D11446032212029443CA6822431B
:1024F0008024A2434C69224302608A68C2620A684F
:102500008262984205D0A84203D0B04201D0B842BE
:1025100001D10969016301214161F0BD002C014035
:1025200000040040004001400044014000480140D8
:102530000020004010B50E487D21C9000068FDF75D
:10254000D3FD0C49401EC8630C490B4A0A60632244
:10255000CA60486000200861102248618A60886172
:102560000846FFF7E5FB002800D0FEE710BD00009D
:102570005C0000200000002000440140BC0000205E
:1025800010B5818CC90707D001684A6801235B0434
:102590009A43836A1A434A60818C890707D5016888
:1025A0004A6801231B049A43C36A1A434A60818C18
:1025B000490707D501684A6801239B049A43036BC6
:1025C0001A434A60818C090707D501684A680123CC
:1025D000DB039A43436B1A434A60818CC90607D5D3
:1025E0000268916801231B039943836B194391602F
:1025F000818C890607D501688A6801235B039A43A9
:10260000C36B1A438A60818C490612D503685A68E5
:1026100001210905046C8A4322435A60026C8A42F4
:1026200007D10268516803235B059943436C194342
:102630005160818C090607D501684A680123DB04D3
:10264000806C9A4302434A6010BD0000F8B5002632
:102650000446C667FFF768F8054620680068124F11
:10266000000709D501212B46002249052046009785
:1026700000F0C0F800280DD12068006840070BD595
:1026800001212B46002289052046009700F0B2F870
:10269000002801D00320F8BD20206067A0676034C7
:1026A00026740020F8BD0000FFFFFF0170B504464E
:1026B00080682169E2690843616900251143226845
:1026C00008431168444B1940014311602168486870
:1026D000032212039043E26810434860A169206A14
:1026E0002268084391680B231B02994301439160C0
:1026F0003A492068884210D13948006B8007800F22
:1027000011D0012805D0022805D003280AD10220C3
:1027100009E0042007E0082005E03249884201D1A1
:10272000002000E010200122E169D2032E4E9142E8
:1027300028D1002806D0022807D0042817D008285E
:1027400044D11AE0FFF7C6F813E06168274A480849
:102750008018FDF7C9FC80B201461039B14235D866
:102760002149491C01400007400F084321E0FFF7C1
:10277000C1F8616840004A08EAE761680122480838
:102780001204E5E7002806D0022807D0042813D059
:1027900008281BD116E0FFF79DF80FE06168144A86
:1027A000480811E0FDF7A0FC80B201461039B142A3
:1027B0000CD82168C8600AE0FFF79CF861684A08F5
:1027C0001018EFE7616848088018EBE70125002042
:1027D00020666066284670BDF369FFFF003801403F
:1027E0000010024000440040EFFF00000024F4000D
:1027F00000127A00FFB581B005460F4604466035E9
:102800000A9E38E0701C36D0FEF78EFF0499401AFD
:10281000B04221D8002E1FD02068016849072AD570
:10282000C069C043000526D401202168C0020862A7
:1028300020680168FF22A13291430160206881680D
:1028400049084900816020206067A067E067002098
:102850002874032005B0F0BD20680168FF22A13272
:102860009143016020688168490849008160202007
:102870006067A067EBE72068C1693846884305D0E8
:10288000002103988142BDD00020E3E70121F8E751
:102890000FB410B503A9044B044A029800F024F9C0
:1028A00010BC08BC04B01847253200086C0000209A
:1028B0002021020C01D010211046020A01D010463E
:1028C0000839020901D01046091F820801D01046BC
:1028D000891E420801D0881E7047081A7047F8B553
:1028E000040C8BB2264682B25E430D0C1046370CA8
:1028F0005843360480190021794116466E43370C3F
:1029000036048019794126466E438919F8BD0000C6
:102910008307FF22DB0E9A408907090E99400028A1
:1029200008DB830809489B001B181868904308437C
:10293000186070470007000F0838830804489B00A0
:102940001B18D86990430843D861704700E400E041
:1029500000ED00E002E008C8121F08C1002AFAD109
:1029600070477047002001E001C1121F002AFBD10F
:1029700070470000F0B51FB486B00998089A030D9F
:102980000021024314D05148514A181850430514ED
:102990001198012810981AD0281A401C00264D4F73
:1029A0004D49009601910490002812DA444211E04A
:1029B0001198012449A3012801D11098C143069818
:1029C000119A84600360C26041600BB0F0BD404268
:1029D000E4E70446210500203F4A001C51410391D1
:1029E000029012E0E00707D032463B46019900987A
:1029F000FDF758FC0191009032463B4610461946BF
:102A0000FDF750FC06460F466410002CEAD10498EE
:102A1000039B0028029A0999089806DAFDF742FC00
:102A2000019B009AFDF73EFC05E0FDF773FE019B5C
:102A3000009AFDF76FFE04460E460022284BFDF774
:102A400001FF03D80020C043014607E00022254BC8
:102A500020463146FDF7AAFDFDF7D4FE102409E01B
:102A6000002C0ADB0A220023FDF754FB079B3032BF
:102A70001A55641E02460A43F2D11122641C079BB8
:102A8000121B1C19119B012B03D0012308430ED1EB
:102A90000AE0084304D0112010900020119077E73D
:102AA0001098151A6D1E0BE01098824202DD00236B
:102AB0006D1C03E0824201DA00236D1E002BEED074
:102AC000069811998260C16030C07EE701FCFFFF6B
:102AD000104D0000000014400000F03F30000000E6
:102AE0000000F0430000E03FFFB597B00646002528
:102AF0001BE2252876D100242746F749049400E0FC
:102B00000443761C32780120203A90400842F7D1E5
:102B100030782A280ED0022230780146303909292F
:102B200016D804990A235943303940181443761CA7
:102B30000490F1E7189802C804911890002904DA6B
:102B40000120400304434842049002200443761CC1
:102B500030782E2814D1042004437078761C2A285B
:102B600009D11898761C80C8189009E00A214F43B3
:102B7000303FC719761C3078014630390929F5D91C
:102B800030786C2810D006DC4C281AD068280ED07B
:102B90006A2817D104E0742813D07A2812D110E0E3
:102BA0000120400504430CE00121090501E0032157
:102BB00009050C437178814203D1012000052418D6
:102BC000761C761C307866280BD013DC58287DD014
:102BD00009DC00287BD04528F6D04628F4D04728C9
:102BE0001AD1A9E118E0632835D0642870D065288F
:102BF00012D1A1E170286CD008DC6728F1D06928D7
:102C00007DD06E280DD06F2806D1BCE073282ED061
:102C1000752873D0782859D01A9A199990476D1C45
:102C200082E16002400F022809D003280DD0042859
:102C3000189801680DD00D60001D189074E1189867
:102C4000EA1701680D604A60F6E7189801680D8080
:102C5000F2E70D70F0E718986A4601781172001DCE
:102C600018900020507202A80090012005E01898EA
:102C700002C8189000200091C04361070ED50021C2
:102C800001E00199491C0191B94213DA8142F8DB54
:102C9000019A0099895C0029F3D10BE0002101E041
:102CA0000199491C01918142FADB019A0099895CE2
:102CB0000029F5D1019904981A9B471A21463846F4
:102CC000199A00F099FA4019019903E051E030E1B6
:102CD00015E050E0451807E0009800990078491C7D
:102CE00000911A9A199990470198401E0190401C32
:102CF000F2D1214638461A9B199A12E137E00A2090
:102D00000021009001916002410F022907D0189A1A
:102D100001CA1892C2179446032908D00AE01898ED
:102D2000C01DC108C90005C91891944607E000B24A
:102D3000C2179446042902D140B2C1178C46002222
:102D40006146944506DA0A460021404291418C468C
:102D50002D2102E0210504D52B216A4611730121A2
:102D600003E0E10701D02021F7E7029156E00A20B5
:102D70000AE0102008E01020009000210420044305
:102D80000191082703E008200021019100906002D2
:102D9000410F022907D0189A01CA189200229446BE
:102DA000032908D008E01898C01DC108C90005C94A
:102DB0001891944603E080B2042900D1C0B20021EA
:102DC000029121072AD531780D91702906D0009AF9
:102DD0001021019B4A401A4305D00EE040216A466B
:102DE0001173012108E06146014306D030216A4693
:102DF00011730D99517302210291009A0821019BD0
:102E00004A401A430AD16146014301D1610705D501
:102E100030216A46117301217F1E029131785829B1
:102E200004D02EA10E910DA90D910DE030A1F9E76E
:102E30006146019B009AFDF76DF90E9B8C469B5CE9
:102E40000D9A521E0D92137061460143F0D10D98F8
:102E500005A9081A20300190600703D5012000045D
:102E6000844300E001270198874201DD381A00E021
:102E70000020019900904118029809180498401AFE
:102E80000490E00306D421461A9B199A049800F096
:102E9000B3F94519002706E003A81A9AC05D1999ED
:102EA00090476D1C7F1C02988742F5DBE0030CD530
:102EB00021461A9B199A049800F09EF9451904E0DE
:102EC0001A9A3020199990476D1C0099481E00905D
:102ED0000029F5DC1FE00000092801003031323301
:102EE0003435363738396162636465660000000046
:102EF0003031323334353637383941424344454630
:102F0000000000000D980D990078491C0D911A9A47
:102F1000199990476D1C0199481E01900029F1DC18
:102F20004DE100F059F94519761C3078002800D0A1
:102F3000DFE528461BB0F0BD600700D406271898CF
:102F4000C01DC108C90048680A680831C30FDB0703
:102F50001891190001D09CA108E0210501D59BA181
:102F600004E0E10701D09AA100E09AA1430010918A
:102F700030785B0865280CD006DC452809D0462847
:102F80001DD0472841D141E0662818D067283CD1A0
:102F90003CE00021112F01DB112000E0781C0191A1
:102FA000009008A911A8FFF7E5FC139905910021ED
:102FB000119A15927F1C12980197009150E0012000
:102FC000C00703900120019008A9009711A8FFF7FE
:102FD000D1FC139A149905920022119B0092129829
:102FE0001593059A0192002901D0104602E0791C40
:102FF00040180190381A01D5019804E04042401E63
:103000000090781C0190C01B029043E0012F00DA71
:1030100001270021112F01DD112000E03846019128
:10302000009008A911A8FFF7A5FC13990591119A22
:103030000021129815920091019721070CD405994F
:10304000B94201DB019900E00191012904DD159AE3
:10305000491E515C302906D0B84201DA011D05DA5B
:103060000121029115E00199491EEDE7002805DCD8
:103070000099411800910199091A03E0019A411C35
:10308000914200DD01910099401A401C02900120FC
:10309000C0070390200706D402990198814202DB01
:1030A0000020C043029000206946C87707AF012185
:1030B00003980337C907884224D0022011902B209F
:1030C0001290039800280CDA404203902D201290B1
:1030D00007E00A210398FDF707F830317F1E0390BF
:1030E00039701199481E11900029F2DC03980028CC
:1030F000EFD1791E129808703078202108404530B1
:10310000BF1E387006A8C01BC01D03901098007821
:10311000002800D00120019941180298C017091811
:10312000039809180498401A401E0490E00306D43E
:1031300021461A9B199A049800F05EF845191098D8
:103140000078002803D01A9A199990476D1CE00363
:1031500024D521461A9B199A049800F04DF8451978
:103160001CE00098002807DB00990598884203DDE1
:103170001598405C199901E0199930201A9A9047E6
:1031800000986D1C401C00900298401E0290002880
:1031900004D11A9A2E20199990476D1C0199481E46
:1031A00001900029DDDC05E038781A9A7F1C199916
:1031B00090476D1C0399481E03900029F4DC2146BA
:1031C0001A9B199A0498ACE62D0000002B00000011
:1031D0002000000000000000F8B5044600251E464F
:1031E0001746880404D405E039462020B0476D1CFA
:1031F000641EF9D52846F8BDFFB50446002581B008
:103200001E46C80301D5302700E02027880404D5D6
:1032100005E038460399B0476D1C641EF9D5284671
:1032200005B0F0BD13B57D23DB00012269460248DD
:10323000FEF72EFF00981CBDFC00002090B0FEF7AA
:1032400081FA002405200094C00402250A90099404
:1032500008950B946846FEF78DFB002800D0FEE72A
:1032600007200C900E9401210D950F940CA8FEF7E9
:10327000ADFA002800D0FEE7FDF72EFB4D4842696D
:103280000121C9040A434261406902940840059043
:103290004948019007208002009069464748FEF7A0
:1032A00099F9002202210720FEF78CFAFFF742F974
:1032B0004448434901608460C4604B210461C901F2
:1032C000846141600C2144624161FEF744FE0028A4
:1032D00000D0FEE73B48FEF75BFE002800D0FEE78B
:1032E000FDF72CFCFEF73CFF36480321803085605B
:1032F000C1603549012642C00146344D083928468F
:10330000FEF768F90022B1022846FEF707FA00220C
:10331000F1022846FEF702FA002204212846FEF7B1
:10332000FDF92B4DAC61EC61696A6869401AA862CD
:103330002E720720FEF73AFA0920FEF737FAFDF75A
:103340009DFCFF20F530FDF749FC1E484038FEF794
:103350001FFD002800D0FEE7FDF7AEFCFFF712F8D6
:10336000FEF72AFFA8890028F6D1FDF7A5FAFDF798
:1033700009F8184A184BFCF795FFFDF725F8686522
:10338000FDF70EF802460B4614A0FFF781FA697AA2
:1033900015A0FFF77DFAA969002902D017A0FFF751
:1033A00077FAE969002902D018A0FFF771FA052021
:1033B000A881D1E700100240000021100008004859
:1033C00000380140FC000020040C0000000400480C
:1033D00000000020B4D934E70C684A3F0A0D2025CC
:1033E0006620560D000000000A0D53545F416E74B4
:1033F00069203D2025640A0D000000000A54696D13
:10340000655F4F70656E3A20257500000A54696D3E
:10341000655F436C6F73653A2025750000000000FE
:103420000000000001020304060708090000000074
:103430000102030454340008000000207000000062
:1034400054290008C434000870000020A8050000BA
:103450006429000800000000000000000000E803EC
:103460000A000000000000005802000000000000F8
:1034700000000000140000004600000000000000F2
:1034800000000000000000009A99993E0A00000028
:10349000000000000000000000000000000000002C
:1034A000000000000000000000000000000000001C
:1034B00000127A000100000004000000000000007B
:0434C0000000000008
:04000005080000B53A
:00000001FF
