:020000040800F2
:10000000A8080020CD000008E94200085F3F000872
:1000100000000000000000000000000000000000E0
:10002000000000000000000000000000196100084E
:100030000000000000000000515800089161000815
:10004000DF00000800000000DF000008DF000008FB
:10005000DF000008DF000008351E0008511E000800
:100060000000000011140008DF000008DF00000895
:10007000DF000008DF000008DF00000800000000CB
:10008000DF0000080000000000000000DF000008A2
:10009000DF00000881620008DD620008DF00000860
:1000A000DF000008DF000008DF000008DF000008B4
:1000B000DF0000080448854600F028FC004800479F
:1000C00055700008C046C046A80800200448804774
:1000D00004480047FEE7FEE7FEE7FEE7FEE7FEE72F
:1000E000D9610008B500000830B50B460146002074
:1000F0002022012409E00D46D5409D4205D31D462E
:100100009540491B2546954040191546521E002D25
:10011000F1DC30BDF0B51FB40646002082B00546C4
:100120004024019100901BE0019922460F46304681
:1001300000F052FA049A059B801A994110D3104698
:100140001946224600F038FA361A8F4101972246A6
:1001500001200021009F00F02FFA38184D41009037
:100160002046641E0028DFDC019B009829463246A9
:1001700007B0F0BDF8B502464A40D40F42004B002C
:1001800052085B089A4202D20246084611464A00CB
:1001900023D0C30D4A00DDB2120EAD1A202D35DA80
:1001A00049020126490AF6058A19002C00D052425C
:1001B00020214F1B1146B9402A411018C20D9A4206
:1001C00021D0002C17D0012D08DCDA05801AD20FBF
:1001D0008019D207DBB200F018FAF8BDDA05801AF0
:1001E000012340001B06C01880185A428018CA0F0D
:1001F0001043490007E04908C2071143DA05801A95
:1002000080194008801800F0F8F9F8BD610001225B
:10021000511A001BF7E70122D2075140AAE7012239
:10022000D2075040A6E7024670B54A40D30FDB071D
:1002300040002DD04A002AD0010E140E00021202F6
:100240000919400A520A8418E50104465443000A79
:10025000120A2E045043A4194219200CC543AA18AF
:10026000120C0125AD03521C521912047F392404CB
:1002700000D0521C104301D44000491EC2B20C06EB
:10028000C0092018401C4008802A02D003E000204A
:1002900070BD40084000002900DA0020184370BDFE
:1002A00070B502464A40D50F40004A00ED074008AD
:1002B0005208002814D0002A12D0C40DD30D4102D8
:1002C0000120C0055202490A520AE41A09181218FC
:1002D0007D34914201D3641C00E04900002C01DA16
:1002E000002070BD0023914201D3891A03434008C6
:1002F00049000028F7D100290AD0914202D10121FA
:10030000C90705E0914201D2012101E00121C94361
:10031000E005C018401900F070F970BDF0B51FB4C9
:1003200088B00B990998002448400999C00F4900EA
:1003300049080991C0070B990090490049080B91A1
:1003400009990898A64608431CD00B990A980843B7
:1003500018D0099801244000420D4800410D099829
:1003600024050003000B204309900B980003000BA9
:1003700020430B9050181C4940180022019014464D
:10038000104605E0002001460DB0F0BD032801DA5B
:10039000034600E003239C46C11A0AAE0AE05F0050
:1003A00008ADED5B4F00F75B7D430027AA187C4149
:1003B000491C5B1E6145F2DD410004AB5A52210429
:1003C000120C0A43240C401C0828DFDB0198029021
:1003D0000099704601910090059B049A0799069830
:1003E00000F059F9D0E700000DFCFFFFF0B50C4616
:1003F0005C4085B0E40FE40703944C0000266408D9
:1004000059009446490802460296224321D062468A
:100410000A431ED06200570D4A000E032303550DF8
:10042000012402462C492405781B1B0B360B40186F
:1004300023432643614600901C46501AB44103D31F
:100440000098401C009002E0921800985B41002840
:1004500003DA0020014605B0F0BD002001210905A6
:100460000746864611E064461D46141BB54106D377
:100470006546521BB341744607430C43A646CD075D
:1004800040084908284392185B4105460D43EAD1CC
:100490001046184313D06046194650407140084337
:1004A00006D06046101AB34106D20122002306E0AE
:1004B00000220123DB0702E00122D24353100098FF
:1004C00074460105381C6141029C039D0019694175
:1004D00000F0D4F8BFE70000FD03000010B50022D3
:1004E0009623114600F091F810BD00000EB50549A5
:1004F0000291002100910A460B46019100F0CBF8D1
:1005000003B000BD33040000410040020122400A54
:10051000D205090E80187F2901DA0020704796293C
:1005200003DC9622511AC8407047963988407047BC
:10053000C20FD207400040080BD0C10D0723DB01DA
:10054000C91840020905400A1143C2084007114377
:100550007047002001467047CB0FDB07490010B5FC
:10056000490802460A4307D00A0D07240903E4019B
:10057000090B121B002A01DC002010BDC900440F2A
:100580000C43C100E018D205801800F036F810BD09
:100590000122D207002800DB101A002900DB511AC3
:1005A000814270470122D207002800DB101A00297F
:1005B00000DB511A8842704710B5202A04DB01463F
:1005C000203A9140002010BD914020239C1A034600
:1005D000E3401943904010BD10B5202A04DB0846C3
:1005E000203AD040002110BD0B46D340D0402024FB
:1005F000A21A91400843194610BD002904DA401C94
:10060000490001D140084000704770B40024050C37
:1006100005D11024000402D1002921D01124050E97
:1006200001D100020834050F01D10001241D850FFE
:1006300001D18000A41C002801DB4000641C0029BB
:1006400008D020252E1B0D46F540A14000D00121E9
:100650002943084301061B1B000ADB1D02D50020AD
:1006600070BC7047DB05181880180029F8DA401CA8
:100670004900F5D170BC40084000704710B5002B10
:1006800008DA0024401C614192185B411A4301D1F1
:100690004008400010BDF0B51FB482B005460C0004
:1006A00003D0084606F004F802E006F001F8203016
:1006B0000246009021462846FFF77EFF049B059ADC
:1006C00004460F4618431143084314D018461043FC
:1006D0001BD0009840210A1A18460599FFF77CFFA5
:1006E00005460E46009A05990498FFF765FF0843F2
:1006F00005D0012004E02046394607B0F0BD0020B7
:10070000C11705430E432C43374300990E986305E8
:10071000401A7905E40A00220C43FD0A0A3002D58A
:1007200000200146E9E70105101969410C9C0D9D67
:1007300000196941FFF7A2FFDFE70000F0B50746A7
:100740000846584087B0C00F049048000E46590034
:1007500040084908BC1A884105D2384631461E4631
:1007600017460B4602465800400810434DD0300D46
:10077000039040055900400D490D0590401A029024
:10078000402873DA18030121000B09050843019082
:1007900004980092002806D01146019A4942002090
:1007A000904100910190029840210A1A0199009805
:1007B000FFF702FF05460C466B4607CB00F0B8F882
:1007C000C0197141039A0E0D0023D71756401A46DF
:1007D0007A40164344D0049A002A2DD0029A012A66
:1007E000039A15DC1205C01A914101263605001C3A
:1007F0007141D20F059ED2070093019202962A46BC
:100800002346FFF748FF07B0F0BD38463146FAE708
:100810001605234A0F46B218C01AB741012109052F
:10082000001C4F4100187F41114618187941E20F12
:1008300010436D19644113E0E2076D081543640825
:10084000C2071443039A01261205C01A91413605C6
:10085000001C7141CE07400830434908C01851417F
:100860002A462346FFF70AFFCDE7FFE70498012257
:100870004000C117121A00238B4104983146C41757
:10088000381AA141EEE730B40124E407634030BCDC
:1008900054E730B40124E407614030BC4EE7000067
:1008A0000000E0FF4A0009030123090B1B0519435F
:1008B0000A4B10B5520D9A4202DA0020014610BDD3
:1008C000064B34339A4203DC9A1AFFF785FE10BDBB
:1008D000034BD218FFF770FE10BD0000FF030000AD
:1008E000CDFBFFFF10B5002904DB0124E4074042E3
:1008F0008C412146002B04DB1C460123DB075242BE
:10090000A341994200D1904210BD0000064C012540
:10091000064E05E0E36807CC2B430C3C98471034A7
:10092000B442F7D3FFF7CAFB2873000848730008E6
:1009300010B5202A06DBCB170846203A1041C11714
:100940000B4306E00B461341D0402024A21A9140ED
:100950000843194610BD70B58C180578401C6B070C
:100960005B0F01D10378401C2A1106D10278401C8C
:1009700003E006780E70401C491C5B1EF9D12B0762
:1009800005D40023521E0DD40B70491CFAE70378DE
:10099000401CCB1A921C03E01D780D70491C5B1C97
:1009A000521EF9D5A142D8D3002070BD0021064ABD
:1009B00008464300D35A401C591880B21F28F8D962
:1009C000C802000C704700001004002010B5234C32
:1009D00021482060204601F0ADFB002800D0FEE752
:1009E00001208007606000202346012104220C338F
:1009F000A06007C360762076A176FF22E076C2323F
:100A0000E261164A206220321171A0620807E0629A
:100A1000124801F0E1FB002800D0FEE70F4801F08A
:100A2000A7FA002800D0FEE70C48032140300160FF
:100A30000121090341600146403801F0F1FA002824
:100A400000D0FEE720220649044801F0DDFC002822
:100A500000D0FEE710BD000000240140640100202A
:100A60001004002070B5044600688168490720D54D
:100A7000816810264907002905DA8168890702D4B0
:100A800081683143816002F03FF905460DE002F0D4
:100A90003BF9401B022808D9A06B3043A063E06BF0
:100AA00001210843E063084670BD20688068400764
:100AB000EDD4002070BD10B50146406A826B502312
:100AC0001A420AD1816B01225202114381630168EB
:100AD000CA681205920F05D020E0006B026B084631
:100AE000904710BD827E002A18D10A68120715D5DA
:100AF0008A6853070122002B09DB4B680C24A343AF
:100B00004B60816B130299431143816306E0816B53
:100B1000202319438163C16B1143C16301F008FBBA
:100B200010BD10B5406A816B402211438163C16BD7
:100B300004221143C16301F04DFB10BD10B5406AA2
:100B400001F0F7FA10BDF8B504460068816889071E
:100B5000890F012928D10168C90702D1C168090498
:100B600022D58168052211401025012601290FD1C7
:100B7000816802221143816021680320086002F02D
:100B8000C3F807460CE002F0BFF8C01B022807D9E3
:100B9000A06B2843A063E06B3043E0630120F8BD05
:100BA00020688068C007EED10020F8BDF8B5044683
:100BB00000200090206881688907890F012905D1EC
:100BC0000168C9072CD1C168090429D48168154A74
:100BD000102611400125002915D181682943816023
:100BE000124811490068FFF77FFA00E0401E0090AC
:100BF0000028FBD102F088F807460CE002F084F8E8
:100C0000C01B022807D9A06B3043A063E06B2843C8
:100C1000E0630120F8BD20680068C043C007EDD143
:100C20000020F8BD1700008040420F005001002056
:100C3000F0B585B06B480190007B012823D169484D
:100C40006030818A039100291DD0C18A0291002958
:100C500019D005460746403D803F2A7B3946603122
:100C6000064600914036B97C0024130005F04FFD84
:100C70000504144C77AD0B00828F002A05D00120AB
:100C80002873BC743C7405B0F0BD0129FBD1008B06
:100C90000028F8D1BC74F6E752486030808F0028F5
:100CA000F1D1504C6A8FE03420467F21C038C9050D
:100CB000C08F002A11D0002821D1606AFFF75AFAAC
:100CC0000746E0630398FFF709FC3946FFF7ABFAE4
:100CD000FFF71AFC7082022010E000280FD0A06AF3
:100CE000FFF748FA0746E0630298FFF7F7FB39463B
:100CF000FFF799FAFFF708FC708203202873394840
:100D00000A216030C187BEE70199497B002900D1E3
:100D10002C7334486030C08F0028B4D1FFF746FEF2
:100D2000718A884202D2B18A884203D3387C401C3F
:100D3000387400E03C74387C797C88420CD3042001
:100D400028730120B87427486421603001836C87C0
:100D5000EC87348006212FE0BC74032031E0019938
:100D6000897B002900D12C73E97A022937D01D48EC
:100D70006030C08F002886D1FFF718FE718A884244
:100D800002D2B18A884203D3387C401C387400E018
:100D90003C74387C797C884211D104202873114935
:100DA00001203080603109880029ACD00221B9745B
:100DB0006C87EC87308007210098017363E7BC746F
:100DC000012008496031C8875DE73288002A9AD13E
:100DD000012904D0022902D1C08C6887EC872C73CA
:100DE00051E7000020000020F8B5012149032E48FA
:100DF00001F07EFF2D4F3C46603C214625462031C8
:100E000080357875012809D1B87D002806D1087D84
:100E1000002803D00120E070E88DA881234E203EF9
:100E2000F078002833D1087D01280DD002282ED17A
:100E3000887A00282BD1E079002805D1707A012822
:100E400006D0B07A01280BD0E078012812D01EE03D
:100E500017A005F01DFCE88DA8810120E07016E0C8
:100E60001BA005F015FCE88DA8810120E070002092
:100E7000B0720CE0A889002809D11DA005F008FC7B
:100E800021A005F005FC0020E070E88CF087A8891F
:100E9000401E312804D2787D012801D10820387302
:100EA000787DB875F8BD000000040048600000209F
:100EB0000A0DA6DBB0CAC3F6AAF9BA58BCD03120D5
:100EC0002620B5A5ABDDAEC9B6A1B35DA5DF000098
:100ED0000A0DA6DBB0CAC3F6AAF9BA58BCD03220B4
:100EE0002620B5A5ABDDAEC9B6A1B35DA5DF000078
:100EF0000A0DA6DBB0CAC3F6AAF9B5A5ABDDAEC92B
:100F0000B6A1A8ECB94600000A0DC3F6AAF9AEC90D
:100F1000B6A1B35DA5DF000010B5FF2109200022B6
:100F20000131C00601F0E9FE10BD10B50122092013
:100F30001102C00601F0E1FE10BD0000F8B5964CAC
:100F40000027227B607B824200D0A7739248924E9A
:100F5000417C3225A036C07B130005F0D8FB0BF294
:100F60000719314A618B9AB8DFF8F200A27B002A98
:100F700002D1E5730820D8E0002878D1DBE0B08901
:100F8000002801D12773A773E07B002870D0FCE014
:100F9000A27B002A71D1FF20E5732D3072E0FFF7AC
:100FA000C4FF03E0002901D0FFF7B6FFB089002895
:100FB0006CD0E07B002802D1207C002871D1A5E014
:100FC000A27B002A6ED11420E0736420C9E0FFF7F1
:100FD000ACFF03E0002901D0FFF79EFFB089002895
:100FE00073D0E07B002871D1207C00286ED01420C3
:100FF0008AE0A27B002A04D0002806D0FFF795FFE4
:1010000007E0E5730120A073F8E7002901D0FFF79E
:1010100083FFE07C0128CCD12773A773E774C8E76E
:10102000A27B002A04D0002808D0FFF77EFF09E049
:10103000E573022020750120A073F6E7002901D096
:10104000FFF76AFF207D002801D12773A773E17B9A
:10105000002902D1217C002977D1617C002905D1AA
:10106000A17C002902D0E573401E20758DE05FE071
:1010700068E002E0A27B002A02D0002892D08EE72E
:10108000E5736420B0810120A07388E72773A773FC
:101090008FE7A27B002A06D000280BD0FFF745FF80
:1010A0000CE052E056E01420E0736420B08101208F
:1010B000A073F3E7002901D0FFF72EFFE07C0128A1
:1010C0008FD12773A773E7748BE74EE050E0A27BC4
:1010D000002A04D0002807D0FFF727FF08E0E573B7
:1010E000B5810120A073F7E7002901D0FFF714FFB5
:1010F000B089002801D12773A773E07B002805D1B0
:10110000207C002802D0642060743EE0607C0028CF
:101110003BD1A07C002838D0E57336E0A27B1E25A9
:10112000002A00D028E7E5730520B0810120A073D4
:10113000FFF7FBFE23E70029FCD0FFF7EDFE1EE7DB
:1011400005E01EE0207C00281FD065741DE0A27B16
:10115000002A03D0002800D13CE738E71420E073D0
:101160000720B0810120A07331E72773A77338E708
:10117000607C002809D1A07C002806D01420E073F0
:1011800003E0A773FFF7C8FEE774207B6073E07B82
:101190002074607CA074F8BD6000002008B513487E
:1011A0004269012149040A43426142690A400092AE
:1011B000426949000A43426142690A400092426919
:1011C00049000A43426142690A400092426949006B
:1011D0000A43426142690A400092426989000A4317
:1011E000426140690840009008BD000000100240C4
:1011F000F8B5464D6A8FE98F10462E462C460843B7
:10120000203E4034002806D1F07F012803D1A08D74
:1012100060850020F0773D4F403FB879002A04D127
:10122000012802D1628D002A02D0002911D026E0C7
:1012300000F0F4FCE08CE8870220B8710120F07720
:101240003248C030816B491C816300F06FFE30A0D2
:1012500013E0022813D1608D002810D100F0DEFCCD
:10126000E08C68870120B871F0772848C030816928
:10127000491C816100F05AFE29A005F009FA00F02E
:10128000F3FC03F08DFA288F00283ED128A005F04A
:10129000FFF9FFF78BFBFFF729F9334A334BFFF7D1
:1012A0003DF8FFF759F9194EC036F064FFF740F9E1
:1012B00002460B462EA005F0EBF9F06AFFF738F96D
:1012C00002460B462FA005F0E3F9B97932A005F0EC
:1012D000DFF9698F002906D033A005F0D9F938A0CD
:1012E000F16905F0D5F9E98F002906D039A005F09C
:1012F000CFF93EA0F16905F0CBF9618D002902D04C
:101300003FA005F0C5F90A202887F8BD400000205D
:101310000A0D4E6F69736520746573742031000087
:101320000A0D4E6F69736520746573742032000076
:101330000A0D3D3D3D3D3D3D3D3D3D3D3D3D3D3D40
:10134000B460C0F4B4FAB8D52DAAACBA41736361E5
:101350006E323D3D3D3D3D3D3D3D3D3D3D3D3D3D97
:101360003D3D3D3D3D0000006666666666664A3F5F
:101370000A0DA5D8AB65B971C0A3ADC8203D202525
:10138000662056000A0DABDDBEF7B971C0A3202060
:10139000203D2025662056000A0D4143545F446FCE
:1013A0006F72203D202564000A0A0DB67DAAF9B3AC
:1013B000D1BE6CAEC9B6A1203D202564206D73005E
:1013C0000A0DB67DAAF9A6B8BCC6203D2025640A40
:1013D000000000000A0A0DC3F6AAF9B3D1BE6CAE34
:1013E000C9B6A1203D202564206D73000A0DC3F607
:1013F000AAF9A6B8BCC6203D2025640A000000005A
:101400000A0D544D5F444C59203D202564000000D6
:1014100010B50248006B01F06CF810BD64010020AB
:1014200010B504460068054940181421FEF75CFE1B
:10143000800020640248E06310BD0000F8FFFDBF9B
:101440000000024030B5056C0124AC40C56B6C60F7
:10145000046863604368102B036803D099600068D8
:10146000C26030BD9A600068C16030BDFEB5C44C3A
:10147000208F00287ED1C3A005F00AF9FFF796FA65
:1014800025464035E886FFF731F8C94AC94BFEF7D3
:1014900045FFFFF761F82646C036F064F06AC6499A
:1014A0000190FEF7C0FEFFF743F8C44AC44BFEF7B5
:1014B0009DFF074600910198FFF73AF80246688EB3
:1014C0000B4600990290BFA00097019105F0E0F84B
:1014D000F06CB9490190FEF7A6FEFFF729F8B74A6C
:1014E000B74BFEF783FF074600910198FFF720F8FE
:1014F0000246E88E0B4600990290BEA0009701912B
:1015000005F0C6F8306BAC490190FEF78CFEFFF792
:101510000FF8AA4AAA4BFEF769FF07460091019807
:10152000FFF706F80B46A98E029100990246BDA06E
:101530000097019105F0ACF8698FC6A005F0A8F8F6
:10154000B06B4100C8A005F0A3F8CCA005F0A0F84E
:10155000CBA005F09DF8A98ACEA005F099F8E98AFC
:10156000D3A005F095F8C5A005F092F82646403EB8
:10157000F17900E003E1D5A005F08AF8608FE18FF2
:1015800027460843203F00285CD0387E012813D12D
:10159000BAA005F07DF8E88BFEF7A0FFD749FEF76B
:1015A0007FFEFEF7C5FF02460B46317DD4A005F055
:1015B0006FF8DBA005F06CF8608F00281FD0FEF7F5
:1015C0008DFFCE49FEF76CFEFEF7B2FF02460B46DA
:1015D000DAA005F05DF8707AFEF780FF0090B07A2F
:1015E000FEF77CFFDC49FEF71EFE0099FEF758FE71
:1015F000FEF79EFF02460B46D8A005F049F8E08FA3
:1016000000281FD0FEF76AFFBC49FEF749FEFEF72F
:101610008FFF02460B46D6A005F03AF8707AFEF727
:101620005DFF0090B07AFEF759FFCB49FEF7FBFD56
:101630000099FEF735FEFEF77BFF02460B46C7A07A
:1016400005F026F84E4840308189002902D0CFA00D
:1016500005F01EF84A4D217B8035002910D0D1A01D
:1016600005F016F828464030C06BFEF761FF0246D1
:101670000B46D1A005F00CF8698AD4A005F008F853
:10168000B87A012803D1E17AD5A005F001F8B07C41
:10169000002815D079A004F0FBFFB17CD7A004F09E
:1016A000F7FF37484030008BFEF718FF9349FEF7ED
:1016B000F7FDFEF73DFF02460B46D7A004F0E8FF1A
:1016C000F07B01280DD16DA004F0E2FFDBA004F057
:1016D000DFFF6989DEA004F0DBFFE989E2A004F006
:1016E000D7FF274D4035A88B002806D063A004F013
:1016F000CFFFA98BE2A004F0CBFFF07B002806D03F
:101700005EA004F0C5FFF17BE3A004F0C1FFA07868
:10171000012809D159A004F0BBFFE7A004F0B8FFED
:10172000A178EEA004F0B4FFE078012809D153A01D
:1017300004F0AEFFEDA004F0ABFFE178F5A004F0FB
:10174000A7FF0F4D2035287B002806D04BA004F0C2
:101750009FFF297BF4A004F09BFFB078012806D1FD
:1017600046A004F095FFB178F4A004F091FFF8A032
:1017700004F08EFF7079012801D10A202087FEBD78
:10178000400000200A0D3D3D3D3D3D3D3D3D3D3D80
:101790003D3D3D3DAAACBA417363616E3D3D3D3D6B
:1017A0003D3D3D3D3D3D3D3D3D3D3D3D3D3D3D00A6
:1017B0006666666666664A3F0000A041333333338F
:1017C0003333FD3F0A0D20ABDDBEF7A457ADAD5658
:1017D000203D2025322E336620562F2049203D20E3
:1017E00025322E326620412F204144203D202564A1
:1017F000000000000A0D20A5D8AB6520202020564F
:10180000203D2025322E336620562F2049203D20B2
:1018100025322E326620412F204144203D20256470
:10182000000000000A0D20ABDDBEF7A455ADAD569B
:10183000203D2025322E336620562F2049203D2082
:1018400025322E326620412F204144203D20256440
:10185000000000000A0A0D20ADADA6ECB0F5A6E62A
:101860004144203D202564000A0A0D20B942C2E00F
:10187000A6B8BCC6203D2025640000000A00000078
:101880000A0D20A8BEA7A8B0F2B7C74144ADC83A18
:10189000000000000A0D204144435F4F50454E5F59
:1018A0004D41585F313675203D2025640000000011
:1018B0000A0D204144435F434C4F53455F4D41580F
:1018C0005F313675203D2025640000000A0D20A5FB
:1018D000D8AB65AAF9AAACBA41203D2025642020E6
:1018E00028303AB0B1A4EE2F313AB67DAAF9A4A4BB
:1018F0002F323AC3F6AAF9A4A4290000000020411F
:101900000A0D20BD77A842B942C2E0AAACBA412074
:101910003D202564202825322E3066ACED290000BC
:101920000A0D2028313AAAECAC712F323AA4A4ACAB
:10193000712F333AA7C0AC71290000000A0A0D20AC
:10194000B67DAAF9B3D1BE6CAEC9B6A1203D2025A3
:10195000322E3166207300000000C8420A0D20B903
:1019600042C2E0B374ABD7203D2025332E3266004F
:101970000A0A0D20C3F6AAF9B3D1BE6CAEC9B6A14E
:10198000203D2025322E3166207300000A0A0DC347
:10199000F6AAF9B5A5ABDDAEC9B6A1203D202564F8
:1019A000206D73000A0A0DA8BEC0A3AAACBA4120DC
:1019B0003D202564000000000A0A0DA8BEC0A3ACAB
:1019C000C9C576ADAB203D20256600000A0A0DA8EA
:1019D000BEC0A3ACC9ADADADC8203D20256400009C
:1019E0000A0A0DB1B2B5A1C3F6AAF9AAACBA41531D
:1019F000545F436C6F73653D202564000A0D20A879
:101A0000BEA7A8C4B2B56F31B67DAAF932C3F6AA93
:101A1000F9282564290000000A0A0D20B67DAAF9DC
:101A2000A8BEA7A8B0B1A4EEB5A5ABDDAEC9B6A15E
:101A30002825322E3066ACED290000000A0D20B9B1
:101A400042C2E04144ADC828A759AEC9293A0000B6
:101A50000A0D204144435F4F50454E5F4D41585F52
:101A600062203D20256400000A0D204144435F436D
:101A70004C4F53455F4D41585F62203D2025640027
:101A80000A0D20544D5F4144435F52656C616F64A1
:101A9000203D2025640000000A0D204144435F449E
:101AA00065746563745F53746172745F466C6167DB
:101AB000203D2025640000000A0D202F2F2F2F2FFE
:101AC0002F2F2F2F2FACF5A57EBD75B0BBB4FAC458
:101AD000B2B56F5C5C5C5C5C000000000A0D2046E7
:101AE0006C61675F4952203D202564000A0D202F5C
:101AF0002F2F2F2F2F2F2F2F2FB7CFC3FAB750B441
:101B0000FABEB9B0BBB4FAC4B2B56F5C5C5C5C5CE5
:101B1000000000000A0D20466C61675F534D4B20AA
:101B20003D202564000000000A0D20B8C1BBEFBEB7
:101B3000B9AAACBA41203D20256400000A0D20ADB1
:101B4000ADA6ECB0BBB4FAB67DA96C28256429001B
:101B50000A0D00007D2189014843074948610020A2
:101B6000886101220A610A69D30701D0D203FAD53C
:101B7000086188617047000000E000E070B510481F
:101B8000104D807D012817D001220121284601F047
:101B9000B4F80B4CE0342069FFF7DCFF012202218E
:101BA000284601F0AAF82069FFF7D4FF064801F0A3
:101BB00039FF002802D0FEE70022E6E770BD0000F2
:101BC0002000002000040048F001002070B51048FB
:101BD000104D807D012817D000220121284601F0F8
:101BE0008CF80B4CE0342069FFF7B4FF012202218E
:101BF000284601F082F82069FFF7ACFF064801F0A3
:101C000011FF002802D0FEE70122E6E770BD0000C8
:101C10002000002000040048F001002070B50F48AB
:101C200001F010FF002800D0FEE70920012240212A
:101C3000C00601F062F80A4C2069FFF78BFF094DDE
:101C400000220221284601F058F82069FFF782FFA0
:101C500000220121284601F050F870BDF00100205B
:101C60000001002000040048F0B5594BD87E01283F
:101C700048D100211C46D976203CA0791A468446DA
:101C8000A07C603286469F7A154620460126403564
:101C90004030002F02D0012F1ED02CE06346002BD5
:101CA00005D0012B06D0022B06D0E17121E0E171B5
:101CB00001731EE0E67158E07346022B1BD002232D
:101CC000E3714187D38CC387143B13809388938738
:101CD0000A236B80E1700EE03D4C67462034E47AC5
:101CE000002F10D0012F3AD0022F46D0384B203B86
:101CF000D9714187C187438FC08F034302D03220FF
:101D00009083D183F0BD324D203DEF79012F02D079
:101D1000022F0BD020E0448F14814187002C01D08A
:101D20001E7719E019775977997715E0C78F578192
:101D3000012C02D0022C08D00DE0002F01D05E77DC
:101D400009E059770223C37205E0002F01D09E7786
:101D500001E09977C672C187E9710173CBE71C4C2A
:101D6000203CE671197759779977C187D38C4387DF
:101D7000938893870A236B80BDE77646022EBAD0FC
:101D8000134E0227203EF77141871F7F012F04D099
:101D9000012C04D0022C0DD011E0D38C0EE05B7F1F
:101DA000002B05D05389C3879BB20A3B138006E002
:101DB000138DF8E79B7F002B07D05389C387938847
:101DC00093870A236B80F17095E7AB88F6E70000F4
:101DD00020000020F8B5154C607E0A2824D16079D7
:101DE00025460A2700266035012812D0012060719F
:101DF0002E73FFF791F8FFF78FF8FFF78DF8FFF7D5
:101E00008BF8FFF789F80A4801F0C2FF002807D0D5
:101E1000FEE76671064801F09EFF002802D0FEE74B
:101E200002F098FD2F736676F8BD000000000020D8
:101E30003002002010B505484169090704D5082182
:101E40004161084600F06EFC10BD00000004014036
:101E500010B514494869400501D508151FE04869C7
:101E6000000505D50120C00219E000F05BFC10BDA3
:101E70004869C00402D50120000310E0486900064B
:101E800002D580204861F0E74869000402D50120AE
:101E9000C00304E048698004E9D50120400348619B
:101EA000E3E700000004014000B51B4887B0426929
:101EB0000121C9040A43426142690A40059242690C
:101EC00049100A43426142690A4005924269090188
:101ED0000A43426140690840059010480190002083
:101EE000029007208002009069460D4800F05CFED9
:101EF0008020009069460B4800F056FE0520400304
:101F000000906946084800F04FFE0022012107209A
:101F100001F054F907B000BD00100240000021108C
:101F200000080048001400480004004870B50AA0EA
:101F300004F0AEFB01220C4DD4022146284600F0ED
:101F4000DCFE0A480069FFF705FE0022214628460C
:101F500000F0D3FE70BD00000A0D2D2D2D2D45582B
:101F6000545F434E5400000000040048000100206C
:101F7000F8B5054604462035287D0026012808D0FE
:101F800001202875206881688907890F012908D1F7
:101F900001E00220F8BD0168C90738D1C168090411
:101FA00035D4A16BFF220132914302221143A16378
:101FB000C1688907890F0091C16889088900C160DB
:101FC0002068816892071143816000F09DFE0746FA
:101FD0000EE000F099FEC01B022809D9A06B022177
:101FE000884310210843A063002028750120F8BD14
:101FF000206880680028ECDB2068C168009A1143E3
:10200000C160A06B80088000401CA06304E0A06B4E
:1020100020210843A0630126002028753046F8BD22
:10202000F8B50025044620340095227D012A39D0D8
:102030000122227503689E68760767D4384F4E6880
:10204000BE424DD09E6A0F78BA4016439E6201236D
:10205000C26A1B079A421FD0012A1DD0022A1BD038
:10206000032A19D0042A17D0052A15D0062A13D01E
:10207000072A11D002688B6856697607760FB3423B
:102080000AD05369DB08DB005361006842690B7AB0
:102090005B075B0F1A4342610A68102A04D0112AB9
:1020A00002D038E00220F8BD1E488368102A07D00D
:1020B00001229205134383600868102803D02AE0A8
:1020C0000122D205F6E7194817490068FEF70CF817
:1020D0000A21484300E0401E00900028FBD11AE08E
:1020E000986A0E78B240904398620968102901D02E
:1020F000112910D10B488268102904D001218905CB
:102100008A43826007E00121C905F9E7816B20223B
:10211000114381630125002020752846F8BD000089
:10212000011000000027014040420F005001002034
:102130007047704770B504003BD0A06B0221084384
:10214000A0632046FEF78EFC00260546002832D00C
:10215000012D2AD021684A689F2082434A60216865
:1021600008602068C168184A1140C1602068016990
:1021700089008908016120684169C908C900416175
:102180002068016A114A114001622068816AC90C05
:10219000C90481620E4881680322920591438160DF
:1021A000204600F0D5F8E663A6632034267528465D
:1021B00070BD012070BD2046FEF7C5FC0546012814
:1021C000F3D00120A063C5E700023E8300F000F0D9
:1021D0000027014070470000F8B50026044600289B
:1021E00005D0A06B25462035002802D007E001204D
:1021F000F8BD0020E0632875204600F0BDF8A06B14
:102200001022C006002870DB2068816849076CD462
:10221000A16B1301994302231943A16381688907C4
:10222000890F012905D10168C9070FD1C1680904C7
:102230000CD4C16818239943A3681943C16020686E
:102240000169636889008908194301612068C168D0
:102250003D4B1940C160207E617E8003C903084365
:10226000A17E4B031843A36A012B02D001231B0359
:1022700000E000231843E36818432369022B09D0C8
:10228000002318432B79E57E5B0018430123012DC1
:1022900002D00AE00423F4E7002927D0A16B20250F
:1022A0002943A163E16B1943E163E1690D46FF3DF9
:1022B000C23D02D0256A294308432168CD68054301
:1022C000CD600125E16A2D07A94213D0012911D063
:1022D00002290FD003290DD004290BD0052909D0DC
:1022E000062907D0072905D010E028E001210904BC
:1022F0000843DAE721684D69ED08ED004D6121687A
:102300004D69A78D7F077F0F3D434D612168C968E7
:102310000E4D2940814207D10020E063A06B800868
:102320008000401CA06308E0A06B0221884310439A
:10233000A063E06B1843E06301263046F8BDA06B54
:102340001043A063F8E700001902FEFFE7FF3F8398
:1023500010B50848C26841150A43C260C2688A4382
:10236000C26082698A43826109200121C00600F0AF
:102370006FF910BD0010024070B5204986B04A695F
:1023800005460120400402434A614A690240059221
:102390008A69001202438A618A69024005924A6989
:1023A000012002434A6149690026014005910090DD
:1023B00003200190092069460296C00600F0F4FB54
:1023C0000F48104C41C48020266060604000A0602F
:1023D0008000E06020202061C00160610948083C65
:1023E00000F062F8204600F0D3F82C6300220321AD
:1023F0000920656200F0E2FE06B070BD00100240E8
:102400000800024060040020F7B50446006800257B
:10241000806840073DD426462036307D01280AD00A
:1024200001273775607E012807D02046FEF7BEFBE6
:10243000050002D02EE00220FEBDA06B1649084028
:10244000FF2101310843A0630020E0633075216B58
:1024500012488862216B1248C862216B11480863D8
:1024600021681C20086020684168102211434160E7
:102470002068C1683943C1602168206B4031029BEC
:10248000019A00F0AFF8206881680422114381604E
:1024900000E002252846FEBDFEF1FFFFB70A000856
:1024A0003D0B0008230B000870B504001FD0206806
:1024B000016849084900016020680025056020681E
:1024C0004560206885602068C5602046FEF7A8FF4B
:1024D000216C01208840E16B4860A562E5622563BC
:1024E0006563A563203465702570002070BD0120F0
:1024F00070BDF0B4C16B0D6801680C680422066CF5
:102500001346B3402B420DD063070BD50B689B06D7
:1025100002D40B6893430B60016C8A40C16B4A6024
:10252000C16A19E00227B74002462F40012320323A
:10253000002F15D0A70713D50C68A40604D40C6887
:102540000A25AC430C605370036C02219940C36BA5
:10255000596000211170816A002916D0F0BC08472B
:102560000827B7402F4210D024070ED50C680E253F
:10257000AC430C60046C1946A140C46B616083637A
:10258000537000211170016BE6E7F0BC704700004A
:1025900070B5040021D0022120462030054641704C
:1025A000226811680E48A3680140606826691843D4
:1025B000E3683343184363691843A3691843E36925
:1025C0001843084310602046FEF72AFF0021A1634C
:1025D000012068702970084670BD012070BD0000A0
:1025E0000FC0FFFFF8B504468C4620300178002567
:1025F000012909D00126067041780027012905D05C
:10260000077002252846F8BD0220F8BD022141705E
:10261000A7632068016849084900016061462046B7
:10262000FEF710FFE06A00282068016802D00E2241
:10263000114306E00A221143016020680168042268
:10264000914301602068016831430160DAE70000CE
:10265000F0B5002258E0012393401C460C4052D0B4
:1026600096082B4DB6007519AF68AC4695072E0F2E
:102670000F25B540AE463D400927FF06B84201D1BF
:1026800000270FE0234FB84201D101270AE0224F73
:10269000B84201D1022705E0204FB84201D10327FB
:1026A00000E00527B740AF4212D11D4D2E68A6436A
:1026B0002E606E68A6436E60AE68A643AE60EE689C
:1026C000A643EE606546AD687446A5436446A560C2
:1026D000056856000324B440A5430560D508AD0045
:1026E0002D182E6AAC465507EF0E0F25BD40AE43A0
:1026F00065462E628568A543856045689D434560B3
:10270000C368A343C360521C0B46D340A3D1F0BDA2
:10271000000001400004004800080048000C004888
:1027200000040140F8B50546CBA003F0B1FFCE4848
:10273000002141730446817340342170C079CA4E30
:10274000607201218446A072C902374628466B1A7E
:10275000092220370125603688422ED018DC08284F
:1027600074D0802873D001218902884270D13273DD
:10277000BD4800224276E278012A69D0007901281A
:1027800066D0F07A2843F072787D012858D088E02E
:10279000581AB6497DD0401A7CD00321490388429B
:1027A00056D1E570FFF73AFA6420FFF7D3F9AE4847
:1027B000FD76857105720420A5E0AB48417E491C79
:1027C000C9B241760A2919D03273E17801293FD084
:1027D000017901293CD00121F97600258571257305
:1027E000C573317B092900D03573F17A0222114378
:1027F000F1720746C078012803D00AE00021317346
:10280000E3E7994E9AA08036B18903F041FFF08D3D
:10281000B081A078012801D1A5703D73608FE18F50
:1028200002460A4301D00122A271002801D00220F1
:1028300002E0002901D004203872BD7494A09FE00A
:10284000964800F055FA6073874E1DE0E8E09AE084
:102850005AE0707B401C707391A003F019FF0121B6
:1028600089028E4800F044FA6073707BF97B8842DD
:102870000AD92078002801D1FFF7A8F925708EA089
:1028800003F006FFFFF7A2F9607B0028E1D0717B1F
:1028900001E01FE0AEE08DA003F0FAFE20780128F1
:1028A00003D0607A022804D00DE0FFF7B7F98CA0BE
:1028B00066E090A003F0ECFEFFF7B0F96420FFF7AC
:1028C00049F969488570E5716748FD76857105723B
:1028D0008FA055E03273644800224276E278012AE4
:1028E00012D0827C022A0FD0007901280CD0A07867
:1028F000012807D0F07A04221043F072787D012875
:1029000003D028E003203073F8BD5849634800F035
:10291000EFF96073544E14E0707B401C70737FA01D
:1029200003F0B6FE51495D4800F0E2F96073707B38
:10293000F97B884205D925707EA003F0A9FEFFF738
:102940001DF9607B0028E7D0717B60A003F0A0FE3A
:1029500020780128A9D0607A012809D165A003F068
:1029600097FEFFF75BF96420FFF7F4F83E488570A7
:1029700025723D48FD76022181710321017273A009
:1029800003F086FEF8BD74A003F082FE36490020F5
:102990004876F87D0128F5D18021724800F0A8F929
:1029A00060731EE03048817B6FA003F071FE2E48FB
:1029B0002D49807B401C887380216A4800F098F97B
:1029C00060732948397C807B88420AD9264801797E
:1029D00001290AD0057165730520307369A003F0E1
:1029E00057FE607B0028DDD0F8BD002101716573C2
:1029F00068A0F4E76046022802D0E08F0028F3D0F8
:102A00000020E087A570FFF709F96420FFF7A2F81E
:102A10001548FD7685711E2101730572022072E74B
:102A20001148017A491CC9B20172042900D9057202
:102A30003273017A012906D002290AD0032904D071
:102A4000042904D105E0857101E002218171FD7640
:102A5000F8BD0021FAE700000A0DB1B1A8EEBEB939
:102A6000ABFCA54F3A200000000000200010000041
:102A70000A0DADABB773B8FCA44AB5A5ABDDC3F680
:102A8000AAF9AEC9B6A13A202564206D73000000F2
:102A90000A0D53544F50210A00000000000800485E
:102AA0000A0D4F50454E206B65792E2E2E2E2E701E
:102AB000726573730A0000000A0D4A4F47204D6F7C
:102AC00064653A4F50454E2E2E2E0A000A0D436F74
:102AD0006E74696E7565203D2025640A0000000053
:102AE0000A0D446F6F722053746F702E2E2E2E2E8F
:102AF0000A0000000A0D2D2D2D2D2D2D2D2DA5DFC9
:102B0000A759A4CFC2E02D2D2D2D2D2D2D2D000048
:102B10000A0D4F50454E210A000000000A0D434C9B
:102B20004F5345206B65792E2E2E2E2E70726573B5
:102B3000730A00000A0D4A4F47204D6F64653A43FF
:102B40004C4F53452E2E2E0A000000000A0D436CF8
:102B50006F7365210A0000000A0D4C6F636B210A38
:102B600000000000001400480A0D4C4F434B206B3E
:102B700065792E2E2E2E2E70726573732025640AB1
:102B8000000000000A0D4C4F434B7E7E7E7E7E7E11
:102B9000210A00000A0D554E4C4F434B7E7E7E7E2F
:102BA0007E7E210A00000000F8B500238DE001249C
:102BB0009C40A44622407DD04C68022C01D0122CAF
:102BC0000CD1DC08A40027183C6A5D07ED0E0F2627
:102BD000AE40B4430E69AE4026433E6205685E00D7
:102BE0000324B4400F79A543BF07BF0FB7402F435D
:102BF00007604D68012D05D0022D03D0112D01D0A5
:102C0000122D0ED18568CF68A543B7402F4387604A
:102C100047686546AF430D79ED06ED0F9D403D4396
:102C20004560C568A5438C68B4402C43C4604C68BB
:102C3000E40049D5284CA56901263543A561A4695E
:102C40009D0834400094254CAD002F19BC689D07A9
:102C50002E0F0F25B540AC430925ED06A84201D142
:102C600000250FE01E4DA84201D101250AE01D4DAF
:102C7000A84201D1022505E01B4DA84201D1032540
:102C800000E00525B5402543BD60184C25684E6819
:102C90009543F60300D51543256065684E68954356
:102CA000B60300D515436560A5684E689543F602E6
:102CB00002D500E008E01543A560E5684E6895433D
:102CC000B60200D51543E5605B1C0A681446DC407B
:102CD00000D06CE7F8BD0000001002400000014089
:102CE0000004004800080048000C004800040140AF
:102CF0000069084000D001207047002A01D081619E
:102D0000704781627047000001488068704700008A
:102D10005401002070B5024640325378202B1CD15C
:102D20001378012B19D001231370242454700468E4
:102D300025689D432560046825681E03B54325600A
:102D4000046825680D432560006801681943016027
:102D5000202050700020107070BD022070BD406CAB
:102D60007047000070B5040006D0254640356878ED
:102D70000026002802D005E0012070BD2E702046FC
:102D800000F09AF924206870206801684908490019
:102D900001600F2160680906884321680861216885
:102DA0008A680120C00382438A60E1680129A16822
:102DB00008D021229202114322689160E168022921
:102DC00002D005E00143F7E701212268C902516002
:102DD00021684A680F4B1A434A602168CA688243D7
:102DE000CA60616920690843A16909020843216832
:102DF000C860216AE06908432168086020680168AA
:102E00000122114301606664202068702663AE7061
:102E1000002070BD00800002FFB505460446403525
:102E2000687883B0202875D10C98002814D00D98AC
:102E3000002811D0287801286CD001202870FFF7D5
:102E400063FF0746012200901923D103204601F0B9
:102E500045F9002874D103E00120400260646FE06E
:102E6000222068704020A870002666640C9860627A
:102E70000D98608566630E980090019704A90EC9AD
:102E8000204601F0B7F8002801D02E7058E0618D7F
:102E90003448FF2905D9FF22228501231B06009013
:102EA00006E0618D21850090208D0123C2B25B0672
:102EB0002046049901F0FEF80097002204212046E4
:102EC0000E9B01F00BF900283AD12068406A616A34
:102ED0000870606A401C6062208D401E81B22185AE
:102EE000608D401E6085608D00281FD000291DD197
:102EF00000970022802120460E9B01F0EFF8002869
:102F00001ED1608DFF2806D9FF22228501231B06D2
:102F1000009607E024E0608D20850096208D012337
:102F2000C2B25B062046049901F0C4F8608D002807
:102F3000C2D13A4620460E9901F0F7F8002802D097
:102F4000012007B0F0BD20682021C16120684268DF
:102F5000054B1A4042606970AE702E700020F0E799
:102F60000220EEE70024008000E800FEFFB50546E1
:102F700004464035687883B0202872D10C98002828
:102F800014D00D98002811D02878012869D001208C
:102F90002870FFF7B9FE0746012200901923D103DC
:102FA000204601F09BF8002871D103E00120400287
:102FB00060646CE0212068704020A8700026666480
:102FC0000C9860620D98608566630E98009001977A
:102FD00004A90EC9204601F03DF8002801D02E704A
:102FE00055E0608DFF2805D9FF22228501231B06AD
:102FF000009606E0608D20850096208D0123C2B2E8
:103000005B062046049901F055F83A4620460E9991
:1030100001F0B1F800283AD1606A2168007888622E
:10302000606A401C6062608D401E6085208D401E7D
:1030300080B22085618D00291FD000281DD1009706
:103040000022802120460E9B01F048F800281ED166
:10305000608DFF2806D9FF22228501231B060096DA
:1030600007E024E0608D20850096208D0123C2B208
:103070005B062046049901F01DF8608D0028C4D13C
:103080003A4620460E9901F050F8002802D001205F
:1030900007B0F0BD20682021C16120684268054B5F
:1030A0001A4042606970AE702E700020F0E7022076
:1030B000EEE7000000E800FE30B58BB02020059060
:1030C0001020089005A800F07DF8164842690121FB
:1030D00089040A43426142690A40099242690A43EB
:1030E000426142690A400992C269C9000A43C26149
:1030F000C0690124084009904020009012200190EE
:103100000320094D03900294694604942846FFF772
:103110004BFD80200090694604942846FFF744FD4B
:103120000BB030BD00100240000400480248816826
:1031300002788918816070475401002010B5064854
:103140000168102211430160032000F007F800F02D
:1031500027F8002010BD00000020024070B5044692
:103160000D4D7D202978C000FCF7BEFF01460B48BD
:103170000068FCF7B9FF00F031FB002809D1042CEE
:1031800007D200222146401E00F018F800206C6093
:1031900070BD012070BD00005401002050010020CE
:1031A00070470000002805DBC106C90E01208840D9
:1031B000014908607047000000E100E010B503F02D
:1031C000B3FA10BDF8B505460068354CC00352D5BA
:1031D000E0690026C00007D4E16920040143E161F1
:1031E000E1690140012600912E480168C90510D40B
:1031F0000168821511430160FFF786FD074604E070
:10320000FFF782FDC01B642824D826480068C0054B
:10321000F6D5206A03273F02384020D0696839403C
:1032200081421CD0206A226AB843012109040A4362
:103230002262226A8A4322622062C0070FD0FFF70F
:1032400063FD009008E0FFF75FFD0099411A164802
:10325000814201D90320F8BD206A8007F3D5206A96
:103260006968B84308432062002E04D0E169012058
:1032700000078143E1612878C00705D0206BA96869
:1032800080088000084320632878800605D5206BDD
:1032900010218843E968084320630020F8BD00003E
:1032A000001002400070004088130000F8B50F467F
:1032B000060059D03A4D2868C007C00FB84209D25D
:1032C000286840084000384328602868C007C00FBD
:1032D000B84249D13068334C81070CD5400704D53A
:1032E000606807210902084360606068F021884334
:1032F000B168084360603078C00726D07068012844
:103300000ED0216802280ED0890700292CDA6168C6
:103310008908890001436160FFF7F6FC00900DE029
:1033200021688903F1E78901EFE7FFF7EDFC0099D8
:10333000411A1D48814201D90320F8BD60680C2163
:103340000840716889008842EFD12868C007C00F23
:10335000B8420BD9286840084000384328602868E4
:10336000C007C00FB84201D00120F8BD3078400737
:1033700006D56068072109028843F1680843606048
:1033800000F028F86168094A0906090F515CC84035
:10339000074908600320FFF7E1FE0020F8BD0000A8
:1033A0000020024000100240881300001073000843
:1033B000500100200448054900684968044A49054D
:1033C000490F515CC8407047500100200010024076
:1033D0002073000810B514A30FCB88B06C460FC43F
:1033E00015A30FCB0FC4184A51680C200B4603409D
:1033F0001648042B16D0082B14D18B021B0F6C46D9
:10340000E45CD26A04AB1207120F9A5CC90305D5BB
:1034100000231946FCF77EFE214601E020460C49B8
:1034200003F05DF908B010BD0203040506070809A2
:103430000A0B0C0D0E0F10100102030405060708FD
:10344000090A0B0C0D0E0F100010024000127A003A
:1034500000093D00FEB5040070D02078DC4DC007A7
:103460004AD068680007800F012807D06868000705
:10347000800F022809D16868C00306D52868800338
:103480003AD560680028E7D036E06168012914D099
:1034900001208004002901D0052914D02A680121C7
:1034A00009048A432A6029688143296060680028EA
:1034B00016D0FFF729FC06460EE028680121090412
:1034C00008432860F2E7296801432960F5E7FFF720
:1034D0001BFC801B64286ED828688003F7D50BE09E
:1034E000FFF712FC064604E0FFF70EFC801B642881
:1034F000F1D828688003F7D42078012680070028B7
:103500003CDA68680007800F07D068680007800F02
:10351000022809D16868C00306D42868800716D538
:10352000E06801280AD112E0E0680028286816D077
:1035300030432860FFF7E8FB074605E043E1FFF76B
:10354000E3FBC01B0228C6D828688007F7D5286887
:10355000F82188432169C900084328600EE040082B
:1035600040002860FFF7D0FB074604E0FFF7CCFBE4
:10357000C01B0228AFD828688007F7D4207800073E
:1035800022D5E0690028686A0ED030436862FFF7F0
:10359000BBFB074604E0FFF7B7FBC01B02289AD825
:1035A000686A8007F7D50FE0400840006862FFF7BF
:1035B000ABFB074605E09DE0FFF7A6FBC01B02281A
:1035C00089D8686A8007F7D4207804274007002844
:1035D00060DA00200190E869C00008D4E969B80603
:1035E0000143E961E96901400120009101907948B6
:1035F0000168C90511D40168821511430160FFF704
:1036000083FB009005E0FFF77FFB0099401A6428D8
:1036100070D870480068C005F5D5A06801280AD0A8
:10362000002801D0052810D0286A400840002862F0
:10363000286AB84301E0286A30432862A06800285D
:1036400012D0FFF761FB00900AE0286A3843286235
:10365000F1E7FFF759FB0099411A5F48814249D8C9
:10366000286A8007F5D50DE0FFF74EFB009006E0D5
:10367000FFF74AFB0099411A574881423AD8286A15
:103680008007F5D40198002804D0E96901200007DB
:103690008143E9612078C00635D5606901280CD0E6
:1036A000401D686B23D038436863686B4008400056
:1036B0006863FFF729FB064622E0686B38436863BE
:1036C000686B30436863FFF71FFB064604E0FFF7B3
:1036D0001BFB801B02285BD8686B8007F7D5686BE3
:1036E000F8218843A169C900084368630BE0B84327
:1036F0006863F4E74CE0FFF707FB801B022847D81C
:10370000686B8007F7D4206A00285ED069680907D3
:10371000890F022942D0012636060228286805D0E2
:10372000B0432860FFF7F0FA044633E0B043286066
:10373000FFF7EAFA074604E0FFF7E6FAC01B0228A3
:1037400026D828688001F7D4E86AE16A00090001F8
:103750000843E862616AA06A084369683D2212046E
:10376000914308436860286830432860FFF7CCFA2B
:10377000044604E0FFF7C8FA001B022808D82868AE
:103780008001F7D521E0FFF7BFFA001B022801D91D
:103790000320FEBD28688001F5D416E00128F8D08A
:1037A0006868E96A01221204636A02409A420AD1F7
:1037B0000907E26A090F914205D10F2189040840E7
:1037C000A16A884201D00120FEBD0020FEBD00009C
:1037D000001002400070004088130000094910B535
:1037E000401E884201D9012010BD074C60610321B1
:1037F000081F02F099FF0020A0610720206100202F
:1038000010BD0000FFFFFF0000E000E070B50446BF
:10381000006801690025C9438907002915DBC168D3
:10382000C943890711D4E91E01610120207720686E
:1038300080698007204602D000F01AF904E000F009
:10384000C9F9204600F0C7F9257720680169C94306
:10385000490717D4C168C943490713D40421C94390
:10386000016102202077206880698005800F204652
:1038700002D000F0FDF804E000F0ACF9204600F0C2
:10388000AAF9257720680169C943090716D4C168D8
:10389000C943090712D40821C943016104202077D4
:1038A0002068C0698007204602D000F0E1F804E0FB
:1038B00000F090F9204600F08EF925772068016924
:1038C000C943C90617D4C168C943C90613D4102116
:1038D000C9430161082020772068C0698005800FF6
:1038E000204602D000F0C4F804E000F073F920464E
:1038F00000F071F9257720680169C943C90708D12B
:10390000C168C943C90704D1891E0161204600F07E
:103910002FF820680169C943090609D4C168C94361
:10392000090605D48021C9430161204600F03AF818
:1039300020680169C943490609D4C168C9434906D9
:1039400005D44021C9430161204600F003FA2068F4
:103950000169C943890609D4C168C943890605D4E8
:103960002021C9430161204600F01DF870BD000010
:1039700010B50B48C17A491CC9B2C172427A914252
:1039800001D10021C172827A0920C9B2C0069142D8
:1039900001D2002200E001224021FFF7AEF910BD64
:1039A000000000207047704770B5040005D0254620
:1039B0002035687F002802D006E0012070BD00207D
:1039C0002877204600F00AF802206877211D206839
:1039D00002F092FC01206877002070BD08B5104805
:1039E0008269012149040A43826182690A40009286
:1039F000826949000A438261806900220840009080
:103A000002211520FFF7DAFB012202211620FFF721
:103A1000D5FB1520FFF7C6FB1620FFF7C3FB08BD3B
:103A2000001002400268D36801210B43D360006894
:103A300082685207520F062A02D002680A430260C7
:103A4000002070470168CA6852085200CA600068C6
:103A5000016A064A114207D1016A9210114203D14C
:103A600001684908490001600020704711110000F9
:103A7000704770B50446006801690025C94389078D
:103A8000002915DBC168C943890711D4E91E01610A
:103A900001202077206880698007204602D0FFF748
:103AA000E7FF04E000F096F8204600F094F8257750
:103AB00020680169C943490717D4C168C943490748
:103AC00013D40421C9430161022020772068806952
:103AD0008005800F204602D0FFF7CAFF04E000F007
:103AE00079F8204600F077F8257720680169C94306
:103AF000090716D4C168C943090712D40821C9436C
:103B00000161042020772068C0698007204602D028
:103B1000FFF7AEFF04E000F05DF8204600F05BF830
:103B2000257720680169C943C90617D4C168C9430C
:103B3000C90613D41021C9430161082020772068E9
:103B4000C0698005800F204602D0FFF791FF04E096
:103B500000F040F8204600F03EF825772068016923
:103B6000C943C90708D1C168C943C90704D1891E1F
:103B70000161204600F030F820680169C943090658
:103B800009D4C168C943090605D48021C94301612C
:103B90002046FFF707FF20680169C943490609D499
:103BA000C168C943490605D44021C9430161204683
:103BB00000F0D0F820680169C943890609D4C168BA
:103BC000C943890605D42021C94301612046FFF776
:103BD000EAFE70BD70477047F8B55C4C608A2746B6
:103BE000401C80B26082218A203F491C2182E189E9
:103BF000491CE1810A280FD1F87B02F077FBF873AA
:103C0000787C02F073FB25467874803DE87D02F0F5
:103C10006DFBE87500206082208A642875D14B4EC8
:103C2000403E708F02F062FB7087F08F02F05EFB07
:103C3000F087A08F02F05AFBA087E08F02F056FBBE
:103C40003546E0878035288802F050FB2880688858
:103C500002F04CFB6880E08802F048FBE080308F87
:103C600002F044FB3087608D02F040FB6085A08944
:103C700002F03CFBA081208B02F038FB2083A08B5C
:103C800002F034FBA083208802F030FB2080E88C17
:103C900002F02CFBE884E88E02F028FBE886C036B0
:103CA000F08802F023FBF080288C02F01FFB2884B0
:103CB000688C02F01BFB6884A88C02F017FBA884B8
:103CC000288E02F013FB2886688E02F00FFB6886B0
:103CD000A88E02F00BFBA886308802F007FB30802C
:103CE000708802F003FB7080B08802F0FFFAB080A9
:103CF000E08B1749884201D0401C80B2E083B08934
:103D000002F0F4FAB08100202082E0897D21C90010
:103D100088420FD10D4D0020E081803D287B02F0CC
:103D2000E5FA2873608B02F0E1FA6083208C02F0E0
:103D3000DDFA2084F87B002802D0FDF7F6F8F8BD04
:103D4000787C0028FBD0FDF7E7F8F8BD8000002064
:103D5000FFFF0000704770B5040017D02420606793
:103D60002068016849084900016020680025056055
:103D70002068456020688560204600F03FF8E567D0
:103D80006567A56760342574002070BD012070BD93
:103D900010B5040003D0606F002802D007E00120B6
:103DA00010BD002170200155204600F03FF824206E
:103DB000606720680168490849000160204602F0F8
:103DC00075FB0128ECD0606A002802D0204602F082
:103DD000D7FA206841680122D202914341602068ED
:103DE00081680822914381602068016801221143A3
:103DF0000160204602F02AFB10BD000010B50A4801
:103E0000C268012189030A43C260C2688A43C26052
:103E100009244115E4062046FEF71AFC0121890217
:103E20002046FEF715FC10BD0010024030B51748C3
:103E300087B04269012149040A43426142690A404C
:103E4000059242690A43426142690A4005928269C9
:103E5000C9100A4382618069012408400590481115
:103E600000900220019003200925ED0603900294A2
:103E7000694604942846FEF797FEA0020090694622
:103E800004942846FEF790FE07B030BD00100240B3
:103E9000FFB50446406F83B017460D4620285CD11D
:103EA000002D0AD0002F08D0A168C001814207D19F
:103EB0002069002804D1E80702D0012007B0F0BD36
:103EC000204660300290007C012846D002980121F3
:103ED00001740020E06721206067FEF715FF264689
:103EE00040360190378277820120A1680003814229
:103EF00002D12069002802D02F46002511E00027BA
:103F00000FE000228021204602F074FB002815D12A
:103F1000002F15D02168387808857F1C708A401ED4
:103F20007082708A019B002806980090E9D10022D7
:103F30004021204602F05EFB002808D00320BDE7A8
:103F400028882168C005C00D0885AD1CE6E7202043
:103F50006067029900200874B0E70220AEE7FEE730
:103F600001688A69D243920701D400228A620068FC
:103F70008169C943C90703D0816901221143816165
:103F800070470000F7B5044600680E468069C043DC
:103F9000C0062BD420272546403520688069C043C1
:103FA000800612D5701CF8D0FEF7AEFE0299401ABA
:103FB000B04201D8002EF0D1606C384360646F705D
:103FC0000020A87028700120FEBD21681020C86163
:103FD0002068C7612046FFF7C3FF20684168044A94
:103FE00011404160606C04210843E7E70020FEBDFA
:103FF00000E800FEF8B50446164615481D46DAB23C
:104000000090079F0023204600F054F83A462046CF
:10401000069900F0B0F8002818D12846F5B201281A
:1040200009D02168300A88623A462046069900F095
:10403000A2F800280AD1206885620097002240215A
:104040002046069B00F04AF8002800D00120F8BD69
:1040500000200080F8B50446164615481D46DAB221
:10406000C3020090079F204600F024F83A462046FD
:10407000069900F080F8002818D12846F5B20128EA
:1040800009D02168300A88623A462046069900F035
:1040900072F800280AD120688562009700228021EA
:1040A0002046069B00F01AF8002800D00120F8BD39
:1040B00000200080F0B50668059C7568064F600D0D
:1040C000384385438805800D110408431843204375
:1040D00005437560F0BD0000FF63FF03F8B51D46A2
:1040E00017460E46044609E0681C07D0FEF70CFE92
:1040F0000699401AA8420BD8002D09D02068816982
:10410000304688430FD00020B842EDD00020F8BDE3
:10411000616C202001436164403460700020A07015
:1041200020700120F8BD0120EEE770B516460D465F
:1041300004460FE0324629462046FFF723FF0028B9
:1041400001D0012070BDFEF7DFFD801BA84208D81A
:10415000002D06D020688069C0438006EAD4002084
:1041600070BD616C202001436164403460700020A8
:10417000A0702070E5E770B516460D46044611E0C4
:10418000324629462046FFF7FDFE002801D00120D7
:1041900070BD681C06D0FEF7B7FD801BA84208D88A
:1041A000002D06D020688069C0438007E8D4002035
:1041B00070BD616C20200143616440346070002058
:1041C000A0702070E3E7000010B5012251030248FF
:1041D000FEF793FD10BD00000008004810B5012156
:1041E000002249030148FEF788FD10BD0008004881
:1041F00070B51D48007E01282FD11B491B4C203172
:10420000488FCA8F104329D008464030C68B8D7B1B
:10421000803801220223AE4203D2827243720275B9
:1042200011E0C97B6918B14209D963218172642107
:1042300041720375616B206BFBF7F5FF0CE0827236
:10424000437203210175206BFCF772F9084A094B90
:10425000FCF764F8FCF780F9E06270BD206BFCF7B6
:1042600067F9054A054BF3E7200000200001002014
:104270009A9999999999F13FCDCCCCCCCCCCF43F7B
:1042800070B5164C012060600220A0600320E06041
:10429000134D206021462846FEF786FC4020092663
:1042A000F606206021463046FEF77EFC01204003E2
:1042B000206021460B48FEF777FC01224021304662
:1042C000FEF71BFD002201212846FEF716FD002205
:1042D00002212846FEF711FD70BD0000FC020020FF
:1042E000000400480008004870470000F8B5484F37
:1042F0004748A03F4088B97A084328D13C46203C33
:10430000A07825468035012600281CD0FCF74EFBFE
:1043100029460887FCF7EAF83E4A3F4BFBF7FEFFC9
:10432000FCF71AF98035A864E96AFCF73BF911D269
:10433000296BA86CFCF736F90CD220468030C08877
:10434000002805D006E00520E880A670E673F8BDD9
:10435000207EE075E96AA86CFCF71AF9F7D82C48BA
:104360004030016B806CFCF71DF9F0D8284DE17DE1
:10437000403DE8880843EAD1288F688727A002F0EB
:1043800087F928464038428F01462031002A1BD049
:104390003B7D012B02D1EB8DAB81E670A37CE374F6
:1043A000022B01D10023A3740671002343714E72C6
:1043B0008B72CE74A676E98C891A698402212172E7
:1043C000C18F002908D10DE0C38F002B12D000232C
:1043D000037146714B728E72E98CC38FC91AA9841E
:1043E00004212172002A05D0094940318B6B5B1CE6
:1043F0008B63A675B97A012902D1002A00D0C67252
:1044000000214187C1870173A1700220E073F8BDCC
:10441000C00000206666666666664A3F0A0A0DAA04
:10442000F9A8ECA6EC2DB0B1A4EEB942C2E0210A85
:104430000A000000F8B562484088002834D160487E
:10444000A0380090807A01282ED15D4DC03DA8781B
:104450002E468036002822D02C464034608F2746D6
:104460002037002861D0FCF7A1FAFCF73FF8554A45
:10447000554BFBF753FFFCF76FF82146C0318864BA
:10448000C96AFCF78FF812D22046C030016B806CED
:10449000FCF788F80BD2F088002806D007E005204A
:1044A000F0800120A870E873F8BD287EE8754448C4
:1044B0004030C16A806CFCF76BF8F5D8404840305A
:1044C000016B806CFCF76EF8EED8F088E97D08434C
:1044D000EAD13EA002F0DCF8628F002A0DD00098ED
:1044E000007D012803D1F08DB0810120E870A87C07
:1044F000E874022801D10020A87401212171002054
:1045000060717972B8722E4BF974A97640339F6B43
:104510007F1C9F63E172F18C891A71846087E08748
:104520002073A8700220E87343E0E08F0028BBD01E
:10453000FCF73CFAFBF7DAFF224A234BFBF7EEFECF
:10454000FCF70AF81E4940318864C96AFCF72AF86A
:104550000BD21B484030016B806CFCF723F804D26F
:10456000F088002801D1287EE87515484030C16ADE
:10457000806CFCF70DF897D811484030016B806CC7
:10458000FCF710F890D8F088E97D08438CD10FA093
:1045900002F07EF800202071012161717872B972F9
:1045A000E17A012907D0B0846087E0872073A87082
:1045B00004202872F8BD318DE28F891AB184F3E7A7
:1045C000C00000206666666666664A3F0A0A0DAA53
:1045D000F9A8ECA6EC2DB0B1A4EEB942C2E0210AD4
:1045E0000A000000F8B5334DE97B2C46C0340029A1
:1045F00020D027462646803F403E012920D0022970
:1046000017D12DA002F044F8B18B33A002F040F88E
:10461000A97C37A002F03CF8E97C3AA002F038F817
:10462000B18BE87C0143002000292CD0E873E874AA
:10463000E873F8BDFCF7BAF96081A081E08120E061
:10464000E87901280BD00228F3D130880028F0D077
:10465000FCF7ACF9E189884210D9E081F8BD788F88
:104660000028FBD0FCF7A2F96189884201D960815A
:10467000F8BDA1898842FBD2A081F8BD218A884279
:10468000FBD22082F8BD397901290AD07979012934
:10469000CDD1E189F28A9142C9D9F182218A218161
:1046A000C5E76189B28A9142C1D9B182A189E1800D
:1046B000BDE70000000000200A0D204144435F4494
:1046C00065746563745F53746172745F466C61678F
:1046D000203D2025640000000A0D20544D5F414418
:1046E000435F52656C616F64203D202564000000CB
:1046F0000A0D20416E74695F4576656E74203D2019
:10470000256400000A0D20416E74695F4576656E70
:10471000745F627566203D2025640000FEB51C4E66
:10472000B07D012833D1F01DF930806B194C010A9E
:1047300020706170010CA170000EE0703046803076
:10474000418C2171090A6171818CA171090AE171A1
:10475000818A2172090A6172C08AA072000A082740
:10476000E07200250C4861192A460091029001234D
:10477000C8320197A0210948FEF7F8FB0620FDF793
:10478000E9F90835EDB2102DECD30020B075FEBD6F
:10479000000000205004002010270000B00200207C
:1047A000F8B55A4C00262546403DE08F2F4620376D
:1047B00000280AD0608F002807D0FDF72FFA6687FF
:1047C000E68753A001F064FF49E001214903564800
:1047D000FEF78EFAE18F002902D0002800D1E6878B
:1047E000E8796072B87A0028608F04D000280BD076
:1047F000FDF7ECF933E00028FAD1E08F002806D16C
:10480000FDF70CFAAE7029E0E08F002802D0FDF72A
:10481000B5F924E0AE70FDF701FA04202073E879C1
:10482000012818D0022819D1387F012804D0E07A55
:10483000012803D002280ED101200BE03BA001F09B
:1048400027FF324840304088002804D137A001F0CB
:104850001FFF0220E0723E777E77BE77EE71618F98
:10486000E08F014304D0FFF741FDFFF7E3FD20E0B7
:10487000B97A01291CD100281AD124484030408837
:10488000002815D0A87C002812D12AA001F000FF32
:10489000E17A2BA001F0FCFEE07A012802D0022888
:1048A00006D006E02671012060710220E87300E066
:1048B000EE731649E08F40314880628F012109274D
:1048C000C902FF06002A05D000223846FEF715FA75
:1048D000012208E0002801D0012200E00022384631
:1048E000FEF70BFA0022012109033846FEF705FA0C
:1048F000608F002808D1A18F002905D0A97E012949
:1049000002D1E97EE187AE76A087F8BD40000020A5
:104910000A0A0D4E473AB942C2E0AEC9B6A1A65046
:10492000AEC93E3000000000000400485445535416
:10493000203031000A0A0D48656C6C6F7878780079
:104940000A0A0D53545F436C6F7365203D20256444
:1049500000000000F8B5FCF7DFFA77A001F098FE40
:1049600075A001F095FE7E4D7EA0296A01F090FEB3
:1049700085A001F08DFEEF1FF93F3B787A7F397FEC
:104980008BA001F085FE6CA001F082FE6AA001F010
:104990007FFE92A001F07CFE98A001F079FE8FA02E
:1049A00001F076FE9DA001F073FE2C46E03CE17A1A
:1049B000A3A001F06DFEA17AA6A001F069FE217B03
:1049C000A9A001F065FE217DACA001F061FE617D32
:1049D000B1A001F05DFEA17DB4A001F059FEE17D22
:1049E000B7A001F055FEA17C95A001F051FEE17C3D
:1049F000B8A001F04DFE264620367178BAA001F02D
:104A000047FE217EBDA001F043FE617BC0A001F006
:104A10003FFEA17BC4A001F03BFEC9A001F038FE1F
:104A200020466030C08CFBF761FDCA4ACA4BFBF7D9
:104A300075FC02460B46C9A001F02AFE20466030F4
:104A4000808DFBF753FDC34AC34BFBF767FC02465F
:104A50000B46CCA001F01CFE20466030008DFBF719
:104A600045FDBC4ABC4BFBF759FC02460B46CFA0A8
:104A700001F00EFE20466030C08DFBF737FDB54AD1
:104A8000B54BFBF74BFC02460B46D2A001F000FEF3
:104A900020466030008EFBF729FDAE4AAE4BFBF797
:104AA0003DFC02460B46D5A001F0F2FD387EFBF737
:104AB0001DFDA84AA84BFBF731FC02460B46D9A0C6
:104AC00001F0E6FDB07BFBF711FDA24AA24BFBF71C
:104AD00025FC02460B46DDA001F0DAFDF07BFBF77A
:104AE00005FD9C4A9C4BFBF719FC02460B46E1A0D6
:104AF00001F0CEFDE86AFBF71BFD02460B46E7A07E
:104B000001F0C6FD686AFBF713FD02460B46EDA0F7
:104B100001F0BEFDA86AFBF70BFD02460B46F2A0B2
:104B200001F0B6FDE17BF9A001F0B2FD217CFDA012
:104B300001F0AEFD617C01E20A0D2A2A2A2A2A2A06
:104B40002A2A2A2A2A2A2A2A2A2A2A2A2A2A2A2AC5
:104B50002A2A2A2A2A2A2A2A2A2A2A2A2A2A2A00DF
:104B6000000100200A0D2A2A2046696E616C204D42
:104B70006F6469667920446174653A202564202059
:104B80002020202A2A0000000A0D2A2A204D6F64C6
:104B9000656C3A205459472D4E43502D52303120E8
:104BA000202020202020202020202020202A2A0011
:104BB0000A0D2A2A2056657273696F6E3A204825BD
:104BC00064562564205425642020202020202020A5
:104BD000202020202020202A2A0000000A0D3D3D10
:104BE0003D3D3D3D3D3D3D3D3D3D3D3D3D3D3D3DF5
:104BF0003D3D3D3D3D3D3D3D3D3D00000A0D3D3DC2
:104C00003D3D3D3D3D3D3D3DB0D1BCC6B35DA97789
:104C10003D3D3D3D3D3D3D3D3D3D00000A0D2A2AC7
:104C20002A2A2AA55CAFE0B67DC3F628303AC3F63F
:104C3000B3AC202F20313AB67DB1D229000000005C
:104C40000A0D20AAF8B4C1B4FAB8D520203A20251C
:104C5000640000000A0D20B1B2B5A1AAF9A55CAFAD
:104C6000E03A2025640000000A0D20A8BEA7A8A5F0
:104C70005CAFE020203A2025640000000A0D20A649
:104C8000DBB0CAC3F6AAF920203A2025642028BC4C
:104C9000D2A6A129000000000A0D20A654B0CAA582
:104CA0005CAFE020203A2025640000000A0D20B906
:104CB00042C2E0A4E8A65620203A20256400000065
:104CC0000A0D20C2EAB971A55CAFE020203A202588
:104CD000640000000A0D20B4A3A5DCADB52020209F
:104CE000203A2025640000000A0D20A6DBB0CAB7D8
:104CF000D3A9FA20203A2025640000000A0D20BD27
:104D000077B1D2B0CAA55CAFE03A202564000000BC
:104D10000A0D20A8BEA7A8A55CAFE028B67D292073
:104D2000203A2025640000000A0D20A8BEA7A8A5EF
:104D30005CAFE028C3F62920203A2025640000005B
:104D40000A0A0D2A2A2A2A2AB942C2E0B0D1BCC6D0
:104D5000000000009A9999999999B93F0A0D20B6D7
:104D60007DC3F6AAF9B3CCA46AB942C2E0AEC9B613
:104D7000A12020202020203A2025342E316620AC8E
:104D8000ED0000000A0D20AAF8B4C1B4FAB8D5B6F7
:104D90007DC3F6AAF9B6A1B96AAEC9B6A120203A78
:104DA0002025342E316620ACED0000000A0D20B124
:104DB000B2B5A1AAF9C3F6AAF9AEC9B6A128506145
:104DC000727420312920203A2025342E316620ACFF
:104DD000ED0000000A0D20A6DBB0CAC3F6AAF9AEAA
:104DE000C9B6A12020202020202020202020203AE9
:104DF0002025342E316620ACED0000000A0D20B7CE
:104E0000D3A9FAAEC9B6A12020202020202020203E
:104E1000202020202020203A2025342E316620AC6E
:104E2000ED0000000A0D20ABDDBEF7B971C0A3A6EE
:104E3000A8A5DFA9B5BFF0AEC9B6A12020202020CB
:104E40003A2025342E316620ACED00000A0D20BD3D
:104E500077A842B942C2E028B2C431AC71292020FF
:104E6000202020202020203A2025342E316620AC1E
:104E7000ED0000000A0D20BD77A842B942C2E0282B
:104E8000B2C432AC71292020202020202020203ADA
:104E90002025342E316620ACED0000000A0D20AB39
:104EA000DDBEF7566F6C74202020202020202020AB
:104EB000202020202020203A2025312E326628561E
:104EC000290000000A0D20A8BEA7A8C576ADAB2812
:104ED0004F50454E29202020202020202020203AFD
:104EE0002025322E336600000A0D20A8BEA7A8C5D3
:104EF00076ADAB28434C4F5345292020202020205D
:104F00002020203A2025322E336600000A0D20A6EC
:104F100054B0CAA750A977B0D1BCC6202020203AEF
:104F2000202564000A0D20C2EAB971A750A977B004
:104F3000D1BCC6202020203A2025640096A001F094
:104F4000A7FB787AFBF7CAFA0446B87AFBF7C6FAE9
:104F50009749FBF768F92146FBF7A2F9FBF7E8FA56
:104F600002460B4693A001F093FB99A0A96B01F0B8
:104F70008FFB2C46403CE18A9BA001F089FBA18A73
:104F8000A0A001F085FBA08AFBF7B0FA0022A44B99
:104F9000FBF7C4F90022A34BFBF728FA02460B46A5
:104FA000A1A001F075FBF87EFBF7A0FAA54AA64B7D
:104FB000FBF7B4F902460B46A4A001F069FBABA0D5
:104FC00001F066FBB2A001F063FB317CB5A001F0FB
:104FD0005FFB717CB8A001F05BFBB17CBBA001F072
:104FE00057FB208BFBF782FA964A974BFBF796F913
:104FF00002460B46BAA001F04BFB608BFBF776FA3A
:10500000904A914BFBF78AF902460B46BAA001F091
:105010003FFBA08BFBF76AFA8A4A8B4BFBF77EF9C2
:1050200002460B46BAA001F033FBE08BFBF75EFAB9
:10503000844A854BFBF772F902460B46BAA001F091
:1050400027FBBFA001F024FB317E96A001F020FBDE
:10505000717E99A001F01CFBB17E9CA001F018FBB1
:10506000208DFBF743FA774A774BFBF757F9024657
:105070000B469BA001F00CFB608DFBF737FA714AE1
:10508000714BFBF74BF902460B469BA001F000FB6E
:10509000A08DFBF72BFA6B4A6B4BFBF73FF90246EF
:1050A0000B469BA001F0F4FAE08DFBF71FFA654A6E
:1050B000654BFBF733F902460B469BA001F0E8FA7B
:1050C000A4A001F0E5FA2036317876A001F0E0FAEC
:1050D000717879A001F0DCFAB1787CA001F0D8FAFF
:1050E000208FFBF703FA574A574BFBF717F9024695
:1050F0000B467BA001F0CCFA608FFBF7F7F9514A21
:10510000514BFBF70BF902460B467BA001F0C0FAAE
:10511000A08FFBF7EBF94B4A4B4BFBF7FFF802462E
:105120000B467BA001F0B4FAE08FFBF7DFF9454AAC
:10513000454BFBF7F3F802460B467BA001F0A8FABB
:1051400089A001F0A5FA92A001F0A2FAFBF7E4FE13
:1051500097A001F09DFA00209E4C2864C1009EA0FB
:1051600001F096FA286CC00005E0215C9DA001F0DA
:105170008FFA686C401C6864286CC100686C083148
:105180008142F2DC286C401C28642028E6DB97A0D2
:1051900001F07EFAF8BD00000A0D20B942C2E0B36A
:1051A00074ABD728307E33292020203A2025640094
:1051B0000000C8420A0D2050574D204475747920D4
:1051C0004379636C6520203A2025332E3166000038
:1051D0000A0A0DB942C2E0A6B8BCC620203A25642E
:1051E0002028A6B8290000000A0A0D20AAF9A46AFE
:1051F000A470BFEFBEDC20202020202020203A25F4
:10520000640000000A0D20A8BEA7A8A5B2B6B7B0DA
:10521000CAA740ADC8284144293A256400000000CF
:1052200000A08440000001410A0D20A8BEA7A8A547
:10523000B2B6B7B0CAA740ADC8284129203A253236
:105240002E3366009A9999999999B93F0A0A0D20C7
:10525000B67DAAF9B7D9A8AEB0CAA740AEC9B6A163
:1052600020203A25322E3166000000000A0A0D2A5D
:105270002A2A2A2A53746174652D52656C6179203B
:10528000706172616D657465722A2A2A2A2A00008B
:105290000A0D3D3D3D544D452D52656C61793D3DB6
:1052A0003D0000000A0D20A6A8A5DFB1F8A5F34136
:1052B0003A202564000000000A0D20A6A8A5DFB151
:1052C000F8A5F3423A202564000000000A0D20B83A
:1052D000D1B0A3B1F8A5F3203A2025640000000066
:1052E0000A0D20A6A8A5DFAEC9B6A1413A202534F3
:1052F0002E316620ACED00000A0D20A6A8A5DFAE79
:10530000C9B6A1423A2025342E316620ACED00000A
:105310000A0D20B8D1B0A3AEC9B6A1203A202534D9
:105320002E316620ACED00000A0D20BFE9A558AE75
:10533000C9B6A1203A2025342E316620ACED0000FC
:105340000A0A0D3D3D3D4143542D52656C61793D46
:105350003D3D00000A0A0D3D3D3D504F532D526525
:105360006C61793D3D3D00000A0A0D2A2A2A2A2A4D
:1053700053746174652D52656C617920706172613E
:105380006D6574657220456E642A2A2A2A2A0000F7
:105390000A0A0D3D3D3D3D3D3D3D3DB0D1BCC6B34E
:1053A0005DA97720456E643D3D3D3D3D3D3D3D0061
:1053B0000A0A0D3D3D3D3D3D3D3D3D204545505298
:1053C0004F4D205072696E74203D3D3D3D3D3D3D49
:1053D0003D000000100300200A0D205225303364E8
:1053E0003A200000253032582C2000000A0A0D3DDA
:1053F0003D3D3D3D3D3D3D20454550524F4D2046B4
:10540000696E697368203D3D3D3D3D3D3D3D000079
:10541000FEB5FF21F748F64A01316C4607C4012367
:105420000022A0216038FDF7F7FC002806D0F148E3
:105430006038FDF794FC042800D0FEE78021EE4898
:10544000FDF756FCED490C46487021462546274697
:105450006031C03540372034009101287ED0E54EC0
:10546000E6483178017771784177B1788177F178C2
:10547000C1773079207070796070B079A070F07960
:10548000E070307A2071707A6071B07AA071F07A31
:10549000E071307B2072707B6072307DE072707DD5
:1054A000A072B07DA073F07D2075307E6075707E37
:1054B000A075B07EE075F07EA074307FE074707FE0
:1054C0007870B07F2076F07F60733046018D204683
:1054D0006030818530462A304178027808022146C2
:1054E0001043603108853046808DC88430462E30A8
:1054F000417802780802214610436031C885308E19
:1055000008863220305CFAF7E9FFBD49FAF7C8FE99
:105510002146E03148633320305C60763420305CD3
:10552000A0763520305CE0733620305C2074372064
:10553000305C60743A20305CB8733B20305CF873A8
:10554000B08F288330463E304178027808021043FD
:1055500068834020805B2885304600E077E0423059
:10556000417802780802104368854420805B2887D0
:105570003046463041780278080210436887482058
:10558000805BE88330464A30417802780802104355
:10559000E8854C20805BE88730464E3041780278C1
:1055A00008021043A8835020805BA8853046523003
:1055B0004178027808021043A8875420315C8F4854
:1055C00001765520305CE8825620315C8B48C176EC
:1055D0006420305C38746520305C78746620305C00
:1055E00038766720305C78766820315C00980170EE
:1055F0006920315C009841706A20305CB8746B207F
:10560000305CB8766C20315C009881707B486D21ED
:10561000417500207B4E774B0146B0635A18C0326B
:10562000127ACF00BA40491C1043C9B20429F5D3FD
:10563000B063607E744A754F7549030001F067F8E6
:105640000B5B535557595B5D5F6163655B000020E1
:10565000E072A07201216173A17320756075A1755C
:10566000E175A074E174654A7870FF2320762D33CC
:1056700080329385822313854B23DB00D3846426F9
:10568000D6851686634B8032536305226276A276F6
:105690003223E3734B232374032363741423BB73F8
:1056A0005023FB7338747874B8740A232B831E2339
:1056B0006B830F23AB83EE8338767876B87614232A
:1056C0002B856B850A23AB85EE85009B187058707F
:1056D00098701E2028870A206887AA87EE87474887
:1056E000E982C17695E7104611E038460FE04A4856
:1056F0000DE04A480BE0084609E0494807E0494800
:1057000005E0494803E0494801E03F200006706297
:10571000A07E030000F0FBFF0B1907090B0D190F0A
:1057200011131517190011460FE039460DE03A49DB
:105730000BE03A4909E03A4907E03A4905E03A49BD
:1057400003E03A4901E03F210906B162A07C00284C
:1057500001D103206074607C002805D0012808D0A6
:1057600002283BD003283ED0244801218172022127
:1057700003E022480321817204214172FBF716F9EC
:105780001E49074680318886FAF7A8FE716B0091A2
:10579000FAF749FDFAF7B8FE1849803148863846CD
:1057A000FAF7A4FE224A234BFAF7B8FDFAF7D4FE23
:1057B00030630099FAF737FDF062607B01283DD035
:1057C000A07B01283AD000202073E98A002937D035
:1057D0001948012938D0022936D133E0074804217D
:1057E00081720521C9E70548632181726421C4E7FC
:1057F00010270000100300200008004800000020CF
:105800000000C842000100200AD7233C0AD7A33C6D
:10581000CDCC4C3D9A99993F8FC2F53C0AD7233D98
:10582000CDCCCC3DCDCC4C3E9A99993ECDCCCC3E06
:105830006666666666664A3F560900000120C3E751
:10584000024801E07D204001A882FEBD98080000CA
:105850007047000010B50121002289020148FDF7C0
:105860004CFA10BD0004004810B501229102024814
:10587000FDF743FA10BD00000004004810B50022F7
:1058800004210248FDF739FA10BD00000004004869
:1058900010B5012204210248FDF72FFA10BD0000C7
:1058A0000004004810B501210022C9020148FDF79B
:1058B00024FA10BD0004004810B50122D1020248AC
:1058C000FDF71BFA10BD000000040048FCB5364887
:1058D000C17E002961D1014640390A466032077E07
:1058E000537A0193937A009340314D8FCE8FD47ABF
:1058F00001213B0000F00BFF0A3906080C1B212791
:105900002A2C3039019A00E0009A012A2CD02CE090
:1059100035432AD1244AC03213895289134324D0F3
:10592000019A012A21D0009A012A1DD11DE0002DE3
:105930001BD01D4AC032128914E0002E15D01A4A1D
:10594000C03252890EE0E2070ED10EE0A20700E05D
:105950006207002A08DB08E0134B403B1B79012B50
:1059600003D1127A002A00D14177437F002B14D053
:105970000D4A8032012B07D0022B09D0032B0CD10A
:10598000D38E002B0AD00BE0118D1186022103E08B
:10599000118E002901D103214177FCBDD38DD3861F
:1059A00000224277C176FCBD40000020FCB536489D
:1059B000017F002961D1014640390A466032477EA5
:1059C000537A0193937A009340314D8FCE8FD47ADE
:1059D00001213B0000F09BFE0A3906080C1B212721
:1059E0002A2C3039019A00E0009A012A2CD02CE0B0
:1059F00035432AD1244AC03213895289134324D013
:105A0000019A012A21D0009A012A1DD11DE0002D02
:105A10001BD01D4AC032128914E0002E15D01A4A3C
:105A2000C03252890EE0E2070ED10EE0A20700E07C
:105A30006207002A08DB08E0134B403B1B79012B6F
:105A400003D1127A002A00D18177837F002B14D0F2
:105A50000D4A8032012B07D0022B09D0032B0CD129
:105A6000D38E002B0AD00BE0518D5186022103E02A
:105A7000518E002901D103218177FCBDD38DD386BE
:105A8000002282770177FCBD40000020FCB534483D
:105A9000C17800295CD10246603A1146603106782F
:105AA0004B7A01938B7A00934032548FD58FCF7A03
:105AB0000121C032330000F02AFE0A3306080C1917
:105AC0001D2124262A33019B00E0009B012B26D0B8
:105AD00026E02C4324D113895489234320D0019BF1
