:020000040800F2
:10000000A8080020CD00000821450008A7410008ED
:1000100000000000000000000000000000000000E0
:10002000000000000000000000000000F96400086B
:100030000000000000000000355C00087165000849
:10004000DF00000800000000DF000008DF000008FB
:10005000DF000008FD1F00081920000835200008F7
:10006000000000005D140008DF000008DF00000849
:10007000DF000008DF000008DF00000800000000CB
:10008000DF0000080000000000000000DF000008A2
:10009000DF00000861660008BD660008DF00000898
:1000A000DF000008DF000008DF000008DF000008B4
:1000B000DF0000080448854600F028FC004800479F
:1000C00035740008C046C046A80800200448804790
:1000D00004480047FEE7FEE7FEE7FEE7FEE7FEE72F
:1000E000B9650008B500000830B50B460146002090
:1000F0002022012409E00D46D5409D4205D31D462E
:100100009540491B2546954040191546521E002D25
:10011000F1DC30BDF0B51FB40646002082B00546C4
:100120004024019100901BE0019922460F46304681
:1001300000F052FA049A059B801A994110D3104698
:100140001946224600F038FA361A8F4101972246A6
:1001500001200021009F00F02FFA38184D41009037
:100160002046641E0028DFDC019B009829463246A9
:1001700007B0F0BDF8B502464A40D40F42004B002C
:1001800052085B089A4202D20246084611464A00CB
:1001900023D0C30D4A00DDB2120EAD1A202D35DA80
:1001A00049020126490AF6058A19002C00D052425C
:1001B00020214F1B1146B9402A411018C20D9A4206
:1001C00021D0002C17D0012D08DCDA05801AD20FBF
:1001D0008019D207DBB200F018FAF8BDDA05801AF0
:1001E000012340001B06C01880185A428018CA0F0D
:1001F0001043490007E04908C2071143DA05801A95
:1002000080194008801800F0F8F9F8BD610001225B
:10021000511A001BF7E70122D2075140AAE7012239
:10022000D2075040A6E7024670B54A40D30FDB071D
:1002300040002DD04A002AD0010E140E00021202F6
:100240000919400A520A8418E50104465443000A79
:10025000120A2E045043A4194219200CC543AA18AF
:10026000120C0125AD03521C521912047F392404CB
:1002700000D0521C104301D44000491EC2B20C06EB
:10028000C0092018401C4008802A02D003E000204A
:1002900070BD40084000002900DA0020184370BDFE
:1002A00070B502464A40D50F40004A00ED074008AD
:1002B0005208002814D0002A12D0C40DD30D4102D8
:1002C0000120C0055202490A520AE41A09181218FC
:1002D0007D34914201D3641C00E04900002C01DA16
:1002E000002070BD0023914201D3891A03434008C6
:1002F00049000028F7D100290AD0914202D10121FA
:10030000C90705E0914201D2012101E00121C94361
:10031000E005C018401900F070F970BDF0B51FB4C9
:1003200088B00B990998002448400999C00F4900EA
:1003300049080991C0070B990090490049080B91A1
:1003400009990898A64608431CD00B990A980843B7
:1003500018D0099801244000420D4800410D099829
:1003600024050003000B204309900B980003000BA9
:1003700020430B9050181C4940180022019014464D
:10038000104605E0002001460DB0F0BD032801DA5B
:10039000034600E003239C46C11A0AAE0AE05F0050
:1003A00008ADED5B4F00F75B7D430027AA187C4149
:1003B000491C5B1E6145F2DD410004AB5A52210429
:1003C000120C0A43240C401C0828DFDB0198029021
:1003D0000099704601910090059B049A0799069830
:1003E00000F059F9D0E700000DFCFFFFF0B50C4616
:1003F0005C4085B0E40FE40703944C0000266408D9
:1004000059009446490802460296224321D062468A
:100410000A431ED06200570D4A000E032303550DF8
:10042000012402462C492405781B1B0B360B40186F
:1004300023432643614600901C46501AB44103D31F
:100440000098401C009002E0921800985B41002840
:1004500003DA0020014605B0F0BD002001210905A6
:100460000746864611E064461D46141BB54106D377
:100470006546521BB341744607430C43A646CD075D
:1004800040084908284392185B4105460D43EAD1CC
:100490001046184313D06046194650407140084337
:1004A00006D06046101AB34106D20122002306E0AE
:1004B00000220123DB0702E00122D24353100098FF
:1004C00074460105381C6141029C039D0019694175
:1004D00000F0D4F8BFE70000FD03000010B50022D3
:1004E0009623114600F091F810BD00000EB50549A5
:1004F0000291002100910A460B46019100F0CBF8D1
:1005000003B000BD33040000410040020122400A54
:10051000D205090E80187F2901DA0020704796293C
:1005200003DC9622511AC8407047963988407047BC
:10053000C20FD207400040080BD0C10D0723DB01DA
:10054000C91840020905400A1143C2084007114377
:100550007047002001467047CB0FDB07490010B5FC
:10056000490802460A4307D00A0D07240903E4019B
:10057000090B121B002A01DC002010BDC900440F2A
:100580000C43C100E018D205801800F036F810BD09
:100590000122D207002800DB101A002900DB511AC3
:1005A000814270470122D207002800DB101A00297F
:1005B00000DB511A8842704710B5202A04DB01463F
:1005C000203A9140002010BD914020239C1A034600
:1005D000E3401943904010BD10B5202A04DB0846C3
:1005E000203AD040002110BD0B46D340D0402024FB
:1005F000A21A91400843194610BD002904DA401C94
:10060000490001D140084000704770B40024050C37
:1006100005D11024000402D1002921D01124050E97
:1006200001D100020834050F01D10001241D850FFE
:1006300001D18000A41C002801DB4000641C0029BB
:1006400008D020252E1B0D46F540A14000D00121E9
:100650002943084301061B1B000ADB1D02D50020AD
:1006600070BC7047DB05181880180029F8DA401CA8
:100670004900F5D170BC40084000704710B5002B10
:1006800008DA0024401C614192185B411A4301D1F1
:100690004008400010BDF0B51FB482B005460C0004
:1006A00003D0084606F0F4F902E006F0F1F9203034
:1006B0000246009021462846FFF77EFF049B059ADC
:1006C00004460F4618431143084314D018461043FC
:1006D0001BD0009840210A1A18460599FFF77CFFA5
:1006E00005460E46009A05990498FFF765FF0843F2
:1006F00005D0012004E02046394607B0F0BD0020B7
:10070000C11705430E432C43374300990E986305E8
:10071000401A7905E40A00220C43FD0A0A3002D58A
:1007200000200146E9E70105101969410C9C0D9D67
:1007300000196941FFF7A2FFDFE70000F0B50746A7
:100740000846584087B0C00F049048000E46590034
:1007500040084908BC1A884105D2384631461E4631
:1007600017460B4602465800400810434DD0300D46
:10077000039040055900400D490D0590401A029024
:10078000402873DA18030121000B09050843019082
:1007900004980092002806D01146019A4942002090
:1007A000904100910190029840210A1A0199009805
:1007B000FFF702FF05460C466B4607CB00F0B8F882
:1007C000C0197141039A0E0D0023D71756401A46DF
:1007D0007A40164344D0049A002A2DD0029A012A66
:1007E000039A15DC1205C01A914101263605001C3A
:1007F0007141D20F059ED2070093019202962A46BC
:100800002346FFF748FF07B0F0BD38463146FAE708
:100810001605234A0F46B218C01AB741012109052F
:10082000001C4F4100187F41114618187941E20F12
:1008300010436D19644113E0E2076D081543640825
:10084000C2071443039A01261205C01A91413605C6
:10085000001C7141CE07400830434908C01851417F
:100860002A462346FFF70AFFCDE7FFE70498012257
:100870004000C117121A00238B4104983146C41757
:10088000381AA141EEE730B40124E407634030BCDC
:1008900054E730B40124E407614030BC4EE7000067
:1008A0000000E0FF4A0009030123090B1B0519435F
:1008B0000A4B10B5520D9A4202DA0020014610BDD3
:1008C000064B34339A4203DC9A1AFFF785FE10BDBB
:1008D000034BD218FFF770FE10BD0000FF030000AD
:1008E000CDFBFFFF10B5002904DB0124E4074042E3
:1008F0008C412146002B04DB1C460123DB075242BE
:10090000A341994200D1904210BD0000064C012540
:10091000064E05E0E36807CC2B430C3C98471034A7
:10092000B442F7D3FFF7CAFB3077000850770008CE
:1009300010B5202A06DBCB170846203A1041C11714
:100940000B4306E00B461341D0402024A21A9140ED
:100950000843194610BD70B58C180578401C6B070C
:100960005B0F01D10378401C2A1106D10278401C8C
:1009700003E006780E70401C491C5B1EF9D12B0762
:1009800005D40023521E0DD40B70491CFAE70378DE
:10099000401CCB1A921C03E01D780D70491C5B1C97
:1009A000521EF9D5A142D8D3002070BDF0B5202049
:1009B000002493B086461F4D1823214668464A00FE
:1009C000491CAE5A89B286522029F8D30021002250
:1009D0004D000BE05700BC46465BC75BBE4204D2ED
:1009E00010976746C653109F4753521C8A42F1DD49
:1009F000491C89B27145EAD30F498A6400215A1E05
:100A00004D002D18ED88491C2C1989B29142F7DD53
:100A10001846FFF763FD05462046FFF75FFD2946B0
:100A2000FFF73EFCFFF770FD03494039088311983A
:100A300013B0F0BD140400200001002010B5234CB9
:100A400021482060204601F067FC002800D0FEE726
:100A500001208007606000202346012104220C331E
:100A6000A06007C360762076A176FF22E076C232CE
:100A7000E261164A206220321171A0620807E0622A
:100A8000124801F09BFC002800D0FEE70F4801F05F
:100A900061FB002800D0FEE70C48032140300160D4
:100AA0000121090341600146403801F0ABFB0028F9
:100AB00000D0FEE720220649044801F097FD0028F7
:100AC00000D0FEE710BD00000024014068010020B6
:100AD0001404002070B5044600688168490720D5D9
:100AE000816810264907002905DA8168890702D440
:100AF00081683143816002F023FA05460DE002F07F
:100B00001FFA401B022808D9A06B3043A063E06B9A
:100B100001210843E063084670BD206880684007F3
:100B2000EDD4002070BD10B50146406A826B5023A1
:100B30001A420AD1816B012252021143816301687A
:100B4000CA681205920F05D020E0006B026B0846C0
:100B5000904710BD827E002A18D10A68120715D569
:100B60008A6853070122002B09DB4B680C24A3433E
:100B70004B60816B130299431143816306E0816BE3
:100B8000202319438163C16B1143C16301F0C2FB90
:100B900010BD10B5406A816B402211438163C16B67
:100BA00004221143C16301F007FC10BD10B5406A77
:100BB00001F0B1FB10BDF8B50446006881688907F3
:100BC000890F012928D10168C90702D1C168090428
:100BD00022D58168052211401025012601290FD157
:100BE000816802221143816021680320086002F0BD
:100BF000A7F907460CE002F0A3F9C01B022807D9A9
:100C0000A06B2843A063E06B3043E0630120F8BD94
:100C100020688068C007EED10020F8BDF8B5044612
:100C200000200090206881688907890F012905D17B
:100C30000168C9072CD1C168090429D48168154A03
:100C4000102611400125002915D1816829438160B2
:100C5000124811490068FFF747FA00E0401E009073
:100C60000028FBD102F06CF907460CE002F068F9AD
:100C7000C01B022807D9A06B3043A063E06B284358
:100C8000E0630120F8BD20680068C043C007EDD1D3
:100C90000020F8BD1700008040420F0054010020E2
:100CA000F0B589B064480190007B012829D1624ADF
:100CB0006032908A0790002823D0D08A06900028BE
:100CC0001FD0104680381546403D01462F7B6031CD
:100CD0000491017C0446491CC9B20591417C0391F1
:100CE000867C0021C0343B0005F001FF0504144759
:100CF0006C9A0B00D38F002B05D001222A738174CC
:100D0000017409B0F0BD012EFBD1128B002AF8D17D
:100D10008174F6E7D08F0028F3D1474E6A8FE03612
:100D200030467F21C038C905C08F002A11D0002865
:100D300021D1B06AFFF71EFA074630640798FFF723
:100D4000CDFB3946FFF76FFAFFF7DEFBA0820220EA
:100D500010E000280FD0F06AFFF70CFA0746306465
:100D60000698FFF7BBFB3946FFF75DFAFFF7CCFBB0
:100D7000A082032028730A2050E0019B5B7B002B9C
:100D800000D129732388002BBBD1238BA68AB342C1
:100D900002D2E68AB34202D3059B037400E00174D9
:100DA000067C039B9E420AD304232B730123837486
:100DB000642010836987E9876180062129E08174B6
:100DC00003202BE0019B9B7B002B00D12973EB7A46
:100DD000022B2FD02388002B93D1238BA68AB342DA
:100DE00002D2E68AB34202D3059B037400E0017489
:100DF000067C039B9E420FD104232B730123638047
:100E00001288002A85D0022282746987E98763806C
:100E100007210498017374E781740120208070E732
:100E200060880028F7D1012E04D0022E02D1108D47
:100E30006887E987297364E720000020F8B501215D
:100E400049032E4802F070F82D4F3C46603C214685
:100E50002546203180357875012809D1B87D0028D4
:100E600006D1087D002803D00120E070288EA881DB
:100E7000234E203EF078002833D1087D01280DD084
:100E800002282ED1887A00282BD1E079002805D1BC
:100E9000707A012806D0B07A01280BD0E0780128BA
:100EA00012D01EE017A005F0E3FD288EA8810120D6
:100EB000E07016E01BA005F0DBFD288EA881012064
:100EC000E0700020B0720CE0A889002809D11DA0B4
:100ED00005F0CEFD21A005F0CBFD0020E070288DAF
:100EE000F087A889401E312804D2787D012801D1DD
:100EF00008203873787DB875F8BD000000040048FC
:100F0000600000200A0DA6DBB0CAC3F6AAF9BA58E1
:100F1000BCD031202620B5A5ABDDAEC9B6A1B35DEE
:100F2000A5DF00000A0DA6DBB0CAC3F6AAF9BA58BD
:100F3000BCD032202620B5A5ABDDAEC9B6A1B35DCD
:100F4000A5DF00000A0DA6DBB0CAC3F6AAF9B5A555
:100F5000ABDDAEC9B6A1A8ECB94600000A0DC3F6D8
:100F6000AAF9AEC9B6A1B35DA5DF000010B5FF2197
:100F7000092000220131C00601F0DBFF10BD10B5D1
:100F8000012209201102C00601F0D3FF10BD0000AC
:100F9000F8B5964C0027227B607B824200D0A77375
:100FA0009248924E417C3225A036C07B130005F05A
:100FB0009EFD0BF20719314A618B9AB8DFF8F200F7
:100FC000A27B002A02D1E5730820D8E0002878D15E
:100FD000DBE0308A002801D12773A773E07B00286B
:100FE00070D0FCE0A27B002A71D1FF20E5732D3088
:100FF00072E0FFF7C4FF03E0002901D0FFF7B6FF5E
:10100000308A00286CD0E07B002802D1207C0028A8
:1010100071D1A5E0A27B002A6ED11420E073642078
:10102000C9E0FFF7ACFF03E0002901D0FFF79EFF06
:10103000308A002873D0E07B002871D1207C002802
:101040006ED014208AE0A27B002A04D0002806D0AB
:10105000FFF795FF07E0E5730120A073F8E700298B
:1010600001D0FFF783FFE07C0128CCD12773A77361
:10107000E774C8E7A27B002A04D0002808D0FFF755
:101080007EFF09E0E573022020750120A073F6E7DA
:10109000002901D0FFF76AFF207D002801D12773C6
:1010A000A773E17B002902D1217C002977D1617CE3
:1010B000002905D1A17C002902D0E573401E2075CE
:1010C0008DE05FE068E002E0A27B002A02D0002809
:1010D00092D08EE7E573642030820120A07388E708
:1010E0002773A7738FE7A27B002A06D000280BD0B6
:1010F000FFF745FF0CE052E056E01420E073642057
:1011000030820120A073F3E7002901D0FFF72EFF02
:10111000E07C01288FD12773A773E7748BE74EE03B
:1011200050E0A27B002A04D0002807D0FFF727FF59
:1011300008E0E57335820120A073F7E7002901D0AC
:10114000FFF714FF308A002801D12773A773E07BD3
:10115000002805D1207C002802D0642060743EE085
:10116000607C00283BD1A07C002838D0E57336E0B5
:10117000A27B1E25002A00D028E7E57305203082D7
:101180000120A073FFF7FBFE23E70029FCD0FFF747
:10119000EDFE1EE705E01EE0207C00281FD06574F0
:1011A0001DE0A27B002A03D0002800D13CE738E7ED
:1011B0001420E073072030820120A07331E72773E9
:1011C000A77338E7607C002809D1A07C002806D0EE
:1011D0001420E07303E0A773FFF7C8FEE774207BD9
:1011E0006073E07B2074607CA074F8BD6000002018
:1011F00008B513484269012149040A434261426922
:101200000A400092426949000A43426142690A4029
:101210000092426949000A43426142690A400092D1
:10122000426949000A43426142690A4000924269A8
:1012300089000A43426140690840009008BD0000EF
:1012400000100240F8B5444D6A8FE98F10462E46D3
:101250002C460843203E4034002806D1F07F012868
:1012600003D1E08DA0850020F0773B4F403FB87957
:10127000002A04D1012802D1A28D002A02D000291F
:101280000CD021E000F05AFD208DE8870220B871D3
:101290000120F07700F03CFF30A013E0022813D1CA
:1012A000A08D002810D100F049FD208D6887012015
:1012B000B871F0772848C030C169491CC16100F09D
:1012C00027FF2AA005F0D4FB00F0B0FD03F036FCA8
:1012D000288F00283FD129A005F0CAFB1E48803086
:1012E000008BFFF703F9334A334BFFF717F8FFF78B
:1012F00033F9194EC0363065FFF71AF902460B462E
:101300002EA005F0B5FB306BFFF712F902460B4635
:101310002FA005F0ADFBB97932A005F0A9FB698FCC
:10132000002906D033A005F0A3FB38A0316A05F0F0
:101330009FFBE98F002906D039A005F099FB3EA05C
:10134000316A05F095FBA18D002902D03FA005F080
:101350008FFB0A202887F8BD400000200A0D4E6F41
:101360006973652074657374203100000A0D4E6F37
:101370006973652074657374203200000A0D3D3D69
:101380003D3D3D3D3D3D3D3D3D3D3D3DB460C0F4B9
:10139000B4FAB8D52DAAACBA417363616E323D3D43
:1013A0003D3D3D3D3D3D3D3D3D3D3D3D3D3D3D3D6D
:1013B0003D0000006666666666664A3F0A0DA5D86F
:1013C000AB65B971C0A3ADC8203D2025662056008D
:1013D0000A0DABDDBEF7B971C0A32020203D20254A
:1013E000662056000A0D4143545F446F6F72203DE2
:1013F000202564000A0A0DB67DAAF9B3D1BE6CAEF1
:10140000C9B6A1203D202564206D73000A0DB67D6C
:10141000AAF9A6B8BCC6203D2025640A0000000039
:101420000A0A0DC3F6AAF9B3D1BE6CAEC9B6A120A3
:101430003D202564206D73000A0DC3F6AAF9A6B8F5
:10144000BCC6203D2025640A000000000A0D544D52
:101450005F444C59203D20256400000010B502482F
:10146000006B01F038F910BD6801002010B504468A
:101470000068054940181421FEF736FE80002064FC
:101480000248E06310BD0000F8FFFDBF000002400D
:1014900030B5056C0124AC40C56B6C6004686360BA
:1014A0004368102B036803D099600068C26030BDA8
:1014B0009A600068C16030BDFEB5BF4C208F002827
:1014C0007ED1BEA005F0D4FA274680372546388B5A
:1014D00040352887FFF70AF8C34AC44BFEF71EFFC2
:1014E000FFF73AF82646C0363065306BC0490290A7
:1014F000FEF799FEFFF71CF8BE4ABF4BFEF776FFDA
:10150000009001910298FFF713F8AA8E029202460A
:101510000B46BAA005F0ACFA306DB5490290FEF763
:1015200082FEFFF705F8B34AB34BFEF75FFF00906A
:1015300001910298FEF7FCFF2A8F029202460B46A9
:10154000BAA005F095FA706BA9490290FEF76BFE00
:10155000FEF7EEFFA74AA84BFEF748FF0090019167
:101560000298FEF7E5FFEA8E029202460B46BBA008
:1015700005F07EFAA98FC5A005F07AFAF06B41005C
:10158000C7A005F075FACBA005F072FACAA005F065
:101590006FFAA98ACDA005F06BFAE98AD2A005F00E
:1015A00067FAC4A005F064FA803DE979D5A005F09A
:1015B0005FFA608FE18FE03E0843002860D000E0D2
:1015C000F9E0307E012815D1BAA005F051FA204685
:1015D0004030C08BFEF782FFD649FEF761FEFEF772
:1015E000A7FF02460B46297DD3A005F041FADAA0F9
:1015F00005F03EFA608F00281FD0FEF76FFFCD493F
:10160000FEF74EFEFEF794FF02460B46D9A005F00A
:101610002FFA687AFEF762FF0090A87AFEF75EFF65
:10162000DB49FEF700FE0099FEF73AFEFEF780FF69
:1016300002460B46D7A005F01BFAE08F00281FD00A
:10164000FEF74CFFBB49FEF72BFEFEF771FF02468B
:101650000B46D5A005F00CFA687AFEF73FFF009024
:10166000A87AFEF73BFFCA49FEF7DDFD0099FEF7B9
:1016700017FEFEF75DFF02460B46C6A005F0F8F91F
:101680004D4840308189002902D0CEA005F0F0F904
:10169000217B002910D0D1A005F0EAF94648C030DE
:1016A000006CFEF745FF02460B46D1A005F0E0F9BD
:1016B000B98AD4A005F0DCF9B07A012803D1E17A27
:1016C000D5A005F0D5F9A87C002815D079A005F0A3
:1016D000CFF9A97CD7A005F0CBF937484030008B73
:1016E000FEF7FCFE9349FEF7DBFDFEF721FF024605
:1016F0000B46D7A005F0BCF9E87B01280DD16DA001
:1017000005F0B6F9DBA005F0B3F9B989DEA005F064
:10171000AFF9398AE2A005F0ABF9274E4036B08B1D
:10172000002806D063A005F0A3F9B18BE2A005F074
:101730009FF9E87B002806D05EA005F099F9E97BC7
:10174000E3A005F095F9A078012809D159A005F08A
:101750008FF9E7A005F08CF9A178EEA005F088F9E3
:10176000E078012809D153A005F082F9EDA005F039
:101770007FF9E178F5A005F07BF90F4E2036307B3C
:10178000002806D04BA005F073F9317BF4A005F0DA
:101790006FF9A878012806D146A005F069F9A97863
:1017A000F4A005F065F9F8A005F062F96879012860
:1017B00001D10A202087FEBD400000200A0D3D3DDA
:1017C0003D3D3D3D3D3D3D3D3D3D3D3DAAACBA41EC
:1017D0007363616E3D3D3D3D3D3D3D3D3D3D3D3D88
:1017E0003D3D3D3D3D3D3D006666666666664A3F61
:1017F0000000A041333333333333FD3F0A0D20ABB8
:10180000DDBEF7A457ADAD56203D2025322E336600
:1018100020562F2049203D2025322E326620412F90
:10182000204144203D202564000000000A0D20A531
:10183000D8AB652020202056203D2025322E33664F
:1018400020562F2049203D2025322E326620412F60
:10185000204144203D202564000000000A0D20ABFB
:10186000DDBEF7A455ADAD56203D2025322E3366A2
:1018700020562F2049203D2025322E326620412F30
:10188000204144203D202564000000000A0A0D206C
:10189000ADADA6ECB0F5A6E64144203D20256400A0
:1018A0000A0A0D20B942C2E0A6B8BCC6203D2025D8
:1018B000640000000A0000000A0D20A8BEA7A8B01E
:1018C000F2B7C74144ADC83A000000000A0D2041FC
:1018D00044435F4F50454E5F4D41585F3136752050
:1018E0003D202564000000000A0D204144435F4371
:1018F0004C4F53455F4D41585F313675203D202593
:10190000640000000A0D20A5D8AB65AAF9AAACBAFC
:1019100041203D202564202028303AB0B1A4EE2F8C
:10192000313AB67DAAF9A4A42F323AC3F6AAF9A493
:10193000A4290000000020410A0D20BD77A842B96B
:1019400042C2E0AAACBA41203D20256420282532BD
:101950002E3066ACED2900000A0D2028313AAAECA1
:10196000AC712F323AA4A4AC712F333AA7C0AC713A
:10197000290000000A0A0D20B67DAAF9B3D1BE6C79
:10198000AEC9B6A1203D2025322E3166207300005D
:101990000000C8420A0D20B942C2E0B374ABD720A0
:1019A0003D2025332E3266000A0A0D20C3F6AAF91F
:1019B000B3D1BE6CAEC9B6A1203D2025322E316612
:1019C000207300000A0A0DC3F6AAF9B5A5ABDDAE77
:1019D000C9B6A1203D202564206D73000A0A0DA818
:1019E000BEC0A3AAACBA41203D202564000000007F
:1019F0000A0A0DA8BEC0A3ACC9C576ADAB203D2078
:101A0000256600000A0A0DA8BEC0A3ACC9ADADADE5
:101A1000C8203D20256400000A0A0DB1B2B5A1C35B
:101A2000F6AAF9AAACBA4153545F436C6F73653D93
:101A3000202564000A0D20A8BEA7A8C4B2B56F3146
:101A4000B67DAAF932C3F6AAF92825642900000058
:101A50000A0A0D20B67DAAF9A8BEA7A8B0B1A4EEC7
:101A6000B5A5ABDDAEC9B6A12825322E3066ACEDEA
:101A7000290000000A0D20B942C2E04144ADC82847
:101A8000A759AEC9293A00000A0D204144435F4FCF
:101A900050454E5F4D41585F62203D202564000057
:101AA0000A0D204144435F434C4F53455F4D41581D
:101AB0005F62203D202564000A0D20544D5F4144A3
:101AC000435F52656C616F64203D20256400000017
:101AD0000A0D204144435F4465746563745F537429
:101AE0006172745F466C6167203D202564000000D0
:101AF0000A0D202F2F2F2F2F2F2F2F2F2FACF5A593
:101B00007EBD75B0BBB4FAC4B2B56F5C5C5C5C5CA6
:101B1000000000000A0D20466C61675F4952203DBD
:101B2000202564000A0D202F2F2F2F2F2F2F2F2F2E
:101B30002FB7CFC3FAB750B4FABEB9B0BBB4FAC42A
:101B4000B2B56F5C5C5C5C5C000000000A0D204676
:101B50006C61675F534D4B203D2025640000000001
:101B60000A0D20B8C1BBEFBEB9AAACBA41203D20D6
:101B7000256400000A0D20ADADA6ECB0BBB4FAB6EA
:101B80007DA96C28256429000A0D00007D218901AA
:101B90004843074948610020886101220A610A69B7
:101BA000D30701D0D203FAD50861886170470000DD
:101BB00000E000E070B51648164D807D012824D065
:101BC00001220121284601F0B4F90121284601F043
:101BD000ABF9014610A004F04BFF0D482030C08F38
:101BE00000280CD00A4CE0346069FFF7CFFF0122D7
:101BF0000221284601F09DF96069FFF7C7FF0A48F6
:101C000002F02CF8002802D0FEE70022D9E770BDD0
:101C100020000020000400480A0D20524C595F4467
:101C20004952203D20256400F401002070B5104881
:101C3000104D807D012818D001220121284601F095
:101C400078F90B4CE0346069FFF7A0FF0122022114
:101C5000284601F06EF96069FFF798FF092000221D
:101C60004021C00601F065F970BD0022E5E70000E3
:101C7000200000200004004870B51648164D807DF5
:101C8000012824D000220121284601F052F9012127
:101C9000284601F049F9014610A004F0E9FE0D487C
:101CA0002030408F00280CD00A4CE0346069FFF7E8
:101CB0006DFF01220221284601F03BF96069FFF720
:101CC00065FF0A4801F0CAFF002802D0FEE70122A2
:101CD000D9E770BD20000020000400480A0D205202
:101CE0004C595F444952203D20256400F4010020F6
:101CF00070B51048104D807D012818D000220121B8
:101D0000284601F016F90B4CE0346069FFF73EFFFE
:101D100001220221284601F00CF96069FFF736FF25
:101D2000092000224021C00601F003F970BD012204
:101D3000E5E70000200000200004004810B50E4C2C
:101D40000221204601F0F0F8002813D00B4801F0E2
:101D500095FF002800D0FEE7092001224021C0069F
:101D600001F0E7F800220221204601F0E2F804A089
:101D700004F07EFE10BD000000040048F4010020C5
:101D80000A0D2053544F507E3100000010B5104C06
:101D90000221204601F0C8F8002818D00D4801F0B3
:101DA0006DFF002800D0FEE7092001224021C00677
:101DB00001F0BFF800220221204601F0BAF801220A
:101DC0001146204601F0B5F803A004F051FE10BD05
:101DD00000040048F40100200A0D2053544F507EA7
:101DE0003200000070B50F4D0221284601F09CF82A
:101DF000002816D0092001224021C00601F099F8E0
:101E0000094C6069FFF7C2FE00220221284601F05A
:101E100090F86069FFF7BAFE00220121284601F020
:101E200088F870BD0004004800010020F0B55A4B4E
:101E3000D87E01284BD100211C46D976203CA079C0
:101E40001A468446A07C603286469F7A1546204614
:101E5000012640354030002F02D0012F21D02FE045
:101E60006346002B05D0012B06D0022B06D0E17172
:101E700024E0E171017321E0E6715BE07346022B1F
:101E80001ED00223E3714187138DC387143B138057
:101E90009388D3870A23AB803F4BE1704033D975D9
:101EA0000EE03D4C67462034E47A002F10D0012F1D
:101EB0003AD0022F46D0384B203BD9714187C18799
:101EC000438FC08F034302D032209083D183F0BD73
:101ED000314D203DEF79012F02D0022F0BD020E0B1
:101EE000448F14814187002C01D01E7719E01977A7
:101EF0005977997715E0C78F5781012C02D0022CB2
:101F000008D00DE0002F01D05E7709E05977022359
:101F1000C37205E0002F01D09E7701E09977C67269
:101F2000C187E9710173CBE71B4C203CE67119773F
:101F300059779977C187138D43879388D3870A236D
:101F4000AB80BDE77646022EBAD0134E0227203E64
:101F5000F77141871F7F012F04D0012C04D0022C80
:101F60000DD011E0138D0EE05B7F002B05D053895F
:101F7000C3879BB20A3B138006E0538DF8E79B7F33
:101F8000002B07D05389C3879388D3870A23AB805C
:101F9000F17095E7EB88F6E720000020F8B5154CC6
:101FA000607E0A2824D1607925460A2700266035FC
:101FB000012812D0012060712E73FEF7D7FFFEF7C3
:101FC000D5FFFEF7D3FFFEF7D1FFFEF7CFFF0A489C
:101FD00002F002F8002807D0FEE76671064801F01B
:101FE000DEFF002802D0FEE702F0AAFE2F7366761D
:101FF000F8BD0000000000203402002010B50548A4
:102000004169890704D502214161084600F07CFC42
:1020100010BD00000004014010B5054841690907E2
:1020200004D508214161084600F06EFC10BD000097
:102030000004014010B514494869400501D5081550
:102040001FE04869000505D50120C00219E000F035
:102050005BFC10BD4869C00402D50120000310E0FC
:102060004869000602D580204861F0E7486900040D
:1020700002D50120C00304E048698004E9D50120AD
:1020800040034861E3E700000004014000B51B483D
:1020900087B042690121C9040A43426142690A408A
:1020A0000592426949100A43426142690A40059219
:1020B000426909010A43426140690840059010489D
:1020C00001900020029007208002009069460D4890
:1020D00000F086FE8020009069460B4800F080FEEC
:1020E0000520400300906946084800F079FE002270
:1020F0000121072001F07EF907B000BD0010024069
:1021000000002110000800480014004800040048A6
:1021100070B50AA004F0ACFC01220C4DD40221469B
:10212000284600F006FF0A484069FFF72FFD00220D
:102130002146284600F0FDFE70BD00000A0D2D2D41
:102140002D2D4558545F434E5400000000040048B4
:1021500000010020F8B5054604462035287D0026FC
:10216000012808D001202875206881688907890F17
:10217000012908D101E00220F8BD0168C90738D162
:10218000C168090435D4A16BFF22013291430222B8
:102190001143A163C1688907890F0091C16889084B
:1021A0008900C1602068816892071143816000F056
:1021B000C7FE07460EE000F0C3FEC01B022809D987
:1021C000A06B0221884310210843A06300202875DA
:1021D0000120F8BD206880680028ECDB2068C16819
:1021E000009A1143C160A06B80088000401CA0636E
:1021F00004E0A06B20210843A0630126002028757D
:102200003046F8BDF8B50025044620340095227DFF
:10221000012A39D00122227503689E68760767D4A7
:10222000384F4E68BE424DD09E6A0F78BA40164372
:102230009E620123C26A1B079A421FD0012A1DD049
:10224000022A1BD0032A19D0042A17D0052A15D038
:10225000062A13D0072A11D002688B6856697607C0
:10226000760FB3420AD05369DB08DB005361006884
:1022700042690B7A5B075B0F1A4342610A68102AB6
:1022800004D0112A02D038E00220F8BD1E4883682D
:10229000102A07D001229205134383600868102892
:1022A00003D02AE00122D205F6E719481749006851
:1022B000FDF71AFF0A21484300E0401E0090002865
:1022C000FBD11AE0986A0E78B24090439862096890
:1022D000102901D0112910D10B488268102904D08F
:1022E000012189058A43826007E00121C905F9E7D8
:1022F000816B20221143816301250020207528462F
:10230000F8BD0000011000000027014040420F000E
:10231000540100207047704770B504003BD0A06B9B
:1023200002210843A0632046FEF7D4FB00260546A1
:10233000002832D0012D2AD021684A689F2082438C
:102340004A60216808602068C168184A1140C1606D
:102350002068016989008908016120684169C9080C
:10236000C90041612068016A114A11400162206878
:10237000816AC90CC90481620E48816803229205F2
:1023800091438160204600F0D5F8E663A6632034CF
:102390002675284670BD012070BD2046FEF70BFC57
:1023A00005460128F3D00120A063C5E700023E8363
:1023B00000F000F00027014070470000F8B500264B
:1023C0000446002805D0A06B25462035002802D001
:1023D00007E00120F8BD0020E0632875204600F0EA
:1023E000BDF8A06B1022C006002870DB2068816851
:1023F00049076CD4A16B1301994302231943A163CC
:1024000081688907890F012905D10168C9070FD1A2
:10241000C16809040CD4C16818239943A3681943FF
:10242000C1602068016963688900890819430161F6
:102430002068C1683D4B1940C160207E617E8003E9
:10244000C9030843A17E4B031843A36A012B02D0A2
:1024500001231B0300E000231843E36818432369AA
:10246000022B09D0002318432B79E57E5B0018432B
:102470000123012D02D00AE00423F4E7002927D02C
:10248000A16B20252943A163E16B1943E163E16955
:102490000D46FF3DC23D02D0256A2943084321680D
:1024A000CD680543CD600125E16A2D07A94213D00F
:1024B000012911D002290FD003290DD004290BD0F6
:1024C000052909D0062907D0072905D010E028E002
:1024D000012109040843DAE721684D69ED08ED00A0
:1024E0004D6121684D69A78D7F077F0F3D434D6189
:1024F0002168C9680E4D2940814207D10020E06360
:10250000A06B80088000401CA06308E0A06B022143
:1025100088431043A063E06B1843E0630126304614
:10252000F8BDA06B1043A063F8E700001902FEFF9E
:10253000E7FF3F8310B50848C26841150A43C260EF
:10254000C2688A43C26082698A438261092001218C
:10255000C00600F06FF910BD0010024070B52049B0
:1025600086B04A6905460120400402434A614A692F
:10257000024005928A69001202438A618A69024018
:1025800005924A69012002434A61496900260140D7
:102590000591009003200190092069460296C0062B
:1025A00000F01EFC0F48104C41C480202660606083
:1025B0004000A0608000E06020202061C0016061D8
:1025C0000948083C00F062F8204600F0D3F82C637C
:1025D000002203210920656200F00CFF06B070BDE7
:1025E000001002400800024064040020F7B50446D1
:1025F00000680025806840073DD426462036307D9F
:1026000001280AD001273775607E012807D02046AF
:10261000FEF704FB050002D02EE00220FEBDA06BF9
:1026200016490840FF2101310843A0630020E06300
:102630003075216B12488862216B1248C862216B89
:102640001148086321681C20086020684168102236
:10265000114341602068C1683943C1602168206B23
:102660004031029B019A00F0AFF820688168042293
:102670001143816000E002252846FEBDFEF1FFFF08
:10268000270B0008AD0B0008930B000870B5040081
:102690001FD02068016849084900016020680025B2
:1026A000056020684560206885602068C560204618
:1026B000FEF7DCFE216C01208840E16B4860A562DA
:1026C000E56225636563A56320346570257000208D
:1026D00070BD012070BDF0B4C16B0D6801680C685D
:1026E0000422066C1346B3402B420DD063070BD572
:1026F0000B689B0602D40B6893430B60016C8A4005
:10270000C16B4A60C16A19E00227B74002462F40F8
:1027100001232032002F15D0A70713D50C68A4067B
:1027200004D40C680A25AC430C605370036C02217E
:102730009940C36B596000211170816A002916D03D
:10274000F0BC08470827B7402F4210D024070ED509
:102750000C680E25AC430C60046C1946A140C46B98
:1027600061608363537000211170016BE6E7F0BC78
:102770007047000070B5040021D0022120462030AF
:1027800005464170226811680E48A36801406068E0
:1027900026691843E3683343184363691843A36900
:1027A0001843E3691843084310602046FEF75EFEB5
:1027B0000021A163012068702970084670BD0120C6
:1027C00070BD00000FC0FFFFF8B504468C462030F6
:1027D00001780025012909D00126067041780027DB
:1027E000012905D0077002252846F8BD0220F8BD52
:1027F00002214170A763206801684908490001600F
:1028000061462046FEF744FEE06A00282068016821
:1028100002D00E22114306E00A2211430160206813
:10282000016804229143016020680168314301601E
:10283000DAE70000F0B5002258E0012393401C467F
:102840000C4052D096082B4DB6007519AF68AC46B7
:1028500095072E0F0F25B540AE463D400927FF06D0
:10286000B84201D100270FE0234FB84201D1012720
:102870000AE0224FB84201D1022705E0204FB842BA
:1028800001D1032700E00527B740AF4212D11D4D0B
:102890002E68A6432E606E68A6436E60AE68A6439F
:1028A000AE60EE68A643EE606546AD687446A5432B
:1028B0006446A560056856000324B440A54305603E
:1028C000D508AD002D182E6AAC465507EF0E0F2522
:1028D000BD40AE4365462E628568A5438560456868
:1028E0009D434560C368A343C360521C0B46D3405D
:1028F000A3D1F0BD000001400004004800080048DA
:10290000000C004800040140F8B50546DDA004F0C5
:10291000AFF8E049002048730C46887340342070BB
:10292000C879DC4E607201218446A072C902374624
:1029300028466B1A0922203701256036884230D09C
:102940001ADC022870D008286FD080286ED00121B0
:10295000890288426BD13273CE4800224276E278F7
:10296000012A64D00079012861D0F07A2843F072FE
:10297000787D01285CD089E0581AC7497ED0401A7A
:102980007DD003214903884251D1E570FFF7D6F984
:102990006420FFF7FBF8BF48FD76857105720420BF
:1029A000ADE0BC48417E491CC9B241760A2919D024
:1029B0003273E17801293AD00179012937D0012118
:1029C000F976002585712573C573317B092900D0FF
:1029D0003573F17A02221143F1720746C07801285B
:1029E00003D00AE000213173E3E7AA4EABA08036A2
:1029F000B18904F03DF8308EB081A078012801D172
:102A0000A5703D73608FE18F0246084301D001201D
:102A1000A071002A01D0022002E0002901D0042088
:102A20003872BD74A5A0AEE018E1FCE0AEE067E04E
:102A3000A54800F079FA6073964E1AE0707B401C4E
:102A40007073A2A004F014F8012189029E4800F0DE
:102A50006BFA6073707BF97B88420AD92078002872
:102A600001D1FFF745F925709EA004F001F8FFF7AA
:102A70003FF9607B0028E1D0717B01E026E0BCE0FB
:102A80009DA003F0F5FF2078012803D0607A02288A
:102A900004D014E0FFF7A6F99CA074E0A0A003F016
:102AA000E7FFFFF74BF96420FFF770F87949002240
:102AB0008D700846227380308388C3870A74E5715D
:102AC0007448FD76857105729CA05CE03273714894
:102AD00000224276E278012A12D0827C022A0FD0AC
:102AE000007901280CD0A078012807D0F07A0422C0
:102AF0001043F072787D012803D028E00320307362
:102B0000F8BD6549704800F00FFA6073614E14E03B
:102B1000707B401C70738CA003F0AAFF5E496A486A
:102B200000F002FA6073717BF87B814205D9257051
:102B30008BA003F09DFFFFF779F8607B0028E7D0BA
:102B4000717B6DA003F094FF20780128A2D0607AF9
:102B5000012810D172A003F08BFFFFF7EFF864207B
:102B6000FFF714F84B4900208D700A46207380321D
:102B70009388D387087425724648FD7602218171B7
:102B8000032101727CA003F073FFF8BD7DA003F068
:102B90006FFF404900204876F87D0128F5D180215B
:102BA0007B4800F0C1F960731EE03A48817B79A050
:102BB00003F05EFF37483749807B401C88738021D3
:102BC000734800F0B1F960733248397C807B8842E9
:102BD0000AD93048017901290AD0057165730520A9
:102BE000307373A003F044FF607B0028DDD0F8BD94
:102BF00000210171657372A0F4E76046022802D0DB
:102C0000E08F0028F3D00020E087A570FFF796F84A
:102C10006420FEF7BBFF1F48FD7685711E210173FE
:102C2000057202206BE71B48017A491CC9B2017288
:102C3000042900D905723273017A012906D00229CC
:102C40000AD0032904D0042904D105E0857101E0EC
:102C500002218171FD76F8BD0021FAE7608F00281E
:102C600001D01E2000E0BE20FEF790FF09200221C7
:102C7000C00600F059F90028EDD1FFF75FF855A024
:102C800081E700000A0DB1B1A8EEBEB9ABFCA54FBB
:102C90003A20000000000020001000000A0DADAB3B
:102CA000B773B8FCA44AB5A5ABDDC3F6AAF9AEC9A3
:102CB000B6A13A202564206D730000000A0D53541C
:102CC0004F50210A00000000000800480A0D4F5034
:102CD000454E206B65792E2E2E2E2E7072657373E5
:102CE0000A0000000A0D4A4F47204D6F64653A4FB5
:102CF00050454E2E2E2E0A000A0D436F6E74696EDB
:102D00007565203D2025640A000000000A0D446F0F
:102D10006F722053746F702E2E2E2E2E0A0000001C
:102D20000A0D2D2D2D2D2D2D2D2DA5DFA759A4CF2D
:102D3000C2E02D2D2D2D2D2D2D2D00000A0D4F50D3
:102D4000454E210A000000000A0D434C4F53452018
:102D50006B65792E2E2E2E2E70726573730A00000D
:102D60000A0D4A4F47204D6F64653A434C4F534517
:102D70002E2E2E0A000000000A0D436C6F73652191
:102D80000A0000000A0D4C6F636B210A000000006E
:102D9000001400480A0D4C4F434B206B65792E2ED2
:102DA0002E2E2E70726573732025640A00000000B9
:102DB0000A0D4C4F434B7E7E7E7E7E7E210A0000B4
:102DC0000A0D554E4C4F434B7E7E7E7E7E7E210A01
:102DD000000000000A0D204F4320576F726B000067
:102DE000F8B500238DE001249C40A44622407DD00C
:102DF0004C68022C01D0122C0CD1DC08A40027183E
:102E00003C6A5D07ED0E0F26AE40B4430E69AE403E
:102E100026433E6205685E000324B4400F79A54353
:102E2000BF07BF0FB7402F4307604D68012D05D086
:102E3000022D03D0112D01D0122D0ED18568CF683F
:102E4000A543B7402F43876047686546AF430D7978
:102E5000ED06ED0F9D403D434560C568A5438C6878
:102E6000B4402C43C4604C68E40049D5284CA569A3
:102E700001263543A561A4699D0834400094254C82
:102E8000AD002F19BC689D072E0F0F25B540AC4330
:102E90000925ED06A84201D100250FE01E4DA842EC
:102EA00001D101250AE01D4DA84201D1022505E00E
:102EB0001B4DA84201D1032500E00525B54025435F
:102EC000BD60184C25684E689543F60300D5154340
:102ED000256065684E689543B60300D51543656067
:102EE000A5684E689543F60202D500E008E0154358
:102EF000A560E5684E689543B60200D51543E560C8
:102F00005B1C0A681446DC4000D06CE7F8BD00008A
:102F10000010024000000140000400480008004882
:102F2000000C0048000401400069084000D0012066
:102F30007047002A01D081617047816270470000AC
:102F400001488068704700005801002070B50246B3
:102F500040325378202B1CD11378012B19D0012338
:102F6000137024245470046825689D432560046808
:102F700025681E03B5432560046825680D43256058
:102F80000068016819430160202050700020107013
:102F900070BD022070BD406C7047000070B5040029
:102FA00006D02546403568780026002802D005E086
:102FB000012070BD2E70204600F09AF92420687020
:102FC000206801684908490001600F21606809060E
:102FD00088432168086121688A680120C003824310
:102FE0008A60E1680129A16808D021229202114378
:102FF00022689160E168022902D005E00143F7E709
:1030000001212268C902516021684A680F4B1A43A6
:103010004A602168CA688243CA60616920690843BE
:10302000A169090208432168C860216AE069084370
:10303000216808602068016801221143016066640C
:10304000202068702663AE70002070BD00800002F2
:10305000FFB5054604464035687883B0202875D111
:103060000C98002814D00D98002811D02878012839
:103070006CD001202870FFF763FF07460122009003
:103080001923D103204601F04DF9002874D103E043
:103090000120400260646FE0222068704020A87028
:1030A000002666640C9860620D98608566630E98D1
:1030B0000090019704A90EC9204601F0BFF800282E
:1030C00001D02E7058E0618D3448FF2905D9FF22C8
:1030D000228501231B06009006E0618D218500906A
:1030E000208D0123C2B25B062046049901F006F947
:1030F00000970022042120460E9B01F013F90028BE
:103100003AD12068406A616A0870606A401C606257
:10311000208D401E81B22185608D401E6085608DAE
:1031200000281FD000291DD10097002280212046B1
:103130000E9B01F0F7F800281ED1608DFF2806D9FC
:10314000FF22228501231B06009607E024E0608D04
:1031500020850096208D0123C2B25B06204604998B
:1031600001F0CCF8608D0028C2D13A4620460E9975
:1031700001F0FFF8002802D0012007B0F0BD206860
:103180002021C16120684268054B1A404260697085
:10319000AE702E700020F0E70220EEE700240080E1
:1031A00000E800FEFFB5054604464035687883B068
:1031B000202872D10C98002814D00D98002811D026
:1031C0002878012869D001202870FFF7B9FE07464A
:1031D000012200901923D103204601F0A3F8002812
:1031E00071D103E00120400260646CE0212068702E
:1031F0004020A870002666640C9860620D98608577
:1032000066630E980090019704A90EC9204601F04C
:1032100045F8002801D02E7055E0608DFF2805D9B3
:10322000FF22228501231B06009606E0608D208583
:103230000096208D0123C2B25B062046049901F05E
:103240005DF83A4620460E9901F0B9F800283AD1C7
:10325000606A216800788862606A401C6062608DE4
:10326000401E6085208D401E80B22085618D002922
:103270001FD000281DD100970022802120460E9BE0
:1032800001F050F800281ED1608DFF2806D9FF22DA
:10329000228501231B06009607E024E0608D20852F
:1032A0000096208D0123C2B25B062046049901F0EE
:1032B00025F8608D0028C4D13A4620460E9901F0C9
:1032C00058F8002802D0012007B0F0BD2068202166
:1032D000C16120684268054B1A4042606970AE7057
:1032E0002E700020F0E70220EEE7000000E800FE6C
:1032F00030B58BB0202005901020089005A800F074
:103300007DF816484269012189040A4342614269F5
:103310000A40099242690A43426142690A4009929D
:10332000C269C9000A43C261C0690124084009900A
:1033300040200090122001900320094D0390029438
:10334000694604942846FFF74BFD802000906946AB
:1033500004942846FFF744FD0BB030BD0010024036
:10336000000400480248816802788918816070472B
:103370005801002010B50648016810221143016071
:10338000032000F007F800F027F8002010BD00002F
:103390000020024070B504460D4D7D202978C00004
:1033A000FCF7A2FE01460B480068FCF79DFE00F00A
:1033B00031FB002809D1042C07D200222146401EEF
:1033C00000F018F800206C6070BD012070BD000096
:1033D000580100205401002070470000002805DB40
:1033E000C106C90E012088400149086070470000ED
:1033F00000E100E010B503F087FB10BDF8B505460D
:103400000068354CC00352D5E0690026C00007D4DF
:10341000E16920040143E161E16901400126009175
:103420002E480168C90510D4016882151143016056
:10343000FFF786FD074604E0FFF782FDC01B642806
:1034400024D826480068C005F6D5206A03273F0225
:10345000384020D06968394081421CD0206A226AF5
:10346000B843012109040A432262226A8A43226284
:103470002062C0070FD0FFF763FD009008E0FFF760
:103480005FFD0099411A1648814201D90320F8BD19
:10349000206A8007F3D5206A6968B8430843206230
:1034A000002E04D0E169012000078143E161287802
:1034B000C00705D0206BA9688008800008432063FE
:1034C0002878800605D5206B10218843E9680843D9
:1034D00020630020F8BD0000001002400070004092
:1034E00088130000F8B50F46060059D03A4D2868F9
:1034F000C007C00FB84209D22868400840003843CE
:1035000028602868C007C00FB84249D13068334CE2
:1035100081070CD5400704D56068072109020843DC
:1035200060606068F0218843B1680843606030786B
:10353000C00726D0706801280ED0216802280ED05E
:10354000890700292CDA61688908890001436160D4
:10355000FFF7F6FC00900DE021688903F1E789018F
:10356000EFE7FFF7EDFC0099411A1D48814201D9B0
:103570000320F8BD60680C2108407168890088420A
:10358000EFD12868C007C00FB8420BD9286840089F
:103590004000384328602868C007C00FB84201D0F7
:1035A0000120F8BD3078400706D560680721090280
:1035B0008843F1680843606000F028F86168094AB0
:1035C0000906090F515CC840074908600320FFF74E
:1035D000E1FE0020F8BD0000002002400010024083
:1035E000881300001877000854010020044805499A
:1035F00000684968044A4905490F515CC840704752
:1036000054010020001002402877000810B514A3D0
:103610000FCB88B06C460FC415A30FCB0FC4184A4C
:1036200051680C200B4603401648042B16D0082B7B
:1036300014D18B021B0F6C46E45CD26A04AB1207F8
:10364000120F9A5CC90305D500231946FCF762FDE9
:10365000214601E020460C4903F031FA08B010BDC4
:1036600002030405060708090A0B0C0D0E0F1010C3
:103670000102030405060708090A0B0C0D0E0F10C2
:103680000010024000127A0000093D00FEB504005F
:1036900070D02078DC4DC0074AD068680007800FE2
:1036A000012807D068680007800F022809D16868E0
:1036B000C00306D5286880033AD560680028E7D0A3
:1036C00036E06168012914D001208004002901D06E
:1036D000052914D02A68012109048A432A6029682F
:1036E000814329606068002816D0FFF729FC064650
:1036F0000EE028680121090408432860F2E72968E0
:1037000001432960F5E7FFF71BFC801B64286ED896
:1037100028688003F7D50BE0FFF712FC064604E0AB
:10372000FFF70EFC801B6428F1D828688003F7D4CB
:1037300020780126800700283CDA68680007800F9F
:1037400007D068680007800F022809D16868C003A5
:1037500006D42868800716D5E06801280AD112E04F
:10376000E0680028286816D030432860FFF7E8FB9F
:10377000074605E043E1FFF7E3FBC01B0228C6D87C
:1037800028688007F7D52868F82188432169C9008F
:10379000084328600EE0400840002860FFF7D0FB97
:1037A000074604E0FFF7CCFBC01B0228AFD828680F
:1037B0008007F7D42078000722D5E0690028686ADE
:1037C0000ED030436862FFF7BBFB074604E0FFF70B
:1037D000B7FBC01B02289AD8686A8007F7D50FE0AC
:1037E000400840006862FFF7ABFB074605E09DE03C
:1037F000FFF7A6FBC01B022889D8686A8007F7D4A8
:10380000207804274007002860DA00200190E8694A
:10381000C00008D4E969B8060143E961E9690140DB
:1038200001200091019079480168C90511D401680F
:10383000821511430160FFF783FB009005E0FFF75D
:103840007FFB0099401A642870D870480068C00552
:10385000F5D5A06801280AD0002801D0052810D08D
:10386000286A400840002862286AB84301E0286AB4
:1038700030432862A068002812D0FFF761FB009057
:103880000AE0286A38432862F1E7FFF759FB0099FC
:10389000411A5F48814249D8286A8007F5D50DE072
:1038A000FFF74EFB009006E0FFF74AFB0099411A34
:1038B000574881423AD8286A8007F5D401980028F1
:1038C00004D0E969012000078143E9612078C0063E
:1038D00035D5606901280CD0401D686B23D0384372
:1038E0006863686B400840006863FFF729FB064681
:1038F00022E0686B38436863686B30436863FFF7A6
:103900001FFB064604E0FFF71BFB801B02285BD869
:10391000686B8007F7D5686BF8218843A169C900F7
:10392000084368630BE0B8436863F4E74CE0FFF7D3
:1039300007FB801B022847D8686B8007F7D4206AF2
:1039400000285ED069680907890F022942D0012644
:1039500036060228286805D0B0432860FFF7F0FA41
:10396000044633E0B0432860FFF7EAFA074604E074
:10397000FFF7E6FAC01B022826D828688001F7D492
:10398000E86AE16A000900010843E862616AA06A26
:10399000084369683D22120491430843686028681F
:1039A00030432860FFF7CCFA044604E0FFF7C8FA7A
:1039B000001B022808D828688001F7D521E0FFF70E
:1039C000BFFA001B022801D90320FEBD2868800130
:1039D000F5D416E00128F8D06868E96A01221204DB
:1039E000636A02409A420AD10907E26A090F9142CA
:1039F00005D10F2189040840A16A884201D0012025
:103A0000FEBD0020FEBD000000100240007000401E
:103A100088130000094910B5401E884201D90120D1
:103A200010BD074C60610321081F03F06DF80020F2
:103A3000A06107202061002010BD0000FFFFFF00F3
:103A400000E000E070B50446006801690025C94344
:103A50008907002915DBC168C943890711D4E91E0C
:103A6000016101202077206880698007204602D00C
:103A700000F01AF904E000F0C9F9204600F0C7F997
:103A8000257720680169C943490717D4C168C9432C
:103A9000490713D40421C94301610220207720681B
:103AA00080698005800F204602D000F0FDF804E018
:103AB00000F0ACF9204600F0AAF9257720680169EA
:103AC000C943090716D4C168C943090712D408219C
:103AD000C9430161042020772068C069800720461F
:103AE00002D000F0E1F804E000F090F9204600F088
:103AF0008EF9257720680169C943C90617D4C168C2
:103B0000C943C90613D41021C94301610820207795
:103B10002068C0698005800F204602D000F0C4F8FC
:103B200004E000F073F9204600F071F92577206871
:103B30000169C943C90708D1C168C943C90704D18C
:103B4000891E0161204600F02FF820680169C943F1
:103B5000090609D4C168C943090605D48021C943AF
:103B60000161204600F03AF820680169C94349061E
:103B700009D4C168C943490605D44021C94301613C
:103B8000204600F00BFA20680169C943890609D470
:103B9000C168C943890605D42021C9430161204673
:103BA00000F01DF870BD000010B50B48C17A491C2B
:103BB000C9B2C172427A914201D10021C172827AA6
:103BC0000920C9B2C006914201D2002200E00122C0
:103BD0004021FFF7AEF910BD00000020704770478C
:103BE00070B5040005D025462035687F002802D036
:103BF00006E0012070BD00202877204600F00AF87A
:103C000002206877211D206802F066FD0120687798
:103C1000002070BD08B510488269012149040A439B
:103C2000826182690A400092826949000A43826186
:103C3000806900220840009002211520FFF7DAFB7E
:103C4000012202211620FFF7D5FB1520FFF7C6FB46
:103C50001620FFF7C3FB08BD001002400268D368BE
:103C600001210B43D360006882685207520F062A75
:103C700002D002680A430260002070470168CA68E7
:103C800052085200CA600068016A064A114207D110
:103C9000016A9210114203D101684908490001608C
:103CA0000020704711110000704770B5044600688D
:103CB00001690025C9438907002915DBC168C9438B
:103CC000890711D4E91E01610120207720688069ED
:103CD0008007204602D0FFF7E7FF04E000F096F8E7
:103CE000204600F094F8257720680169C943490708
:103CF00017D4C168C943490713D40421C9430161DA
:103D000002202077206880698005800F204602D03D
:103D1000FFF7CAFF04E000F079F8204600F077F8DA
:103D2000257720680169C943090716D4C168C943CA
:103D3000090712D40821C9430161042020772068B3
:103D4000C0698007204602D0FFF7AEFF04E000F014
:103D50005DF8204600F05BF8257720680169C943CB
:103D6000C90617D4C168C943C90613D41021C94371
:103D70000161082020772068C0698005800F2046F7
:103D800002D0FFF791FF04E000F040F8204600F079
:103D90003EF8257720680169C943C90708D1C16881
:103DA000C943C90704D1891E0161204600F030F8DB
:103DB00020680169C943090609D4C168C9430906D5
:103DC00005D48021C94301612046FFF707FF206821
:103DD0000169C943490609D4C168C943490605D4E4
:103DE0004021C9430161204600F0D8F820680169EC
:103DF000C943890609D4C168C943890605D420216D
:103E0000C94301612046FFF7EAFE70BD7047704765
:103E1000F8B5604C608A2746401C80B26082218AD7
:103E2000203F491C2182E189491CE1810A280FD1E8
:103E3000F87B02F04BFCF873787C02F047FC2546D7
:103E40007874803DE87D02F041FCE87500206082D6
:103E5000208A64287DD14F4E403E708F02F036FCA0
:103E60007087F08F02F032FCF087E08F02F02EFCBA
:103E70003546E0878035288802F028FC288068884D
:103E800002F024FC6880A88802F020FCA880E0886A
:103E900002F01CFCE080308F02F018FC3087A08D0F
:103EA00002F014FCA085A08902F010FCA081208BF8
:103EB00002F00CFC2083A08B02F008FCA083208879
:103EC00002F004FC2080688D02F000FC6885688F99
:103ED00002F0FCFB6887C036708902F0F7FB708146
:103EE000A88C02F0F3FBA884E88C02F0EFFBE884D6
:103EF000288D02F0EBFB2885A88E02F0E7FBA88650
:103F0000E88E02F0E3FBE886288F02F0DFFB2887CB
:103F1000B08802F0DBFBB080F08802F0D7FBF080C5
:103F2000308902F0D3FB3081E08B1B49884201D0FD
:103F3000401C80B2E083308A02F0C8FB3082708A75
:103F400002F0C4FB7082E08C02F0C0FBE084002031
:103F50002082E0897D21C90088420FD10D4D0020CB
:103F6000E081803D287B02F0B1FB2873608B02F07A
:103F7000ADFB6083208C02F0A9FB2084F87B002835
:103F800002D0FCF7FCFFF8BD787C0028FBD0FCF7E2
:103F9000EDFFF8BD80000020FFFF0000704770B506
:103FA000040017D024206067206801684908490090
:103FB00001602068002505602068456020688560F4
:103FC000204600F03FF8E5676567A5676034257413
:103FD000002070BD012070BD10B5040003D0606FDB
:103FE000002802D007E0012010BD002170200155FB
:103FF000204600F03FF824206067206801684908E7
:1040000049000160204602F041FC0128ECD0606AC2
:10401000002802D0204602F0A3FB2068416801225C
:10402000D2029143416020688168082291438160F7
:1040300020680168012211430160204602F0F6FB6E
:1040400010BD000010B50A48C268012189030A4367
:10405000C260C2688A43C26009244115E406204652
:10406000FEF7E8FB012189022046FEF7E3FB10BDC5
:104070000010024030B5174887B042690121490459
:104080000A43426142690A40059242690A43426119
:1040900042690A4005928269C9100A4382618069B7
:1040A000012408400590481100900220019003204F
:1040B0000925ED0603900294694604942846FEF70C
:1040C0008FFEA0020090694604942846FEF788FE01
:1040D00007B030BD00100240FFB50446406F83B00A
:1040E00017460D4620285CD1002D0AD0002F08D09D
:1040F000A168C001814207D12069002804D1E807E6
:1041000002D0012007B0F0BD204660300290007C54
:10411000012846D00298012101740020E067212087
:104120006067FEF70DFF26464036019037827782A2
:104130000120A1680003814202D12069002802D039
:104140002F46002511E000270FE0002280212046A5
:1041500002F040FC002815D1002F15D021683878D6
:1041600008857F1C708A401E7082708A019B00281F
:1041700006980090E9D100224021204602F02AFC56
:10418000002808D00320BDE728882168C005C00D9D
:104190000885AD1CE6E720206067029900200874BE
:1041A000B0E70220AEE7FEE701688A69D2439207D2
:1041B00001D400228A6200688169C943C90703D01B
:1041C000816901221143816170470000F7B50446FF
:1041D00000680E468069C043C0062BD420272546C0
:1041E000403520688069C043800612D5701CF8D025
:1041F000FEF7A6FE0299401AB04201D8002EF0D177
:10420000606C384360646F700020A87028700120D3
:10421000FEBD21681020C8612068C7612046FFF7F5
:10422000C3FF20684168044A11404160606C04216A
:104230000843E7E70020FEBD00E800FEF8B50446AD
:10424000164615481D46DAB20090079F0023204607
:1042500000F054F83A462046069900F0B0F80028DD
:1042600018D12846F5B2012809D02168300A8862A1
:104270003A462046069900F0A2F800280AD12068A4
:1042800085620097002240212046069B00F04AF8F4
:10429000002800D00120F8BD00200080F8B50446B9
:1042A000164615481D46DAB2C3020090079F204605
:1042B00000F024F83A462046069900F080F80028DD
:1042C00018D12846F5B2012809D02168300A886241
:1042D0003A462046069900F072F800280AD1206874
:1042E00085620097002280212046069B00F01AF884
:1042F000002800D00120F8BD00200080F0B506683D
:10430000059C7568064F600D384385438805800D10
:10431000110408431843204305437560F0BD0000B5
:10432000FF63FF03F8B51D4617460E46044609E035
:10433000681C07D0FEF704FE0699401AA8420BD865
:10434000002D09D020688169304688430FD00020B5
:10435000B842EDD00020F8BD616C202001436164BB
:10436000403460700020A07020700120F8BD012052
:10437000EEE770B516460D4604460FE03246294674
:104380002046FFF723FF002801D0012070BDFEF773
:10439000D7FD801BA84208D8002D06D02068806970
:1043A000C0438006EAD4002070BD616C2020014328
:1043B0006164403460700020A0702070E5E770B543
:1043C00016460D46044611E0324629462046FFF7C0
:1043D000FDFE002801D0012070BD681C06D0FEF74C
:1043E000AFFD801BA84208D8002D06D02068806948
:1043F000C0438007E8D4002070BD616C20200143D9
:104400006164403460700020A0702070E3E7000019
:1044100010B5012251030248FEF78BFD10BD0000CC
:104420000008004870B51E48007E012830D11C48A5
:104430001C4C2030418FC28F11432AD0014640319D
:10444000CA8B817B0546403D8A4204D2012000F0A0
:1044500057FB012011E0C07B0818904209D90320C6
:1044600000F04EFB02202875A16B606BFBF7DBFEB2
:104470000DE0012000F044FB03202875606BFCF781
:1044800057F8094A094BFBF749FFFCF765F8206329
:1044900070BD606BFCF74CF8054A064BF3E7000073
:1044A00020000020000100209A9999999999F13FE4
:1044B000CDCCCCCCCCCCF43F70B5164C0120606098
:1044C0000220A0600320E060134D206021462846B2
:1044D000FEF786FC40200926F6062060214630467D
:1044E000FEF77EFC01204003206021460B48FEF7CA
:1044F00077FC012240213046FEF71BFD00220121FE
:104500002846FEF716FD002202212846FEF711FD7F
:1045100070BD0000000300200004004800080048AF
:1045200070470000F0B56B488BB001468288A03917
:104530000691897A0A4379D10446C03CA1780546A0
:10454000403D002974D0008B6887FBF7CFFF624A9B
:10455000624BFBF7E3FEFBF7FFFFE11DF931C86497
:10456000096BFCF715F861D809200221C006FEF797
:10457000DBFC00285AD1E888E17D084356D1284663
:10458000418F8187403D6E8FEF8F00206887E887DD
:10459000FDF7D4FB52A002F06BFAE01DF930C06CBD
:1045A00055490290FBF73FFEFBF7C2FF534A544BBD
:1045B000FBF71CFF009001910298FBF7B9FF224620
:1045C0008032528F029202460B464EA002F050FA01
:1045D00020468030C08EFBF781FFE11DF931896BE9
:1045E000FBF721FEFBF7A4FF02900391E01DF930D9
:1045F000006B41490490FBF716FEFBF799FF3F4A19
:104600003F4BFBF7F3FE009001910498FBF790FFFE
:1046100002460B4647A002F02BFA20466030002EDF
:1046200031D00699097D012907D00CE050E0FFE761
:104630000520E8800120A07049E0264940390A8E13
:104640008A810121E170A17CE174022901D100215C
:10465000A1740121297100226A7141728272C174B0
:10466000A176FDF7A7FA1B484038018D891B4184CC
:1046700002202072FDF762FB3AA002F0F9F93DA09A
:1046800002F0F6F909E0002F07D00021297101227C
:104690006A7141728272FDF7EFFA002F08D00D485F
:1046A0004038018DC91B818404202072FDF76EFB08
:1046B000002E01D00120A0750698807A012802D131
:1046C000002E00D0E87200202873A0700220E07352
:1046D0000BB0F0BDC00000206666666666664A3FA5
:1046E0000A0A0DAAF9A8ECA6EC2DB0B1A4EEB942C5
:1046F000C2E0210A0A0000000000A0413333333336
:104700003333FD3F0A0D20A5D8AB6520202020566D
:10471000203D2025322E336620562F2049203D2073
:1047200025322E326620412F204144203D20256431
:10473000000000000A0D20ABDDBEF7A455ADAD565C
:10474000203D2025322E336620562F2049203D2043
:1047500025322E326620412F204144203D20256401
:10476000000000000A0A0D20B67DAAF953544F50EC
:10477000000000000A0A0D00FEB566488188002985
:104780004AD10146A0390191897A012944D10646CE
:10479000C03EB1780546403D002938D00446803CF3
:1047A000618F0746603F00296AD0008B6887FBF75E
:1047B0009DFE594A594BFBF7B1FDFBF7CDFE214653
:1047C000C031C864096BFBF7E3FE25D8092002213C
:1047D000C006FEF7A9FB00281ED13146E888C97D36
:1047E000084319D12846418F8187608F00250090AA
:1047F0006587E587FDF7A2FA49A002F039F9608FD5
:10480000002819D00198007D012806D00DE0052070
:10481000E8800120B070F073FEBD3E484038018E44
:1048200081813C490120C039C8703A48C038817C38
:10483000C174022900D185740126267165717E72CA
:10484000BD72FE74334FC03FBE76FDF7B3F93846F4
:104850008030028D0099511A418402203872FDF790
:104860006DFA35A002F004F937A002F001F9BE7527
:10487000E6726587E5872573BD700220F873FEBD7B
:10488000E18F0029FBD0008BFBF730FE224A234B3F
:10489000FBF744FDFBF760FE1E494031C864096B1D
:1048A000FBF780FE0BD21B484030416BC06CFBF71E
:1048B00079FE04D2E888002801D1307EF0751548D1
:1048C0004030016BC06CFBF763FED8D81148403014
:1048D000416BC06CFBF766FED1D8E888F17D0843D8
:1048E000CDD10FA002F0C4F8002020710121617128
:1048F0007872B972E17A012907D0A8846087E087CD
:104900002073B07004203072FEBD698DE28F891A69
:10491000A984F3E7C00000206666666666664A3FC3
:104920000A0A0DAAF9A8ECA6EC2DB0B1A4EEB94282
:10493000C2E0210A0A0000000A0A0D20B67DAAF989
:1049400053544F50000000000A0A0D00F8B5314DD5
:10495000E97B2C46C034002920D027462646803FDC
:10496000403E01291FD0022917D12BA002F080F868
:10497000B18B31A002F07CF8A97C35A002F078F868
:10498000E97C38A002F074F8B18BE87C0143002088
:10499000002929D0E873E874E873F8BD208BA08162
:1049A000E08120821EE0E87901280AD00228F4D1B3
:1049B00030880028F1D0208B218A88420FD92082AC
:1049C000F8BD788F0028FBD0208BA189884201D9BF
:1049D000A081F8BDE1898842FBD2E081F8BD618AFF
:1049E0008842FBD26082F8BD397901290AD07979F1
:1049F0000129D0D1218AF28A9142CCD9F182618AEF
:104A00006181C8E7A189B28A9142C4D9B182E189A2
:104A10002181C0E7000000200A0D204144435F448B
:104A200065746563745F53746172745F466C61672B
:104A3000203D2025640000000A0D20544D5F4144B4
:104A4000435F52656C616F64203D20256400000067
:104A50000A0D20416E74695F4576656E74203D20B5
:104A6000256400000A0D20416E74695F4576656E0D
:104A7000745F627566203D2025640000FEB51C4E03
:104A8000B07D012833D1F01DF930C06B194C010AFB
:104A900020706170010CA170000EE0703046803013
:104AA000418C2171090A6171818CA171090AE1713E
:104AB000818A2172090A6172C08AA072000A0827DD
:104AC000E07200250C4861192A46009102900123EA
:104AD000C8320197A0210948FEF764FB0620FDF7C4
:104AE00055F80835EDB2102DECD30020B075FEBDA1
:104AF000000000205404002010270000B402002011
:104B00000D4900280AD0042201280BD005230228D1
:104B100001D003280AD08A724B7270470120887234
:104B2000022006E0032088724A7270476320887270
:104B3000642048727047000000000020F8B56E4CF9
:104B400000252646403EE08F3746203700280AD011
:104B5000608F002807D0FDF7F1F86587E58767A02B
:104B600001F086FF4DE0012149036A48FEF7DCF9B8
:104B7000E18F002902D0002800D1E587F07960722A
:104B8000B87A0028608F04D000280FD0FDF774F8A1
:104B900037E0002803D00320FFF7B2FFF6E7E08FED
:104BA000002806D1FDF7CAF8B57029E0E08F00288B
:104BB00002D0FCF7FFFF24E0B570FDF7BFF804203A
:104BC0002073F079012818D0022819D1387F0128E4
:104BD00004D0E07A012803D002280ED101200BE096
:104BE0004DA001F045FF444840304088002804D1E2
:104BF00049A001F03DFF0220E0723D777D77BD774F
:104C0000F571608F062802D8E08F062804D9FFF7D7
:104C100089FCFFF7B1FD20E0B97A01291CD10028F9
:104C20001AD1354840304088002815D0B07C002883
:104C300012D13BA001F01CFFE17A3CA001F018FF6B
:104C4000E07A012802D0022806D006E02571012072
:104C500060710220F07300E0F573274EE28F40365A
:104C60007280638F0121C902002B06D00920002227
:104C7000C006FEF75EF9012207E0002A00D00122FB
:104C80000920C006FEF755F9002201210920090379
:104C9000C006FEF74EF9E08F002802D116492031F8
:104CA000CD75618F014306D1787CFFF729FF608FB6
:104CB000E18F084308D01E20F084618F002918D0AE
:104CC000A08F002810D014E0F08C0028F5D1114DF1
:104CD00001212846FEF728F90028EED00022012104
:104CE0002846FEF726F9E8E70348C030C26B521C9D
:104CF000C263A187F8BD0000400000200A0A0D4EE3
:104D0000473AB942C2E0AEC9B6A1A650AEC93E30DC
:104D10000000000000040048544553542030310086
:104D20000A0A0D48656C6C6F787878000A0A0D5392
:104D3000545F436C6F7365203D20256400000000C4
:104D4000F8B5FCF713F977A001F092FE75A001F019
:104D50008FFE7E4C7EA0616A01F08AFE85A001F084
:104D600087FEE71FF93F3B787A7F397F8BA001F000
:104D70007FFE6CA001F07CFE6AA001F079FE92A09B
:104D800001F076FE98A001F073FE8FA001F070FE96
:104D90009DA001F06DFE2546E03DE97AA3A001F05B
:104DA00067FEA97AA6A001F063FE297BA9A001F005
:104DB0005FFE297DACA001F05BFE697DB1A001F032
:104DC00057FEA97DB4A001F053FEE97DB7A001F024
:104DD0004FFEA97C95A001F04BFEE97CB8A001F044
:104DE00047FE2646C03E7178BAA001F041FE297EFA
:104DF000BDA001F03DFE697BC0A001F039FEA97B9A
:104E0000C4A001F035FEC9A001F032FE2046803872
:104E1000008DFBF76BFBCA4ACA4BFBF77FFA0246D1
:104E20000B46C9A001F024FE20468038C08DFBF758
:104E30005DFBC34AC34BFBF771FA02460B46CCA09D
:104E400001F016FE20468038408DFBF74FFBBC4A30
:104E5000BC4BFBF763FA02460B46CFA001F008FEFD
:104E600020468038008EFBF741FBB54AB54BFBF777
:104E700055FA02460B46D2A001F0FAFD20468038D2
:104E8000408EFBF733FBAE4AAE4BFBF747FA0246C8
:104E90000B46D5A001F0ECFD387EFBF727FBA84AB6
:104EA000A84BFBF73BFA02460B46D9A001F0E0FD08
:104EB000B07BFBF71BFBA24AA24BFBF72FFA024683
:104EC0000B46DDA001F0D4FDF07BFBF70FFB9C4A05
:104ED0009C4BFBF723FA02460B46E1A001F0C8FD0C
:104EE000206BFBF725FB02460B46E7A001F0C0FD57
:104EF000A06AFBF71DFB02460B46EDA001F0B8FDD2
:104F0000E06AFBF715FB02460B46F2A001F0B0FD8C
:104F1000E97BF9A001F0ACFD297CFDA001F0A8FD22
:104F2000697C01E20A0D2A2A2A2A2A2A2A2A2A2AFE
:104F30002A2A2A2A2A2A2A2A2A2A2A2A2A2A2A2AD1
:104F40002A2A2A2A2A2A2A2A2A2A2A000001002072
:104F50000A0D2A2A2046696E616C204D6F646966CD
:104F60007920446174653A20256420202020202A7D
:104F70002A0000000A0D2A2A204D6F64656C3A2031
:104F80005459472D4E43502D52303120202020209F
:104F90002020202020202020202A2A000A0D2A2A32
:104FA0002056657273696F6E3A20482564562564F1
:104FB0002054256420202020202020202020202074
:104FC0002020202A2A0000000A0D3D3D3D3D3D3DA8
:104FD0003D3D3D3D3D3D3D3D3D3D3D3D3D3D3D3D01
:104FE0003D3D3D3D3D3D00000A0D3D3D3D3D3D3DCE
:104FF0003D3D3D3DB0D1BCC6B35DA9773D3D3D3D96
:105000003D3D3D3D3D3D00000A0D2A2A2A2A2AA5A4
:105010005CAFE0B67DC3F628303AC3F6B3AC202FC0
:1050200020313AB67DB1D229000000000A0D20AA35
:10503000F8B4C1B4FAB8D520203A202564000000A5
:105040000A0D20B1B2B5A1AAF9A55CAFE03A2025BE
:10505000640000000A0D20A8BEA7A8A55CAFE02050
:10506000203A2025640000000A0D20A6DBB0CAC348
:10507000F6AAF920203A2025642028BCD2A6A1292E
:10508000000000000A0D20A654B0CAA55CAFE020C5
:10509000203A2025640000000A0D20B942C2E0A495
:1050A000E8A65620203A2025640000000A0D20C200
:1050B000EAB971A55CAFE020203A20256400000029
:1050C0000A0D20B4A3A5DCADB5202020203A202570
:1050D000640000000A0D20A6DBB0CAB7D3A9FA20ED
:1050E000203A2025640000000A0D20BD77B1D2B01F
:1050F000CAA55CAFE03A2025640000000A0D20A894
:10510000BEA7A8A55CAFE028B67D2920203A2025BF
:10511000640000000A0D20A8BEA7A8A55CAFE02887
:10512000C3F62920203A2025640000000A0A0D2A2F
:105130002A2A2A2AB942C2E0B0D1BCC60000000027
:105140009A9999999999B93F0A0D20B67DC3F6AA03
:10515000F9B3CCA46AB942C2E0AEC9B6A1202020FE
:105160002020203A2025342E316620ACED000000AE
:105170000A0D20AAF8B4C1B4FAB8D5B67DC3F6AA10
:10518000F9B6A1B96AAEC9B6A120203A2025342EBD
:10519000316620ACED0000000A0D20B1B2B5A1AA25
:1051A000F9C3F6AAF9AEC9B6A128506172742031CC
:1051B0002920203A2025342E316620ACED00000055
:1051C0000A0D20A6DBB0CAC3F6AAF9AEC9B6A12063
:1051D00020202020202020202020203A2025342E8E
:1051E000316620ACED0000000A0D20B7D3A9FAAE5D
:1051F000C9B6A120202020202020202020202020EF
:105200002020203A2025342E316620ACED0000000D
:105210000A0D20ABDDBEF7B971C0A3A6A8A5DFA912
:10522000B5BFF0AEC9B6A120202020203A202534F9
:105230002E316620ACED00000A0D20BD77A842B9E2
:1052400042C2E028B2C431AC7129202020202020A5
:105250002020203A2025342E316620ACED000000BD
:105260000A0D20BD77A842B942C2E028B2C432ACD0
:1052700071292020202020202020203A2025342E93
:10528000316620ACED0000000A0D20ABDDBEF75604
:105290006F6C74202020202020202020202020201F
:1052A0002020203A2025312E326628562900000081
:1052B0000A0D20A8BEA7A8C576ADAB284F50454E15
:1052C00029202020202020202020203A2025322E96
:1052D000336600000A0D20A8BEA7A8C576ADAB288E
:1052E000434C4F5345292020202020202020203AC5
:1052F0002025322E336600000A0D20A654B0CAA71E
:1053000050A977B0D1BCC6202020203A20256400C7
:105310000A0D20C2EAB971A750A977B0D1BCC62046
:105320002020203A2025640096A001F0A1FB787A85
:10533000FBF7D4F80546B87AFBF7D0F89749FAF7A7
:1053400072FF2946FAF7ACFFFBF7F2F802460B466C
:1053500093A001F08DFB99A0E16B01F089FB25463C
:10536000403D698B9BA001F083FBE98AA0A001F07E
:105370007FFBE88AFBF7BAF80022A44BFAF7CEFFCE
:105380000022A34BFBF732F802460B46A1A001F026
:105390006FFBF87EFBF7AAF8A54AA64BFAF7BEFF0B
:1053A00002460B46A4A001F063FBABA001F060FB3A
:1053B000B2A001F05DFB317CB5A001F059FB717C1E
:1053C000B8A001F055FBB17CBBA001F051FBA88B4C
:1053D000FBF78CF8964A974BFAF7A0FF02460B466C
:1053E000BAA001F045FBE88BFBF780F8904A914B9F
:1053F000FAF794FF02460B46BAA001F039FB288C5D
:10540000FBF774F88A4A8B4BFAF788FF02460B4683
:10541000BAA001F02DFB688CFBF768F8844A854B35
:10542000FAF77CFF02460B46BAA001F021FBBFA0B1
:1054300001F01EFB317E96A001F01AFB717E99A04F
:1054400001F016FBB17E9CA001F012FBA88DFBF7CA
:105450004DF8774A774BFAF761FF02460B469BA05F
:1054600001F006FBE88DFBF741F8714A714BFAF742
:1054700055FF02460B469BA001F0FAFA288EFBF777
:1054800035F86B4A6B4BFAF749FF02460B469BA077
:1054900001F0EEFA688EFBF729F8654A654BFAF7DA
:1054A0003DFF02460B469BA001F0E2FAA4A001F0EA
:1054B000DFFA2036317876A001F0DAFA717879A037
:1054C00001F0D6FAB1787CA001F0D2FAA88FFBF7F0
:1054D0000DF8574A574BFAF721FF02460B467BA0BF
:1054E00001F0C6FAE88FFBF701F8514A514BFAF781
:1054F00015FF02460B467BA001F0BAFA2088FAF7A6
:10550000F5FF4B4A4B4BFAF709FF02460B467BA0CF
:1055100001F0AEFA6088FAF7E9FF454A454BFAF721
:10552000FDFE02460B467BA001F0A2FA89A001F025
:105530009FFA92A001F09CFAFBF718FD97A001F0EA
:1055400097FA00209E4D6064C1009EA001F090FA81
:10555000606CC00005E0295C9DA001F089FAA06C98
:10556000401CA064606CC100A06C08318142F2DC78
:10557000606C401C60642028E6DB97A001F078FA9C
:10558000F8BD00000A0D20B942C2E0B374ABD728C1
:10559000307E33292020203A202564000000C842B4
:1055A0000A0D2050574D2044757479204379636C5F
:1055B0006520203A2025332E316600000A0A0DB9F5
:1055C00042C2E0A6B8BCC620203A25642028A6B86E
:1055D000290000000A0A0D20AAF9A46AA470BFEFEE
:1055E000BEDC20202020202020203A25640000005E
:1055F0000A0D20A8BEA7A8A5B2B6B7B0CAA740ADED
:10560000C8284144293A25640000000000A08440D5
:10561000000001410A0D20A8BEA7A8A5B2B6B7B0E8
:10562000CAA740ADC8284129203A25322E3366004A
:105630009A9999999999B93F0A0A0D20B67DAAF9C4
:10564000B7D9A8AEB0CAA740AEC9B6A120203A25A6
:10565000322E3166000000000A0A0D2A2A2A2A2A60
:1056600053746174652D52656C617920706172614B
:105670006D657465722A2A2A2A2A00000A0D3D3DAA
:105680003D544D452D52656C61793D3D3D00000016
:105690000A0D20A6A8A5DFB1F8A5F3413A2025649C
:1056A000000000000A0D20A6A8A5DFB1F8A5F3426E
:1056B0003A202564000000000A0D20B8D1B0A3B143
:1056C000F8A5F3203A202564000000000A0D20A66A
:1056D000A8A5DFAEC9B6A1413A2025342E316620F7
:1056E000ACED00000A0D20A6A8A5DFAEC9B6A14208
:1056F0003A2025342E316620ACED00000A0D20B88A
:10570000D1B0A3AEC9B6A1203A2025342E316620EF
:10571000ACED00000A0D20BFE9A558AEC9B6A12026
:105720003A2025342E316620ACED00000A0A0D3DEA
:105730003D3D4143542D52656C61793D3D3D000036
:105740000A0A0D3D3D3D504F532D52656C61793D28
:105750003D3D00000A0A0D2A2A2A2A2A5374617440
:10576000652D52656C617920706172616D6574653B
:105770007220456E642A2A2A2A2A00000A0A0D3D50
:105780003D3D3D3D3D3D3DB0D1BCC6B35DA977201B
:10579000456E643D3D3D3D3D3D3D3D000A0A0D3DAC
:1057A0003D3D3D3D3D3D3D20454550524F4D2050F6
:1057B00072696E74203D3D3D3D3D3D3D3D00000024
:1057C000140300200A0D2052253033643A200000D3
:1057D000253032582C2000000A0A0D3D3D3D3D3D4C
:1057E0003D3D3D20454550524F4D2046696E697301
:1057F00068203D3D3D3D3D3D3D3D0000FEB5FF2166
:10580000F748F64A01316C4607C401230022A02163
:105810006038FDF71DFC002806D0F1486038FDF720
:10582000BAFB042800D0FEE78021EE48FDF77CFBA0
:10583000ED490C4648702146254627466031C03563
:1058400040372034009101287ED0E54EE64831787B
:10585000017771784177B1788177F178C1773079C4
:10586000207070796070B079A070F079E070307A53
:105870002071707A6071B07AA071F07AE071307B3B
:105880002072707B6072307DE072707DA072B07D9E
:10589000A073F07D2075307E6075707EA075B07E3F
:1058A000E075F07EA074307FE074707F7870B07F18
:1058B0002076F07F60733046018D20466030C185D0
:1058C00030462A3041780278080221461043603180
:1058D00048853046808D088530462E3041780278E4
:1058E00008022146104360310886308E48863220F7
:1058F000305CFAF7F3FDBD49FAF7D2FC2146E031FE
:1059000088633320305C60763420305CA0763520AC
:10591000305CE0733620305C20743720305C60747B
:105920003A20305CB8733B20305CF873B08FA883AA
:1059300030463E304178027808021043E883402028
:10594000805BA885304600E07BE0423041780278F9
:1059500008021043E8854420805BA8873046463023
:105960004178027808021043E8874820805B688409
:1059700030464A30417802780802104368864C204D
:105980002146805BE031488030464E3041780278D5
:105990000802104328845020805B2886304652300D
:1059A00041780278080221461043E03108805420F3
:1059B000315C8D4801765520305C68835620315C1F
:1059C0008948C1766420305C38746520305C787416
:1059D0006620305C38766720305C78766820315CF1
:1059E000009801706920315C009841706A20305C39
:1059F000B8746B20305CB8766C20315C0098817094
:105A000079486D2141750020794E754B0146F06350
:105A10005A18C032127ACF00BA40491C1043C9B29A
:105A20000429F5D3F063677E7249734A73483B00DB
:105A300001F05DF80B5D5557595B5D5F616365670C
:105A40005D000020E072A07201216173A1732075D6
:105A50006075A175E175A074E174634A7870FF23E5
:105A600020762D338032D385822353854B23DB0070
:105A70001385642313865386614E80329663052214
:105A80006276A2763222E2734B222274032262747F
:105A90001426BE735022FA7338747874B8740A22CC
:105AA000AA831E22EA830F222A846B8438767876B2
:105AB000B876AE85EE850A222A866B86009A10702B
:105AC000507090701E20A8870A20E887484A052059
:105AD00010801046438069834348C17693E70B46A4
