:020000040800F2
:1000000098080020CD0000082D4100087F3D000821
:1000100000000000000000000000000000000000E0
:10002000000000000000000000000000195F000850
:10003000000000000000000025560008915F000845
:10004000DF00000800000000DF000008DF000008FB
:10005000DF000008DF000008591C0008751C0008BC
:1000600000000000F5130008DF000008DF000008B2
:10007000DF000008DF000008DF00000800000000CB
:10008000DF0000080000000000000000DF000008A2
:10009000DF00000881600008DD600008DF00000864
:1000A000DF000008DF000008DF000008DF000008B4
:1000B000DF0000080448854600F028FC004800479F
:1000C000556E0008C046C046980800200448804786
:1000D00004480047FEE7FEE7FEE7FEE7FEE7FEE72F
:1000E000D95F0008B500000830B50B460146002076
:1000F0002022012409E00D46D5409D4205D31D462E
:100100009540491B2546954040191546521E002D25
:10011000F1DC30BDF0B51FB40646002082B00546C4
:100120004024019100901BE0019922460F46304681
:1001300000F052FA049A059B801A994110D3104698
:100140001946224600F038FA361A8F4101972246A6
:1001500001200021009F00F02FFA38184D41009037
:100160002046641E0028DFDC019B009829463246A9
:1001700007B0F0BDF8B502464A40D40F42004B002C
:1001800052085B089A4202D20246084611464A00CB
:1001900023D0C30D4A00DDB2120EAD1A202D35DA80
:1001A00049020126490AF6058A19002C00D052425C
:1001B00020214F1B1146B9402A411018C20D9A4206
:1001C00021D0002C17D0012D08DCDA05801AD20FBF
:1001D0008019D207DBB200F018FAF8BDDA05801AF0
:1001E000012340001B06C01880185A428018CA0F0D
:1001F0001043490007E04908C2071143DA05801A95
:1002000080194008801800F0F8F9F8BD610001225B
:10021000511A001BF7E70122D2075140AAE7012239
:10022000D2075040A6E7024670B54A40D30FDB071D
:1002300040002DD04A002AD0010E140E00021202F6
:100240000919400A520A8418E50104465443000A79
:10025000120A2E045043A4194219200CC543AA18AF
:10026000120C0125AD03521C521912047F392404CB
:1002700000D0521C104301D44000491EC2B20C06EB
:10028000C0092018401C4008802A02D003E000204A
:1002900070BD40084000002900DA0020184370BDFE
:1002A00070B502464A40D50F40004A00ED074008AD
:1002B0005208002814D0002A12D0C40DD30D4102D8
:1002C0000120C0055202490A520AE41A09181218FC
:1002D0007D34914201D3641C00E04900002C01DA16
:1002E000002070BD0023914201D3891A03434008C6
:1002F00049000028F7D100290AD0914202D10121FA
:10030000C90705E0914201D2012101E00121C94361
:10031000E005C018401900F070F970BDF0B51FB4C9
:1003200088B00B990998002448400999C00F4900EA
:1003300049080991C0070B990090490049080B91A1
:1003400009990898A64608431CD00B990A980843B7
:1003500018D0099801244000420D4800410D099829
:1003600024050003000B204309900B980003000BA9
:1003700020430B9050181C4940180022019014464D
:10038000104605E0002001460DB0F0BD032801DA5B
:10039000034600E003239C46C11A0AAE0AE05F0050
:1003A00008ADED5B4F00F75B7D430027AA187C4149
:1003B000491C5B1E6145F2DD410004AB5A52210429
:1003C000120C0A43240C401C0828DFDB0198029021
:1003D0000099704601910090059B049A0799069830
:1003E00000F059F9D0E700000DFCFFFFF0B50C4616
:1003F0005C4085B0E40FE40703944C0000266408D9
:1004000059009446490802460296224321D062468A
:100410000A431ED06200570D4A000E032303550DF8
:10042000012402462C492405781B1B0B360B40186F
:1004300023432643614600901C46501AB44103D31F
:100440000098401C009002E0921800985B41002840
:1004500003DA0020014605B0F0BD002001210905A6
:100460000746864611E064461D46141BB54106D377
:100470006546521BB341744607430C43A646CD075D
:1004800040084908284392185B4105460D43EAD1CC
:100490001046184313D06046194650407140084337
:1004A00006D06046101AB34106D20122002306E0AE
:1004B00000220123DB0702E00122D24353100098FF
:1004C00074460105381C6141029C039D0019694175
:1004D00000F0D4F8BFE70000FD03000010B50022D3
:1004E0009623114600F091F810BD00000EB50549A5
:1004F0000291002100910A460B46019100F0CBF8D1
:1005000003B000BD33040000410040020122400A54
:10051000D205090E80187F2901DA0020704796293C
:1005200003DC9622511AC8407047963988407047BC
:10053000C20FD207400040080BD0C10D0723DB01DA
:10054000C91840020905400A1143C2084007114377
:100550007047002001467047CB0FDB07490010B5FC
:10056000490802460A4307D00A0D07240903E4019B
:10057000090B121B002A01DC002010BDC900440F2A
:100580000C43C100E018D205801800F036F810BD09
:100590000122D207002800DB101A002900DB511AC3
:1005A000814270470122D207002800DB101A00297F
:1005B00000DB511A8842704710B5202A04DB01463F
:1005C000203A9140002010BD914020239C1A034600
:1005D000E3401943904010BD10B5202A04DB0846C3
:1005E000203AD040002110BD0B46D340D0402024FB
:1005F000A21A91400843194610BD002904DA401C94
:10060000490001D140084000704770B40024050C37
:1006100005D11024000402D1002921D01124050E97
:1006200001D100020834050F01D10001241D850FFE
:1006300001D18000A41C002801DB4000641C0029BB
:1006400008D020252E1B0D46F540A14000D00121E9
:100650002943084301061B1B000ADB1D02D50020AD
:1006600070BC7047DB05181880180029F8DA401CA8
:100670004900F5D170BC40084000704710B5002B10
:1006800008DA0024401C614192185B411A4301D1F1
:100690004008400010BDF0B51FB482B005460C0004
:1006A00003D0084605F004FF02E005F001FF20300A
:1006B0000246009021462846FFF77EFF049B059ADC
:1006C00004460F4618431143084314D018461043FC
:1006D0001BD0009840210A1A18460599FFF77CFFA5
:1006E00005460E46009A05990498FFF765FF0843F2
:1006F00005D0012004E02046394607B0F0BD0020B7
:10070000C11705430E432C43374300990E986305E8
:10071000401A7905E40A00220C43FD0A0A3002D58A
:1007200000200146E9E70105101969410C9C0D9D67
:1007300000196941FFF7A2FFDFE70000F0B50746A7
:100740000846584087B0C00F049048000E46590034
:1007500040084908BC1A884105D2384631461E4631
:1007600017460B4602465800400810434DD0300D46
:10077000039040055900400D490D0590401A029024
:10078000402873DA18030121000B09050843019082
:1007900004980092002806D01146019A4942002090
:1007A000904100910190029840210A1A0199009805
:1007B000FFF702FF05460C466B4607CB00F0B8F882
:1007C000C0197141039A0E0D0023D71756401A46DF
:1007D0007A40164344D0049A002A2DD0029A012A66
:1007E000039A15DC1205C01A914101263605001C3A
:1007F0007141D20F059ED2070093019202962A46BC
:100800002346FFF748FF07B0F0BD38463146FAE708
:100810001605234A0F46B218C01AB741012109052F
:10082000001C4F4100187F41114618187941E20F12
:1008300010436D19644113E0E2076D081543640825
:10084000C2071443039A01261205C01A91413605C6
:10085000001C7141CE07400830434908C01851417F
:100860002A462346FFF70AFFCDE7FFE70498012257
:100870004000C117121A00238B4104983146C41757
:10088000381AA141EEE730B40124E407634030BCDC
:1008900054E730B40124E407614030BC4EE7000067
:1008A0000000E0FF4A0009030123090B1B0519435F
:1008B0000A4B10B5520D9A4202DA0020014610BDD3
:1008C000064B34339A4203DC9A1AFFF785FE10BDBB
:1008D000034BD218FFF770FE10BD0000FF030000AD
:1008E000CDFBFFFF10B5002904DB0124E4074042E3
:1008F0008C412146002B04DB1C460123DB075242BE
:10090000A341994200D1904210BD0000064C012540
:10091000064E05E0E36807CC2B430C3C98471034A7
:10092000B442F7D3FFF7CAFB2471000844710008F2
:1009300010B5202A06DBCB170846203A1041C11714
:100940000B4306E00B461341D0402024A21A9140ED
:100950000843194610BD30B58C180278401C1307A7
:100960001B0F01D10378401C120906D10278401CEC
:1009700003E005780D70401C491C5B1EF9D101E0B5
:100980000B70491C521EFBD1A142E6D3002030BDA2
:100990000021064A08464300D35A401C591880B229
:1009A0001F28F8D9C802000C70470000000400207E
:1009B00010B5234C21482060204601F0CDFA0028D4
:1009C00000D0FEE70120800760600020234601215F
:1009D00004220C33A06007C360762076A176FF2244
:1009E000E076C232E261164A206220321171A062C2
:1009F0000807E062124801F001FB002800D0FEE782
:100A00000F4801F0C7F9002800D0FEE70C48032189
:100A1000403001600121090341600146403801F086
:100A200011FA002800D0FEE720220649044801F010
:100A3000FDFB002800D0FEE710BD000000240140AF
:100A4000540100200004002070B50446006881684D
:100A5000490720D5816810264907002905DA8168F1
:100A6000890702D481683143816002F05FF805464E
:100A70000DE002F05BF8401B022808D9A06B304360
:100A8000A063E06B01210843E063084670BD206865
:100A900080684007EDD4002070BD10B50146406A63
:100AA000826B50231A420AD1816B012252021143F8
:100AB00081630168CA681205920F05D020E0006BBF
:100AC000026B0846904710BD827E002A18D10A6842
:100AD000120715D58A6853070122002B09DB4B68E2
:100AE0000C24A3434B60816B130299431143816330
:100AF00006E0816B202319438163C16B1143C163FD
:100B000001F028FA10BD10B5406A816B40221143F4
:100B10008163C16B04221143C16301F06DFA10BD02
:100B200010B5406A01F017FA10BDF8B50446006828
:100B300081688907890F012928D10168C90702D175
:100B4000C168090422D581680522114010250126BB
:100B500001290FD18168022211438160216803209D
:100B6000086001F0E3FF07460CE001F0DFFFC01B67
:100B7000022807D9A06B2843A063E06B3043E063F1
:100B80000120F8BD20688068C007EED10020F8BDC4
:100B9000F8B5044600200090206881688907890F15
:100BA000012905D10168C9072CD1C168090429D4DC
:100BB0008168154A102611400125002915D1816848
:100BC00029438160124811490068FFF78DFA00E05F
:100BD000401E00900028FBD101F0A8FF07460CE062
:100BE00001F0A4FFC01B022807D9A06B3043A0630B
:100BF000E06B2843E0630120F8BD20680068C04333
:100C0000C007EDD10020F8BD1700008040420F0062
:100C100040010020F0B585B06B480190C07A0128F2
:100C200023D169486030818A039100291DD0C18A8F
:100C30000291002919D005460746403D803F2A7B96
:100C400039466031064600914036797C0024130015
:100C500005F05DFC0504144C77AD0B00428E002AB4
:100C600005D0012028737C74FC7305B0F0BD012908
:100C7000FBD1008B0028F8D17C74F6E75248603035
:100C8000408E0028F1D1504C6A8FE03420467F21FD
:100C9000C038C905C08F002A11D0002821D1A06911
:100CA000FFF768FA0746E0620398FFF717FC39463A
:100CB000FFF7B9FAFFF728FC3081022010E0002886
:100CC0000FD0E069FFF756FA0746E0620298FFF797
:100CD00005FC3946FFF7A7FAFFF716FC3081032021
:100CE000287339480A2160308186BEE70199097B63
:100CF000002900D12C7334486030808E0028B4D194
:100D0000FFF746FE3189884202D27189884203D3B7
:100D1000F87B401CF87300E0FC73F87B397C884258
:100D20000CD3042028730120787427486421603094
:100D300001836C87EC87C48606212FE07C74032036
:100D400031E00199497B002900D12C73E97A02290D
:100D500037D01D486030808E002886D1FFF718FEFE
:100D60003189884202D27189884203D3F87B401CC2
:100D7000F87300E0FC73F87B397C884211D10420C1
:100D80002873114801216030C1860288002AACD046
:100D900002227A746C87EC87C18607210098017360
:100DA00063E77C7401200849603188865DE7C28E64
:100DB000002A9AD1012904D0022902D1C08C688767
:100DC000EC872C7351E7000020000020F8B50121CA
:100DD00049032E4801F09EFE2D4F3C46603C2146C3
:100DE0002546203180357875012809D1B87D002845
:100DF00006D1C87C002803D00120A070E88DA8810E
:100E0000234E203EB078002833D1C87C01280DD075
:100E100002282ED1487A00282BD1A079002805D1AC
:100E2000707A012806D0B07A01280BD0A07801286A
:100E300012D01EE017A005F02BFBE88DA881012041
:100E4000A07016E01BA005F023FBE88DA88101200F
:100E5000A0700020B0720CE0A889002809D11DA064
:100E600005F016FB21A005F013FB0020A070E88C14
:100E7000F087A889401E312804D2787D012801D14D
:100E800008203873787DB875F8BD0000000400486C
:100E9000600000200A0DA6DBB0CAC3F6AAF9BA5852
:100EA000BCD031202620B5A5ABDDAEC9B6A1B35D5F
:100EB000A5DF00000A0DA6DBB0CAC3F6AAF9BA582E
:100EC000BCD032202620B5A5ABDDAEC9B6A1B35D3E
:100ED000A5DF00000A0DA6DBB0CAC3F6AAF9B5A5C6
:100EE000ABDDAEC9B6A1A8ECB94600000A0DC3F649
:100EF000AAF9AEC9B6A1B35DA5DF000010B5FF2108
:100F0000092000220131C00601F009FE10BD10B514
:100F1000012209201102C00601F001FE10BD0000EF
:100F2000F8B5964C0027227B607B824200D0A773E5
:100F30009248924E417C3225A036C07B130005F0CA
:100F4000E6FA0BF20719314A618B9AB8DFF8F20022
:100F5000A27B002A02D1E5730820D8E0002878D1CE
:100F6000DBE07088002801D12773A773E07B00289D
:100F700070D0FCE0A27B002A71D1FF20E5732D30F8
:100F800072E0FFF7C4FF03E0002901D0FFF7B6FFCE
:100F9000708800286CD0E07B002802D1207C0028DB
:100FA00071D1A5E0A27B002A6ED11420E0736420E9
:100FB000C9E0FFF7ACFF03E0002901D0FFF79EFF77
:100FC0007088002873D0E07B002871D1207C002835
:100FD0006ED014208AE0A27B002A04D0002806D01C
:100FE000FFF795FF07E0E5730120A073F8E70029FC
:100FF00001D0FFF783FFE07C0128CCD12773A773D2
:10100000E774C8E7A27B002A04D0002808D0FFF7C5
:101010007EFF09E0E573022020750120A073F6E74A
:10102000002901D0FFF76AFF207D002801D1277336
:10103000A773E17B002902D1217C002977D1617C53
:10104000002905D1A17C002902D0E573401E20753E
:101050008DE05FE068E002E0A27B002A02D0002879
:1010600092D08EE7E573642070800120A07388E73A
:101070002773A7738FE7A27B002A06D000280BD026
:10108000FFF745FF0CE052E056E01420E0736420C7
:1010900070800120A073F3E7002901D0FFF72EFF35
:1010A000E07C01288FD12773A773E7748BE74EE0AC
:1010B00050E0A27B002A04D0002807D0FFF727FFCA
:1010C00008E0E57375800120A073F7E7002901D0DF
:1010D000FFF714FF7088002801D12773A773E07B06
:1010E000002805D1207C002802D0642060743EE0F6
:1010F000607C00283BD1A07C002838D0E57336E026
:10110000A27B1E25002A00D028E7E5730520708009
:101110000120A073FFF7FBFE23E70029FCD0FFF7B7
:10112000EDFE1EE705E01EE0207C00281FD0657460
:101130001DE0A27B002A03D0002800D13CE738E75D
:101140001420E073072070800120A07331E727731B
:10115000A77338E7607C002809D1A07C002806D05E
:101160001420E07303E0A773FFF7C8FEE774207B49
:101170006073E07B2074607CA074F8BD6000002088
:1011800008B513484269012149040A434261426992
:101190000A400092426949000A43426142690A409A
:1011A0000092426949000A43426142690A40009242
:1011B000426949000A43426142690A400092426919
:1011C00089000A43426140690840009008BD000060
:1011D00000100240F8B5464D6A8FE98F10462E4642
:1011E0002C460843203E4034002806D1B07F012819
:1011F00003D1A08D60850020B0773D4F403F7879C6
:10120000002A04D1012802D1628D002A02D00029CF
:1012100011D026E000F028FCE08CE88702207871ED
:101220000120B0773248C030816A491C816200F0E9
:101230008FFD30A013E0022813D1608D002810D15B
:1012400000F012FCE08C688701207871B0772848A4
:10125000C030C168491CC16000F07AFD29A005F0CA
:1012600017F900F027FC03F08FF9288F00283ED1F2
:1012700028A005F00DF9FFF78BFBFFF737F9334A8C
:10128000334BFFF74BF8FFF767F9194EC036F063A1
:10129000FFF74EF902460B462EA005F0F9F8306A2A
:1012A000FFF746F902460B462FA005F0F1F87979D1
:1012B00032A005F0EDF8698F002906D033A005F0C3
:1012C000E7F838A0316905F0E3F8E98F002906D086
:1012D00039A005F0DDF83EA0316905F0D9F8618D3F
:1012E000002902D03FA005F0D3F80A202887F8BDD6
:1012F000400000200A0D4E6F697365207465737499
:10130000203100000A0D4E6F697365207465737497
:10131000203200000A0D3D3D3D3D3D3D3D3D3D3D02
:101320003D3D3D3DB460C0F4B4FAB8D52DAAACBA89
:10133000417363616E323D3D3D3D3D3D3D3D3D3D33
:101340003D3D3D3D3D3D3D3D3D000000B4D934E7D0
:101350000C684A3F0A0DA5D8AB65B971C0A3ADC8EA
:10136000203D2025662056000A0DABDDBEF7B97181
:10137000C0A32020203D2025662056000A0D4143B1
:10138000545F446F6F72203D202564000A0A0DB639
:101390007DAAF9B3D1BE6CAEC9B6A1203D202564AB
:1013A000206D73000A0DB67DAAF9A6B8BCC6203D13
:1013B0002025640A000000000A0A0DC3F6AAF9B34A
:1013C000D1BE6CAEC9B6A1203D202564206D73004E
:1013D0000A0DC3F6AAF9A6B8BCC6203D2025640AAA
:1013E000000000000A0D544D5F444C59203D20255B
:1013F0006400000010B50248006B00F08CFF10BDC7
:101400005401002010B50446006805494018142115
:10141000FEF76AFE800020640248E06310BD000011
:10142000F8FFFDBF0000024030B5056C0124AC4060
:10143000C56B6C60046863604368102B036803D05D
:1014400099600068C26030BD9A600068C16030BDBC
:10145000F8B5834C208F002876D182A005F018F8CB
:10146000FFF796FAFFF742F8894A8A4BFEF756FFD4
:10147000FFF772F82546C035E863FFF759F80246D2
:101480000B4685A005F004F8286AFFF751F80246DC
:101490000B4686A004F0FCFF89A004F0F9FF254666
:1014A000403DA97987A004F0F3FF608FE18F2746C4
:1014B00026460843203F4036002829D0F87D0128E1
:1014C0000AD17FA004F0E4FFF18B83A004F0E0FFD9
:1014D000E97C87A004F0DCFF618F00290AD08FA08F
:1014E00004F0D6FF697A93A004F0D2FF297A96A07F
:1014F00004F0CEFFE18F00290AD098A004F0C8FFC5
:10150000697A8CA004F0C4FF297A8FA004F0C0FF90
:10151000534840308189002902D096A004F0B8FFDA
:101520004F4E217B8036002912D098A004F0B0FFE6
:1015300030464030C06AFEF7FBFF02460B4698A0DB
:1015400004F0A6FF318900E089E09AA004F0A0FF32
:10155000787A012806D19CA004F09AFFE17A9EA037
:1015600004F096FF687C00280CD055A004F090FF92
:10157000697C9DA004F08CFF39484030018B9FA00E
:1015800004F086FF4EA004F083FFFFF701FA014646
:10159000A1A004F07DFFA6A004F07AFF304FA9A01F
:1015A0004037B98A04F074FFF98AADA004F070FFE7
:1015B000A87B01280DD142A004F06AFFAFA004F07F
:1015C00067FF3188B2A004F063FFB188B6A004F0D1
:1015D0005FFFB88B002806D039A004F059FFB98B03
:1015E000B7A004F055FFA87B002806D034A004F073
:1015F0004FFFA97BB8A004F04BFF6078012809D108
:101600002FA004F045FFBCA004F042FF6178C3A006
:1016100004F03EFFA078012809D129A004F038FF8A
:10162000C2A004F035FFA178CAA004F031FF0C4E2F
:101630002036307B002806D021A004F029FF317B22
:10164000C9A004F025FF1EA004F022FF6978CBA0FA
:1016500004F01EFFD1A004F01BFF0A202087F8BD74
:10166000400000200A0D3D3D3D3D3D3D3D3D3D3DA1
:101670003D3D3D3DAAACBA417363616E3D3D3D3D8C
:101680003D3D3D3D3D3D3D3D3D3D3D3D3D3D3D00C7
:10169000B4D934E70C684A3F0A0DA5D8AB65B971D7
:1016A000C0A3ADC8203D2025662056000A0DABDD45
:1016B000BEF7B971C0A32020203D2025662056002A
:1016C0000A0000000A0A0DA5D8AB65AAF9AAACBAAF
:1016D00041203D20256400000A0D20BD77A842B9B5
:1016E00042C2E0AEC9B6A1203D2025640000000042
:1016F0000A0D20BD77A842B942C2E0AAACBA412087
:101700003D2025642028313AAAECAC712F323AA44E
:10171000A4AC712F333AA7C0AC7129000A0A0DB6E8
:101720007DAAF9B3D1BE6CAEC9B6A1203D20256417
:10173000206D73000A0D2050574D5F447574792059
:101740003D202564000000000A0D2050574D5F50D9
:101750006572696F64203D20256400000A0A0DC38C
:10176000F6AAF9B3D1BE6CAEC9B6A1203D2025645E
:10177000206D73000A0A0DC3F6AAF9B5A5ABDDAE5C
:10178000C9B6A1203D202564206D73000A0A0DA86A
:10179000BEC0A3AAACBA41203D20256400000000D1
:1017A0000A0A0DA8BEC0A3ACC9C576ADAB203D20CA
:1017B000256600000A0A0DA8BEC0A3ACC9BD75AD60
:1017C000C8203D20256400000A0A0DB1B2B5A1C3AE
:1017D000F6AAF9AAACBA410053545F436C6F736523
:1017E0003D202564000000000A0D416E74695F45CC
:1017F00076656E74203D2025640000000A0A0DA85D
:10180000BEC0A3B67DAAF9B0B1A4EEB5A5ABDD20EC
:101810003D202564000000000A0D202A2A2A2A2AD9
:101820002AB7EDAB654144203D202564000000004F
:101830000A0D20A8BEA7A8B0F2B7C74144ADC83A68
:10184000000000000A0D204144435F4F50454E5FA9
:101850004D41585F313675203D2025640000000061
:101860000A0D204144435F434C4F53455F4D41585F
:101870005F313675203D2025640000000A0D20B937
:1018800042C2E04144ADC828A759AEC9293A000078
:101890000A0D204144435F4F50454E5F4D41585F14
:1018A00062203D20256400000A0D204144435F432F
:1018B0004C4F53455F4D41585F62203D20256400E9
:1018C0000A0D20544D5F4144435F52656C616F6463
:1018D000203D2025640000000A0D204144435F4460
:1018E00065746563745F53746172745F466C61679D
:1018F000203D2025640000000A0D202F2F2F2F2FC0
:101900002F2F2F2F2FACF5A57EBD75B0BBB4FAC419
:10191000B2B56F5C5C5C5C5C000000000A0D2046A8
:101920006C61675F4952203D202564000A0D202F1D
:101930002F2F2F2F2F2F2F2F2FB7CFC3FAB750B402
:10194000FABEB9B0BBB4FAC4B2B56F5C5C5C5C5CA7
:10195000000000000A0D20466C61675F534D4B206C
:101960003D202564000000000A0D20B8C1BBEFBE79
:10197000B9AAACBA41203D20256400000A0D204FD1
:1019800070456E645F4465746563745F537461721F
:10199000745F466C6167203D202564000A0D0000DD
:1019A0007D2189014843074948610020886101225F
:1019B0000A610A69D30701D0D203FAD508618861A8
:1019C0007047000000E000E070B51048104D407D09
:1019D000012817D001220121284601F0A0F80B4C64
:1019E000E0346068FFF7DCFF01220221284601F0A5
:1019F00096F86068FFF7D4FF064801F025FF00283D
:101A000002D0FEE70022E6E770BD000020000020C3
:101A100000040048E001002070B51048104D407DE2
:101A2000012817D000220121284601F078F80B4C3C
:101A3000E0346068FFF7B4FF01220221284601F07C
:101A40006EF86068FFF7ACFF064801F0FDFE002865
:101A500002D0FEE70122E6E770BD00002000002072
:101A600000040048E001002070B50F4801F0FCFEC2
:101A7000002800D0FEE7092001224021C00601F025
:101A80004EF80A4C6068FFF78BFF094D00220221D7
:101A9000284601F044F86068FFF782FF0022012128
:101AA000284601F03CF870BDE00100200001002054
:101AB00000040048F0B54F4B987E01283AD1002130
:101AC00099761C46203C607C5F7A84461A46204604
:101AD0000125667960324030002F02D0012F16D0E8
:101AE00021E0002E04D0012E05D0022E18D104E0F2
:101AF000A171017315E0A5714BE06346022B12D072
:101B00000223A3714187D38CC387143B60E0394F14
:101B10002037FF7A002E0ED0012E36D0022E40D074
:101B2000A1714187C187438FC08F034302D0322008
:101B30009083D183F0BDA679012E02D0022E0BD066
:101B400020E0468F16814187002E01D0DD7619E016
:101B5000D9761977597715E0C68F5681012F02D0B3
:101B6000022F08D00DE0002E01D01D7709E0197773
:101B70000223C37205E0002E01D05D7701E05977A2
:101B8000C572C187A1710173CDE7A571D9761977A7
:101B90005977C187D38C4387938853860A23138749
:101BA000C1E76546022DBED00225A5714187DD7EC5
:101BB000012D04D0012F04D0022F0DD011E0D38CC1
:101BC0000EE01B7F002B05D05389C3879BB20A3BD5
:101BD000138006E0138DF8E75B7F002B07D0538955
:101BE000C387938853860A231387A1709BE7538F7B
:101BF000F6E7000020000020F8B5154C207E0A28EA
:101C000024D1207925460A2700266035012812D0E4
:101C1000012020712E73FFF771F9FFF76FF9FFF7BD
:101C20006DF9FFF76BF9FFF769F90A4801F0C0FF9A
:101C3000002807D0FEE72671064801F09CFF002827
:101C400002D0FEE702F07AFD2F732676F8BD000081
:101C5000000000202002002010B505484169090756
:101C600004D508214161084600F06EFC10BD00005B
:101C70000004014010B514494869400501D5081514
:101C80001FE04869000505D50120C00219E000F0F9
:101C90005BFC10BD4869C00402D50120000310E0C0
:101CA0004869000602D580204861F0E748690004D1
:101CB00002D50120C00304E048698004E9D5012071
:101CC00040034861E3E700000004014000B51B4801
:101CD00087B042690121C9040A43426142690A404E
:101CE0000592426949100A43426142690A400592DD
:101CF000426909010A434261406908400590104861
:101D000001900020029007208002009069460D4853
:101D100000F05CFE8020009069460B4800F056FE03
:101D20000520400300906946084800F04FFE00225D
:101D30000121072001F054F907B000BD0010024056
:101D4000000021100008004800140048000400486A
:101D500070B50AA004F09CFB01220C4DD402214670
:101D6000284600F0DCFE0A484068FFF719FE002212
:101D70002146284600F0D3FE70BD00000A0D2D2D2F
:101D80002D2D4558545F434E540000000004004878
:101D900000010020F8B5054604462035287D0026C0
:101DA000012808D001202875206881688907890FDB
:101DB000012908D101E00220F8BD0168C90738D126
:101DC000C168090435D4A16BFF220132914302227C
:101DD0001143A163C1688907890F0091C16889080F
:101DE0008900C1602068816892071143816000F01A
:101DF0009DFE07460EE000F099FEC01B022809D99F
:101E0000A06B0221884310210843A063002028759D
:101E10000120F8BD206880680028ECDB2068C168DC
:101E2000009A1143C160A06B80088000401CA06331
:101E300004E0A06B20210843A06301260020287540
:101E40003046F8BDF8B50025044620340095227DC3
:101E5000012A39D00122227503689E68760767D46B
:101E6000384F4E68BE424DD09E6A0F78BA40164336
:101E70009E620123C26A1B079A421FD0012A1DD00D
:101E8000022A1BD0032A19D0042A17D0052A15D0FC
:101E9000062A13D0072A11D002688B685669760784
:101EA000760FB3420AD05369DB08DB005361006848
:101EB00042690B7A5B075B0F1A4342610A68102A7A
:101EC00004D0112A02D038E00220F8BD1E488368F1
:101ED000102A07D001229205134383600868102856
:101EE00003D02AE00122D205F6E719481749006815
:101EF000FEF7FAF80A21484300E0401E009000284F
:101F0000FBD11AE0986A0E78B24090439862096853
:101F1000102901D0112910D10B488268102904D052
:101F2000012189058A43826007E00121C905F9E79B
:101F3000816B2022114381630125002020752846F2
:101F4000F8BD0000011000000027014040420F00D2
:101F5000400100207047704770B504003BD0A06B73
:101F600002210843A0632046FEF76EFD00260546C9
:101F7000002832D0012D2AD021684A689F20824350
:101F80004A60216808602068C168184A1140C16031
:101F90002068016989008908016120684169C908D0
:101FA000C90041612068016A114A1140016220683C
:101FB000816AC90CC90481620E48816803229205B6
:101FC00091438160204600F0D5F8E663A663203493
:101FD0002675284670BD012070BD2046FEF7A5FD80
:101FE00005460128F3D00120A063C5E700023E8327
:101FF00000F000F00027014070470000F8B500260F
:102000000446002805D0A06B25462035002802D0C4
:1020100007E00120F8BD0020E0632875204600F0AD
:10202000BDF8A06B1022C006002870DB2068816814
:1020300049076CD4A16B1301994302231943A1638F
:1020400081688907890F012905D10168C9070FD166
:10205000C16809040CD4C16818239943A3681943C3
:10206000C1602068016963688900890819430161BA
:102070002068C1683D4B1940C160207E617E8003AD
:10208000C9030843A17E4B031843A36A012B02D066
:1020900001231B0300E000231843E368184323696E
:1020A000022B09D0002318432B79E57E5B001843EF
:1020B0000123012D02D00AE00423F4E7002927D0F0
:1020C000A16B20252943A163E16B1943E163E16919
:1020D0000D46FF3DC23D02D0256A294308432168D1
:1020E000CD680543CD600125E16A2D07A94213D0D3
:1020F000012911D002290FD003290DD004290BD0BA
:10210000052909D0062907D0072905D010E028E0C5
:10211000012109040843DAE721684D69ED08ED0063
:102120004D6121684D69A78D7F077F0F3D434D614C
:102130002168C9680E4D2940814207D10020E06323
:10214000A06B80088000401CA06308E0A06B022107
:1021500088431043A063E06B1843E06301263046D8
:10216000F8BDA06B1043A063F8E700001902FEFF62
:10217000E7FF3F8310B50848C26841150A43C260B3
:10218000C2688A43C26082698A4382610920012150
:10219000C00600F06FF910BD0010024070B5204974
:1021A00086B04A6905460120400402434A614A69F3
:1021B000024005928A69001202438A618A690240DC
:1021C00005924A69012002434A614969002601409B
:1021D0000591009003200190092069460296C006EF
:1021E00000F0F4FB0F48104C41C480202660606072
:1021F0004000A0608000E06020202061C00160619C
:102200000948083C00F062F8204600F0D3F82C633F
:10221000002203210920656200F0E2FE06B070BDD5
:10222000001002400800024050040020F7B50446A8
:1022300000680025806840073DD426462036307D62
:1022400001280AD001273775607E012807D0204673
:10225000FEF79EFC050002D02EE00220FEBDA06B22
:1022600016490840FF2101310843A0630020E063C4
:102270003075216B12488862216B1248C862216B4D
:102280001148086321681C200860206841681022FA
:10229000114341602068C1683943C1602168206BE7
:1022A0004031029B019A00F0AFF820688168042257
:1022B0001143816000E002252846FEBDFEF1FFFFCC
:1022C0009B0A0008210B0008070B000870B50400EA
:1022D0001FD0206801684908490001602068002576
:1022E000056020684560206885602068C5602046DC
:1022F000FFF788F8216C01208840E16B4860A562F7
:10230000E56225636563A563203465702570002050
:1023100070BD012070BDF0B4C16B0D6801680C6820
:102320000422066C1346B3402B420DD063070BD535
:102330000B689B0602D40B6893430B60016C8A40C8
:10234000C16B4A60C16A19E00227B74002462F40BC
:1023500001232032002F15D0A70713D50C68A4063F
:1023600004D40C680A25AC430C605370036C022142
:102370009940C36B596000211170816A002916D001
:10238000F0BC08470827B7402F4210D024070ED5CD
:102390000C680E25AC430C60046C1946A140C46B5C
:1023A00061608363537000211170016BE6E7F0BC3C
:1023B0007047000070B5040021D002212046203073
:1023C00005464170226811680E48A36801406068A4
:1023D00026691843E3683343184363691843A369C4
:1023E0001843E3691843084310602046FFF70AF8D2
:1023F0000021A163012068702970084670BD01208A
:1024000070BD00000FC0FFFFF8B504468C462030B9
:1024100001780025012909D001260670417800279E
:10242000012905D0077002252846F8BD0220F8BD15
:1024300002214170A76320680168490849000160D2
:1024400061462046FEF7F0FFE06A00282068016838
:1024500002D00E22114306E00A22114301602068D7
:1024600001680422914301602068016831430160E2
:10247000DAE70000F0B5002258E0012393401C4643
:102480000C4052D096082B4DB6007519AF68AC467B
:1024900095072E0F0F25B540AE463D400927FF0694
:1024A000B84201D100270FE0234FB84201D10127E4
:1024B0000AE0224FB84201D1022705E0204FB8427E
:1024C00001D1032700E00527B740AF4212D11D4DCF
:1024D0002E68A6432E606E68A6436E60AE68A64363
:1024E000AE60EE68A643EE606546AD687446A543EF
:1024F0006446A560056856000324B440A543056002
:10250000D508AD002D182E6AAC465507EF0E0F25E5
:10251000BD40AE4365462E628568A543856045682B
:102520009D434560C368A343C360521C0B46D34020
:10253000A3D1F0BD0000014000040048000800489D
:10254000000C004800040140F8B50546CBA003F09C
:102550009FFFCE4800210646203601734173F17774
:10256000344620348079607201218446A072C90209
:1025700028466B1A274609220125203788422ED08B
:1025800018DC082874D0802873D001218902884281
:1025900070D13A73BD4800220276A278012A69D030
:1025A000C078012866D0F87A2843F872307D012877
:1025B00058D088E0581AB6497DD0401A7CD0032103
:1025C0004903884256D1A570FFF74EFA6420FFF701
:1025D000E7F9AE48B5764571C5710420A5E0AB4872
:1025E000017E491CC9B201760A2919D03A73A17833
:1025F00001293FD0C17801293CD00121B1760025C5
:10260000457125738573397B092900D03D73F97AAB
:1026100002221143F97206468078012803D00AE0AD
:1026200000213973E3E7994F9AA08037B98903F005
:102630002FFFF88DB8816078012801D16570F5729F
:10264000608FE18F02460A4301D00122A271002867
:1026500001D0022002E0002901D00420F07175743D
:1026600094A09FE0964800F055FA6073874F1DE0F4
:10267000E8E09AE05AE0387B401C387391A003F000
:1026800007FF012189028E4800F044FA6073387B0D
:10269000B17B88420AD9F07F002801D1FFF7BCF94D
:1026A000F5778EA003F0F4FEFFF7B6F9607B002803
:1026B000E1D0397B01E01FE0AEE08DA003F0E8FE41
:1026C000F07F012803D0607A022804D00DE0FFF7E4
:1026D000CBF98CA066E090A003F0DAFEFFF7C4F916
:1026E0006420FFF75DF969484570E5716748B57684
:1026F0004571C5718FA055E03A7364480022027697
:10270000A278012A12D0427C022A0FD0C078012878
:102710000CD06078012807D0F87A04221043F872B0
:10272000307D012803D028E003203873F8BD5849D4
:10273000634800F0EFF96073544F14E0387B401C9D
:1027400038737FA003F0A4FE51495D4800F0E2F920
:102750006073387BB17B884205D9F5777EA003F0A2
:1027600097FEFFF731F9607B0028E7D0397B60A046
:1027700003F08EFEF07F0128A9D0607A012809D1EC
:1027800065A003F085FEFFF76FF96420FFF708F9F5
:102790003E48457025723D48B576022141710321BE
:1027A000C17173A003F074FEF8BD74A003F070FE55
:1027B000364900200876B07D0128F5D18021724885
:1027C00000F0A8F960731EE03048417B6FA003F071
:1027D0005FFE2E482D49407B401C487380216A488B
:1027E00000F098F960732948F17B407B88420AD950
:1027F0002648C17801290AD0C57065730520387351
:1028000069A003F045FE607B0028DDD0F8BD002103
:10281000C170657368A0F4E76046022802D0E08FBB
:102820000028F3D00020E0876570FFF71DF96420D1
:10283000FFF7B6F81548B57645711E21C172C5710E
:10284000022072E71148C179491CC9B2C17104293B
:1028500000D9C5713A73C179012906D002290AD07D
:10286000032904D0042904D105E0457101E00221C7
:102870004171B576F8BD0021FAE700000A0DB1B14B
:10288000A8EEBEB9ABFCA54F3A2000000000002026
:10289000001000000A0DADABB773B8FCA44AB5A593
:1028A000ABDDC3F6AAF9AEC9B6A13A202564206D06
:1028B000730000000A0D53544F50210A000000001D
:1028C000000800480A0D4F50454E206B65792E2EAA
:1028D0002E2E2E70726573730A0000000A0D4A4F87
:1028E00047204D6F64653A4F50454E2E2E2E0A00FC
:1028F0000A0D436F6E74696E7565203D2025640A6C
:10290000000000000A0D446F6F722053746F702E28
:102910002E2E2E2E0A0000000A0D2D2D2D2D2D2DD0
:102920002D2DA5DFA759A4CFC2E02D2D2D2D2D2DA6
:102930002D2D00000A0D4F50454E210A00000000C9
:102940000A0D434C4F5345206B65792E2E2E2E2EAB
:1029500070726573730A00000A0D4A4F47204D6F6D
:1029600064653A434C4F53452E2E2E0A000000005A
:102970000A0D436C6F7365210A0000000A0D4C6F4D
:10298000636B210A00000000001400480A0D4C4F40
:10299000434B206B65792E2E2E2E2E70726573732D
:1029A0002025640A000000000A0D4C4F434B7E7E38
:1029B0007E7E7E7E210A00000A0D554E4C4F434B11
:1029C0007E7E7E7E7E7E210A00000000F8B5002318
:1029D0008DE001249C40A44622407DD04C68022C0E
:1029E00001D0122C0CD1DC08A40027183C6A5D072A
:1029F000ED0E0F26AE40B4430E69AE4026433E6254
:102A000005685E000324B4400F79A543BF07BF0FDC
:102A1000B7402F4307604D68012D05D0022D03D02C
:102A2000112D01D0122D0ED18568CF68A543B74076
:102A30002F43876047686546AF430D79ED06ED0F7C
:102A40009D403D434560C568A5438C68B4402C4318
:102A5000C4604C68E40049D5284CA569012635437B
:102A6000A561A4699D0834400094254CAD002F1940
:102A7000BC689D072E0F0F25B540AC430925ED0618
:102A8000A84201D100250FE01E4DA84201D1012529
:102A90000AE01D4DA84201D1022505E01B4DA842C8
:102AA00001D1032500E00525B5402543BD60184C44
:102AB00025684E689543F60300D515432560656883
:102AC0004E689543B60300D515436560A5684E680A
:102AD0009543F60202D500E008E01543A560E568DD
:102AE0004E689543B60200D51543E5605B1C0A6845
:102AF0001446DC4000D06CE7F8BD00000010024036
:102B0000000001400004004800080048000C004894
:102B1000000401400069084000D001207047002AED
:102B200001D0816170478162704700000148806870
:102B3000704700004401002070B5024640325378CF
:102B4000202B1CD11378012B19D0012313702424BE
:102B50005470046825689D432560046825681E0339
:102B6000B5432560046825680D4325600068016849
:102B700019430160202050700020107070BD0220A9
:102B800070BD406C7047000070B5040006D025464B
:102B9000403568780026002802D005E0012070BD8D
:102BA0002E70204600F09AF9242068702068016891
:102BB0004908490001600F216068090688432168BF
:102BC000086121688A680120C00382438A60E16845
:102BD0000129A16808D02122920211432268916044
:102BE000E168022902D005E00143F7E701212268EC
:102BF000C902516021684A680F4B1A434A60216834
:102C0000CA688243CA60616920690843A1690902F0
:102C100008432168C860216AE069084321680860A8
:102C200020680168012211430160666420206870F9
:102C30002663AE70002070BD00800002FFB505461F
:102C400004464035687883B0202875D10C98002858
:102C500014D00D98002811D0287801286CD00120BC
:102C60002870FFF763FF0746012200901923D10364
:102C7000204601F043F9002874D103E0012040020E
:102C800060646FE0222068704020A87000266664AF
:102C90000C9860620D98608566630E9800900197AD
:102CA00004A90EC9204601F0B5F8002801D02E7005
:102CB00058E0618D3448FF2905D9FF222285012380
:102CC0001B06009006E0618D21850090208D012378
:102CD000C2B25B062046049901F0FCF8009700227E
:102CE000042120460E9B01F009F900283AD1206802
:102CF000406A616A0870606A401C6062208D401EF4
:102D000081B22185608D401E6085608D00281FD0B6
:102D100000291DD100970022802120460E9B01F042
:102D2000EDF800281ED1608DFF2806D9FF222285EC
:102D300001231B06009607E024E0608D20850096A5
:102D4000208D0123C2B25B062046049901F0C2F82F
:102D5000608D0028C2D13A4620460E9901F0F5F860
:102D6000002802D0012007B0F0BD20682021C161F9
:102D700020684268054B1A4042606970AE702E7040
:102D80000020F0E70220EEE70024008000E800FECB
:102D9000FFB5054604464035687883B0202872D1D7
:102DA0000C98002814D00D98002811D028780128FC
:102DB00069D001202870FFF7B9FE07460122009074
:102DC0001923D103204601F099F8002871D103E0BE
:102DD0000120400260646CE0212068704020A870EF
:102DE000002666640C9860620D98608566630E9894
:102DF0000090019704A90EC9204601F03BF8002875
:102E000001D02E7055E0608DFF2805D9FF22228564
:102E100001231B06009606E0608D20850096208D1C
:102E20000123C2B25B062046049901F053F83A46EA
:102E300020460E9901F0AFF800283AD1606A216867
:102E400000788862606A401C6062608D401E608508
:102E5000208D401E80B22085618D00291FD0002862
:102E60001DD100970022802120460E9B01F046F8DC
:102E700000281ED1608DFF2806D9FF22228501235C
:102E80001B06009607E024E0608D20850096208DCB
:102E90000123C2B25B062046049901F01BF8608D45
:102EA0000028C4D13A4620460E9901F04EF8002879
:102EB00002D0012007B0F0BD20682021C161206848
:102EC0004268054B1A4042606970AE702E70002057
:102ED000F0E70220EEE7000000E800FE30B58BB01E
:102EE000202005901020089005A800F07DF81648D5
:102EF0004269012189040A43426142690A400992F8
:102F000042690A43426142690A400992C269C900A2
:102F10000A43C261C0690124084009904020009022
:102F2000122001900320094D0390029469460494F5
:102F30002846FFF74BFD8020009069460494284600
:102F4000FFF744FD0BB030BD001002400004004804
:102F50000248816802788918816070474401002026
:102F600010B506480168102211430160032000F0EB
:102F700007F800F027F8002010BD000000200240F4
:102F800070B504460D4D7D202978C000FDF7ACF8E2
:102F900001460B480068FDF7A7F800F031FB002858
:102FA00009D1042C07D200222146401E00F018F857
:102FB00000206C6070BD012070BD00004401002045
:102FC0004001002070470000002805DBC106C90E43
:102FD00001208840014908607047000000E100E0DE
:102FE00010B503F0A1FA10BDF8B505460068354CE0
:102FF000C00352D5E0690026C00007D4E16920046F
:103000000143E161E1690140012600912E48016818
:10301000C90510D40168821511430160FFF786FDD0
:10302000074604E0FFF782FDC01B642824D8264829
:103030000068C005F6D5206A03273F02384020D03B
:103040006968394081421CD0206A226AB843012154
:1030500009040A432262226A8A4322622062C0076C
:103060000FD0FFF763FD009008E0FFF75FFD0099C8
:10307000411A1648814201D90320F8BD206A800711
:10308000F3D5206A6968B84308432062002E04D053
:10309000E169012000078143E1612878C00705D07C
:1030A000206BA96880088000084320632878800688
:1030B00005D5206B10218843E96808432063002070
:1030C000F8BD0000001002400070004088130000AE
:1030D000F8B50F46060059D03A4D2868C007C00F12
:1030E000B84209D228684008400038432860286860
:1030F000C007C00FB84249D13068334C81070CD5A6
:10310000400704D5606807210902084360606068D1
:10311000F0218843B168084360603078C00726D04A
:10312000706801280ED0216802280ED08907002976
:103130002CDA61688908890001436160FFF7F6FCB9
:1031400000900DE021688903F1E78901EFE7FFF7BF
:10315000EDFC0099411A1D48814201D90320F8BDB8
:1031600060680C210840716889008842EFD12868A6
:10317000C007C00FB8420BD9286840084000384348
:1031800028602868C007C00FB84201D00120F8BDF0
:103190003078400706D56068072109028843F16846
:1031A0000843606000F028F86168094A0906090FC1
:1031B000515CC840074908600320FFF7E1FE00208A
:1031C000F8BD0000002002400010024088130000FB
:1031D0000C71000840010020044805490068496856
:1031E000044A4905490F515CC8407047400100201E
:1031F000001002401C71000810B514A30FCB88B05A
:103200006C460FC415A30FCB0FC4184A51680C208D
:103210000B4603401648042B16D0082B14D18B0202
:103220001B0F6C46E45CD26A04AB1207120F9A5C67
:10323000C90305D500231946FCF76CFF214601E0C0
:1032400020460C4903F04BF908B010BD02030405F9
:10325000060708090A0B0C0D0E0F101001020304DB
:1032600005060708090A0B0C0D0E0F10001002408E
:1032700000127A0000093D00FEB5040070D02078ED
:10328000DC4DC0074AD068680007800F012807D0CE
:1032900068680007800F022809D16868C00306D556
:1032A000286880033AD560680028E7D036E0616876
:1032B000012914D001208004002901D0052914D04F
:1032C0002A68012109048A432A6029688143296008
:1032D0006068002816D0FFF729FC06460EE0286833
:1032E0000121090408432860F2E7296801432960A5
:1032F000F5E7FFF71BFC801B64286ED82868800365
:10330000F7D50BE0FFF712FC064604E0FFF70EFCD2
:10331000801B6428F1D828688003F7D42078012620
:10332000800700283CDA68680007800F07D06868CB
:103330000007800F022809D16868C00306D42868F6
:10334000800716D5E06801280AD112E0E06800285D
:10335000286816D030432860FFF7E8FB074605E0F1
:1033600043E1FFF7E3FBC01B0228C6D828688007AB
:10337000F7D52868F82188432169C90008432860E7
:103380000EE0400840002860FFF7D0FB074604E04D
:10339000FFF7CCFBC01B0228AFD828688007F7D402
:1033A0002078000722D5E0690028686A0ED03043F3
:1033B0006862FFF7BBFB074604E0FFF7B7FBC01BE3
:1033C00002289AD8686A8007F7D50FE040084000C5
:1033D0006862FFF7ABFB074605E09DE0FFF7A6FB41
:1033E000C01B022889D8686A8007F7D42078042790
:1033F0004007002860DA00200190E869C00008D486
:10340000E969B8060143E961E969014001200091D9
:10341000019079480168C90511D4016882151143EA
:103420000160FFF783FB009005E0FFF77FFB009949
:10343000401A642870D870480068C005F5D5A068A7
:1034400001280AD0002801D0052810D0286A400899
:1034500040002862286AB84301E0286A30432862A5
:10346000A068002812D0FFF761FB00900AE0286AEC
:1034700038432862F1E7FFF759FB0099411A5F488A
:10348000814249D8286A8007F5D50DE0FFF74EFB49
:10349000009006E0FFF74AFB0099411A5748814225
:1034A0003AD8286A8007F5D40198002804D0E96941
:1034B000012000078143E9612078C00635D56069A5
:1034C00001280CD0401D686B23D038436863686BBB
:1034D000400840006863FFF729FB064622E0686B5E
:1034E00038436863686B30436863FFF71FFB064629
:1034F00004E0FFF71BFB801B02285BD8686B80078A
:10350000F7D5686BF8218843A169C900084368634F
:103510000BE0B8436863F4E74CE0FFF707FB801B60
:10352000022847D8686B8007F7D4206A00285ED04D
:1035300069680907890F022942D001263606022848
:10354000286805D0B0432860FFF7F0FA044633E05E
:10355000B0432860FFF7EAFA074604E0FFF7E6FA0F
:10356000C01B022826D828688001F7D4E86AE16ADF
:10357000000900010843E862616AA06A08436968BB
:103580003D22120491430843686028683043286054
:10359000FFF7CCFA044604E0FFF7C8FA001B022844
:1035A00008D828688001F7D521E0FFF7BFFA001B93
:1035B000022801D90320FEBD28688001F5D416E059
:1035C0000128F8D06868E96A01221204636A02409F
:1035D0009A420AD10907E26A090F914205D10F21E7
:1035E00089040840A16A884201D00120FEBD002064
:1035F000FEBD000000100240007000408813000073
:10360000094910B5401E884201D9012010BD074C60
:1036100060610321081F02F087FF0020A0610720DE
:103620002061002010BD0000FFFFFF0000E000E06F
:1036300070B50446006801690025C943890700295F
:1036400015DBC168C943890711D4E91E0161012056
:103650002077206880698007204602D000F01AF9A0
:1036600004E000F0C9F9204600F0C7F9257720688A
:103670000169C943490717D4C168C943490713D42D
:103680000421C943016102202077206880698005F8
:10369000800F204602D000F0FDF804E000F0ACF905
:1036A000204600F0AAF9257720680169C943090777
:1036B00016D4C168C943090712D40821C94301615E
:1036C000042020772068C0698007204602D000F0DF
:1036D000E1F804E000F090F9204600F08EF925773B
:1036E00020680169C943C90617D4C168C943C9061E
:1036F00013D41021C9430161082020772068C069D4
:103700008005800F204602D000F0C4F804E000F0ED
:1037100073F9204600F071F9257720680169C943E3
:10372000C90708D1C168C943C90704D1891E01610D
:10373000204600F02FF820680169C943090609D422
:10374000C168C943090605D48021C94301612046E7
:1037500000F03AF820680169C943490609D4C168F4
:10376000C943490605D44021C9430161204600F000
:1037700001FA20680169C943890609D4C168C943AF
:10378000890605D42021C9430161204600F01DF8B7
:1037900070BD000010B50B48817A491CC9B2817216
:1037A000027A914201D100218172427A0920C9B284
:1037B000C006914201D2002200E001224021FFF721
:1037C000AEF910BD000000207047704770B50400CE
:1037D00005D025462035687F002802D006E001206C
:1037E00070BD00202877204600F00AF80220687794
:1037F000211D206802F080FC01206877002070BD48
:1038000008B510488269012149040A43826182692E
:103810000A400092826949000A438261806900225D
:103820000840009002211520FFF7DAFB0122022157
:103830001620FFF7D5FB1520FFF7C6FB1620FFF774
:10384000C3FB08BD001002400268D36801210B438E
:10385000D360006882685207520F062A02D00268BD
:103860000A430260002070470168CA68520852008B
:10387000CA600068016A064A114207D1016A9210C3
:10388000114203D1016849084900016000207047D6
:1038900011110000704770B50446006801690025E9
:1038A000C9438907002915DBC168C943890711D4B9
:1038B000E91E016101202077206880698007204689
:1038C00002D0FFF7E7FF04E000F096F8204600F092
:1038D00094F8257720680169C943490717D4C1685E
:1038E000C943490713D40421C94301610220207749
:1038F000206880698005800F204602D0FFF7CAFF4C
:1039000004E000F079F8204600F077F82577206889
:103910000169C943090716D4C168C943090712D40C
:103920000821C9430161042020772068C06980070D
:10393000204602D0FFF7AEFF04E000F05DF820461D
:1039400000F05BF8257720680169C943C90617D4E0
:10395000C168C943C90613D41021C94301610820B5
:1039600020772068C0698005800F204602D0FFF7CD
:1039700091FF04E000F040F8204600F03EF8257783
:1039800020680169C943C90708D1C168C943C9078B
:1039900004D1891E0161204600F030F820680169D9
:1039A000C943090609D4C168C943090605D4802161
:1039B000C94301612046FFF707FF20680169C94339
:1039C000490609D4C168C943490605D44021C94301
:1039D0000161204600F0CEF820680169C9438906DC
:1039E00009D4C168C943890605D42021C9430161AE
:1039F0002046FFF7EAFE70BD70477047F8B55B4C94
:103A00000027608A2646401C80B26082218A203EC0
:103A1000491C2182E189491CE1810A2808D1F07BF7
:103A200002F064FBF073707C02F060FB70746782DC
:103A3000208A64287AD14D4D403D688F02F056FBB4
:103A40006887E88F02F052FBE887608E02F04EFB39
:103A50006086A08E02F04AFBA086E08E02F046FB54
:103A6000E086208F02F042FB2087E08802F03EFBD8
:103A7000E080288F02F03AFB2887608D02F036FB49
:103A80006085A08902F032FBA081208B02F02EFB22
:103A90002083A08B02F02AFBA083208802F026FB63
:103AA00020808035A88B02F021FBA883A88D02F02E
:103AB0001DFBA885A88F02F019FBA887E88A02F0F1
:103AC00015FBE882288B02F011FB2883688B02F03B
:103AD0000DFB6883E88C02F009FBE884288D02F076
:103AE00005FB2885688D02F001FB6885E88E02F0F1
:103AF000FDFAE886288F02F0F9FA2887688F02F02D
:103B0000F5FA6887E08B1A49884201D0401C80B2E0
:103B1000164DE0838035688802F0E8FA6880FF3D42
:103B2000013DA87D02F0E2FAA8752782E0897D2197
:103B3000C90088420ED10D4DE781803DE87A02F040
:103B4000D5FAE872608B02F0D1FA6083208C02F023
:103B5000CDFA2084F07B002802D0FDF7D8F9F8BD1B
:103B6000707C0028FBD0FDF7C9F9F8BD800000206B
:103B7000FFFF0000704770B5040017D02420606775
:103B80002068016849084900016020680025056037
:103B90002068456020688560204600F03FF8E567B2
:103BA0006567A56760342574002070BD012070BD75
:103BB00010B5040003D0606F002802D007E0012098
:103BC00010BD002170200155204600F03FF8242050
:103BD000606720680168490849000160204602F0DA
:103BE00065FB0128ECD0606A002802D0204602F074
:103BF000C7FA206841680122D202914341602068DF
:103C00008168082291438160206801680122114384
:103C10000160204602F01AFB10BD000010B50A48F2
:103C2000C268012189030A43C260C2688A43C26034
:103C300009244115E4062046FEF71CFC01218902F7
:103C40002046FEF717FC10BD0010024030B51748A3
:103C500087B04269012149040A43426142690A402E
:103C6000059242690A43426142690A4005928269AB
:103C7000C9100A43826180690124084005904811F7
:103C800000900220019003200925ED060390029484
:103C9000694604942846FEF799FEA0020090694602
:103CA00004942846FEF792FE07B030BD0010024093
:103CB000FFB50446406F83B017460D4620285CD1FF
:103CC000002D0AD0002F08D0A168C001814207D181
:103CD0002069002804D1E80702D0012007B0F0BD18
:103CE000204660300290007C012846D002980121D5
:103CF00001740020E06721206067FEF717FF264669
:103D000040360190378277820120A168000381420A
:103D100002D12069002802D02F46002511E000279B
:103D20000FE000228021204602F064FB002815D11C
:103D3000002F15D02168387808857F1C708A401EB6
:103D40007082708A019B002806980090E9D10022B9
:103D50004021204602F04EFB002808D00320BDE79A
:103D600028882168C005C00D0885AD1CE6E7202025
:103D70006067029900200874B0E70220AEE7FEE712
:103D800001688A69D243920701D400228A620068DE
:103D90008169C943C90703D0816901221143816147
:103DA00070470000F7B5044600680E468069C043BE
:103DB000C0062BD420272546403520688069C043A3
:103DC000800612D5701CF8D0FEF7B0FE0299401A9A
:103DD000B04201D8002EF0D1606C384360646F703F
:103DE0000020A87028700120FEBD21681020C86145
:103DF0002068C7612046FFF7C3FF20684168044A76
:103E000011404160606C04210843E7E70020FEBDDB
:103E100000E800FEF8B50446164615481D46DAB21D
:103E20000090079F0023204600F054F83A462046B1
:103E3000069900F0B0F8002818D12846F5B20128FC
:103E400009D02168300A88623A462046069900F077
:103E5000A2F800280AD1206885620097002240213C
:103E60002046069B00F04AF8002800D00120F8BD4B
:103E700000200080F8B50446164615481D46DAB203
:103E8000C3020090079F204600F024F83A462046DF
:103E9000069900F080F8002818D12846F5B20128CC
:103EA00009D02168300A88623A462046069900F017
:103EB00072F800280AD120688562009700228021CC
:103EC0002046069B00F01AF8002800D00120F8BD1B
:103ED00000200080F0B50668059C7568064F600DEF
:103EE000384385438805800D110408431843204357
:103EF00005437560F0BD0000FF63FF03F8B51D4684
:103F000017460E46044609E0681C07D0FEF70EFE71
:103F10000699401AA8420BD8002D09D02068816963
:103F2000304688430FD00020B842EDD00020F8BDC5
:103F3000616C202001436164403460700020A070F7
:103F400020700120F8BD0120EEE770B516460D4641
:103F500004460FE0324629462046FFF723FF00289B
:103F600001D0012070BDFEF7E1FD801BA84208D8FA
:103F7000002D06D020688069C0438006EAD4002066
:103F800070BD616C2020014361644034607000208A
:103F9000A0702070E5E770B516460D46044611E0A6
:103FA000324629462046FFF7FDFE002801D00120B9
:103FB00070BD681C06D0FEF7B9FD801BA84208D86A
:103FC000002D06D020688069C0438007E8D4002017
:103FD00070BD616C2020014361644034607000203A
:103FE000A0702070E3E7000010B5012251030248E1
:103FF000FEF795FD10BD00000008004810B5012136
:10400000002249030148FEF78AFD10BD0008004860
:10401000F8B52548C07D012836D12349234C2031ED
:10402000488FCA8F4B7910432FD008464030C68B3B
:104030008D7B012702228038AE4203D24772027282
:10404000C7740DE0C97B6918B14205D95F2141727F
:1040500064210172C27403E0477202720321C174C9
:10406000C07C012B07D0022811D0606AFCF760FAEF
:104070000F4A104B13E002280BD0606AFCF758FA85
:104080000D4A0E4B0BE02062F8BD012B01D0606A97
:10409000F9E7606AFCF74CFA054A094B5242FCF713
:1040A0003DF9FCF759FAEEE720000020000100205E
:1040B000333333333333EB3F9A9999999999F13FDD
:1040C000CCCCF43F70B5164C012060600220A0609B
:1040D0000320E060134D206021462846FEF776FC61
:1040E00040200926F606206021463046FEF76EFC89
:1040F00001204003206021460B48FEF767FC0122A7
:1041000040213046FEF70BFD002201212846FEF734
:1041100006FD002202212846FEF701FD70BD0000C9
:10412000EC0200200004004800080048704700002E
:10413000F8B5404E3746603F308F797A08431ED13C
:104140003446803C60780125002814D0FCF720FC20
:10415000FCF7CCF9384A394BFCF7E0F8FCF7FCF9EE
:10416000E11DF9318863096AFCF71CFA0AD2F0886C
:10417000002805D006E00520F0806570A573F8BD25
:10418000E07DA0752B488030016A806BFCF700FA57
:10419000F5D8F0880028F2D1A07D0028EFD128A022
:1041A00002F076F923484038428F01462031002A38
:1041B0001BD0FB7C012B02D1F38DB381A570637CF6
:1041C000A374022B01D100236374C5700023037113
:1041D0004D728B72CD746576F18C891A71840221CF
:1041E000E171C18F002908D10DE0C38F002B12D0DF
:1041F0000023C37005714B728D72F18CC38FC91A85
:10420000B1840421E171002A05D00A4980318B6A0A
:104210005B1C8B626575797A012902D1002A00D076
:10422000C57200214187C187017361700220A073AC
:10423000F8BD000080000020B4D934E70C684A3F84
:104240000A0A0DAAF9A8ECA6EC2DB0B1A4EEB94269
:10425000C2E0210A0A000000F8B5554E308F002850
:104260002BD1304660380090407A012825D1354660
:10427000803D687800281BD02C464034608F27464C
:104280002037002855D0FCF783FBFCF72FF9494A6B
:10429000494BFCF743F8FCF75FF92146C0318863CE
:1042A000096AFCF77FF90BD2F088002806D007E0F6
:1042B0000520F08001206870A873F8BDE87DA8751E
:1042C0003B488030016A806BFCF762F9F5D8F088D2
:1042D0000028F2D1A87D0028EFD138A002F0D8F84C
:1042E000628F002A0DD00098C07C012803D1F08D88
:1042F000B0810120A870687CA874022801D1002038
:1043000068740121E170002020717972B872284B25
:10431000F974697680339F6A7F1C9F62E172F18C29
:10432000891A71846087E087207368700220A873FF
:1043300037E0E08F0028C0D0FCF72AFBFCF7D6F866
:104340001C4A1D4BFBF7EAFFFCF706F918498031C0
:104350008863096AFCF726F904D2F088002801D1A5
:10436000E87DA87512488030016A806BFCF710F96F
:10437000A3D8F0880028A0D1A87D00289DD10FA047
:1043800002F086F80020E070012121717872B97284
:10439000E17A012907D0B0846087E08720736870D4
:1043A0000420E871F8BD318DE28F891AB184F3E7FA
:1043B00080000020B4D934E70C684A3F0A0A0DAAED
:1043C000F9A8ECA6EC2DB0B1A4EEB942C2E0210AE6
:1043D0000A00000070B5314EB17B3446C03400296C
:1043E0001ED02546403D012920D0022917D12CA0FE
:1043F00002F04EF8A98B32A002F04AF8717C36A088
:1044000002F046F8B17C39A002F042F8A98BB07CEA
:1044100001430020002929D0B073B074B07370BD7F
:10442000FCF7B6FA20806080A0801DE0B0790128FA
:104430000BD00228F3D128880028F0D0FCF7A8FA86
:10444000A18888420DD9A08070BDFCF7A1FA21880F
:10445000884201D9208070BD61888842FBD260808B
:1044600070BDE1888842FBD2E08070BD0B494031CD
:10447000CA78012A0AD009790129CED1A188EA8A0D
:104480009142CAD9E982E188E987C6E72188AA8AE8
:104490009142C2D9A9826188A987BEE700000020A5
:1044A0000A0D204144435F4465746563745F53742F
:1044B0006172745F466C6167203D202564000000D6
:1044C0000A0D20544D5F4144435F52656C616F6437
:1044D000203D2025640000000A0D20416E74695FB4
:1044E0004576656E74203D20256400000A0D20414C
:1044F0006E74695F4576656E745F627566203D20F7
:1045000025640000FEB51C4E707D012833D1F01DDE
:10451000F930806A194C010A20706170010CA17099
:10452000000EE07030468030418C2171090A6171C3
:10453000818CA171090AE171818A2172090A617273
:10454000C08AA072000A0827E07200250C48611991
:104550002A46009102900123C8320197A021094800
:10456000FEF716FC0620FDF71BFA0835EDB2102DFC
:10457000ECD300207075FEBD000000204004002038
:1045800010270000A0020020F8B55A4C002625464E
:10459000403DE08F2F46203700280AD0608F00284A
:1045A00007D0FDF761FA6687E68753A001F070FF38
:1045B00049E0012149035648FEF7ACFAE18F002992
:1045C00002D0002800D1E687A8796072787A0028A6
:1045D000608F04D000280BD0FDF71EFA33E00028CE
:1045E000FAD1E08F002806D1FDF73EFA6E7029E07F
:1045F000E08F002802D0FDF7E7F924E06E70FDF7A8
:1046000033FA04202073A879012818D0022819D180
:10461000F87E012804D0E07A012803D002280ED1C8
:1046200001200BE03BA001F033FF324840304088CE
:10463000002804D137A001F02BFF0220E072FE76A3
:104640003E777E77AE71618FE08F014304D0FFF734
:104650006FFDFFF701FE20E0797A01291CD10028C7
:104660001AD1244840304088002815D0687C0028A2
:1046700012D12AA001F00CFFE17A2BA001F008FF73
:10468000E07A012802D0022806D006E0E670012078
:1046900020710220A87300E0AE731649E08F40310C
:1046A0004880628F01210927C902FF06002A05D030
:1046B00000223846FEF733FA012208E0002801D034
:1046C000012200E000223846FEF729FA00220121EB
:1046D00009033846FEF723FA608F002808D1A18F1E
:1046E000002905D0697E012902D1A97EE1876E7675
:1046F000A087F8BD400000200A0A0D4E473AB94293
:10470000C2E0AEC9B6A1A650AEC93E30000000005E
:104710000004004854455354203031000A0A0D4823
:10472000656C6C6F787878000A0A0D53545F436C9F
:104730006F7365203D20256400000000F8B5FCF78C
:10474000DDFB73A001F0A4FE71A001F0A1FE7A4D83
:104750007AA0696901F09CFE82A001F099FEEF1F2A
:10476000F93F3A7FF97E89A001F092FE68A001F03E
:104770008FFE90A001F08CFE96A001F089FE8DA026
:1047800001F086FE9BA001F083FE2C46E03CA17A5E
:10479000A1A001F07DFE617AA4A001F079FEE17A8A
:1047A000A7A001F075FEE17CAAA001F071FE217DB9
:1047B000AFA001F06DFE617DB2A001F069FEA17DA8
:1047C000B5A001F065FE617C93A001F061FEA17CC3
:1047D000B6A001F05DFE264620363178B8A001F083
:1047E00057FEE17DBBA001F053FE217BBEA001F08E
:1047F0004FFE617BC2A001F04BFEC7A001F048FE56
:1048000020466030C08CFBF771FEC84AC84BFBF7EE
:1048100085FD02460B46C7A001F03AFE20466030F7
:10482000808DFBF763FEC14AC14BFBF777FD024663
:104830000B46CAA001F02CFE20466030008DFBF72D
:1048400055FEBA4ABA4BFBF769FD02460B46CDA0AE
:1048500001F01EFE20466030C08DFBF747FEB34AD4
:10486000B34BFBF75BFD02460B46D0A001F010FEF8
:1048700020466030008EFBF739FEAC4AAC4BFBF7AC
:104880004DFD02460B46D3A001F002FEF87DFBF77A
:104890002DFEA64AA64BFBF741FD02460B46D7A0CC
:1048A00001F0F6FDB07BFBF721FEA04AA04BFBF721
:1048B00035FD02460B46DBA001F0EAFDF07BFBF77D
:1048C00015FE9A4A9A4BFBF729FD02460B46DFA0DC
:1048D00001F0DEFD286AFBF72BFE02460B46E5A041
:1048E00001F0D6FDA869FBF723FE02460B46EBA0BC
:1048F00001F0CEFDE869FBF71BFE02460B46F0A077
:1049000001F0C6FDA17BF7A001F0C2FDE17BF5E15E
:104910000A0D2A2A2A2A2A2A2A2A2A2A2A2A2A2A34
:104920002A2A2A2A2A2A2A2A2A2A2A2A2A2A2A2AE7
:104930002A2A2A2A2A000000000100200A0D2A2023
:1049400046696E616C204D6F6469667920446174BC
:10495000653A2025642020202020202020202020AF
:104960002A0000000A0D2A204D6F64656C3A20541D
:1049700059472D4E43502D523031202020202020E9
:1049800020202020202020202A0000000A0D2A2A92
:1049900056657273696F6E3A204825645625642007
:1049A0002020202020202020202020202020202007
:1049B0002A0000000A0D3D3D3D3D3D3D3D3D3D3D54
:1049C0003D3D3D3D3D3D3D3D3D3D3D3D3D3D3D3D17
:1049D0003D3D00000A0D3D3D3D3D3D3D3D3D3D3DE4
:1049E000B0D1BCC6B35DA9773D3D3D3D3D3D3D3DAC
:1049F0003D3D00000A0D2A2A2A2A2AA55CAFE0B60E
:104A00007DC3F628303AC3F6B3AC202F20313AB636
:104A10007DB1D229000000000A0D20AAF8B4C1B46B
:104A2000FAB8D520203A2025640000000A0D20B1F4
:104A3000B2B5A1AAF9A55CAFE03A20256400000058
:104A40000A0D20A8BEA7A8A55CAFE020203A20252B
:104A5000640000000A0D20A6DBB0CAC3F6AAF92044
:104A6000203A2025642028BCD2A6A12900000000FD
:104A70000A0D20A654B0CAA55CAFE020203A20253C
:104A8000640000000A0D20B942C2E0A4E8A6562046
:104A9000203A2025640000000A0D20C2EAB971A561
:104AA0005CAFE020203A2025640000000A0D20B40D
:104AB000A3A5DCADB5202020203A2025640000000D
:104AC0000A0D20A6DBB0CAB7D3A9FA20203A2025C8
:104AD000640000000A0D20BD77B1D2B0CAA55CAF5A
:104AE000E03A2025640000000A0D20A8BEA7A8A572
:104AF0005CAFE028B67D2920203A20256400000024
:104B00000A0D20A8BEA7A8A55CAFE028C3F62920FF
:104B1000203A2025640000000A0A0D2A2A2A2A2A9F
:104B2000B942C2E0B0D1BCC6000000009A99999980
:104B30009999B93F0A0D20B67DC3F6AAF9B3CCA462
:104B40006AB942C2E0AEC9B6A12020202020203A96
:104B50002025342E316620ACED0000000A0D20AA7D
:104B6000F8B4C1B4FAB8D5B67DC3F6AAF9B6A1B9FE
:104B70006AAEC9B6A120203A2025342E316620AC79
:104B8000ED0000000A0D20B1B2B5A1AAF9C3F6AA42
:104B9000F9AEC9B6A1285061727420312920203A9B
:104BA0002025342E316620ACED0000000A0D20A631
:104BB000DBB0CAC3F6AAF9AEC9B6A12020202020D6
:104BC000202020202020203A2025342E316620ACC1
:104BD000ED0000000A0D20B7D3A9FAAEC9B6A12096
:104BE0002020202020202020202020202020203AAB
:104BF0002025342E316620ACED0000000A0D20ABDC
:104C0000DDBEF7B971C0A3A6A8A5DFA9B5BFF0AEF8
:104C1000C9B6A120202020203A2025342E3166203C
:104C2000ACED00000A0D20BD77A842B942C2E028D1
:104C3000B2C431AC71292020202020202020203A2D
:104C40002025342E316620ACED0000000A0D20BD79
:104C500077A842B942C2E028B2C432AC7129202000
:104C6000202020202020203A2025342E316620AC20
:104C7000ED0000000A0D20ABDDBEF7566F6C74200E
:104C80002020202020202020202020202020203A0A
:104C90002025312E32662856290000000A0D20A852
:104CA000BEA7A8C576ADAB284F50454E2920202081
:104CB000202020202020203A2025322E336600009C
:104CC0000A0D20A8BEA7A8C576ADAB28434C4F530C
:104CD00045292020202020202020203A2025322E67
:104CE000336600000A0D20A654B0CAA750A977B0B9
:104CF000D1BCC6202020203A2025640098A001F0D5
:104D0000C7FB217C9CA001F0C3FB387AFBF7E6FBD4
:104D10000446787AFBF7E2FB9D49FBF784FA2146CB
:104D2000FBF7BEFAFBF704FC02460B4699A001F024
:104D3000AFFB9FA0A96A01F0ABFB2C46403CA189C8
:104D4000A1A001F0A5FB6189A6A001F0A1FB6089EB
:104D5000FBF7CCFB0022AA4BFBF7E0FA0022A94BA1
:104D6000FBF744FB02460B46A7A001F091FBB87E7F
:104D7000FBF7BCFBAB4AAC4BFBF7D0FA02460B4649
:104D8000AAA001F085FBB1A001F082FBB8A001F060
:104D90007FFB317CBBA001F07BFB717CBEA001F0EE
:104DA00077FBB17CC1A001F073FBE089FBF79EFBB0
:104DB0009C4A9D4BFBF7B2FA02460B46C0A001F09D
:104DC00067FB208AFBF792FB964A974BFBF7A6FA04
:104DD00002460B46C0A001F05BFB608AFBF786FB36
:104DE000904A914BFBF79AFA02460B46C0A001F09D
:104DF0004FFBA08AFBF77AFB8A4A8B4BFBF78EFAB4
:104E000002460B46C0A001F043FBC5A001F040FBE9
:104E1000317E9CA001F03CFB717E9FA001F038FB2D
:104E2000B17EA2A001F034FBE08BFBF75FFB7D4A73
:104E30007D4BFBF773FA02460B46A1A001F028FB5D
:104E4000208CFBF753FB774A774BFBF767FA024658
:104E50000B46A1A001F01CFB608CFBF747FB714ADD
:104E6000714BFBF75BFA02460B46A1A001F010FB69
:104E7000A08CFBF73BFB6B4A6B4BFBF74FFA0246F0
:104E80000B46A1A001F004FBAAA001F001FB203613
:104E900031787CA001F0FCFA71787FA001F0F8FA7B
:104EA000B17882A001F0F4FAE08DFBF71FFB5D4AB8
:104EB0005D4BFBF733FA02460B4681A001F0E8FA9E
:104EC000208EFBF713FB574A574BFBF727FA024696
:104ED0000B4681A001F0DCFA608EFBF707FB514A1C
:104EE000514BFBF71BFA02460B4681A001F0D0FAAA
:104EF000A08EFBF7FBFA4B4A4B4BFBF70FFA02462F
:104F00000B4681A001F0C4FA8FA001F0C1FA98A06D
:104F100001F0BEFAFBF7F2FF9DA001F0B9FA002004
:104F2000A44C2863C100A4A001F0B2FA286BC00011
:104F300005E0215CA3A001F0ABFA686B401C68633C
:104F4000286BC100686B08318142F2DC286B401C81
:104F500028632028E6DB9DA001F09AFAF8BD000046
:104F60000A0D20C2EAB971A750A977B0D1BCC620FA
:104F70002020203A202564000A0D20B942C2E0B367
:104F800074ABD728307E33292020203A20256400B6
:104F90000000C8420A0D2050574D204475747920F6
:104FA0004379636C6520203A2025332E316600005A
:104FB0000A0A0DB942C2E0A6B8BCC620203A256450
:104FC0002028A6B8290000000A0A0D20AAF9A46A20
:104FD000A470BFEFBEDC20202020202020203A2516
:104FE000640000000A0D20A8BEA7A8A5B2B6B7B0FD
:104FF000CAA740ADC8284144293A256400000000F2
:1050000000A08440000001410A0D20A8BEA7A8A569
:10501000B2B6B7B0CAA740ADC8284129203A253258
:105020002E3366009A9999999999B93F0A0A0D20E9
:10503000B67DAAF9B7D9A8AEB0CAA740AEC9B6A185
:1050400020203A25322E3166000000000A0A0D2A7F
:105050002A2A2A2A53746174652D52656C6179205D
:10506000706172616D657465722A2A2A2A2A0000AD
:105070000A0D3D3D3D544D452D52656C61793D3DD8
:105080003D0000000A0D20A6A8A5DFB1F8A5F34158
:105090003A202564000000000A0D20A6A8A5DFB173
:1050A000F8A5F3423A202564000000000A0D20B85C
:1050B000D1B0A3B1F8A5F3203A2025640000000088
:1050C0000A0D20A6A8A5DFAEC9B6A1413A20253415
:1050D0002E316620ACED00000A0D20A6A8A5DFAE9B
:1050E000C9B6A1423A2025342E316620ACED00002D
:1050F0000A0D20B8D1B0A3AEC9B6A1203A202534FC
:105100002E316620ACED00000A0D20BFE9A558AE97
:10511000C9B6A1203A2025342E316620ACED00001E
:105120000A0A0D3D3D3D4143542D52656C61793D68
:105130003D3D00000A0A0D3D3D3D504F532D526547
:105140006C61793D3D3D00000A0A0D2A2A2A2A2A6F
:1051500053746174652D52656C6179207061726160
:105160006D6574657220456E642A2A2A2A2A000019
:105170000A0A0D3D3D3D3D3D3D3D3DB0D1BCC6B370
:105180005DA97720456E643D3D3D3D3D3D3D3D0083
:105190000A0A0D3D3D3D3D3D3D3D3D2045455052BA
:1051A0004F4D205072696E74203D3D3D3D3D3D3D6B
:1051B0003D000000000300200A0D2052253033641A
:1051C0003A200000253032582C2000000A0A0D3DFC
:1051D0003D3D3D3D3D3D3D20454550524F4D2046D6
:1051E000696E697368203D3D3D3D3D3D3D3D00009C
:1051F000FEB5FF21F848F74A01316C4607C4012388
:105200000022A0216038FDF719FD002806D0F248E1
:105210006038FDF7B6FC042800D0FEE78021EF4897
:10522000FDF778FCEE4CEE492246087080312646A8
:1052300060320D4632274035403620340092012836
:105240007ED0E54FE6483A78C2767A780277BA7827
:105250004277FA7882773A79C27778792070B8798C
:105260006070F879A070387AE070787A2071B87A36
:105270006071F87AA071387BE071787B2072387D9C
:10528000A072787D6072B87D6073F87DE074387EBE
:105290002075787E6075B87EA075F87E6074387F62
:1052A000A074787F3070B87FE075F87F207338463F
:1052B000008D888538462A304178027808022146D8
:1052C0001043603108853846808DC88438462E30BA
:1052D000417802780802104321466031C885388E33
:1052E00008863220385CFBF7F9F8BE49FAF7D8FF98
:1052F0002146E03148623320385C20763420385C27
:1053000060763520385CA0733620385CE073372037
:10531000385C20743A20385CB0733B20385CF07302
:10532000B88FE88138463E30417802780802104351
:1053300028824020C05BE88338464230417800E054
:1053400074E002780802104328844420C05BE8859A
:1053500038464630417802780802104328864820B3
:10536000C05BA88238464A30417802780802104370
:10537000A8844C20C05BA88638464E30417802781D
:105380000802104368825020C05B6884384652305F
:10539000417802780802104368865420395C9048AE
:1053A000C1755520385CA8815620395C8C488176BF
:1053B0006420385C30746520385C70746620385C1A
:1053C00030766720385C70766820395C0098017010
:1053D0006920395C009841706A20385CB0746B2099
:1053E000385CB0766C20395C009881707C486D2107
:1053F000017500207C4F0146B862774A5218C032CE
:10540000127ACB009A40491C1043C9B20429F4D344
:10541000B862207E754A7649030001F078F80B5691
:105420004E50525456585A5C5E6056000020A0728E
:105430006072012222736273E07420756275A27536
:105440006074A2743070FF23E0752D338B85822346
:105450000B854B23DB00CB846423CB850B86624911
:105460004862052121766176A7734B21E173032100
:1054700021741421B1735021F17330747074B074BD
:105480000A21E9811E272F820F276F82AB82307697
:105490007076B0761427EF832F846984AB84009FE5
:1054A00038707870B8701E20E885298605206886D7
:1054B000AB864B48AA8182769BE7104611E04D48A7
:1054C0000FE04D480DE04D480BE0084609E04C4820
:1054D00007E04C4805E04C4803E04C4801E03F2021
:1054E0000006B861607E030001F011F80B1907098E
:1054F0000B0D190F11131517190011460FE03D4937
:105500000DE03D490BE03D4909E03D4907E03D49DB
:1055100005E03D4903E03D4901E03F210906F9610D
:10552000607C002801D103202074207C002805D055
:10553000012808D0022823D0032826D0284801219A
:105540004172022103E026480321417204210172C5
:10555000786A4100090E1DD0002171713862207BEC
:1055600001282DD0607B01282AD00020E072A98973
:10557000002927D02648012929D0022927D124E053
:105580001748042141720521E1E715485F21417266
:105590006421DCE701207071FBF7FAF9FAF7A6FF46
:1055A0001C4A1D4BFAF7BAFEFAF7D6FF7862FAF7F3
:1055B000BFFF1A4A1A4BFAF7B1FEFAF7CDFFCDE753
:1055C0000120D3E71248BE3801E07D204001688108
:1055D000FEBD000010270000000300200008004866
:1055E0000000002000002041000100200AD7233CD9
:1055F000CDCC4C3D0AD7A33C8FC2F53C0AD7233D06
:10560000CDCCCC3DCDCC4C3E9A99993ECDCCCC3E28
:1056100056090000B4D934E70C684A3FCDCCCCCC55
:10562000CCCCF43F7047000010B501210022890264
:105630000148FDF774FA10BD0004004810B50122BE
:1056400091020248FDF76BFA10BD0000000400480B
:1056500010B5002204210248FDF761FA10BD0000D8
:105660000004004810B5012204210248FDF757FA52
:1056700010BD00000004004810B501210022C9023D
:105680000148FDF74CFA10BD0004004810B5012296
:10569000D1020248FDF743FA10BD000000040048A3
:1056A000FFB53748C17E002962D1014640390C461A
:1056B0006034077E637A0393A37A029340314E8F5E
:1056C0000246C98FC0320191118800910146E57AE6
:1056D000012280313B0000F01AFF0A3506080C1A3F
:1056E0001E2326282C35039B00E0029B012B28D08B
:1056F00028E0019B1E4325D1CB8F009C234321D062
:10570000039B012B1ED0029B012B1AD11AE0002E05
:1057100018D0CB8F13E0019B002B13D0009B0EE021
:10572000EB070ED10EE0AB0700E06B07002B08DBA8
:1057300008E0134B403BDB78012B03D1237A002B8D
:1057400000D14277437F002B12D0012B07D0022BD0
:1057500009D0032B0CD18B8D002B0AD00BE0CA8B08
:10576000CA84022103E0C98C002901D103214177B9
:10577000FFBD8B8C8B8500214177C276FFBD000079
:1057800040000020FFB53748017F002962D1014663
:1057900040390C466034477E637A0393A37A0293C0
:1057A00040314E8F0246C98FC0320191118800915D
:1057B0000146E57A012280313B0000F0A8FE0A355F
:1057C00006080C1A1E2326282C35039B00E0029B9A
:1057D000012B28D028E0019B1E4325D1CB8F009CB4
:1057E000234321D0039B012B1ED0029B012B1AD1F6
:1057F0001AE0002E18D0CB8F13E0019B002B13D0A2
:10580000009B0EE0EB070ED10EE0AB0700E06B074C
:10581000002B08DB08E0134B403BDB78012B03D166
:10582000237A002B00D18277837F002B12D0012BAB
:1058300007D0022B09D0032B0CD18B8D002B0AD063
:105840000BE00A8C0A85022103E0098D002901D1B1
:1058500003218177FFBD8B8C8B85002181770277B7
:10586000FFBD000040000020FEB53648C178002989
:1058700061D10246603A1146603106784C7A029452
:105880008C7A40320194548FD28F00920346A03319
:10589000CF7A1D88014601226031330000F037FEC7
:1058A0000A3506080C191D2326282C35029B00E01A
:1058B000019B012B28D028E0009B1C4325D1CB8FD6
:1058C0002B4322D0029B012B1FD0019B012B1BD10C
:1058D0001BE0002C19D0CB8F14E0009B002B14D0C0
:1058E000002D11D011E0FB070ED10EE0BB0700E048
:1058F0007B07002B08DB08E0124B603BDB78012BB9
:1059000003D1037A002B00D142714379002B12D0CE
:10591000012B07D0022B09D0032B0CD18B8F002B2E
:105920000AD00BE0CA8DCA86022103E0C98E002985
:1059300001D103214171FEBD8B8E8B870021417106
:10594000C270FEBD60000020FEB536480179002916
:1059500061D10246603A1146603146784C7A029431
:105960008C7A40320194548FD28F00920346A03338
:10597000CF7A1D88014601226031330000F0C7FD57
:105980000A3506080C191D2326282C35029B00E039
:10599000019B012B28D028E0009B1C4325D1CB8FF5
:1059A0002B4322D0029B012B1FD0019B012B1BD12B
:1059B0001BE0002C19D0CB8F14E0009B002B14D0DF
:1059C000002D11D011E0FB070ED10EE0BB0700E067
:1059D0007B07002B08DB08E0124B603BDB78012BD8
:1059E00003D1037A002B00D182718379002B12D06E
:1059F000012B07D0022B09D0032B0CD18B8F002B4E
:105A00000AD00BE00A8E0A87022103E0098F0029E1
:105A100001D103218171FEBD8B8E8B8700218171A5
:105A20000271FEBD60000020FFB53748C17C00292F
:105A300062D1014640390C466034077C637A039397
:105A4000A37A029340314E8F0246C98FC032019132
:105A5000118800910146E57A012280313B0000F077
:105A600056FD0A3506080C1A1E2326282C35039BE2
:105A700000E0029B012B28D028E0019B1E4325D18A
:105A8000CB8F009C234321D0039B012B1ED0029B74
:105A9000012B1AD11AE0002E18D0CB8F13E0019BF6
:105AA000002B13D0009B0EE0EB070ED10EE0AB07EE
:105AB00000E06B07002B08DB08E0134B403BDB7872
:105AC000012B03D1237A002B00D14275437D002B9B
:105AD00012D0012B07D0022B09D0032B0CD18B8BBA
