:020000040800F2
:1000000070050020CD000008FD1A0008A31A0008A2
:1000100000000000000000000000000000000000E0
:100020000000000000000000000000007B1B000832
:100030000000000000000000791B00087D1B000884
:10004000DF00000800000000DF000008DF000008FB
:10005000DF000008DF000008DF0000083D0900089D
:10006000000000000D070008DF000008DF000008A6
:10007000DF000008DF000008DF00000800000000CB
:10008000DF0000080000000000000000DF000008A2
:10009000DF000008E11B0008DF000008DF000008A7
:1000A000DF000008DF000008DF000008DF000008B4
:1000B000DF0000080448854600F0B6F90048004714
:1000C000951D0008C046C0467005002004488047C2
:1000D00004480047FEE7FEE7FEE7FEE7FEE7FEE72F
:1000E000851B0008B500000830B50B46014600200E
:1000F0002022012409E00D46D5409D4205D31D462E
:100100009540491B2546954040191546521E002D25
:10011000F1DC30BDF0B51FB40646002082B00546C4
:100120004024019100901BE0019922460F46304681
:1001300000F0C8F8049A059B801A994110D3104624
:100140001946224600F0AEF8361A8F410197224632
:1001500001200021009F00F0A5F838184D410090C3
:100160002046641E0028DFDC019B009829463246A9
:1001700007B0F0BDF0B51FB488B00B990998002402
:1001800048400999C00F490049080991C0070B99D7
:100190000090490049080B9109990898A646084320
:1001A0001CD00B990A98084318D0099801244000E4
:1001B000420D4800410D099824050003000B20431F
:1001C00009900B980003000B20430B9050181C491A
:1001D0004018002201901446104605E00020014618
:1001E0000DB0F0BD032801DA034600E003239C466E
:1001F000C11A0AAE0AE05F0008ADED5B4F00F75B85
:100200007D430027AA187C41491C5B1E6145F2DD35
:10021000410004AB5A522104120C0A43240C401C26
:100220000828DFDB01980290009970460191009048
:10023000059B049A0799069800F0A3F8D0E7000000
:100240000DFCFFFF0EB5C217C10F5040CA07401882
:100250000021054B0293019200910A460B4600F0E3
:1002600090F803B000BD000033040000CB0FDB07A3
:10027000490010B5490802460A4307D00A0D072471
:100280000903E401090B121B002A01DC002010BD48
:10029000C900440F0C43C100E018D205801800F0DB
:1002A00022F810BD10B5202A04DB0146203A914007
:1002B000002010BD914020239C1A0346E3401943BF
:1002C000904010BD10B5202A04DB0846203AD040EB
:1002D000002110BD0B46D340D0402024A21A9140EB
:1002E0000843194610BD002904DA401C490001D119
:1002F00040084000704770B40024050C05D110245C
:10030000000402D1002921D01124050E01D10002E0
:100310000834050F01D10001241D850F01D1800093
:10032000A41C002801DB4000641C002908D0202503
:100330002E1B0D46F540A14000D001212943084362
:1003400001061B1B000ADB1D02D5002070BC704794
:10035000DB05181880180029F8DA401C4900F5D18F
:1003600070BC40084000704710B5002B08DA00242C
:10037000401C614192185B411A4301D14008400082
:1003800010BDF0B51FB482B005460C0003D008467E
:1003900001F09EFC02E001F09BFC20300246009040
:1003A00021462846FFF77EFF049B059A04460F4628
:1003B00018431143084314D0184610431BD000982B
:1003C00040210A1A18460599FFF77CFF05460E469C
:1003D000009A05990498FFF765FF084305D00120AE
:1003E00004E02046394607B0F0BD0020C1170543A0
:1003F0000E432C43374300990E986305401A790544
:10040000E40A00220C43FD0A0A3002D5002001460E
:10041000E9E70105101969410C9C0D9D001969411E
:10042000FFF7A2FFDFE70000064C0125064E05E0BE
:10043000E36807CC2B430C3C98471034B442F7D305
:10044000FFF73CFEFC1E00081C1F000810B5224CE4
:1004500020482060204600F06FFB002836D10120A4
:100460008007606000202346012104220C33A06035
:1004700007C360762076A176FF22E076C232E26181
:100480002246206220321171A0620807E0622046F5
:1004900000F0A4FB002819D1204600F06BFA0028D8
:1004A00014D120460321403001600121090341603D
:1004B0000146403800F0B6FA002807D12146202234
:1004C000A031204600F0A2FC002801D000F04EFA36
:1004D00010BD0000002401404800002070B5044613
:1004E00000688168490720D58168102649070029DE
:1004F00005DA8168890702D481683143816000F0A0
:10050000D9FE05460DE000F0D5FE401B022808D9B3
:10051000A06B3043A063E06B01210843E063084611
:1005200070BD206880684007EDD4002070BD10B514
:100530000146406A826B50231A420AD1816B012224
:100540005202114381630168CA681205920F05D0F7
:1005500020E0006B026B0846904710BD827E002AA7
:1005600018D10A68120715D58A6853070122002B93
:1005700009DB4B680C24A3434B60816B1302994346
:100580001143816306E0816B202319438163C16BB2
:100590001143C16300F0CEFA10BD10B5406A816B03
:1005A000402211438163C16B04221143C16300F0F7
:1005B00013FB10BD10B5406A00F0BDFA10BDF8B5D0
:1005C0000446006881688907890F012928D10168DC
:1005D000C90702D1C168090422D5816805221140EA
:1005E0001025012601290FD1816802221143816063
:1005F00021680320086000F05DFE07460CE000F073
:1006000059FEC01B022807D9A06B2843A063E06BEA
:100610003043E0630120F8BD20688068C007EED158
:100620000020F8BDF8B504460020009020688168DD
:100630008907890F012905D10168C9072CD1C16833
:10064000090429D48168154A102611400125002982
:1006500015D1816829438160124811490068FFF76C
:1006600043FD00E0401E00900028FBD100F022FE78
:1006700007460CE000F01EFEC01B022807D9A06B45
:100680003043A063E06B2843E0630120F8BD20689D
:100690000068C043C007EDD10020F8BD17000080FE
:1006A00040420F003800002010B5054A4100515A61
:1006B000044A80001058012200F0F6FD10BD000031
:1006C000E61E00080000002008B50F48426901211D
:1006D00049040A43426142690A4000924269490062
:1006E0000A43426142690A400092426949000A4352
:1006F000426142690A400092426949000A434261EC
:1007000040690840009008BD0010024010B5024842
:10071000006B00F0F0FB10BD4800002010B504464F
:100720000068054940181421FFF7DEFC80002064B2
:100730000248E06310BD0000F8FFFDBF000002406A
:1007400030B5056C0124AC40C56B6C600468636017
:100750004368102B036803D099600068C26030BD05
:100760009A600068C16030BD7D2189014843074916
:1007700048610020886101220A610A69D30701D01B
:10078000D203FAD5086188617047000000E000E0FC
:1007900070B50C4D01221146284600F085FD0A4C2B
:1007A000A069FFF7E1FF01220221284600F07CFD4D
:1007B000A069FFF7D9FF00222021044800F074FD52
:1007C00070BD000000040048080000200008004838
:1007D00070B50C4D00220121284600F065FD0A4C41
:1007E000A069FFF7C1FF01220221284600F05CFD4D
:1007F000A069FFF7B9FF00222021044800F054FD52
:1008000070BD0000000400480800002000080048F7
:1008100070B5012220210B4800F046FD0A4CA0696A
:10082000FFF7A2FF094D00220221284600F03CFDFF
:10083000A069FFF799FF00220121284600F034FD4E
:1008400070BD0000000800480800002000040048B7
:1008500070B539480021C278012A5DD1C1700246C5
:10086000037856781289002B02D0012B0DD053E06B
:10087000002E03D0012E03D0022E04D0418100E0CF
:100880004281818148E0418145E02B4C01230225D2
:10089000E479002E04D0012E2CD0022E3CD12EE083
:1008A0008278012A02D0022A0BD021E042894282BA
:1008B0004181002A01D003711AE0017141718171F7
:1008C00016E01D4A012C928902D0022C08D00EE0BD
:1008D0008282002A01D0437109E04171C57106E0AE
:1008E0008282002A01D0837101E08171C37181810C
:1008F000817011E08370017141718171C0E7857071
:1009000041810379012B06D00B4A012C928A09D030
:10091000022C0CD000E08281428983891A4300D1E5
:10092000417070BD4379002BF5D1C289F3E783791B
:10093000002BF0D1028AEEE70800002010B50A492A
:100940004869C00501D588150CE04869000604D542
:100950008020486100F0E8FB10BD48698005FBD5A8
:10096000012040024861F5E7000401400020FFF744
:100970009BFEFEE7F8B5054604462035287D002697
:10098000012808D001202875206881688907890F0F
:10099000012908D101E00220F8BD0168C90738D15A
:1009A000C168090435D4A16BFF22013291430222B0
:1009B0001143A163C1688907890F0091C168890843
:1009C0008900C1602068816892071143816000F04E
:1009D00071FC07460EE000F06DFCC01B022809D92F
:1009E000A06B0221884310210843A06300202875D2
:1009F0000120F8BD206880680028ECDB2068C16811
:100A0000009A1143C160A06B80088000401CA06365
:100A100004E0A06B20210843A06301260020287574
:100A20003046F8BDF8B50025044620340095227DF7
:100A3000012A39D00122227503689E68760767D49F
:100A4000384F4E68BE424DD09E6A0F78BA4016436A
:100A50009E620123C26A1B079A421FD0012A1DD041
:100A6000022A1BD0032A19D0042A17D0052A15D030
:100A7000062A13D0072A11D002688B6856697607B8
:100A8000760FB3420AD05369DB08DB00536100687C
:100A900042690B7A5B075B0F1A4342610A68102AAE
:100AA00004D0112A02D038E00220F8BD1E48836825
:100AB000102A07D00122920513438360086810288A
:100AC00003D02AE00122D205F6E719481749006849
:100AD000FFF70AFB0A21484300E0401E009000286F
:100AE000FBD11AE0986A0E78B24090439862096888
:100AF000102901D0112910D10B488268102904D087
:100B0000012189058A43826007E00121C905F9E7CF
:100B1000816B202211438163012500202075284626
:100B2000F8BD0000011000000027014040420F0006
:100B3000380000207047704770B504003BD0A06BB0
:100B400002210843A0632046FFF7C8FC00260546A3
:100B5000002832D0012D2AD021684A689F20824384
:100B60004A60216808602068C168184A1140C16065
:100B70002068016989008908016120684169C90804
:100B8000C90041612068016A114A11400162206870
:100B9000816AC90CC90481620E48816803229205EA
:100BA00091438160204600F0D5F8E663A6632034C7
:100BB0002675284670BD012070BD2046FFF7FFFC5A
:100BC00005460128F3D00120A063C5E700023E835B
:100BD00000F000F00027014070470000F8B5002643
:100BE0000446002805D0A06B25462035002802D0F9
:100BF00007E00120F8BD0020E0632875204600F0E2
:100C0000BDF8A06B1022C006002870DB2068816848
:100C100049076CD4A16B1301994302231943A163C3
:100C200081688907890F012905D10168C9070FD19A
:100C3000C16809040CD4C16818239943A3681943F7
:100C4000C1602068016963688900890819430161EE
:100C50002068C1683D4B1940C160207E617E8003E1
:100C6000C9030843A17E4B031843A36A012B02D09A
:100C700001231B0300E000231843E36818432369A2
:100C8000022B09D0002318432B79E57E5B00184323
:100C90000123012D02D00AE00423F4E7002927D024
:100CA000A16B20252943A163E16B1943E163E1694D
:100CB0000D46FF3DC23D02D0256A29430843216805
:100CC000CD680543CD600125E16A2D07A94213D007
:100CD000012911D002290FD003290DD004290BD0EE
:100CE000052909D0062907D0072905D010E028E0FA
:100CF000012109040843DAE721684D69ED08ED0098
:100D00004D6121684D69A78D7F077F0F3D434D6180
:100D10002168C9680E4D2940814207D10020E06357
:100D2000A06B80088000401CA06308E0A06B02213B
:100D300088431043A063E06B1843E063012630460C
:100D4000F8BDA06B1043A063F8E700001902FEFF96
:100D5000E7FF3F8310B50848C26841150A43C260E7
:100D6000C2688A43C26082698A4382610920012184
:100D7000C00600F06FF910BD0010024070B52049A8
:100D800086B04A6905460120400402434A614A6927
:100D9000024005928A69001202438A618A69024010
:100DA00005924A69012002434A61496900260140CF
:100DB0000591009003200190092069460296C00623
:100DC00000F0CEF90F48104C41C4802026606060CE
:100DD0004000A0608000E06020202061C0016061D0
:100DE0000948083C00F062F8204600F0D3F82C6374
:100DF000002203210920656200F0AAFA06B070BD46
:100E0000001002400800024028010020F7B5044607
:100E100000680025806840073DD426462036307D96
:100E200001280AD001273775607E012807D02046A7
:100E3000FFF7F8FB050002D02EE00220FEBDA06BFC
:100E400016490840FF2101310843A0630020E063F8
:100E50003075216B12488862216B1248C862216B81
:100E60001148086321681C2008602068416810222E
:100E7000114341602068C1683943C1602168206B1B
:100E80004031029B019A00F0AFF82068816804228B
:100E90001143816000E002252846FEBDFEF1FFFF00
:100EA0002F050008B50500089B05000870B5040073
:100EB0001FD02068016849084900016020680025AA
:100EC000056020684560206885602068C560204610
:100ED000FFF724FC216C01208840E16B4860A5628B
:100EE000E56225636563A563203465702570002085
:100EF00070BD012070BDF0B4C16B0D6801680C6855
:100F00000422066C1346B3402B420DD063070BD569
:100F10000B689B0602D40B6893430B60016C8A40FC
:100F2000C16B4A60C16A19E00227B74002462F40F0
:100F300001232032002F15D0A70713D50C68A40673
:100F400004D40C680A25AC430C605370036C022176
:100F50009940C36B596000211170816A002916D035
:100F6000F0BC08470827B7402F4210D024070ED501
:100F70000C680E25AC430C60046C1946A140C46B90
:100F800061608363537000211170016BE6E7F0BC70
:100F90007047000070B5040021D0022120462030A7
:100FA00005464170226811680E48A36801406068D8
:100FB00026691843E3683343184363691843A369F8
:100FC0001843E3691843084310602046FFF7A6FB67
:100FD0000021A163012068702970084670BD0120BE
:100FE00070BD00000FC0FFFFF8B504468C462030EE
:100FF00001780025012909D00126067041780027D3
:10100000012905D0077002252846F8BD0220F8BD49
:1010100002214170A7632068016849084900016006
:1010200061462046FFF78CFBE06A002820680168D3
:1010300002D00E22114306E00A221143016020680B
:101040000168042291430160206801683143016016
:10105000DAE70000F0B5002258E0012393401C4677
:101060000C4052D096082B4DB6007519AF68AC46AF
:1010700095072E0F0F25B540AE463D400927FF06C8
:10108000B84201D100270FE0234FB84201D1012718
:101090000AE0224FB84201D1022705E0204FB842B2
:1010A00001D1032700E00527B740AF4212D11D4D03
:1010B0002E68A6432E606E68A6436E60AE68A64397
:1010C000AE60EE68A643EE606546AD687446A54323
:1010D0006446A560056856000324B440A543056036
:1010E000D508AD002D182E6AAC465507EF0E0F251A
:1010F000BD40AE4365462E628568A5438560456860
:101100009D434560C368A343C360521C0B46D34054
:10111000A3D1F0BD000001400004004800080048D1
:10112000000C00480004014001220C4980280DD029
:101130000B465B78FF38401E0BD0FF38012804D1E6
:10114000002B02D1CA70022048707047CA7000207C
:10115000FAE7002BF9D1CA704A70704708000020E6
:10116000F8B500238DE001249C40A44622407DD0A8
:101170004C68022C01D0122C0CD1DC08A4002718DA
:101180003C6A5D07ED0E0F26AE40B4430E69AE40DB
:1011900026433E6205685E000324B4400F79A543F0
:1011A000BF07BF0FB7402F4307604D68012D05D023
:1011B000022D03D0112D01D0122D0ED18568CF68DC
:1011C000A543B7402F43876047686546AF430D7915
:1011D000ED06ED0F9D403D434560C568A5438C6815
:1011E000B4402C43C4604C68E40049D5284CA56940
:1011F00001263543A561A4699D0834400094254C1F
:10120000AD002F19BC689D072E0F0F25B540AC43CC
:101210000925ED06A84201D100250FE01E4DA84288
:1012200001D101250AE01D4DA84201D1022505E0AA
:101230001B4DA84201D1032500E00525B5402543FB
:10124000BD60184C25684E689543F60300D51543DC
:10125000256065684E689543B60300D51543656003
:10126000A5684E689543F60202D500E008E01543F4
:10127000A560E5684E689543B60200D51543E56064
:101280005B1C0A681446DC4000D06CE7F8BD000027
:10129000001002400000014000040048000800481F
:1012A000000C004800040140002A01D08161704711
:1012B0008162704701488068704700003C00002050
:1012C0000248816802788918816070473C000020DC
:1012D00010B506480168102211430160032000F098
:1012E00007F800F027F8002010BD000000200240A1
:1012F00070B504460D4D7D202978C000FEF7F4FE40
:1013000001460B480068FEF7EFFE00F0ADFA00283A
:1013100009D1042C07D200222146401E00F018F803
:1013200000206C6070BD012070BD00003C000020FA
:101330003800002070470000002805DBC106C90EF8
:1013400001208840014908607047000000E100E08A
:1013500010B500F0EDFC10BDF8B50F46060059D0F1
:101360003A4D2868C007C00FB84209D22868400823
:101370004000384328602868C007C00FB84249D1F0
:101380003068334C81070CD5400704D560680721CD
:101390000902084360606068F0218843B16808432F
:1013A00060603078C00726D0706801280ED02168B0
:1013B00002280ED0890700292CDA61688908890083
:1013C00001436160FFF776FF00900DE0216889031B
:1013D000F1E78901EFE7FFF76DFF0099411A1D481A
:1013E000814201D90320F8BD60680C210840716872
:1013F00089008842EFD12868C007C00FB8420BD9D6
:10140000286840084000384328602868C007C00F9B
:10141000B84201D00120F8BD3078400706D5606899
:10142000072109028843F1680843606000F018F85A
:101430006168094A0906090F515CC84007490860FC
:101440000320FFF755FF0020F8BD000000200240F8
:101450000010024088130000EA1E00083800002037
:1014600010B514A30FCB88B06C460FC415A30FCBD7
:101470000FC4184A51680C200B4603401648042B31
:1014800016D0082B14D18B021B0F6C46E45CD26A79
:1014900004AB1207120F9A5CC90305D50023194645
:1014A000FEF738FE214601E020460C4900F027FCFB
:1014B00008B010BD02030405060708090A0B0C0D4D
:1014C0000E0F10100102030405060708090A0B0C91
:1014D0000D0E0F100010024000127A0000093D00AE
:1014E000FEB5040070D02078DC4DC0074AD0686893
:1014F0000007800F012807D068680007800F0228C6
:1015000009D16868C00306D5286880033AD56068A9
:101510000028E7D036E06168012914D0012080045A
:10152000002901D0052914D02A68012109048A4321
:101530002A602968814329606068002816D0FFF777
:10154000B9FE06460EE02868012109040843286018
:10155000F2E7296801432960F5E7FFF7ABFE801B3E
:1015600064286ED828688003F7D50BE0FFF7A2FE49
:10157000064604E0FFF79EFE801B6428F1D8286829
:101580008003F7D420780126800700283CDA6868B9
:101590000007800F07D068680007800F022809D174
:1015A0006868C00306D42868800716D5E06801285B
:1015B0000AD112E0E0680028286816D0304328607D
:1015C000FFF778FE074605E043E1FFF773FEC01B17
:1015D0000228C6D828688007F7D52868F8218843EC
:1015E0002169C900084328600EE0400840002860D7
:1015F000FFF760FE074604E0FFF75CFEC01B022811
:10160000AFD828688007F7D42078000722D5E06992
:101610000028686A0ED030436862FFF74BFE074629
:1016200004E0FFF747FEC01B02289AD8686A8007CB
:10163000F7D50FE0400840006862FFF73BFE074621
:1016400005E09DE0FFF736FEC01B022889D8686AD6
:101650008007F7D4207804274007002860DA0020AC
:101660000190E869C00008D4E969B8060143E9615E
:10167000E969014001200091019079480168C9059C
:1016800011D40168821511430160FFF713FE009029
:1016900005E0FFF70FFE0099401A642870D87048E3
:1016A0000068C005F5D5A06801280AD0002801D03F
:1016B000052810D0286A400840002862286AB843EC
:1016C00001E0286A30432862A068002812D0FFF7A2
:1016D000F1FD00900AE0286A38432862F1E7FFF73D
:1016E000E9FD0099411A5F48814249D8286A80077C
:1016F000F5D50DE0FFF7DEFD009006E0FFF7DAFD1F
:101700000099411A574881423AD8286A8007F5D48F
:101710000198002804D0E969012000078143E961AC
:101720002078C00635D5606901280CD0401D686B53
:1017300023D038436863686B400840006863FFF754
:10174000B9FD064622E0686B38436863686B304336
:101750006863FFF7AFFD064604E0FFF7ABFD801BB3
:1017600002285BD8686B8007F7D5686BF82188433F
:10177000A169C900084368630BE0B8436863F4E7F4
:101780004CE0FFF797FD801B022847D8686B800765
:10179000F7D4206A00285ED069680907890F0229FA
:1017A00042D0012636060228286805D0B0432860BA
:1017B000FFF780FD044633E0B0432860FFF77AFD71
:1017C000074604E0FFF776FDC01B022826D82868EC
:1017D0008001F7D4E86AE16A000900010843E86281
:1017E000616AA06A084369683D2212049143084374
:1017F0006860286830432860FFF75CFD044604E019
:10180000FFF758FD001B022808D828688001F7D58B
:1018100021E0FFF74FFD001B022801D90320FEBD88
:1018200028688001F5D416E00128F8D06868E96AD4
:1018300001221204636A02409A420AD10907E26A4D
:10184000090F914205D10F2189040840A16A8842FD
:1018500001D00120FEBD0020FEBD000000100240AE
:101860000070004088130000094910B5401E8842EE
:1018700001D9012010BD074C60610321081F00F051
:1018800057FA0020A06107202061002010BD000051
:10189000FFFFFF0000E000E07047704770B50400F4
:1018A00005D025462035687F002802D006E00120BB
:1018B00070BD00202877204600F00AF802206877E3
:1018C000211D206800F09AF901206877002070BD82
:1018D00008B509488269012149040A438261806987
:1018E00001220840009003211520FFF731FD15204B
:1018F000FFF722FD08BD0000001002400268D36817
:1019000001210B43D360006882685207520F062AF8
:1019100002D002680A43026000207047704770B529
:101920000446006801690025C9438907002915DBC1
:10193000C168C943890711D4E91E016101202077DC
:10194000206880698007204602D0FFF7E7FF04E0A7
:1019500000F096F8204600F094F825772068016999
:10196000C943490717D4C168C943490713D404219F
:10197000C943016102202077206880698005800FBB
:10198000204602D0FFF7CAFF04E000F079F82046B5
:1019900000F077F8257720680169C943090716D454
:1019A000C168C943090712D40821C9430161042051
:1019B00020772068C0698007204602D0FFF7AEFF7D
:1019C00004E000F05DF8204600F05BF82577206821
:1019D0000169C943C90617D4C168C943C90613D4EC
:1019E0001021C9430161082020772068C069800563
:1019F000800F204602D0FFF791FF04E000F040F88E
:101A0000204600F03EF8257720680169C943C907E0
:101A100008D1C168C943C90704D1891E01612046A4
:101A200000F030F820680169C943090609D4C1688B
:101A3000C943090605D48021C94301612046FFF747
:101A40002BFF20680169C943490609D4C168C9430D
:101A5000490605D44021C9430161204600F020F821
:101A600020680169C943890609D4C168C943890648
:101A700005D42021C94301612046FFF70EFF70BD48
:101A80007047704710B5054C608900F0B1F860816F
:101A9000A08900F0ADF8A08110BD00000800002072
:101AA0007047FEE770B5124C012060600220A06014
:101AB0000320E0600F4D206021462846FFF750FBD1
:101AC0002020214620600C4C2046FFF749FB0122D4
:101AD00020212046FFF7E8FB002201212846FFF7DE
:101AE000E3FB002202212846FFF7DEFB70BD000069
:101AF000D40000200004004800080048704700009F
:101B000010B51C4CA18920464089002901D000282D
:101B100009D12278002A02D0002802D10CE0002846
:101B200002D0FEF755FE10BD002902D0FEF730FEB0
:101B300010BDFEF76DFE10BD0029F7D1FEF768FE5F
:101B4000A178002001290CD00229F4D1A0702279BB
:101B50000121012A08D0E279012A04D0022A03D007
:101B600003E0A07001E00221E17120716071A071B9
:101B700010BD0000080000207047704710B5FFF747
:101B80009FFB10BD134801680122114301604168A9
:101B9000114A114041600168104A1140016001681A
:101BA000012292049143016041683F221204914353
:101BB0004160C16A09090901C162016BFF22143247
:101BC00091430163416B49084900416300218160F1
:101BD00070470000001002400CB8FF08FFFFF6FE3F
:101BE00010B50248FFF79BFE10BD000094000020D6
:101BF000C1B2002801D0491EC8B27047F0B50268D2
:101C00001A4B1B4C984201D0A04203D17025AA4325
:101C10004D682A43174D184E184F98420AD0A042DB
:101C200008D0174CA04205D0A84203D0B04201D042
:101C3000B84205D11446032212029443CA682243D3
:101C40008024A2434C69224302608A68C2620A6807
:101C50008262984205D0A84203D0B04201D0B84277
:101C600001D10969016301214161F0BD002C0140EE
:101C70000004004000400140004401400048014091
:101C80000020004010B50E487D21C9000068FEF715
:101C90002BFA0C49401EC8610C490B4A0A606322AA
:101CA000CA60486000200861102248618A6088612B
:101CB0000846FFF7F3FD002801D0FEF757FE10BDE0
:101CC000380000200800002000440140940000205B
:101CD0002021020C01D010211046020A01D010462A
:101CE0000839020901D01046091F820801D01046A8
:101CF000891E420801D0881E7047081A7047F8B53F
:101D0000040C8BB2264682B25E430D0C1046370C93
:101D10005843360480190021794116466E43370C2A
:101D200036048019794126466E438919F8BD0000B2
:101D30008307FF22DB0E9A408907090E994000288D
:101D400008DB830809489B001B1818689043084368
:101D5000186070470007000F0838830804489B008C
:101D60001B18D86990430843D861704700E400E02D
:101D700000ED00E002E008C8121F08C1002AFAD1F5
:101D800070477047002001E001C1121F002AFBD1FB
:101D90007047000090B0FFF79BFA002405200094E4
:101DA000C00402250A90099408950B946846FFF731
:101DB00097FB002800D0FEE707200C900E9401212D
:101DC0000D950F940CA8FFF7C7FA002800D0FEE786
:101DD000FEF73CFB3A4842690121C9040A434261CB
:101DE0004069029408400590364801900720C001E0
:101DF000009069463448FFF7B3F90022022107201A
:101E0000FFF7A6FAFFF73EFFFEF75EFCFFF74AFE7C
:101E10002E4803218560C1602D49012642C02D4D09
:101E20002A492846FFF79CF90022B1022846FFF70D
:101E30003BFA0022F1022846FFF736FA002204217D
:101E40002846FFF731FA244D6C81AC812889E98955
:101E5000401A2882EE710720FFF76EFA0920FFF77B
:101E60006BFAFEF7D5FCFF20F530FEF77DFC174836
:101E70004038FFF743FD002801D0FEF777FD134EF1
:101E80001436FEF7E5FCFFF73BFE2C6221462046A8
:101E90006C624A00B25A491C10181F29F9DD6962A8
:101EA000C1172862C90E08184011A862FEF7CAF9C6
:101EB0000A4A0B4BFEF75EF9FEF7D8F9E862E0E755
:101EC000001002400000211000080048D40000204B
:101ED000040C0000000400480800002066666666E6
:101EE00066664A3F070020008003000000000000F3
:101EF0000000010203040607080900001C1F000877
:101F00000000002048000000741D0008641F000845
:101F10004800002028050000841D0008000000483B
:101F200000080048010000000000000064000000FC
:101F30000000460000000000000000000A00000051
:101F40000000000000000000000000000000000091
:101F50000000000000127A000100000004000000F0
:041F6000000000007D
:04000005080000B53A
:00000001FF
