:020000040800F2
:1000000080080020CD000008E93F0008633C00089C
:1000100000000000000000000000000000000000E0
:10002000000000000000000000000000C5590008AA
:10003000000000000000000011510008395A0008BB
:10004000DF00000800000000DF000008DF000008FB
:10005000DF000008DF000008551B0008711B0008C6
:100060000000000059130008DF000008DF0000084E
:10007000DF000008DF000008DF00000800000000CB
:10008000DF0000080000000000000000DF000008A2
:10009000DF000008295B0008855B0008DF0000081E
:1000A000DF000008DF000008DF000008DF000008B4
:1000B000DF0000080448854600F01EFC00480047A9
:1000C000FD680008C046C0468008002004488047FC
:1000D00004480047FEE7FEE7FEE7FEE7FEE7FEE72F
:1000E000815A0008B500000830B50B4601460020D3
:1000F0002022012409E00D46D5409D4205D31D462E
:100100009540491B2546954040191546521E002D25
:10011000F1DC30BDF0B51FB40646002082B00546C4
:100120004024019100901BE0019922460F46304681
:1001300000F0D0F9049A059B801A994110D310461B
:100140001946224600F0B6F9361A8F410197224629
:1001500001200021009F00F0ADF938184D410090BA
:100160002046641E0028DFDC019B009829463246A9
:1001700007B0F0BDF8B502464A40D40F42004B002C
:1001800052085B089A4202D20246084611464A00CB
:1001900023D0C30D4A00DDB2120EAD1A202D35DA80
:1001A00049020126490AF6058A19002C00D052425C
:1001B00020214F1B1146B9402A411018C20D9A4206
:1001C00021D0002C17D0012D08DCDA05801AD20FBF
:1001D0008019D207DBB200F096F9F8BDDA05801A73
:1001E000012340001B06C01880185A428018CA0F0D
:1001F0001043490007E04908C2071143DA05801A95
:1002000080194008801800F076F9F8BD61000122DD
:10021000511A001BF7E70122D2075140AAE7012239
:10022000D2075040A6E7024670B54A40D30FDB071D
:1002300040002DD04A002AD0010E140E00021202F6
:100240000919400A520A8418E50104465443000A79
:10025000120A2E045043A4194219200CC543AA18AF
:10026000120C0125AD03521C521912047F392404CB
:1002700000D0521C104301D44000491EC2B20C06EB
:10028000C0092018401C4008802A02D003E000204A
:1002900070BD40084000002900DA0020184370BDFE
:1002A00070B502464A40D50F40004A00ED074008AD
:1002B0005208002814D0002A12D0C40DD30D4102D8
:1002C0000120C0055202490A520AE41A09181218FC
:1002D0007D34914201D3641C00E04900002C01DA16
:1002E000002070BD0023914201D3891A03434008C6
:1002F00049000028F7D100290AD0914202D10121FA
:10030000C90705E0914201D2012101E00121C94361
:10031000E005C018401900F0EEF870BDF0B51FB44C
:1003200088B00B990998002448400999C00F4900EA
:1003300049080991C0070B990090490049080B91A1
:1003400009990898A64608431CD00B990A980843B7
:1003500018D0099801244000420D4800410D099829
:1003600024050003000B204309900B980003000BA9
:1003700020430B9050181C4940180022019014464D
:10038000104605E0002001460DB0F0BD032801DA5B
:10039000034600E003239C46C11A0AAE0AE05F0050
:1003A00008ADED5B4F00F75B7D430027AA187C4149
:1003B000491C5B1E6145F2DD410004AB5A52210429
:1003C000120C0A43240C401C0828DFDB0198029021
:1003D0000099704601910090059B049A0799069830
:1003E00000F0D7F8D0E700000DFCFFFF10B50022A9
:1003F0009623114600F087F810BD00000EB50549A0
:100400000291002100910A460B46019100F0C1F8CB
:1004100003B000BD33040000410040020122400A45
:10042000D205090E80187F2901DA0020704796292D
:1004300003DC9622511AC8407047963988407047AD
:10044000C20FD207400040080BD0C10D0723DB01CB
:10045000C91840020905400A1143C2084007114368
:100460007047002001467047CB0FDB07490010B5ED
:10047000490802460A4307D00A0D07240903E4018C
:10048000090B121B002A01DC002010BDC900440F1B
:100490000C43C100E018D205801800F02CF810BD04
:1004A0000122D207002800DB101A002900DB511AB4
:1004B0008142704710B5202A04DB0146203A914062
:1004C000002010BD914020239C1A0346E3401943AD
:1004D000904010BD10B5202A04DB0846203AD040D9
:1004E000002110BD0B46D340D0402024A21A9140D9
:1004F0000843194610BD002904DA401C490001D107
:1005000040084000704770B40024050C05D1102449
:10051000000402D1002921D01124050E01D10002CE
:100520000834050F01D10001241D850F01D1800081
:10053000A41C002801DB4000641C002908D02025F1
:100540002E1B0D46F540A14000D001212943084350
:1005500001061B1B000ADB1D02D5002070BC704782
:10056000DB05181880180029F8DA401C4900F5D17D
:1005700070BC40084000704710B5002B08DA00241A
:10058000401C614192185B411A4301D14008400070
:1005900010BDF0B51FB482B005460C0003D008466C
:1005A00005F0DAFC02E005F0D7FC203002460090AE
:1005B00021462846FFF77EFF049B059A04460F4616
:1005C00018431143084314D0184610431BD0009819
:1005D00040210A1A18460599FFF77CFF05460E468A
:1005E000009A05990498FFF765FF084305D001209C
:1005F00004E02046394607B0F0BD0020C11705438E
:100600000E432C43374300990E986305401A790531
:10061000E40A00220C43FD0A0A3002D500200146FC
:10062000E9E70105101969410C9C0D9D001969410C
:10063000FFF7A2FFDFE70000F0B507460846584085
:1006400087B0C00F049048000E4659004008490882
:10065000BC1A884105D2384631461E4617460B461D
:1006600002465800400810434DD0300D039040051D
:100670005900400D490D0590401A0290402873DA48
:1006800018030121000B090508430190049800920A
:10069000002806D01146019A49420020904100915D
:1006A0000190029840210A1A01990098FFF702FF71
:1006B00005460C466B4607CB00F030F9C019714176
:1006C000039A0E0D0023D71756401A467A40164358
:1006D00044D0049A002A2DD0029A012A039A15DCEC
:1006E0001205C01A914101263605001C7141D20F36
:1006F000059ED2070093019202962A462346FFF7F1
:1007000048FF07B0F0BD38463146FAE71605234AE0
:100710000F46B218C01AB74101210905001C4F410C
:1007200000187F41114618187941E20F10436D19E6
:10073000644113E0E2076D0815436408C2071443DF
:10074000039A01261205C01A91413605001C714119
:10075000CE07400830434908C01851412A46234675
:10076000FFF70AFFCDE7FFE7049801224000C11719
:10077000121A00238B4104983146C417381AA1413C
:10078000EEE730B40124E407634030BC54E730B4F2
:100790000124E407614030BC4EE700000000E0FFA8
:1007A000F0B50C465C4085B0E40FE40703944C00C0
:1007B00000266408590094464908024602962243DE
:1007C00021D062460A431ED06200570D4A000E0334
:1007D0002303550D012402462C492405781B1B0BCD
:1007E000360B401823432643614600901C46501A9E
:1007F000B44103D30098401C009002E09218009886
:100800005B41002803DA0020014605B0F0BD00205E
:10081000012109050746864611E064461D46141B62
:10082000B54106D36546521BB341744607430C439A
:10083000A646CD0740084908284392185B41054663
:100840000D43EAD11046184313D060461946504074
:100850007140084306D06046101AB34106D2012207
:10086000002306E000220123DB0702E00122D2433D
:100870005310009874460105381C6141029C039D89
:1008800000196941FFF778FEBFE70000FD03000093
:100890004A0009030123090B1B0519430A4B10B534
:1008A000520D9A4202DA0020014610BD064B343345
:1008B0009A4203DC9A1AFFF70DFE10BD034BD218C3
:1008C000FFF7F8FD10BD0000FF030000CDFBFFFFA8
:1008D00010B5002904DB0124E40740428C41214685
:1008E000002B04DB1C460123DB075242A341994243
:1008F00000D1904210BD0000064C0125064E05E0D7
:10090000E36807CC2B430C3C98471034B442F7D330
:10091000FFF7D4FB806C0008A06C000810B5202AFB
:1009200006DBCB170846203A1041C1170B4306E0FF
:100930000B461341D0402024A21A91400843194687
:1009400010BD30B58C180278401C13071B0F01D165
:100950000378401C120906D10278401C03E0057898
:100960000D70401C491C5B1EF9D101E00B70491C45
:10097000521EFBD1A142E6D3002030BD0021064A21
:1009800008464300D35A401C591880B21F28F8D992
:10099000C802000C70470000F803002010B5234C7B
:1009A00021482060204601F055FA002800D0FEE7DB
:1009B00001208007606000202346012104220C33BF
:1009C000A06007C360762076A176FF22E076C2326F
:1009D000E261164A206220321171A0620807E062CB
:1009E000124801F089FA002800D0FEE70F4801F014
:1009F0004FF9002800D0FEE70C4803214030016089
:100A00000121090341600146403801F099F90028AD
:100A100000D0FEE720220649044801F085FB0028AB
:100A200000D0FEE710BD0000002401404C01002072
:100A3000F803002070B5044600688168490720D596
:100A4000816810264907002905DA8168890702D4E0
:100A500081683143816001F0CFFF05460DE001F070
:100A6000CBFF401B022808D9A06B3043A063E06B8A
:100A700001210843E063084670BD20688068400794
:100A8000EDD4002070BD10B50146406A826B502342
:100A90001A420AD1816B012252021143816301681B
:100AA000CA681205920F05D020E0006B026B084661
:100AB000904710BD827E002A18D10A68120715D50A
:100AC0008A6853070122002B09DB4B680C24A343DF
:100AD0004B60816B130299431143816306E0816B84
:100AE000202319438163C16B1143C16301F0B0F945
:100AF00010BD10B5406A816B402211438163C16B08
:100B000004221143C16301F0F5F910BD10B5406A2C
:100B100001F09FF910BDF8B50446006881688907A7
:100B2000890F012928D10168C90702D1C1680904C8
:100B300022D58168052211401025012601290FD1F7
:100B4000816802221143816021680320086001F05E
:100B500053FF07460CE001F04FFFC01B022807D9E6
:100B6000A06B2843A063E06B3043E0630120F8BD35
:100B700020688068C007EED10020F8BDF8B50446B3
:100B800000200090206881688907890F012905D11C
:100B90000168C9072CD1C168090429D48168154AA4
:100BA000102611400125002915D181682943816053
:100BB000124811490068FFF797FA00E0401E0090C4
:100BC0000028FBD101F018FF07460CE001F014FFEC
:100BD000C01B022807D9A06B3043A063E06B2843F9
:100BE000E0630120F8BD20680068C043C007EDD174
:100BF0000020F8BD1700008040420F00380100209F
:100C0000FEB55C484079012820D15A4860300189FE
:100C1000019100291AD041890091002916D005467A
:100C20000446403D803C2A7927466037217C0026D7
:100C3000130005F0C0F90504134467920B00028D00
:100C4000002A04D0012028712674A673FEBD012954
:100C5000FCD180890028F9D12674FEBD0446008DA0
:100C60000028FAD1434E288E7F21C905E03600289E
:100C70000FD0F068FFF77EFA074670620198FFF721
:100C8000B5FB3946FFF7CFFAFFF7C6FBE087022036
:100C900011E0688E00280FD03069FFF76BFA074625
:100CA00070620098FFF7A2FB3946FFF7BCFAFFF726
:100CB000B3FBE087032028710A206085FEBD2D4824
:100CC0006030408D0028F9D1FFF758FE2949603186
:100CD000CA8F904203D3A07B401CA07300E0A67390
:100CE000A07BE27B90420AD304202871012020746B
:100CF000642088812E866E868E85062027E02674E5
:100D0000032028E0E978022931D01A486030408D6C
:100D10000028D3D1FFF732FE16496031CA8F9042C6
:100D200003D3A07B401CA07300E0A673A07BE27BF2
:100D300090420ED10420287101208885AA8E002AB5
:100D4000BCD0022222742E866E86888507203871D8
:100D5000FEBD267401204885FEBD828D002AFBD190
:100D6000012904D0022902D1408B28866E862E717B
:100D7000FEBD000020000020F8B5012149032E48E7
:100D800001F02EFE2D4F3C46603C21462546203189
:100D900080353873012809D1787B002806D1C87ABC
:100DA000002803D00120A070688C2880887E00284D
:100DB00035D1224EC87A203E01280DD002282ED1EE
:100DC000C87800282BD16079002805D170780128D7
:100DD00006D0B07801280BD0A078012812D01EE0F0
:100DE00017A005F0A9F8688C28800120A07016E0F3
:100DF0001BA005F0A1F8688C28800120A0700020BD
:100E0000B0700CE02888002809D11DA005F094F8E6
:100E100021A005F091F80020A070688B70862888CA
:100E2000401E312804D2387B012801D108203871B6
:100E3000387B7873F8BD0000000400486000002093
:100E40000A0DA6DBB0CAC3F6AAF9BA58BCD0312045
:100E50002620B5A5ABDDAEC9B6A1B35DA5DF000008
:100E60000A0DA6DBB0CAC3F6AAF9BA58BCD0322024
:100E70002620B5A5ABDDAEC9B6A1B35DA5DF0000E8
:100E80000A0DA6DBB0CAC3F6AAF9B5A5ABDDAEC99B
:100E9000B6A1A8ECB94600000A0DC3F6AAF9AEC97E
:100EA000B6A1B35DA5DF000010B5FF210920002227
:100EB0000131C00601F099FD10BD10B501220920D5
:100EC0001102C00601F091FD10BD0000F8B5834C81
:100ED00032252779264662796036217AA0793B004F
:100EE00005F069F809F506233A576E98A8CEF50083
:100EF000002A04D0002808D0FFF7DFFF09E0A57121
:100F00000820F08601206071F6E7002901D0FFF784
:100F1000CBFFF08E002801D120716071A0790028EC
:100F200002D1E079002868D1D3E0002A74D1FF20F3
:100F3000A5712D3075E0FFF7C0FF03E0002901D057
:100F4000FFF7B2FFF08E002870D0A079002802D100
:100F5000E079002851D1B1E0002A04D0002809D05E
:100F6000FFF7ABFF0AE01420A0716420F086012097
:100F70006071F5E7002901D0FFF796FFF08E002899
:100F800001D120716071A07900286DD06FE014202C
:100F900092E0002A04D0002806D0FFF78EFF07E079
:100FA000A57101206071F8E7002901D0FFF77CFFEF
:100FB000A07A0128C9D1002020716071A072C4E715
:100FC000002A04D0002808D0FFF777FF09E0A571B8
:100FD0000220E07201206071F6E7002901D0FFF7DE
:100FE00063FFE17A002902D1002020716071A079AD
:100FF000002804D1E079002801D0257269E0207A28
:10100000002866D1607A002863D0A571491EE1727C
:101010005FE001E0002A02D000288FD08BE7A571A5
:101020006420F0860120607185E7FFE700202071D1
:1010300060718AE7002A04D0002809D0FFF73DFF3D
:101040000AE01420A0716420F08601206071F5E7A9
:10105000002901D0FFF728FFA07A012893D10020B2
:1010600020716071A0728EE7E07900288FD1207A1C
:1010700000282ED1607A00282BD01420A07128E0FF
:10108000002A04D0002807D0FFF717FF08E0A57159
:10109000F58601206071F7E7002901D0FFF704FF12
:1010A000F08E002801D120716071A079002805D14F
:1010B000E079002802D0642020720AE0207A00281B
:1010C00007D1607A002804D0A57102E0FFE7FFF79E
:1010D000EBFEA079E071207A6072F8BD600000201C
:1010E00008B513484269012149040A434261426933
:1010F0000A400092426949000A43426142690A403B
:101100000092426949000A43426142690A400092E2
:10111000426949000A43426142690A4000924269B9
:1011200089000A43426140690840009008BD000000
:1011300000100240F8B5474D2A8E698E10462E46A3
:101140002C460843203E4034002806D1B07D0128BB
:1011500003D1208CE0830020B0753E4F403F3879AA
:10116000002A04D1012802D1E28B002A02D00029F2
:1011700011D026E000F00CFC608B688602203871EC
:101180000120B0753348C030C169491CC16100F00D
:101190005DFD31A013E0022813D1E08B002810D1AF
:1011A00000F0F6FB608B288601203871B075294865
:1011B000C0300168491C016000F048FD2AA004F01D
:1011C000BBFE00F013FC03F0E5F803F089F8E88DAE
:1011D00000283ED128A004F0AFFEFFF7CFFBFFF7B9
:1011E0000DF9334A334BFFF799F8FFF73DF9194EE4
:1011F000C0367063FFF724F902460B462EA004F0B8
:101200009BFE7069FFF71CF902460B462FA004F005
:1012100093FE397932A004F08FFE298E002906D082
:1012200033A004F089FE38A0716804F085FE698E51
:10123000002906D039A004F07FFE3EA0716804F0BA
:101240007BFEE18B002902D03FA004F075FE0A204E
:10125000E885F8BD400000200A0D4E6F69736520D7
:1012600074657374203100000A0D4E6F6973652038
:1012700074657374203200000A0D3D3D3D3D3D3DD7
:101280003D3D3D3D3D3D3D3DB460C0F4B4FAB8D573
:101290002DAAACBA417363616E323D3D3D3D3D3D8B
:1012A0003D3D3D3D3D3D3D3D3D3D3D3D3D00000025
:1012B000B4D934E70C684A3F0A0DA5D8AB65B971BB
:1012C000C0A3ADC8203D2025662056000A0DABDD29
:1012D000BEF7B971C0A32020203D2025662056000E
:1012E0000A0D4143545F446F6F72203D2025640016
:1012F0000A0A0DB67DAAF9B3D1BE6CAEC9B6A1205B
:101300003D202564206D73000A0DB67DAAF9A6B8AC
:10131000BCC6203D2025640A000000000A0A0DC357
:10132000F6AAF9B3D1BE6CAEC9B6A1203D202564A2
:10133000206D73000A0DC3F6AAF9A6B8BCC6203DFD
:101340002025640A000000000A0D544D5F444C59EA
:10135000203D20256400000010B50248006B00F01D
:1013600058FF10BD4C01002010B504460068054927
:1013700040181421FEF7B8FE800020640248E063A4
:1013800010BD0000F8FFFDBF0000024030B5056C45
:101390000124AC40C56B6C60046863604368102B2B
:1013A000036803D099600068C26030BD9A6000682D
:1013B000C16030BDF8B5794EF08D00287CD178A0A1
:1013C00004F0BAFDFFF7DAFAFFF718F87F4A804B0E
:1013D000FEF7A4FFFFF748F83446C0346063FFF718
:1013E0002FF802460B467BA004F0A6FD6069FFF7CC
:1013F00027F802460B467CA004F09EFD7FA004F077
:101400009BFDFF3C013C61797DA004F095FD308E91
:10141000718E25462746084380352037002829D07D
:10142000F87B01280AD175A004F086FD698A79A0AD
:1014300004F082FDA17C7DA004F07EFD318E0029A8
:101440000AD085A004F078FD217A89A004F074FD0B
:10145000E1798CA004F070FD718E00290AD08EA075
:1014600004F06AFD217A82A004F066FDE17985A08E
:1014700004F062FD2988002902D08DA004F05CFDF3
:101480003179002910D090A004F056FD4348C030B7
:10149000406AFEF7D5FF02460B4690A004F04CFDD3
:1014A000E98F93A004F048FDF878012808D195A0B1
:1014B00004F042FDF17800E06FE096A004F03CFDFE
:1014C000207C00280AD04DA004F036FD217C95A098
:1014D00004F032FDA98998A004F02EFD47A004F085
:1014E0002BFDFFF74BFA01469AA004F025FD9FA0C3
:1014F00004F022FD2989A2A004F01EFD6989A7A09D
:1015000004F01AFD607B01280DD13CA004F014FD0D
:10151000A9A004F011FDE98EACA004F00DFD698FC7
:10152000B0A004F009FD288A002806D033A004F0FA
:1015300003FD298AB1A004F0FFFC607B002806D0DF
:101540002EA004F0F9FC617BB2A004F0F5FC787EDB
:10155000012809D129A004F0EFFCB6A004F0ECFCAE
:10156000797EBDA004F0E8FCB87E012809D123A053
:1015700004F0E2FCBCA004F0DFFCB97EC4A004F0DF
:10158000DBFC1EA004F0D8FC6178C6A004F0D4FCFB
:10159000CCA004F0D1FC0A20F085F8BD400000206A
:1015A0000A0D3D3D3D3D3D3D3D3D3D3D3D3D3D3DCE
:1015B000AAACBA417363616E3D3D3D3D3D3D3D3D4D
:1015C0003D3D3D3D3D3D3D3D3D3D3D00B4D934E7D4
:1015D0000C684A3F0A0DA5D8AB65B971C0A3ADC868
:1015E000203D2025662056000A0DABDDBEF7B971FF
:1015F000C0A32020203D2025662056000A000000C0
:101600000A0A0DA5D8AB65AAF9AAACBA41203D20BB
:10161000256400000A0D20BD77A842B942C2E0AEA1
:10162000C9B6A1203D202564000000000A0D20BDA0
:1016300077A842B942C2E0AAACBA41203D20256455
:101640002028313AAAECAC712F323AA4A4AC712F05
:10165000333AA7C0AC7129000A0A0DB67DAAF9B3C6
:10166000D1BE6CAEC9B6A1203D202564206D7300AB
:101670000A0D2050574D5F44757479203D20256434
:10168000000000000A0D2050574D5F506572696FD1
:1016900064203D20256400000A0A0DC3F6AAF9B3B0
:1016A000D1BE6CAEC9B6A1203D202564206D73006B
:1016B0000A0A0DC3F6AAF9B5A5ABDDAEC9B6A120DD
:1016C0003D202564206D73000A0A0DA8BEC0A3AAA0
:1016D000ACBA41203D202564000000000A0A0DA894
:1016E000BEC0A3ACC9C576ADAB203D2025660000C9
:1016F0000A0A0DA8BEC0A3ACC9BD75ADC8203D2067
:10170000256400000A0A0DB1B2B5A1C3F6AAF9AA70
:10171000ACBA410053545F434C4F53453D202564C0
:10172000000000000A0D416E74695F4576656E74B5
:10173000203D2025640000000A0A0DA8BEC0A3B603
:101740007DAAF9B0B1A4EEB5A5ABDD203D2025649E
:10175000000000000A0D202A2A2A2A2A2AB7EDAB07
:10176000654144203D202564000000000A0D20A8AA
:10177000BEA7A8B0F2B7C74144ADC83A0000000008
:101780000A0D204144435F4F50454E5F4D41585F25
:10179000313675203D202564000000000A0D2041EF
:1017A00044435F434C4F53455F4D41585F3136755D
:1017B000203D2025640000000A0D20B942C2E0410E
:1017C00044ADC828A759AEC9293A00000A0D2041E6
:1017D00044435F4F50454E5F4D41585F62203D206E
:1017E000256400000A0D204144435F434C4F53459C
:1017F0005F4D41585F62203D202564000A0D205452
:101800004D5F4144435F52656C616F64203D20250C
:10181000640000000A0D204144435F446574656321
:10182000745F53746172745F466C6167203D20255C
:10183000640000000A0D202F2F2F2F2F2F2F2F2F66
:101840002FACF5A57EBD75B0BBB4FAC4B2B56F5C64
:101850005C5C5C5C000000000A0D20466C61675F08
:101860004952203D202564000A0D202F2F2F2F2FB5
:101870002F2F2F2F2FB7CFC3FAB750B4FABEB9B05E
:10188000BBB4FAC4B2B56F5C5C5C5C5C0000000089
:101890000A0D20466C61675F534D4B203D20256447
:1018A000000000000A0D204F70456E645F446574AF
:1018B0006563745F53746172745F466C6167203D49
:1018C000202564000A0D00007D2189014843074955
:1018D00048610020886101220A610A69D30701D0AA
:1018E000D203FAD5086188617047000000E000E08B
:1018F00070B51048104D407B012817D001220121FE
:10190000284601F072F80B4C6034A06FFFF7DCFF43
:1019100001220221284601F068F8A06FFFF7D4FFEA
:10192000064801F003FF002802D0FEE70022E6E7A8
:1019300070BD00002000002000040048D8010020F5
:1019400070B51048104D407B012817D000220121AE
:10195000284601F04AF80B4C6034A06FFFF7B4FF43
:1019600001220221284601F040F8A06FFFF7ACFFEA
:10197000064801F0DBFE002802D0FEE70122E6E780
:1019800070BD00002000002000040048D8010020A5
:1019900070B5124801F0DAFE002800D0FEE70920F9
:1019A00001224021C00601F020F80D4CA06FFFF786
:1019B0008BFF0C4D00220221284601F016F8A06F83
:1019C000FFF782FF00220121284601F00EF80122D4
:1019D0001146054801F009F870BD0000D80100204B
:1019E000800000200004004800080048F0B5584B73
:1019F000987C012846D1002199741C46203C20790E
:101A0000227C844620469646DF7840301A460125DF
:101A1000068F6032002F02D0012F1DD02BE06346CD
:101A2000002B05D0012B06D0022B06D0617120E0DF
:101A3000617101711DE0657157E07346022B1AD088
:101A4000022363710186538B4386143B838616857C
:101A50000A23D385A1700EE03D4C67462034E4781C
:101A6000002F10D0012F3AD0022F45D0384B203B09
:101A7000597101864186038E408E034302D0322085
:101A800010825182F0BD324E203E7779012F02D074
:101A9000022F0BD020E0048E84870186002C01D019
:101AA000DD7419E0D9741975597515E0478EC7872B
:101AB000012C02D0022C08D00DE0002F01D01D75A2
:101AC00009E019750223C37005E0002F01D05D7590
:101AD00001E05975C570418671710171CBE71C4CED
:101AE000203C6571D974197559754186538B0386ED
:101AF00016850A23D385BEE7154F7546203F022D74
:101B0000B9D002257D710186DD7C012D07D03D46CF
:101B10004035ED8F012C04D0022C0DD010E0538BFA
:101B200014E01B7D002B04D04586438E0A3B838640
:101B300006E0938B4386F8E75B7D002B05D0458656
:101B400016850A23D385B97095E7138E4386F7E788
:101B50002000002010B505484169090704D5082177
:101B60004161084600F06EFC10BD00000004014019
:101B700010B514494869400501D508151FE04869AA
:101B8000000505D50120C00219E000F05BFC10BD86
:101B90004869C00402D50120000310E0486900062E
:101BA00002D580204861F0E74869000402D5012091
:101BB000C00304E048698004E9D50120400348617E
:101BC000E3E700000004014000B51B4887B042690C
:101BD0000121C9040A43426142690A4005924269EF
:101BE00049100A43426142690A400592426909016B
:101BF0000A43426140690840059010480190002066
:101C0000029007208002009069460D4800F044FED3
:101C10008020009069460B4800F03EFE05204003FE
:101C200000906946084800F037FE00220221072094
:101C300001F03CF907B000BD001002400000211087
:101C400000080048001400480004004870B50AA0CD
:101C500004F072F901220C4DD4022146284600F00E
:101C6000C4FE0A48806FFFF72FFE00222146284657
:101C700000F0BBFE70BD00000A0D2D2D2D2D455826
:101C8000545F434E540000000004004880000020D0
:101C9000F8B5054604462035287D0026012808D0E1
:101CA00001202875206881688907890F012908D1DA
:101CB00001E00220F8BD0168C90738D1C1680904F4
:101CC00035D4A16BFF220132914302221143A1635B
:101CD000C1688907890F0091C16889088900C160BE
:101CE0002068816892071143816000F085FE0746F5
:101CF0000EE000F081FEC01B022809D9A06B022172
:101D0000884310210843A063002028750120F8BDF6
:101D1000206880680028ECDB2068C168009A1143C5
:101D2000C160A06B80088000401CA06304E0A06B31
:101D300020210843A0630126002028753046F8BD05
:101D4000F8B50025044620340095227D012A39D0BB
:101D50000122227503689E68760767D4384F4E6863
:101D6000BE424DD09E6A0F78BA4016439E62012350
:101D7000C26A1B079A421FD0012A1DD0022A1BD01B
:101D8000032A19D0042A17D0052A15D0062A13D001
:101D9000072A11D002688B6856697607760FB3421E
:101DA0000AD05369DB08DB005361006842690B7A93
:101DB0005B075B0F1A4342610A68102A04D0112A9C
:101DC00002D038E00220F8BD1E488368102A07D0F0
:101DD00001229205134383600868102803D02AE08B
:101DE0000122D205F6E7194817490068FEF77CF989
:101DF0000A21484300E0401E00900028FBD11AE071
:101E0000986A0E78B240904398620968102901D010
:101E1000112910D10B488268102904D001218905AD
:101E20008A43826007E00121C905F9E7816B20221E
:101E3000114381630125002020752846F8BD00006C
:101E4000011000000027014040420F00380100202F
:101E50007047704770B504003BD0A06B0221084367
:101E6000A0632046FEF7E6FD00260546002832D096
:101E7000012D2AD021684A689F2082434A60216848
:101E800008602068C168184A1140C1602068016973
:101E900089008908016120684169C908C900416158
:101EA0002068016A114A114001622068816AC90CE8
:101EB000C90481620E4881680322920591438160C2
:101EC000204600F0D5F8E663A66320342675284640
:101ED00070BD012070BD2046FEF71DFE054601289D
:101EE000F3D00120A063C5E700023E8300F000F0BC
:101EF0000027014070470000F8B50026044600287E
:101F000005D0A06B25462035002802D007E001202F
:101F1000F8BD0020E0632875204600F0BDF8A06BF6
:101F20001022C006002870DB2068816849076CD445
:101F3000A16B1301994302231943A16381688907A7
:101F4000890F012905D10168C9070FD1C1680904AA
:101F50000CD4C16818239943A3681943C160206851
:101F60000169636889008908194301612068C168B3
:101F70003D4B1940C160207E617E8003C903084348
:101F8000A17E4B031843A36A012B02D001231B033C
:101F900000E000231843E36818432369022B09D0AB
:101FA000002318432B79E57E5B0018430123012DA4
:101FB00002D00AE00423F4E7002927D0A16B2025F2
:101FC0002943A163E16B1943E163E1690D46FF3DDC
:101FD000C23D02D0256A294308432168CD680543E4
:101FE000CD600125E16A2D07A94213D0012911D046
:101FF00002290FD003290DD004290BD0052909D0BF
:10200000062907D0072905D010E028E0012109049E
:102010000843DAE721684D69ED08ED004D6121685C
:102020004D69A78D7F077F0F3D434D612168C968CA
:102030000E4D2940814207D10020E063A06B80084B
:102040008000401CA06308E0A06B0221884310437D
:10205000A063E06B1843E06301263046F8BDA06B37
:102060001043A063F8E700001902FEFFE7FF3F837B
:1020700010B50848C26841150A43C260C2688A4365
:10208000C26082698A43826109200121C00600F092
:102090006FF910BD0010024070B5204986B04A6942
:1020A00005460120400402434A614A690240059204
:1020B0008A69001202438A618A69024005924A696C
:1020C000012002434A6149690026014005910090C0
:1020D00003200190092069460296C00600F0DCFB4F
:1020E0000F48104C41C48020266060604000A06012
:1020F0008000E06020202061C00160610948083C48
:1021000000F062F8204600F0D3F82C63002203218F
:102110000920656200F0CAFE06B070BD00100240E2
:102120000800024038040020F7B504460068002586
:10213000806840073DD426462036307D01280AD0ED
:1021400001273775607E012807D02046FEF716FD6F
:10215000050002D02EE00220FEBDA06B164908400B
:10216000FF2101310843A0630020E0633075216B3B
:1021700012488862216B1248C862216B11480863BB
:1021800021681C20086020684168102211434160CA
:102190002068C1683943C1602168206B4031029BCF
:1021A000019A00F0AFF82068816804221143816031
:1021B00000E002252846FEBDFEF1FFFF870A000869
:1021C0000D0B0008F30A000870B504001FD020684A
:1021D0000168490849000160206800250560206801
:1021E0004560206885602068C5602046FFF7BCF820
:1021F000216C01208840E16B4860A562E56225639F
:102200006563A563203465702570002070BD0120D2
:1022100070BDF0B4C16B0D6801680C680422066CD7
:102220001346B3402B420DD063070BD50B689B06BA
:1022300002D40B6893430B60016C8A40C16B4A6007
:10224000C16A19E00227B74002462F40012320321D
:10225000002F15D0A70713D50C68A40604D40C686A
:102260000A25AC430C605370036C02219940C36B88
:10227000596000211170816A002916D0F0BC08470E
:102280000827B7402F4210D024070ED50C680E2522
:10229000AC430C60046C1946A140C46B616083635D
:1022A000537000211170016BE6E7F0BC704700002D
:1022B00070B5040021D0022120462030054641702F
:1022C000226811680E48A3680140606826691843B7
:1022D000E3683343184363691843A3691843E36908
:1022E0001843084310602046FFF73EF80021A16321
:1022F000012068702970084670BD012070BD000083
:102300000FC0FFFFF8B504468C4620300178002549
:10231000012909D00126067041780027012905D03E
:10232000077002252846F8BD0220F8BD0221417041
:10233000A76320680168490849000160614620469A
:10234000FFF724F8E06A00282068016802D00E2216
:10235000114306E00A22114301602068016804224B
:10236000914301602068016831430160DAE70000B1
:10237000F0B5002258E0012393401C460C4052D097
:1023800096082B4DB6007519AF68AC4695072E0F11
:102390000F25B540AE463D400927FF06B84201D1A2
:1023A00000270FE0234FB84201D101270AE0224F56
:1023B000B84201D1022705E0204FB84201D10327DE
:1023C00000E00527B740AF4212D11D4D2E68A6434D
:1023D0002E606E68A6436E60AE68A643AE60EE687F
:1023E000A643EE606546AD687446A5436446A560A5
:1023F000056856000324B440A5430560D508AD0028
:102400002D182E6AAC465507EF0E0F25BD40AE4382
:1024100065462E628568A543856045689D43456095
:10242000C368A343C360521C0B46D340A3D1F0BD85
:10243000000001400004004800080048000C00486B
:1024400000040140F8B50546BFA003F075FDC24881
:10245000002104462034C1720173E17506464179BA
:1024600001224036D2022846AB1A27467170012558
:102470004037B17090422AD015DC08287DD08028E2
:102480007CD001218902884220D1A07E01281DD064
:10249000B148C078012819D0F8782843F870207B1B
:1024A00001284BD07CE0981AAC4A68D0801A67D0DB
:1024B00003214903884209D1A576FFF769FA642010
:1024C000FFF702FAA448A57405718571F8BDA07ED6
:1024D0000128FBD0A049C8780128F7D00120A074BA
:1024E000002008713071487338710D46F878022168
:1024F0000843F870A878012807D1974F98A0803733
:10250000398803F019FD788C3880607E012802D16B
:1025100000206076A872308E718E02460A4301D088
:102520000122A277002801D0022002E0002901D078
:102530000420A8710020287491A09DE00121890247
:10254000924800F04DFA7071834F1FE0F87A401CFA
:10255000F8728FA003F0F0FC012189028B4800F093
:102560003FFA7071F87AA17988420FD9E07D00288E
:1025700001D1FFF7E5F9E57503E0CAE07FE028E067
:10258000B1E089A003F0D8FCFFF7DAF970790028F0
:10259000DCD0F97A89A003F0CFFCE07D012803D0DC
:1025A0007078022804D00DE0FFF7F2F988A063E00C
:1025B0008CA003F0C1FCFFF7EBF96420FFF784F96E
:1025C00065484570E5776448A574057185718CA0F0
:1025D00052E0A07E012800D178E75F48017C022903
:1025E000FAD0C0780128F7D0607E012807D0F878AB
:1025F00004210843F870207B012802D027E0032043
:1026000085E05649614800F0EBF97071524F14E0D3
:10261000F87A401CF8727DA003F08EFC4F495B48AD
:1026200000F0DEF97071F87AA179884205D9E57574
:102630007CA003F081FCFFF75BF970790028E7D0FC
:10264000F97A5EA003F078FCE07D0128ACD07078C8
:10265000012809D163A003F06FFCFFF799F964200A
:10266000FFF732F93C48457035703B48A5740221AC
:1026700001710321817171A003F05EFCF8BD72A0AD
:1026800003F05AFCA07B0128F8D18021714800F0AA
:10269000A7F970711EE03048017B6FA003F04CFC7D
:1026A0002D482D49007B401C08738021694800F0AB
:1026B00097F970712848E179007B88420AD9264849
:1026C000C17801290AD0C57075710520387169A0DB
:1026D00003F032FC70790028DDD0F8BD0021C17014
:1026E000757168A0F4E7022902D0708E0028F4D03A
:1026F000002070866576FFF74BF96420FFF7E4F859
:102700001548A57405711E218172857102203871EA
:10271000F8BD11488179491CC9B28171042900D9D9
:1027200085718179012906D002290AD0032904D0B4
:10273000042904D105E0057101E002210171A574AD
:10274000F8BD0021FAE700000A0DB1B1A8EEBEB94C
:10275000ABFCA54F3A200000000000200010000054
:102760000A0DADABB773B8FCA44AB5A5ABDDC3F693
:10277000AAF9AEC9B6A13A202564206D7300000005
:102780000A0D53544F50210A000000000008004871
:102790000A0D4F50454E206B65792E2E2E2E2E7031
:1027A000726573730A0000000A0D4A4F47204D6F8F
:1027B00064653A4F50454E2E2E2E0A000A0D436F87
:1027C0006E74696E7565203D2025640A0000000066
:1027D0000A0D446F6F722053746F702E2E2E2E2EA2
:1027E0000A0000000A0D2D2D2D2D2D2D2D2DA5DFDC
:1027F000A759A4CFC2E02D2D2D2D2D2D2D2D00005C
:102800000A0D4F50454E210A000000000A0D434CAE
:102810004F5345206B65792E2E2E2E2E70726573C8
:10282000730A00000A0D4A4F47204D6F64653A4312
:102830004C4F53452E2E2E0A000000000A0D436C0B
:102840006F7365210A0000000A0D4C6F636B210A4B
:1028500000000000001400480A0D4C4F434B206B51
:1028600065792E2E2E2E2E70726573732025640AC4
:10287000000000000A0D4C4F434B7E7E7E7E7E7E24
:10288000210A00000A0D554E4C4F434B7E7E7E7E42
:102890007E7E210A00000000F8B500238DE00124AF
:1028A0009C40A44622407DD04C68022C01D0122CC2
:1028B0000CD1DC08A40027183C6A5D07ED0E0F263A
:1028C000AE40B4430E69AE4026433E6205685E00EA
:1028D0000324B4400F79A543BF07BF0FB7402F4370
:1028E00007604D68012D05D0022D03D0112D01D0B8
:1028F000122D0ED18568CF68A543B7402F4387605E
:1029000047686546AF430D79ED06ED0F9D403D43A9
:102910004560C568A5438C68B4402C43C4604C68CE
:10292000E40049D5284CA56901263543A561A46971
:102930009D0834400094254CAD002F19BC689D07BC
:102940002E0F0F25B540AC430925ED06A84201D155
:1029500000250FE01E4DA84201D101250AE01D4DC2
:10296000A84201D1022505E01B4DA84201D1032553
:1029700000E00525B5402543BD60184C25684E682C
:102980009543F60300D51543256065684E68954369
:10299000B60300D515436560A5684E689543F602F9
:1029A00002D500E008E01543A560E5684E68954350
:1029B000B60200D51543E5605B1C0A681446DC408E
:1029C00000D06CE7F8BD000000100240000001409C
:1029D0000004004800080048000C004800040140C2
:1029E0000069084000D001207047002A01D08161B1
:1029F000704781627047000001488068704700009E
:102A00003C01002070B5024640325378202B1CD187
:102A10001378012B19D001231370242454700468F7
:102A200025689D432560046825681E03B54325601D
:102A3000046825680D43256000680168194301603A
:102A4000202050700020107070BD022070BD406CBE
:102A50007047000070B5040006D025464035687800
:102A60000026002802D005E0012070BD2E7020460F
:102A700000F09AF92420687020680168490849002C
:102A800001600F2160680906884321680861216898
:102A90008A680120C00382438A60E1680129A16835
:102AA00008D021229202114322689160E168022934
:102AB00002D005E00143F7E701212268C902516015
:102AC00021684A680F4B1A434A602168CA688243EA
:102AD000CA60616920690843A16909020843216845
:102AE000C860216AE06908432168086020680168BD
:102AF0000122114301606664202068702663AE7075
:102B0000002070BD00800002FFB505460446403538
:102B1000687883B0202875D10C98002814D00D98BF
:102B2000002811D0287801286CD001202870FFF7E8
:102B300063FF0746012200901923D103204601F0CC
:102B40004FF9002874D103E00120400260646FE077
:102B5000222068704020A870002666640C9860628D
:102B60000D98608566630E980090019704A90EC9C0
:102B7000204601F0C1F8002801D02E7058E0618D88
:102B80003448FF2905D9FF22228501231B06009026
:102B900006E0618D21850090208D0123C2B25B0685
:102BA0002046049901F008F90097002204212046EC
:102BB0000E9B01F015F900283AD12068406A616A3D
:102BC0000870606A401C6062208D401E81B22185C1
:102BD000608D401E6085608D00281FD000291DD1AA
:102BE00000970022802120460E9B01F0F9F8002872
:102BF0001ED1608DFF2806D9FF22228501231B06E6
:102C0000009607E024E0608D20850096208D01234A
:102C1000C2B25B062046049901F0CEF8608D002810
:102C2000C2D13A4620460E9901F001F9002802D09F
:102C3000012007B0F0BD20682021C16120684268F2
:102C4000054B1A4042606970AE702E700020F0E7AC
:102C50000220EEE70024008000E800FEFFB50546F4
:102C600004464035687883B0202872D10C9800283B
:102C700014D00D98002811D02878012869D001209F
:102C80002870FFF7B9FE0746012200901923D103EF
:102C9000204601F0A5F8002871D103E00120400290
:102CA00060646CE0212068704020A8700026666493
:102CB0000C9860620D98608566630E98009001978D
:102CC00004A90EC9204601F047F8002801D02E7053
:102CD00055E0608DFF2805D9FF22228501231B06C0
:102CE000009606E0608D20850096208D0123C2B2FB
:102CF0005B062046049901F05FF83A4620460E999B
:102D000001F0BBF800283AD1606A21680078886237
:102D1000606A401C6062608D401E6085208D401E90
:102D200080B22085618D00291FD000281DD1009719
:102D30000022802120460E9B01F052F800281ED16F
:102D4000608DFF2806D9FF22228501231B060096ED
:102D500007E024E0608D20850096208D0123C2B21B
:102D60005B062046049901F027F8608D0028C4D145
:102D70003A4620460E9901F05AF8002802D0012068
:102D800007B0F0BD20682021C16120684268054B72
:102D90001A4042606970AE702E700020F0E7022089
:102DA000EEE7000000E800FE30B58BB02020059073
:102DB0001020089005A800F07DF81648426901210E
:102DC00089040A43426142690A40099242690A43FE
:102DD000426142690A400992C269C9000A43C2615C
:102DE000C069012408400990402000901220019001
:102DF0000320094D03900294694604942846FFF786
:102E00004BFD80200090694604942846FFF744FD5E
:102E10000BB030BD00100240000400480248816839
:102E200002788918816070473C01002010B506487F
:102E30000168102211430160032000F007F800F040
:102E400027F8002010BD00000020024070B50446A5
:102E50000D4D7D202978C000FDF746F901460B484D
:102E60000068FDF741F900F031FB002809D1042C7E
:102E700007D200222146401E00F018F800206C60A6
:102E800070BD012070BD00003C0100203801002011
:102E900070470000002805DBC106C90E01208840EC
:102EA000014908607047000000E100E010B503F040
:102EB0008FF810BDF8B505460068354CC00352D5F3
:102EC000E0690026C00007D4E16920040143E16104
:102ED000E1690140012600912E480168C90510D41E
:102EE0000168821511430160FFF786FD074604E083
:102EF000FFF782FDC01B642824D826480068C0055F
:102F0000F6D5206A03273F02384020D0696839404F
:102F100081421CD0206A226AB843012109040A4375
:102F20002262226A8A4322622062C0070FD0FFF722
:102F300063FD009008E0FFF75FFD0099411A164815
:102F4000814201D90320F8BD206A8007F3D5206AA9
:102F50006968B84308432062002E04D0E16901206B
:102F600000078143E1612878C00705D0206BA9687C
:102F700080088000084320632878800605D5206BF0
:102F800010218843E968084320630020F8BD000051
:102F9000001002400070004088130000F8B50F4692
:102FA000060059D03A4D2868C007C00FB84209D270
:102FB000286840084000384328602868C007C00FD0
:102FC000B84249D13068334C81070CD5400704D54D
:102FD000606807210902084360606068F021884347
:102FE000B168084360603078C00726D07068012857
:102FF0000ED0216802280ED0890700292CDA6168DA
:103000008908890001436160FFF7F6FC00900DE03C
:1030100021688903F1E78901EFE7FFF7EDFC0099EB
:10302000411A1D48814201D90320F8BD60680C2176
:103030000840716889008842EFD12868C007C00F36
:10304000B8420BD9286840084000384328602868F7
:10305000C007C00FB84201D00120F8BD307840074A
:1030600006D56068072109028843F168084360605B
:1030700000F028F86168094A0906090F515CC84048
:10308000074908600320FFF7E1FE0020F8BD0000BB
:10309000002002400010024088130000686C000805
:1030A000380100200448054900684968044A490578
:1030B000490F515CC84070473801002000100240A1
:1030C000786C000810B514A30FCB88B06C460FC401
:1030D00015A30FCB0FC4184A51680C200B460340B0
:1030E0001648042B16D0082B14D18B021B0F6C46EC
:1030F000E45CD26A04AB1207120F9A5CC90305D5CF
:1031000000231946FDF706F8214601E020460C4948
:1031100002F039FF08B010BD0203040506070809D4
:103120000A0B0C0D0E0F1010010203040506070810
:10313000090A0B0C0D0E0F100010024000127A004D
:1031400000093D00FEB5040070D02078DC4DC007BA
:103150004AD068680007800F012807D06868000718
:10316000800F022809D16868C00306D5286880034B
:103170003AD560680028E7D036E06168012914D0AC
:1031800001208004002901D0052914D02A680121DA
:1031900009048A432A6029688143296060680028FD
:1031A00016D0FFF729FC06460EE028680121090425
:1031B00008432860F2E7296801432960F5E7FFF733
:1031C0001BFC801B64286ED828688003F7D50BE0B1
:1031D000FFF712FC064604E0FFF70EFC801B642894
:1031E000F1D828688003F7D42078012680070028CA
:1031F0003CDA68680007800F07D068680007800F16
:10320000022809D16868C00306D42868800716D54B
:10321000E06801280AD112E0E0680028286816D08A
:1032200030432860FFF7E8FB074605E043E1FFF77E
:10323000E3FBC01B0228C6D828688007F7D528689A
:10324000F82188432169C900084328600EE040083E
:1032500040002860FFF7D0FB074604E0FFF7CCFBF7
:10326000C01B0228AFD828688007F7D42078000751
:1032700022D5E0690028686A0ED030436862FFF703
:10328000BBFB074604E0FFF7B7FBC01B02289AD838
:10329000686A8007F7D50FE0400840006862FFF7D2
:1032A000ABFB074605E09DE0FFF7A6FBC01B02282D
:1032B00089D8686A8007F7D4207804274007002857
:1032C00060DA00200190E869C00008D4E969B80616
:1032D0000143E961E96901400120009101907948C9
:1032E0000168C90511D40168821511430160FFF717
:1032F00083FB009005E0FFF77FFB0099401A6428EC
:1033000070D870480068C005F5D5A06801280AD0BB
:10331000002801D0052810D0286A40084000286203
:10332000286AB84301E0286A30432862A068002870
:1033300012D0FFF761FB00900AE0286A3843286248
:10334000F1E7FFF759FB0099411A5F48814249D8DC
:10335000286A8007F5D50DE0FFF74EFB009006E0E8
:10336000FFF74AFB0099411A574881423AD8286A28
:103370008007F5D40198002804D0E96901200007EE
:103380008143E9612078C00635D5606901280CD0F9
:10339000401D686B23D038436863686B4008400069
:1033A0006863FFF729FB064622E0686B38436863D1
:1033B000686B30436863FFF71FFB064604E0FFF7C6
:1033C0001BFB801B02285BD8686B8007F7D5686BF6
:1033D000F8218843A169C900084368630BE0B8433A
:1033E0006863F4E74CE0FFF707FB801B022847D82F
:1033F000686B8007F7D4206A00285ED069680907E7
:10340000890F022942D0012636060228286805D0F5
:10341000B0432860FFF7F0FA044633E0B043286079
:10342000FFF7EAFA074604E0FFF7E6FAC01B0228B6
:1034300026D828688001F7D4E86AE16A000900010B
:103440000843E862616AA06A084369683D22120481
:10345000914308436860286830432860FFF7CCFA3E
:10346000044604E0FFF7C8FA001B022808D82868C1
:103470008001F7D521E0FFF7BFFA001B022801D930
:103480000320FEBD28688001F5D416E00128F8D09D
:103490006868E96A01221204636A02409A420AD10A
:1034A0000907E26A090F914205D10F2189040840FA
:1034B000A16A884201D00120FEBD0020FEBD0000AF
:1034C000001002400070004088130000094910B548
:1034D000401E884201D9012010BD074C60610321C4
:1034E000081F02F075FD0020A06107202061002068
:1034F00010BD0000FFFFFF0000E000E070B50446D3
:10350000006801690025C9438907002915DBC168E6
:10351000C943890711D4E91E016101202077206881
:1035200080698007204602D000F026F904E000F010
:10353000D5F9204600F0D3F9257720680169C94301
:10354000490717D4C168C943490713D40421C943A3
:10355000016102202077206880698005800F204665
:1035600002D000F009F904E000F0B8F9204600F0BC
:10357000B6F9257720680169C943090716D4C168DF
:10358000C943090712D40821C943016104202077E7
:103590002068C0698007204602D000F0EDF804E002
:1035A00000F09CF9204600F09AF92577206801691F
:1035B000C943C90617D4C168C943C90613D4102129
:1035C000C9430161082020772068C0698005800F09
:1035D000204602D000F0D0F804E000F07FF9204649
:1035E00000F07DF9257720680169C943C90708D132
:1035F000C168C943C90704D1891E0161204600F092
:103600002FF820680169C943090609D4C168C94374
:10361000090605D48021C9430161204600F046F81F
:1036200020680169C943490609D4C168C9434906EC
:1036300005D44021C9430161204600F00DFA2068FD
:103640000169C943890609D4C168C943890605D4FB
:103650002021C9430161204600F029F870BD000017
:1036600010B51048417A491CC9B24172C2799142E1
:1036700001D100214172027A0924C9B20A48E40644
:10368000914205D200220121FFF7AFF9002204E0A8
:1036900001221146FFF7A9F9012240212046FFF738
:1036A000A4F910BD000000200008004870477047D2
:1036B00070B5040005D025462035687F002802D06B
:1036C00006E0012070BD00202877204600F00AF8AF
:1036D00002206877211D206802F062FA01206877D5
:1036E000002070BD08B510488269012149040A43D1
:1036F000826182690A400092826949000A438261BC
:10370000806902220840009003211520FFF7CEFBBC
:10371000002203211620FFF7C9FB1520FFF7BAFB93
:103720001620FFF7B7FB08BD001002400268D368FF
:1037300001210B43D360006882685207520F062AAA
:1037400002D002680A430260002070470168CA681C
:1037500052085200CA600068016A064A114207D145
:10376000016A9210114203D10168490849000160C1
:103770000020704711110000704770B504460068C2
:1037800001690025C9438907002915DBC168C943C0
:10379000890711D4E91E0161012020772068806922
:1037A0008007204602D0FFF7E7FF04E000F096F81C
:1037B000204600F094F8257720680169C94349073D
:1037C00017D4C168C943490713D40421C94301610F
:1037D00002202077206880698005800F204602D073
:1037E000FFF7CAFF04E000F079F8204600F077F810
:1037F000257720680169C943090716D4C168C94300
:10380000090712D40821C9430161042020772068E8
:10381000C0698007204602D0FFF7AEFF04E000F049
:103820005DF8204600F05BF8257720680169C94300
:10383000C90617D4C168C943C90613D41021C943A6
:103840000161082020772068C0698005800F20462C
:1038500002D0FFF791FF04E000F040F8204600F0AE
:103860003EF8257720680169C943C90708D1C168B6
:10387000C943C90704D1891E0161204600F030F810
:1038800020680169C943090609D4C168C94309060A
:1038900005D48021C94301612046FFF707FF206856
:1038A0000169C943490609D4C168C943490605D419
:1038B0004021C9430161204600F0CEF8206801692B
:1038C000C943890609D4C168C943890605D42021A2
:1038D000C94301612046FFF7EAFE70BD704770479B
:1038E000F8B55B4C0027E0882646401C80B2E0809B
:1038F000A188203E491CA1806188491C61800A285A
:1039000008D1B07902F046F9B071307A02F042F98C
:103910003072E780A08864287AD14D4D403D288ED2
:1039200002F038F92886688E02F034F96886208D16
:1039300002F030F92085608D02F02CF96085A08DB1
:1039400002F028F9A085E08D02F024F9E085688F67
:1039500002F020F96887E88D02F01CF9E885E08B19
:1039600002F018F9E083208802F014F92080A08981
:1039700002F010F9A081B07902F00CF9B071307A40
:1039800002F008F93072208A02F004F92082A88E31
:1039900002F000F9A8868035288A02F0FBF8288218
:1039A000288C02F0F7F82884288E02F0F3F8288695
:1039B000688902F0EFF86881A88902F0EBF8A88125
:1039C000E88902F0E7F8E881688B02F0E3F86883A1
:1039D000A88B02F0DFF8A883E88B02F0DBF8E8831D
:1039E000688D02F0D7F86885A88D02F0D3F8A88515
:1039F000E88D02F0CFF8E885608A1649884201D048
:103A0000401C80B26082E88E02F0C4F8E886A7808D
:103A100060887D21C90088420ED10D4D6780803DB0
:103A2000A87A02F0B7F8A872E08902F0B3F8E08152
:103A3000A08A02F0AFF8A082B079002802D0FDF78A
:103A40003CFAF8BD307A0028FBD0FDF72DFAF8BD1E
:103A500080000020FFFF0000704770B5040017D001
:103A600024206067206801684908490001602068D7
:103A7000002505602068456020688560204600F0CC
:103A80003FF8E5676567A56760342574002070BD61
:103A9000012070BD10B5040003D0606F002802D073
:103AA00007E0012010BD002170200155204600F0E4
:103AB0003FF82420606720680168490849000160D8
:103AC000204602F047F90128ECD0606A002802D0B5
:103AD000204602F0A9F8206841680122D2029143F1
:103AE00041602068816808229143816020680168F4
:103AF000012211430160204602F0FCF810BD0000D5
:103B000010B50A48C268012189030A43C260C2682D
:103B10008A43C26009244115E4062046FEF728FCCA
:103B2000012189022046FEF723FC10BD001002404F
:103B300030B5174887B04269012149040A43426100
:103B400042690A40059242690A43426142690A4059
:103B500005928269C9100A43826180690124084084
:103B60000590481100900220019003200925ED06E0
:103B700003900294694604942846FEF78DFEA00245
:103B80000090694604942846FEF786FE07B030BDD3
:103B900000100240FFB50446406F83B017460D4643
:103BA00020285CD1002D0AD0002F08D0A168C001C8
:103BB000814207D12069002804D1E80702D0012002
:103BC00007B0F0BD204660300290007C012846D04E
:103BD0000298012101740020E06721206067FEF750
:103BE0000BFF264640360190378277820120A1687C
:103BF0000003814202D12069002802D02F4600250F
:103C000011E000270FE000228021204602F046F953
:103C1000002815D1002F15D02168387808857F1C21
:103C2000708A401E7082708A019B0028069800905E
:103C3000E9D100224021204602F030F9002808D0C6
:103C40000320BDE728882168C005C00D0885AD1C8C
:103C5000E6E720206067029900200874B0E70220A0
:103C6000AEE7FEE701688A69D243920701D40022D9
:103C70008A6200688169C943C90703D0816901224A
:103C80001143816170470000F7B5044600680E4695
:103C90008069C043C0062BD42027254640352068C4
:103CA0008069C043800612D5701CF8D0FEF7A4FED0
:103CB0000299401AB04201D8002EF0D1606C38430E
:103CC00060646F700020A87028700120FEBD21681C
:103CD0001020C8612068C7612046FFF7C3FF206835
:103CE0004168044A11404160606C04210843E7E7E1
:103CF0000020FEBD00E800FEF8B504461646154853
:103D00001D46DAB20090079F0023204600F054F8C9
:103D10003A462046069900F0B0F8002818D1284607
:103D2000F5B2012809D02168300A88623A46204657
:103D3000069900F0A2F800280AD120688562009751
:103D4000002240212046069B00F04AF8002800D0BF
:103D50000120F8BD00200080F8B50446164615483D
:103D60001D46DAB2C3020090079F204600F024F8F7
:103D70003A462046069900F080F8002818D12846D7
:103D8000F5B2012809D02168300A88623A462046F7
:103D9000069900F072F800280AD120688562009721
:103DA000002280212046069B00F01AF8002800D04F
:103DB0000120F8BD00200080F0B50668059C7568FC
:103DC000064F600D384385438805800D1104084374
:103DD0001843204305437560F0BD0000FF63FF03F7
:103DE000F8B51D4617460E46044609E0681C07D084
:103DF000FEF702FE0699401AA8420BD8002D09D002
:103E000020688169304688430FD00020B842EDD049
:103E10000020F8BD616C2020014361644034607073
:103E20000020A07020700120F8BD0120EEE770B5E1
:103E300016460D4604460FE0324629462046FFF757
:103E400023FF002801D0012070BDFEF7D5FD801BA7
:103E5000A84208D8002D06D020688069C04380069B
:103E6000EAD4002070BD616C2020014361644034BD
:103E700060700020A0702070E5E770B516460D4612
:103E8000044611E0324629462046FFF7FDFE002891
:103E900001D0012070BD681C06D0FEF7ADFD801B6F
:103EA000A84208D8002D06D020688069C04380074A
:103EB000E8D4002070BD616C20200143616440346F
:103EC00060700020A0702070E3E70000F8B527487C
:103ED000C07B012839D125492031088E4A8E0C46F5
:103EE0001043224AC034537F00282FD00846403068
:103EF000468A8D79012702228038AE4203D20772AA
:103F0000C27187740DE0C9796918B14205D963217E
:103F100001726421C171827403E00772C2710321CE
:103F20008174807C012B07D0022811D0A069FCF796
:103F300087FA0F4A0F4B13E002280BD0A069FCF759
:103F40007FFA0D4A0D4B0BE06061F8BD012B01D0EB
:103F5000A069F9E7A069FCF773FA054A084B5242D9
:103F6000FCF7DCF9FCF780FAEEE700002000002007
:103F7000333333333333EB3F9A9999999999F13F1E
:103F8000CCCCF43FF8B5154C0220A06003200125ED
:103F90002146E06021C4124E083C3046FEF77CFC0E
:103FA00040200927FF06206021463846FEF774FCB2
:103FB00021460C482560FEF76FFC0122402138465F
:103FC000FEF713FD002201213046FEF70EFD002210
:103FD00002213046FEF709FDF8BD0000E402002092
:103FE000000400480008004870470000F8B5394F49
:103FF0003848603FC08DF97808432BD13C46203CBF
:10400000607825460126403500281FD0FCF7B6FC15
:10401000FCF7F4F9304A314BFCF780F9FCF724FA4D
:10402000E11DF93108634969FCF73AFA12D8688F43
:1040300000280FD12AA001F07FFF298E2046603092
:10404000002922D0FA7A012A05D008E005206887E5
:1040500066706673F8BD1F4A538C1380A670227C6D
:104060006274022A01D100222274FE7600223A777D
:104070004670827086721748428B521AC2820220A2
:10408000A071688E002808D10EE06A8E002A12D036
:104090000022FA763E77427086700E486B8E428B15
:1040A000D21A02830420A071002904D0094880306C
:1040B000C269521CC261F878012802D1002900D0DF
:1040C000EE70002028866886287160700220607378
:1040D000F8BD000080000020B4D934E70C684A3FE6
:1040E0000A0A0DAAF9A8ECA6EC2DB0B1A4EEB942CB
:1040F000C2E0210A0A000000F8B54148C08D00283E
:1041000033D13F4F603FF87801282ED13C46203C08
:10411000607825464035002822D0288E2646603615
:10412000002846D0FCF72AFCFCF768F9354A364BE4
:10413000FCF7F4F8FCF798F9E11DF93108634969D7
:10414000FCF7AEF911D8688F00280ED12FA001F02E
:10415000F3FE2A8E002A14D0F87A012806D00AE04D
:1041600005206887012060706073F8BD2448418C89
:1041700001800120A070207C6074022801D1002001
:1041800020740121F9760020387771701C4BB070D3
:10419000B1728033DE69761CDE61E97018494B8BA1
:1041A0009A1ACA8228866886287160700220607315
:1041B00024E0688E0028D8D0FCF7E0FBFCF71EF95D
:1041C000104A114BFCF7AAF8FCF74EF90C49803164
:1041D00008634969FCF764F9C7D8688F0028C4D11F
:1041E0000AA001F0A9FE0020F8760121397770704D
:1041F000B17028866886287160700420A071F8BDAF
:1042000080000020B4D934E70C684A3F0A0A0DAA9E
:10421000F9A8ECA6EC2DB0B1A4EEB942C2E0210A97
:104220000A00000070B52C48417B04468034002908
:1042300017D001291BD0022912D1218A427C1143B7
:104240000022002935D0427325897D21C900234BE6
:104250008D4200D2238165898D4200D263814273F1
:1042600070BDFCF78BFBE086208760871FE04079FC
:1042700001280DD00228F3D117484030808E002845
:10428000EED0FCF77BFB618F88420DD9608770BD53
:10429000FCF774FBE18E884201D9E08670BD218F66
:1042A0008842FBD2208770BDA18F8842FBD2A087B5
:1042B00070BD09492031CB7E012B07D0097F012930
:1042C000C2D1618F6181A18FA186BDE7E18E21817D
:1042D000218F6186B8E7000000000020740E000006
:1042E000FEB5294DE8892E462F462C464036803FA4
:1042F000A034012802D13088022803D0A88A397D51
:1043000008431CD128892070000A60706889A07059
:10431000000AE0701D490420029101900123D0227F
:104320000094A0211A48FEF799FC002805D01848EF
:10433000FEF78DFB042800D0FEE701203875E889E0
:1043400000281FD1104801238030C0692070010A65
:104350006170010CA170000EE0700C480421019105
:104360000290C8220094A0210948FEF777FC00289B
:1043700005D00748FEF76BFB042800D0FEE7E120DC
:104380004001E8813080FEBD800000201027000041
:1043900098020020F8B5514C00252746403F608E1A
:1043A0003E46203600280AD0208E002807D0FDF790
:1043B000EFFA258665864AA001F0BEFD47E001219F
:1043C00049034D48FEF70CFB618E002902D00028FE
:1043D00000D1658678796070F0780028208E04D04E
:1043E00000280BD0FDF7ACFA31E00028FAD1608E3E
:1043F000002806D1FDF7CCFA7D7027E0608E0028FA
:1044000002D0FDF775FA22E07D70FDF7C1FA0420B5
:1044100020717879012816D0022817D1F07C012864
:1044200004D0E078012803D002280CD1012009E053
:1044300032A001F081FDE08E002804D12FA001F010
:104440007BFD0220E070F574357575757D71218EE8
:10445000608E014304D0FFF7C9FDFFF74DFE1EE05B
:10446000F17801291AD1002818D1E08E002815D042
:10447000387C002812D123A001F05EFDE17824A051
:1044800001F05AFDE078012802D0022806D006E0AB
:10449000F576012030770220787300E07D73608E1E
:1044A000E086228E0121C9020924E4064D00002A7B
:1044B00005D000222046FEF798FA012208E00028E5
:1044C00001D0012200E000222046FEF78EFA0022F1
:1044D00029462046FEF789FAF8BD0000400000207A
:1044E0000A0A0D4E473AB942C2E0AEC9B6A1A6507B
:1044F000AEC93E300000000000040048544553544B
:10450000203031000A0A0D48656C6C6F78787800AD
:104510000A0A0D53545F436C6F7365203D20256478
:1045200000000000F8B57FA001F006FD85A001F0B5
:1045300003FD7CA001F000FD8AA001F0FDFC924C7F
:1045400092A0217901F0F8FCE17895A001F0F4FC4B
:10455000617998A001F0F0FCE17A9BA001F0ECFCFD
:10456000217BA0A001F0E8FC617BA3A001F0E4FCAA
:10457000A17BA6A001F0E0FC617A84A001F0DCFC44
:10458000A17AA7A001F0D8FC217EAAA001F0D4FC5A
:10459000E17BADA001F0D0FCB0A001F0CDFC254640
:1045A0006035688BFBF72AFFB14FB24B3A46FBF7F9
:1045B000B5FE02460B46B0A001F0BEFC288CFBF70E
:1045C0001DFF3A46AB4BFBF7A9FE02460B46B4A0D3
:1045D00001F0B2FCA88BFBF711FF3A46A54BFBF7A5
:1045E0009DFE02460B46B8A001F0A6FC688CFBF7C6
:1045F00005FF3A469F4BFBF791FE02460B46BCA0D7
:1046000001F09AFCA88CFBF7F9FE3A46994BFBF7B0
:1046100085FE02460B46C0A001F08EFC403DA87905
:10462000FBF7ECFE3A46934BFBF778FE02460B464F
:10463000C3A001F081FCE879FBF7E0FE3A468D4B20
:10464000FBF76CFE02460B46C7A001F075FC264640
:10465000E0367069FBF7F4FE02460B46CCA001F091
:104660006BFCF068FBF7ECFE02460B46D2A001F0B3
:1046700063FC3069FBF7E4FE02460B46D7A001F06D
:104680005BFCA179DEA001F057FCE179E2A001F02A
:1046900053FC217AE6A001F04FFCEBA0F16901F098
:1046A0004BFCEEA001F048FCF5A001F045FC297A96
:1046B000F8A001F041FC697AFBA001F03DFCA97A69
:1046C000FEA001F039FCA0346088FBF797FE3A4663
:1046D000684BFBF723FE02460B46FDA001F02CFCC5
:1046E000A088FBF78BFE3A46624BFBF717FE0246AB
:1046F0000B46FDA001F020FCE088FBF77FFE3A4668
:104700005C4BFBF70BFE02460B46FDA001F014FCD0
:104710002089FBF773FE3A46564BFBF7FFFD024636
:104720000B46F9E10A0D3D3D3D3D3D3D3D3D3D3DE5
:104730003D3D3D3D3D3D3D3D3D3D3D3D3D3D3D3DA9
:104740003D3D00000A0D3D3D3D3D3D3D3D3D3D3D76
:10475000B0D1BCC6B35DA9773D3D3D3D3D3D3D3D3E
:104760003D3D00000A0D2A2A2A2A2AA55CAFE0B6A0
:104770007DC3F628303AC3F6B3AC202F20313AB6C9
:104780007DB1D22900000000200000200A0D20AADF
:10479000F8B4C1B4FAB8D520203A2025640000004E
:1047A0000A0D20B1B2B5A1AAF9A55CAFE03A202567
:1047B000640000000A0D20A8BEA7A8A55CAFE020F9
:1047C000203A2025640000000A0D20A6DBB0CAC3F1
:1047D000F6AAF920203A2025642028BCD2A6A129D7
:1047E000000000000A0D20A654B0CAA55CAFE0206E
:1047F000203A2025640000000A0D20B942C2E0A43E
:10480000E8A65620203A2025640000000A0D20C2A8
:10481000EAB971A55CAFE020203A202564000000D1
:104820000A0D20B4A3A5DCADB5202020203A202518
:10483000640000000A0D20A6DBB0CAB7D3A9FA2095
:10484000203A2025640000000A0D20BD77B1D2B0C7
:10485000CAA55CAFE03A2025640000000A0A0D2AD0
:104860002A2A2A2AB942C2E0B0D1BCC60000000000
:104870009A9999999999B93F0A0D20B67DC3F6AADC
:10488000F9B3CCA46AB942C2E0AEC9B6A1202020D7
:104890002020203A2025342E316620ACED00000087
:1048A0000A0D20AAF8B4C1B4FAB8D5B67DC3F6AAE9
:1048B000F9B6A1B96AAEC9B6A120203A2025342E96
:1048C000316620ACED0000000A0D20B1B2B5A1AAFE
:1048D000F9C3F6AAF9AEC9B6A128506172742031A5
:1048E0002920203A2025342E316620ACED0000002E
:1048F0000A0D20A6DBB0CAC3F6AAF9AEC9B6A1203C
:1049000020202020202020202020203A2025342E66
:10491000316620ACED0000000A0D20B7D3A9FAAE35
:10492000C9B6A120202020202020202020202020C7
:104930002020203A2025342E316620ACED000000E6
:104940000A0D20BD77A842B942C2E028B2C431ACFA
:1049500071292020202020202020203A2025342EBC
:10496000316620ACED0000000A0D20BD77A842B9E9
:1049700042C2E028B2C432AC71292020202020207D
:104980002020203A2025342E316620ACED00000096
:104990000A0D20ABDDBEF7566F6C7420202020205E
:1049A00020202020202020202020203A2025312EC9
:1049B00032662856290000000A0D20A8BEA7A8C507
:1049C00076ADAB284F50454E2920202020202020B6
:1049D0002020203A2025322E336600000A0D20A820
:1049E000BEA7A8C576ADAB28434C4F534529202020
:1049F000202020202020203A2025322E336600005F
:104A00000A0D20A654B0CAA750A977B0D1BCC620C1
:104A10002020203A202564000A0D20C2EAB971A79F
:104A200050A977B0D1BCC6202020203A20256400B0
:104A30000A0D20B942C2E0B374ABD728317E3229C7
:104A40002020203A202564000A0A0DB942C2E0A6BF
:104A5000B8BCC620203A2564000000000A0A0D2ACE
:104A60002A2A2A2A53746174652D52656C61792053
:104A7000706172616D657465722A2A2A2A2A0000A3
:104A80000A0D3D3D3D544D452D52656C61793D3DCE
:104A90003D0000000A0D20A6A8A5DFB1F8A5F3414E
:104AA0003A202564000000000A0D20A6A8A5DFB169
:104AB000F8A5F3423A202564000000000A0D20B852
:104AC000D1B0A3B1F8A5F3203A202564000000007E
:104AD0000A0D20A6A8A5DFAEC9B6A1413A2025340B
:104AE0002E316620ACED00000A0D20A6A8A5DFAE91
:104AF000C9B6A1423A2025342E316620ACED000023
:104B00000A0D20B8D1B0A3AEC9B6A1203A202534F1
:104B10002E316620ACED000058A001F00DFA5DA02A
:104B200001F00AFA297C604801F006FA5E48697CC7
:104B3000143001F001FA5C48A97C283001F0FCF93E
:104B4000608AFBF75BFC3A46584BFBF7E7FB0246F3
:104B500055480B463C3001F0EFF9A08AFBF74EFCBC
:104B60003A46524BFBF7DAFB02464F480B465430AD
:104B700001F0E2F9E08AFBF741FC3A464B4BFBF7C8
:104B8000CDFB024648480B466C3001F0D5F9208B2E
:104B9000FBF734FC3A46454BFBF7C0FB02460B469D
:104BA00036A001F0C9F942A001F0C6F9297E3E48BD
:104BB00001F0C2F93C48697E143001F0BDF93A4871
:104BC000A97E283001F0B8F9608CFBF717FC3A4653
:104BD000364BFBF7A3FB024633480B463C3001F053
:104BE000ABF9A08CFBF70AFC3A46304BFBF796FB7F
:104BF00002462D480B46543001F09EF9E08CFBF73D
:104C0000FDFB3A46294BFBF789FB024626480B463B
:104C10006C3001F091F9208DFBF7F0FB3A46234B05
:104C2000FBF77CFB02460B4614A001F085F925A09A
:104C300001F082F92BA001F07FF90020324CB06224
:104C4000014632A001F078F9B06AC00005E0215CAD
:104C500031A001F071F9F06A401CF062B06AC10045
:104C6000F06A08318142F2DCB06A401CB062202850
:104C7000E6DB2BA001F060F9F8BD00000A0D20BFB3
:104C8000E9A558AEC9B6A1203A2025342E316620B8
:104C9000ACED00000A0A0D3D3D3D4143542D5265E7
:104CA0006C61793D3D3D0000944A00089999B93FF7
:104CB0000A0A0D3D3D3D504F532D52656C61793DC3
:104CC0003D3D00000A0A0D3D3D3D3D3D3D3D3DB0B1
:104CD000D1BCC6B35DA97720456E643D3D3D3D3DE9
:104CE0003D3D3D000A0A0D3D3D3D3D3D3D3D3D20E4
:104CF000454550524F4D205072696E74203D3D3DE8
:104D00003D3D3D3D3D000000F80200200A0D2052CF
:104D1000253032643A200000253032582C20000023
:104D20000A0A0D3D3D3D3D3D3D3D3D20454550522E
:104D30004F4D2046696E697368203D3D3D3D3D3DC8
:104D40003D3D0000FEB5FF21DF48DE4A01316C46E3
:104D500007C401230022A0216038FDF7D5FE0028FA
:104D600006D0D9486038FDF772FE042800D0FEE76F
:104D70008021D648FDF734FED5490C4626460F461D
:104D8000C03740362034087001287DD0CE4DD04841
:104D90002978417569788175A978C175E9780176B6
:104DA0002979417669798176A979C176E97901779E
:104DB000297A4177697A8177A97AC177E87A207070
:104DC000287B6070687BA070287D2071687DE07012
:104DD000A87D6071E87DE072287E2073687E607334
:104DE000A87EA073E87E6072287FA072687F20761C
:104DF000A87FE0732846018D204660300184284654
:104E00002A304178027808022146104360318883B5
:104E10002846818D20466030418328462E304178D7
:104E20000278080221461043603148842846018EEA
:104E30002046603081843220285CFBF7D7FAA549F0
:104E4000FBF72EFA2146E03188613320285C20747C
:104E50003420285C60743520285CA0713620285CE2
:104E6000E0713720285C20722046298F6030C18491
:104E70003A20285CB0713B20285CF071A88F7880C4
:104E800028463E30417800E071E002780802104385
:104E9000B8804020405B78822846423041780278D2
:104EA00008021043B8824420405B7884284646308C
:104EB0004178027808021043B8844820405B38816A
:104EC00028464A30417802780802104338834C2043
:104ED000405B388528464E304178027808021043FE
:104EE000F8805020405BF8822846523041780278A2
:104EF00008021043F8846420285C30726520285C26
:104F000070726620285C30746720285C707468209A
:104F1000285C30766920285C70766A20285CB07244
:104F20006B20285CB0746C20285CB07668486D21DA
:104F3000C1740020684D644B0146E8615A18C032C4
:104F4000127ACE00B240491C1043C9B20429F5D3ED
:104F5000E861277C6149624A624E63483B0001F088
:104F60002AF80A544C4E50525456585A5C54002059
:104F70002071E07001216171E07220736173A1738F
:104F80006072A172FF22524920762D32E073803187
:104F90000A8482228A834B22D2004A8364224A8472
:104FA0004D4D8A84A8610523237463743223A37151
:104FB0004B23E371022323720123CB841421B171AB
:104FC0005023F37130727072B0720A237B801E25F9
:104FD000BD800F25FD803A8130747074B074798281
:104FE000B982FB823A8330767076B0761E20788460
:104FF000BB840520F8843A859BE70B460EE01346F8
:105000000CE033460AE0394B08E0034606E0384B33
:1050100004E0384B02E0384B00E0384BEB60677C33
:105020003B0000F0C8FF0A1506080A0C150E101206
:10503000141508460CE010460AE0304608E02B48FC
:1050400006E02B4804E02B4802E02B4800E02B4808
:105050002861607A002801D102202072207A00287D
:1050600003D0012806D0022811D01948012101726D
:10507000022103E01648032101720421C171A869CD
:105080004100090E08D0002161776861FEBD10481B
:10509000632101726421F1E701206077FBF76EFC68
:1050A000FBF7ACF9164A174BFBF738F9FBF7DCF9BD
:1050B000A861FBF7C5F9144A144BFBF72FF9FBF76E
:1050C000D3F9E2E710270000F802002000080048AA
:1050D0000000002000002041000100200AD7A33B6F
:1050E0004260E53B6F12033C0AD7233CBC74133C7F
:1050F0005839343CA69B443CF4FD543C8FC2753C6B
:10510000B4D934E70C684A3FCDCCCCCCCCCCF43FFE
:105110007047000010B50121002289020148FDF707
:1051200064FC10BD0004004810B501229102024841
:10513000FDF75BFC10BD00000004004810B5002224
:1051400004210248FDF751FC10BD00000004004896
:1051500010B5012204210248FDF747FC10BD0000F4
:105160000004004810B501210022C9020148FDF7E2
:105170003CFC10BD0004004810B50122D1020248D9
:10518000FDF733FC10BD000000040048FEB53548B3
:10519000C17C00295ED1014640390C46077C603451
:1051A00062780292A278019240310E8E498E00916F
:1051B0000146E578012280313B0000F0FCFE0A3513
:1051C00006080C1A1E2326282C35029B00E0019BA2
:1051D000012B28D028E0009B1E4325D14B8E8C8EBE
:1051E000234321D0029B012B1ED0019B012B1AD1FE
:1051F0001AE0002E18D04B8E13E0009B002B13D02A
:105200008B8E0EE0EB070ED10EE0AB0700E06B07D4
:10521000002B08DB08E0134B403BDB78012B03D16C
:105220002378002B00D14275437D002B12D0012B37
:1052300007D0022B09D0032B0CD10B8C002B0AD0EA
:105240000BE04A8A4A83022103E0498B002901D1FD
:1052500003214175FEBD0B8B0B8400214175C27487
:10526000FEBD000040000020FEB53548017D00294C
:105270005ED1014640390C46477C60346278029228
:10528000A278019240310E8E498E00910146E57858
:10529000012280313B0000F08EFE0A3506080C1A10
:1052A0001E2326282C35029B00E0019B012B28D0D1
:1052B00028E0009B1E4325D14B8E8C8E234321D0AA
:1052C000029B012B1ED0019B012B1AD11AE0002E4C
:1052D00018D04B8E13E0009B002B13D08B8E0EE06A
:1052E000EB070ED10EE0AB0700E06B07002B08DBED
:1052F00008E0134B403BDB78012B03D12378002BD4
:1053000000D18275837D002B12D0012B07D0022B98
:1053100009D0032B0CD10B8C002B0AD00BE08A8A0E
:105320008A83022103E0898B002901D10321817541
:10533000FEBD0B8B0B84002181750275FEBD000044
:1053400040000020FEB53548C17E00295ED10146EF
:1053500040390C46077E603462780292A27801924E
:1053600040310E8E498E00910146E5780122803150
:105370003B0000F020FE0A3506080C1A1E232628E2
:105380002C35029B00E0019B012B28D028E0009BDC
:105390001E4325D14B8E8C8E234321D0029B012BA3
:1053A0001ED0019B012B1AD11AE0002E18D04B8E73
:1053B00013E0009B002B13D08B8E0EE0EB070ED179
:1053C0000EE0AB0700E06B07002B08DB08E0134B97
:1053D000403BDB78012B03D12378002B00D14277AF
:1053E000437F002B12D0012B07D0022B09D0032BB7
:1053F0000CD10B8E002B0AD00BE04A8C4A8502217F
:1054000003E0498D002901D103214177FEBD0B8DB9
:105410000B8600214177C276FEBD000040000020CF
:10542000FEB53548017F00295ED1014640390C4662
:10543000477E603462780292A278019240310E8EEB
:10544000498E00910146E578012280313B0000F051
:10545000B2FD0A3506080C1A1E2326282C35029B9D
:1054600000E0019B012B28D028E0009B1E4325D1A2
:105470004B8E8C8E234321D0029B012B1ED0019B8F
:10548000012B1AD11AE0002E18D04B8E13E0009B8E
:10549000002B13D08B8E0EE0EB070ED10EE0AB0786
:1054A00000E06B07002B08DB08E0134B403BDB7888
:1054B000012B03D12378002B00D18277837F002B2F
:1054C00012D0012B07D0022B09D0032B0CD10B8E4D
:1054D000002B0AD00BE08A8C8A85022103E0898D9B
:1054E000002901D103218177FEBD0B8D0B860021A0
:1054F00081770277FEBD000040000020FEB53548F0
:10550000C17A00295ED1014640390C46077A6034E1
:1055100062780292A278019240310E8E498E0091FB
:105520000146E578012280313B0000F044FD0A3558
:1055300006080C1A1E2326282C35029B00E0019B2E
:10554000012B28D028E0009B1E4325D14B8E8C8E4A
:10555000234321D0029B012B1ED0019B012B1AD18A
:105560001AE0002E18D04B8E13E0009B002B13D0B6
:105570008B8E0EE0EB070ED10EE0AB0700E06B0761
:10558000002B08DB08E0134B403BDB78012B03D1F9
:105590002378002B00D14273437B002B12D0012BC8
:1055A00007D0022B09D0032B0CD10B8A002B0AD079
:1055B0000BE04A884A81022103E04989002901D190
:1055C00003214173FEBD0B890B8200214173C2721E
:1055D000FEBD000040000020FEB53548017B0029DB
:1055E0005ED1014640390C46477A603462780292B7
:1055F000A278019240310E8E498E00910146E578E5
:10560000012280313B0000F0D6FC0A3506080C1A56
:105610001E2326282C35029B00E0019B012B28D05D
:1056200028E0009B1E4325D14B8E8C8E234321D036
:10563000029B012B1ED0019B012B1AD11AE0002ED8
:1056400018D04B8E13E0009B002B13D08B8E0EE0F6
:10565000EB070ED10EE0AB0700E06B07002B08DB79
:1056600008E0134B403BDB78012B03D12378002B60
:1056700000D18273837B002B12D0012B07D0022B29
:1056800009D0032B0CD10B8A002B0AD00BE08A889F
:105690008A81022103E08989002901D103218173D4
:1056A000FEBD0B890B82002181730273FEBD0000D9
:1056B0004000002070B5134E0025308A3446803CEF
:1056C000002802D0FFF758FD04E0FFF74BFDE5721C
:1056D0002573E573308C002802D0FFF725FD04E028
:1056E000FFF718FDE5742575E575308E002802D0AA
:1056F000FFF72EFD70BDFFF721FDE5762577E577F5
:1057000070BD0000C00000200E4800214278012A30
:1057100000D141708278012A00D18170C178CA0716
:1057200002D049084900C170C9B28A0702D5FD22DA
:105730001140C170C9B24A0702D5FB221140C170A5
:105740007047000060000020FEB53348C17C01298D
:1057500002D0017D012953D12F49877C40390A4667
:105760006032537802939378019340310E8E498EC4
:10577000009129490124D57880313B0000F01BFCC1
:105780000A3506080C1A1E2326282C35029A00E03A
:10579000019A012A28D028E0009A164325D14A8E82
:1057A0008B8E1A4321D0029A012A1ED0019A012A17
:1057B0001AD11AE0002E18D04A8E13E0009A002A5F
:1057C00013D08A8E0EE0EA070ED10EE0AA0700E0A1
:1057D0006A07002A08DB08E00F4B403BDB78012B0F
:1057E00003D11278002A00D1C475C27D002A07D0E7
:1057F000012A06D0022A08D0032A01D100200884F9
:10580000FEBDCA8ACA83022103E0C98B0029F7D1F1
:105810000321C175FEBD000040000020FEB53348E5
:10582000C17E012902D0017F012953D12F49877EF2
:1058300040390A466032537802939378019340319D
:105840000E8E498E009129490124D57880313B0084
:1058500000F0B1FB0A3506080C1A1E2326282C3549
:10586000029A00E0019A012A28D028E0009A164303
:1058700025D14A8E8B8E1A4321D0029A012A1ED03E
:10588000019A012A1AD11AE0002E18D04A8E13E08C
:10589000009A002A13D08A8E0EE0EA070ED10EE09D
:1058A000AA0700E06A07002A08DB08E00F4B403B2C
:1058B000DB78012B03D11278002A00D1C477C27F94
:1058C000002A07D0012A06D0022A08D0032A01D1D3
:1058D00000200886FEBDCA8CCA85022103E0C98D5E
:1058E0000029F7D10321C177FEBD00004000002050
:1058F000FEB53348C17A012902D0017B012953D179
:105900002F49877A40390A46603253780293937858
:10591000019340310E8E498E009129490124D5789A
:1059200080313B0000F047FB0A3506080C1A1E23A5
:1059300026282C35029A00E0019A012A28D028E076
:10594000009A164325D14A8E8B8E1A4321D0029A93
:10595000012A1ED0019A012A1AD11AE0002E18D06D
:105960004A8E13E0009A002A13D08A8E0EE0EA07CE
:105970000ED10EE0AA0700E06A07002A08DB08E063
:105980000F4B403BDB78012B03D11278002A00D16A
:10599000C473C27B002A07D0012A06D0022A08D08D
:1059A000032A01D100200882FEBDCA88CA810221D3
:1059B00003E0C9890029F7D10321C173FEBD0000AE
:1059C000400000207047000070B5184D012068604D
:1059D0000220A8600320164CE860207C617C154EF4
:1059E000084306D001208002286029463046FCF793
:1059F00053FF207A617A084306D00120C002286054
:105A00000A493046FCF748FF207E617E084305D0F6
:105A10000420286005493046FCF73EFFFFF77AFB7B
:105A2000FFF7A0FBFFF78AFB70BD0000E402002037
:105A3000400000200004004810B5FDF7EFF910BD4C
:105A400030B591B0002405200094C00402250A90CE
:105A5000099408950B946846FDF774FB002800D064
:105A6000FEE707200C900E9401210D950F940CA8D1
:105A7000FDF794FA002800D0FEE711B030BD000019
:105A8000134801680122114301604168114A114025
:105A900041600168104A11400160016801229204CE
:105AA0009143016041683F22120491434160C16A01
:105AB00009090901C162016BFF221432914301639C
:105AC000416B490849004163002181607047000033
:105AD000001002400CB8FF08FFFFF6FE10B50E489C
