:020000040800F2
:1000000090080020CD000008D94000083F3D0008BE
:1000100000000000000000000000000000000000E0
:10002000000000000000000000000000B55B0008B8
:10003000000000000000000011530008295C0008C7
:10004000DF00000800000000DF000008DF000008FB
:10005000DF000008DF0000082D1C0008491C000814
:1000600000000000A1130008DF000008DF00000806
:10007000DF000008DF000008DF00000800000000CB
:10008000DF0000080000000000000000DF000008A2
:10009000DF000008195D0008755D0008DF0000083A
:1000A000DF000008DF000008DF000008DF000008B4
:1000B000DF0000080448854600F028FC004800479F
:1000C000ED6A0008C046C0469008002004488047FA
:1000D00004480047FEE7FEE7FEE7FEE7FEE7FEE72F
:1000E000715C0008B500000830B50B4601460020E1
:1000F0002022012409E00D46D5409D4205D31D462E
:100100009540491B2546954040191546521E002D25
:10011000F1DC30BDF0B51FB40646002082B00546C4
:100120004024019100901BE0019922460F46304681
:1001300000F0DAF9049A059B801A994110D3104611
:100140001946224600F0C0F9361A8F41019722461F
:1001500001200021009F00F0B7F938184D410090B0
:100160002046641E0028DFDC019B009829463246A9
:1001700007B0F0BDF8B502464A40D40F42004B002C
:1001800052085B089A4202D20246084611464A00CB
:1001900023D0C30D4A00DDB2120EAD1A202D35DA80
:1001A00049020126490AF6058A19002C00D052425C
:1001B00020214F1B1146B9402A411018C20D9A4206
:1001C00021D0002C17D0012D08DCDA05801AD20FBF
:1001D0008019D207DBB200F0A0F9F8BDDA05801A69
:1001E000012340001B06C01880185A428018CA0F0D
:1001F0001043490007E04908C2071143DA05801A95
:1002000080194008801800F080F9F8BD61000122D3
:10021000511A001BF7E70122D2075140AAE7012239
:10022000D2075040A6E7024670B54A40D30FDB071D
:1002300040002DD04A002AD0010E140E00021202F6
:100240000919400A520A8418E50104465443000A79
:10025000120A2E045043A4194219200CC543AA18AF
:10026000120C0125AD03521C521912047F392404CB
:1002700000D0521C104301D44000491EC2B20C06EB
:10028000C0092018401C4008802A02D003E000204A
:1002900070BD40084000002900DA0020184370BDFE
:1002A00070B502464A40D50F40004A00ED074008AD
:1002B0005208002814D0002A12D0C40DD30D4102D8
:1002C0000120C0055202490A520AE41A09181218FC
:1002D0007D34914201D3641C00E04900002C01DA16
:1002E000002070BD0023914201D3891A03434008C6
:1002F00049000028F7D100290AD0914202D10121FA
:10030000C90705E0914201D2012101E00121C94361
:10031000E005C018401900F0F8F870BDF0B51FB442
:1003200088B00B990998002448400999C00F4900EA
:1003300049080991C0070B990090490049080B91A1
:1003400009990898A64608431CD00B990A980843B7
:1003500018D0099801244000420D4800410D099829
:1003600024050003000B204309900B980003000BA9
:1003700020430B9050181C4940180022019014464D
:10038000104605E0002001460DB0F0BD032801DA5B
:10039000034600E003239C46C11A0AAE0AE05F0050
:1003A00008ADED5B4F00F75B7D430027AA187C4149
:1003B000491C5B1E6145F2DD410004AB5A52210429
:1003C000120C0A43240C401C0828DFDB0198029021
:1003D0000099704601910090059B049A0799069830
:1003E00000F0E1F8D0E700000DFCFFFF10B500229F
:1003F0009623114600F091F810BD00000EB5054996
:100400000291002100910A460B46019100F0CBF8C1
:1004100003B000BD33040000410040020122400A45
:10042000D205090E80187F2901DA0020704796292D
:1004300003DC9622511AC8407047963988407047AD
:10044000C20FD207400040080BD0C10D0723DB01CB
:10045000C91840020905400A1143C2084007114368
:100460007047002001467047CB0FDB07490010B5ED
:10047000490802460A4307D00A0D07240903E4018C
:10048000090B121B002A01DC002010BDC900440F1B
:100490000C43C100E018D205801800F036F810BDFA
:1004A0000122D207002800DB101A002900DB511AB4
:1004B000814270470122D207002800DB101A002970
:1004C00000DB511A8842704710B5202A04DB014630
:1004D000203A9140002010BD914020239C1A0346F1
:1004E000E3401943904010BD10B5202A04DB0846B4
:1004F000203AD040002110BD0B46D340D0402024EC
:10050000A21A91400843194610BD002904DA401C84
:10051000490001D140084000704770B40024050C28
:1005200005D11024000402D1002921D01124050E88
:1005300001D100020834050F01D10001241D850FEF
:1005400001D18000A41C002801DB4000641C0029AC
:1005500008D020252E1B0D46F540A14000D00121DA
:100560002943084301061B1B000ADB1D02D500209E
:1005700070BC7047DB05181880180029F8DA401C99
:100580004900F5D170BC40084000704710B5002B01
:1005900008DA0024401C614192185B411A4301D1E2
:1005A0004008400010BDF0B51FB482B005460C00F5
:1005B00003D0084605F0C8FD02E005F0C5FD203077
:1005C0000246009021462846FFF77EFF049B059ACD
:1005D00004460F4618431143084314D018461043ED
:1005E0001BD0009840210A1A18460599FFF77CFF96
:1005F00005460E46009A05990498FFF765FF0843E3
:1006000005D0012004E02046394607B0F0BD0020A7
:10061000C11705430E432C43374300990E986305D9
:10062000401A7905E40A00220C43FD0A0A3002D57B
:1006300000200146E9E70105101969410C9C0D9D58
:1006400000196941FFF7A2FFDFE70000F0B5074698
:100650000846584087B0C00F049048000E46590025
:1006600040084908BC1A884105D2384631461E4622
:1006700017460B4602465800400810434DD0300D37
:10068000039040055900400D490D0590401A029015
:10069000402873DA18030121000B09050843019073
:1006A00004980092002806D01146019A4942002081
:1006B000904100910190029840210A1A01990098F6
:1006C000FFF702FF05460C466B4607CB00F030F9FA
:1006D000C0197141039A0E0D0023D71756401A46D0
:1006E0007A40164344D0049A002A2DD0029A012A57
:1006F000039A15DC1205C01A914101263605001C2B
:100700007141D20F059ED2070093019202962A46AC
:100710002346FFF748FF07B0F0BD38463146FAE7F9
:100720001605234A0F46B218C01AB7410121090520
:10073000001C4F4100187F41114618187941E20F03
:1007400010436D19644113E0E2076D081543640816
:10075000C2071443039A01261205C01A91413605B7
:10076000001C7141CE07400830434908C018514170
:100770002A462346FFF70AFFCDE7FFE70498012248
:100780004000C117121A00238B4104983146C41748
:10079000381AA141EEE730B40124E407634030BCCD
:1007A00054E730B40124E407614030BC4EE7000058
:1007B0000000E0FFF0B50C465C4085B0E40FE407B4
:1007C00003944C00002664085900944649080246E8
:1007D0000296224321D062460A431ED06200570D82
:1007E0004A000E032303550D012402462C4924051B
:1007F000781B1B0B360B40182343264361460090A1
:100800001C46501AB44103D30098401C009002E0EB
:10081000921800985B41002803DA0020014605B0D9
:10082000F0BD0020012109050746864611E0644617
:100830001D46141BB54106D36546521BB341744691
:1008400007430C43A646CD074008490828439218A1
:100850005B4105460D43EAD11046184313D060466C
:10086000194650407140084306D06046101AB34103
:1008700006D20122002306E000220123DB0702E06A
:100880000122D2435310009874460105381C61417F
:10089000029C039D00196941FFF778FEBFE7000045
:1008A000FD0300004A0009030123090B1B0519433E
:1008B0000A4B10B5520D9A4202DA0020014610BDD3
:1008C000064B34339A4203DC9A1AFFF70DFE10BD33
:1008D000034BD218FFF7F8FD10BD0000FF03000026
:1008E000CDFBFFFF10B5002904DB0124E4074042E3
:1008F0008C412146002B04DB1C460123DB075242BE
:10090000A341994200D1904210BD0000064C012540
:10091000064E05E0E36807CC2B430C3C98471034A7
:10092000B442F7D3FFF7CAFBA86E0008C86E0008F0
:1009300010B5202A06DBCB170846203A1041C11714
:100940000B4306E00B461341D0402024A21A9140ED
:100950000843194610BD30B58C180278401C1307A7
:100960001B0F01D10378401C120906D10278401CEC
:1009700003E005780D70401C491C5B1EF9D101E0B5
:100980000B70491C521EFBD1A142E6D3002030BDA2
:100990000021064A08464300D35A401C591880B229
:1009A0001F28F8D9C802000C70470000F803002087
:1009B00010B5234C21482060204601F0B7FA0028EA
:1009C00000D0FEE70120800760600020234601215F
:1009D00004220C33A06007C360762076A176FF2244
:1009E000E076C232E261164A206220321171A062C2
:1009F0000807E062124801F0EBFA002800D0FEE799
:100A00000F4801F0B1F9002800D0FEE70C4803219F
:100A1000403001600121090341600146403801F086
:100A2000FBF9002800D0FEE720220649044801F027
:100A3000E7FB002800D0FEE710BD000000240140C5
:100A40004C010020F803002070B50446006881685E
:100A5000490720D5816810264907002905DA8168F1
:100A6000890702D481683143816002F041F805466C
:100A70000DE002F03DF8401B022808D9A06B30437E
:100A8000A063E06B01210843E063084670BD206865
:100A900080684007EDD4002070BD10B50146406A63
:100AA000826B50231A420AD1816B012252021143F8
:100AB00081630168CA681205920F05D020E0006BBF
:100AC000026B0846904710BD827E002A18D10A6842
:100AD000120715D58A6853070122002B09DB4B68E2
:100AE0000C24A3434B60816B130299431143816330
:100AF00006E0816B202319438163C16B1143C163FD
:100B000001F012FA10BD10B5406A816B402211430A
:100B10008163C16B04221143C16301F057FA10BD18
:100B200010B5406A01F001FA10BDF8B5044600683E
:100B300081688907890F012928D10168C90702D175
:100B4000C168090422D581680522114010250126BB
:100B500001290FD18168022211438160216803209D
:100B6000086001F0C5FF07460CE001F0C1FFC01BA3
:100B7000022807D9A06B2843A063E06B3043E063F1
:100B80000120F8BD20688068C007EED10020F8BDC4
:100B9000F8B5044600200090206881688907890F15
:100BA000012905D10168C9072CD1C168090429D4DC
:100BB0008168154A102611400125002915D1816848
:100BC00029438160124811490068FFF78DFA00E05F
:100BD000401E00900028FBD101F08AFF07460CE080
:100BE00001F086FFC01B022807D9A06B3043A06329
:100BF000E06B2843E0630120F8BD20680068C04333
:100C0000C007EDD10020F8BD1700008040420F0062
:100C100038010020FEB56548407A012823D1634899
:100C200060308189029100291DD0C189019100297C
:100C300019D005460446403D803C2A7A2146603161
:100C4000074600914037617C0026130005F0ABFA9F
:100C50000504134B71A20B00828D002A04D00120E1
:100C600028726674E673FEBD0129FCD1008A002853
:100C7000F9D16674FEBD4D486030808D0028F9D1F1
:100C80004A4CAA8EE03420467F21C038C905C08E68
:100C9000002A11D0002821D12069FFF76BFA0646FF
:100CA00060620298FFF7A2FB3146FFF7BCFAFFF73C
:100CB000B3FB7880022010E000280FD06069FFF7B6
:100CC00059FA064660620198FFF790FB3146FFF73C
:100CD000AAFAFFF7A1FB78800320287233480A2183
:100CE0006030C185FEBD31486030C08D0028F9D12B
:100CF000FFF74EFE7988884202D22D49884203D3FD
:100D0000E07B401CE07300E0E673E07B217C8842DE
:100D10000CD30420287201206074244864216030C0
:100D20000182AE86EE86068606212AE066740320DE
:100D30002CE0E979022937D01C486030C08D0028AA
:100D4000D0D1FFF725FE7988884202D2184988421F
:100D500003D3E07B401CE07300E0E673E07B217C82
:100D6000884211D104202872104801216030018688
:100D70002A8F002AB6D002226274AE86EE860186E1
:100D8000072100980172FEBD667401200749603199
:100D9000C885FEBD028E002AFBD1012904D002299C
:100DA00002D1C08BA886EE862E72FEBD20000020E8
:100DB00056090000F8B5012149032E4801F08CFEC8
:100DC0002D4F3C46603C2146254620318035387405
:100DD000012809D1787C002806D1C87B002803D0DF
:100DE0000120A070E88CA880887F002835D1224E91
:100DF000C87B203E01280DD002282ED1C8790028BA
:100E00002BD1A079002805D17079012806D0B079BE
:100E100001280BD0A078012812D01EE017A005F001
:100E200083F9E88CA8800120A07016E01BA005F0D3
:100E30007BF9E88CA8800120A0700020B0710CE044
:100E4000A888002809D11DA005F06EF921A005F0A1
:100E50006BF90020A070E88BF086A888401E31282E
:100E600004D2387C012801D108203872387C78748B
:100E7000F8BD000000040048600000200A0DA6DB59
:100E8000B0CAC3F6AAF9BA58BCD031202620B5A5FD
:100E9000ABDDAEC9B6A1B35DA5DF00000A0DA6DBD0
:100EA000B0CAC3F6AAF9BA58BCD032202620B5A5DC
:100EB000ABDDAEC9B6A1B35DA5DF00000A0DA6DBB0
:100EC000B0CAC3F6AAF9B5A5ABDDAEC9B6A1A8EC08
:100ED000B94600000A0DC3F6AAF9AEC9B6A1B35DC2
:100EE000A5DF000010B5FF21092000220131C00656
:100EF00001F0F7FD10BD10B5012209201102C00656
:100F000001F0EFFD10BD0000F8B5874C3225277ABF
:100F10002646627A6036A17A207B3B0005F043F9D1
:100F20000AF9061B324F668F9EC5EBF9002A02D0E4
:100F3000002905D1E1E0A572082030870120607208
:100F4000FFF7D9FF308F002801D120726072A07A9C
:100F5000002872D0E2E0002A73D1FF20A5722D3064
:100F600074E0FFF7C8FF03E0002801D0FFF7BAFFE5
:100F7000308F00286ED0A07A002802D1E07A0028B5
:100F800073D1B0E0002A04D0002909D0FFF7B3FFE5
:100F90000AE01420A0726420308701206072F5E717
:100FA000002801D0FFF79EFF308F002801D120726A
:100FB0006072A07A00286CD06EE0142091E0002AC4
:100FC00004D0002906D0FFF796FF07E0A5720120A4
:100FD0006072F8E7002801D0FFF784FFA07B0128AA
:100FE000C9D1002020726072A073C4E7002A04D027
:100FF000002908D0FFF77FFF09E0A5720220E07307
:1010000001206072F6E7002801D0FFF76BFFE17B5B
:10101000002902D1002020726072A07A002802D13B
:10102000E07A002873D1207B002877D1607B0028EC
:1010300074D0A572491EE17370E065E001E0002AFA
:1010400002D0002990D08CE7A5726420308701205F
:10105000607286E70020207260728CE7002A05D05B
:1010600000290AD0FFF747FF0BE050E01420A072E0
:101070006420308701206072F4E7002801D0FFF778
:1010800031FFA07B012894D1002020726072A073F0
:101090008FE7E07A002890D1207B00283ED1607B4A
:1010A00000283BD01420A07238E0002A04D0002988
:1010B00007D0FFF720FF08E0A57235870120607296
:1010C000F7E7002801D0FFF70DFF308F002801D18E
:1010D00020726072A07A002805D1E07A002802D040
:1010E000642020731AE0207B002817D1607B002841
:1010F00014D0A57212E01E2518E7002801D121E7BF
:1011000007E0FFF7EFFE1DE7E07A002806D0257321
:1011100004E000256572FFF7E5FEA573A07AE07292
:10112000207B6073F8BD00006000002008B5134804
:101130004269012149040A43426142690A4000921E
:10114000426949000A43426142690A400092426989
:1011500049000A43426142690A40009242694900DB
:101160000A43426142690A400092426989000A4387
:10117000426140690840009008BD00000010024034
:10118000F8B5464DAA8EE98E10462E462C460843E9
:10119000203E4034002806D1B07E012803D1A08C27
:1011A00060840020B0763D4F403F7879002A04D11A
:1011B000012802D1628C002A02D0002911D026E039
:1011C00000F022FCE08BE886022078710120B076E6
:1011D0003248C030016A491C016200F0A3FD30A012
:1011E00013E0022813D1608C002810D100F00CFC11
:1011F000E08BA88601207871B0762848C03041681D
:10120000491C416000F08EFD29A004F08DFF00F024
:1012100021FC03F093F9688E00283ED128A004F049
:1012200083FFFFF7B5FBFFF7E9F8334A334BFFF7CE
:1012300075F8FFF719F9194EC0367063FFF700F91A
:1012400002460B462EA004F06FFFB069FFF7F8F8D6
:1012500002460B462FA004F067FF797932A004F014
:1012600063FFA98E002906D033A004F05DFF38A0EB
:10127000B16804F059FFE98E002906D039A004F0C6
:1012800053FF3EA0B16804F04FFF618C002902D0EB
:101290003FA004F049FF0A206886F8BD4000002006
:1012A0000A0D4E6F697365207465737420310000F8
:1012B0000A0D4E6F697365207465737420320000E7
:1012C0000A0D3D3D3D3D3D3D3D3D3D3D3D3D3D3DB1
:1012D000B460C0F4B4FAB8D52DAAACBA4173636156
:1012E0006E323D3D3D3D3D3D3D3D3D3D3D3D3D3D08
:1012F0003D3D3D3D3D000000B4D934E70C684A3F18
:101300000A0DA5D8AB65B971C0A3ADC8203D202595
:10131000662056000A0DABDDBEF7B971C0A32020D0
:10132000203D2025662056000A0D4143545F446F3E
:101330006F72203D202564000A0A0DB67DAAF9B31C
:10134000D1BE6CAEC9B6A1203D202564206D7300CE
:101350000A0DB67DAAF9A6B8BCC6203D2025640AB0
:10136000000000000A0A0DC3F6AAF9B3D1BE6CAEA4
:10137000C9B6A1203D202564206D73000A0DC3F677
:10138000AAF9A6B8BCC6203D2025640A00000000CA
:101390000A0D544D5F444C59203D20256400000047
:1013A00010B50248006B00F0A0FF10BD4C010020FA
:1013B00010B504460068054940181421FEF794FE54
:1013C000800020640248E06310BD0000F8FFFDBF0C
:1013D0000000024030B5056C0124AC40C56B6C6068
:1013E000046863604368102B036803D09960006849
:1013F000C26030BD9A600068C16030BDF8B5804EF3
:10140000708E00287AD17FA004F08EFEFFF7C0FA1C
:10141000FEF7F4FF864A874BFEF780FFFFF724F8BC
:101420003446C0346063FFF70BF802460B4682A0D7
:1014300004F07AFEA069FFF703F802460B4683A08A
:1014400004F072FE86A004F06FFEFF3C013CA1791F
:1014500084A004F069FEB08EF18E2546274608432D
:1014600080352037002829D0F87C01280AD17CA0BB
:1014700004F05AFEE98A80A004F056FEE17C84A0C4
:1014800004F052FEB18E00290AD08CA004F04CFE6C
:10149000617A90A004F048FE217A93A004F044FE03
:1014A000F18E00290AD095A004F03EFE617A89A051
:1014B00004F03AFE217A8CA004F036FEA9880029B7
:1014C00002D094A004F030FE317A002912D097A007
:1014D00004F02AFE4A48C030406AFEF7B1FF0246D7
:1014E0000B4697A004F020FE45488030418899A023
:1014F00004F01AFEF879012808D100E07FE09AA0F4
:1015000004F012FEF1799CA004F00EFE607C00282D
:101510000AD053A004F008FE617C9BA004F004FEF6
:10152000298A9EA004F000FE4DA004F0FDFDFFF707
:101530002FFA0146A0A004F0F7FDA5A004F0F4FDE9
:10154000A989A8A004F0F0FDE989ADA004F0ECFDA4
:10155000A07B01280DD142A004F0E6FDAFA004F06D
:10156000E3FD698FB2A004F0DFFDE98FB6A004F0BF
:10157000DBFDA88A002806D039A004F0D5FDA98A91
:10158000B7A004F0D1FDA07B002806D034A004F061
:10159000CBFDA17BB8A004F0C7FD787F012809D15D
:1015A0002FA004F0C1FDBCA004F0BEFD797FC3A054
:1015B00004F0BAFDB87F012809D129A004F0B4FDD8
:1015C000C2A004F0B1FDB97FCAA004F0ADFD0C4D7E
:1015D0002035287A002806D021A004F0A5FD297A1C
:1015E000C9A004F0A1FD1EA004F09EFD6178CBA06F
:1015F00004F09AFDD1A004F097FD0A207086F8BD92
:10160000400000200A0D3D3D3D3D3D3D3D3D3D3D01
:101610003D3D3D3DAAACBA417363616E3D3D3D3DEC
:101620003D3D3D3D3D3D3D3D3D3D3D3D3D3D3D0027
:10163000B4D934E70C684A3F0A0DA5D8AB65B97137
:10164000C0A3ADC8203D2025662056000A0DABDDA5
:10165000BEF7B971C0A32020203D2025662056008A
:101660000A0000000A0A0DA5D8AB65AAF9AAACBA0F
:1016700041203D20256400000A0D20BD77A842B915
:1016800042C2E0AEC9B6A1203D20256400000000A2
:101690000A0D20BD77A842B942C2E0AAACBA4120E7
:1016A0003D2025642028313AAAECAC712F323AA4AF
:1016B000A4AC712F333AA7C0AC7129000A0A0DB649
:1016C0007DAAF9B3D1BE6CAEC9B6A1203D20256478
:1016D000206D73000A0D2050574D5F4475747920BA
:1016E0003D202564000000000A0D2050574D5F503A
:1016F0006572696F64203D20256400000A0A0DC3ED
:10170000F6AAF9B3D1BE6CAEC9B6A1203D202564BE
:10171000206D73000A0A0DC3F6AAF9B5A5ABDDAEBC
:10172000C9B6A1203D202564206D73000A0A0DA8CA
:10173000BEC0A3AAACBA41203D2025640000000031
:101740000A0A0DA8BEC0A3ACC9C576ADAB203D202A
:10175000256600000A0A0DA8BEC0A3ACC9BD75ADC0
:10176000C8203D20256400000A0A0DB1B2B5A1C30E
:10177000F6AAF9AAACBA410053545F436C6F736583
:101780003D202564000000000A0D416E74695F452C
:1017900076656E74203D2025640000000A0A0DA8BD
:1017A000BEC0A3B67DAAF9B0B1A4EEB5A5ABDD204D
:1017B0003D202564000000000A0D202A2A2A2A2A3A
:1017C0002AB7EDAB654144203D20256400000000B0
:1017D0000A0D20A8BEA7A8B0F2B7C74144ADC83AC9
:1017E000000000000A0D204144435F4F50454E5F0A
:1017F0004D41585F313675203D20256400000000C2
:101800000A0D204144435F434C4F53455F4D4158BF
:101810005F313675203D2025640000000A0D20B997
:1018200042C2E04144ADC828A759AEC9293A0000D8
:101830000A0D204144435F4F50454E5F4D41585F74
:1018400062203D20256400000A0D204144435F438F
:101850004C4F53455F4D41585F62203D2025640049
:101860000A0D20544D5F4144435F52656C616F64C3
:10187000203D2025640000000A0D204144435F44C0
:1018800065746563745F53746172745F466C6167FD
:10189000203D2025640000000A0D202F2F2F2F2F20
:1018A0002F2F2F2F2FACF5A57EBD75B0BBB4FAC47A
:1018B000B2B56F5C5C5C5C5C000000000A0D204609
:1018C0006C61675F4952203D202564000A0D202F7E
:1018D0002F2F2F2F2F2F2F2F2FB7CFC3FAB750B463
:1018E000FABEB9B0BBB4FAC4B2B56F5C5C5C5C5C08
:1018F000000000000A0D20466C61675F534D4B20CD
:101900003D202564000000000A0D20B8C1BBEFBED9
:10191000B9AAACBA41203D20256400000A0D204F31
:1019200070456E645F4465746563745F537461727F
:10193000745F466C6167203D202564000A0D00003D
:101940007D218901484307494861002088610122BF
:101950000A610A69D30701D0D203FAD50861886108
:101960007047000000E000E070B51048104D407C6A
:10197000012817D001220121284601F0B2F80B4CB2
:101980006034E06FFFF7DCFF01220221284601F0FE
:10199000A8F8E06FFFF7D4FF064801F037FF0028F2
:1019A00002D0FEE70022E6E770BD00002000002024
:1019B00000040048D801002070B51048104D407C4C
:1019C000012817D000220121284601F08AF80B4C8B
:1019D0006034E06FFFF7B4FF01220221284601F0D6
:1019E00080F8E06FFFF7ACFF064801F00FFF00281A
:1019F00002D0FEE70122E6E770BD000020000020D3
:101A000000040048D801002070B50F4801F00EFF17
:101A1000002800D0FEE7092001224021C00601F085
:101A200060F80A4CE06FFFF78BFF094D002202219E
:101A3000284601F056F8E06FFFF782FF00220121EF
:101A4000284601F04EF870BDD8010020800000202B
:101A500000040048F0B5584B987D012846D100217C
:101A600099751C46203C6079627C844620469646E7
:101A7000DF7940301A460125868F6032002F02D070
:101A8000012F1DD02BE06346002B05D0012B06D083
:101A9000022B06D0A17120E0A17101721DE0A57199
:101AA00057E07346022B1AD00223A3718186D38B91
:101AB000C386143B038796850A235386A1700EE0E4
:101AC0003D4C67462034E479002F10D0012F3AD0E6
:101AD000022F45D0384B203B99718186C186838E79
:101AE000C08E034302D032209082D182F0BD324EAC
:101AF000203EB779012F02D0022F0BD020E0848E38
:101B000014808186002C01D0DD7519E0D975197615
:101B1000597615E0C78E5780012C02D0022C08D0D0
:101B20000DE0002F01D01D7609E019760223C37164
:101B300005E0002F01D05D7601E05976C571C186C0
:101B4000B1710172CBE71C4C203CA571D975197697
:101B50005976C186D38B838696850A235386BEE742
:101B6000154F7546203F022DB9D00225BD718186E3
:101B7000DD7D012D07D03D4680356D88012C04D0D8
:101B8000022C0DD010E0D38B14E01B7E002B04D070
:101B9000C586C38E0A3B038706E0138CC386F8E72D
:101BA0005B7E002B05D0C58696850A235386B970C7
:101BB00095E7938EC386F7E72000002070B5184D97
:101BC000287E0A282BD12E794B22164B1648D2019B
:101BD0000C210024012E0ED001262E718460C460D9
:101BE00004618461446203604260416101F0C0FFAE
:101BF00000280FD0FEE72C718460C460046184610A
:101C00004462036042604161074801F094FF00288C
:101C100004D0FEE702480921603001722C7670BDC5
:101C200000000020003801401802002010B50548CF
:101C30004169090704D508214161084600F06EFC9E
:101C400010BD00000004014010B51449486940056A
:101C500001D508151FE04869000505D50120C0021F
:101C600019E000F05BFC10BD4869C00402D50120FA
:101C7000000310E04869000602D580204861F0E7C3
:101C80004869000402D50120C00304E048698004CB
:101C9000E9D5012040034861E3E70000000401406A
:101CA00000B51B4887B042690121C9040A4342615B
:101CB00042690A400592426949100A4342614269F9
:101CC0000A400592426909010A434261406908409D
:101CD000059010480190002002900720800200909B
:101CE00069460D4800F054FE8020009069460B487C
:101CF00000F04EFE0520400300906946084800F0C1
:101D000047FE00220321072001F04CF907B000BD77
:101D10000010024000002110000800480014004894
:101D20000004004870B50AA004F0FEF901220C4D31
:101D3000D4022146284600F0D4FE0A48C06FFFF7BF
:101D4000FFFD00222146284600F0CBFE70BD0000BA
:101D50000A0D2D2D2D2D4558545F434E5400000083
:101D60000004004880000020F8B5054604462035F0
:101D7000287D0026012808D0012028752068816868
:101D80008907890F012908D101E00220F8BD016807
:101D9000C90738D1C168090435D4A16BFF220132CB
:101DA000914302221143A163C1688907890F009101
:101DB000C16889088900C160206881689207114361
:101DC000816000F095FE07460EE000F091FEC01B1A
:101DD000022809D9A06B0221884310210843A0637F
:101DE000002028750120F8BD206880680028ECDB01
:101DF0002068C168009A1143C160A06B8008800010
:101E0000401CA06304E0A06B20210843A0630126CE
:101E1000002028753046F8BDF8B50025044620346A
:101E20000095227D012A39D00122227503689E681F
:101E3000760767D4384F4E68BE424DD09E6A0F7801
:101E4000BA4016439E620123C26A1B079A421FD002
:101E5000012A1DD0022A1BD0032A19D0042A17D028
:101E6000052A15D0062A13D0072A11D002688B68DC
:101E700056697607760FB3420AD05369DB08DB0058
:101E80005361006842690B7A5B075B0F1A4342613A
:101E90000A68102A04D0112A02D038E00220F8BDC6
:101EA0001E488368102A07D00122920513438360DD
:101EB0000868102803D02AE00122D205F6E7194865
:101EC00017490068FEF710F90A21484300E0401E58
:101ED00000900028FBD11AE0986A0E78B240904337
:101EE00098620968102901D0112910D10B48826825
:101EF000102904D0012189058A43826007E001216D
:101F0000C905F9E7816B2022114381630125002077
:101F100020752846F8BD0000011000000027014090
:101F200040420F00380100207047704770B5040030
:101F30003BD0A06B02210843A0632046FEF784FD3E
:101F400000260546002832D0012D2AD021684A6893
:101F50009F2082434A60216808602068C168184A4F
:101F60001140C16020680169890089080161206809
:101F70004169C908C90041612068016A114A1140DC
:101F800001622068816AC90CC90481620E488168B7
:101F90000322920591438160204600F0D5F8E66364
:101FA000A66320342675284670BD012070BD2046EA
:101FB000FEF7BBFD05460128F3D00120A063C5E76D
:101FC00000023E8300F000F000270140704700004F
:101FD000F8B500260446002805D0A06B254620351C
:101FE000002802D007E00120F8BD0020E06328753A
:101FF000204600F0BDF8A06B1022C006002870DB60
:102000002068816849076CD4A16B130199430223AE
:102010001943A16381688907890F012905D10168E6
:10202000C9070FD1C16809040CD4C16818239943AA
:10203000A3681943C1602068016963688900890841
:10204000194301612068C1683D4B1940C160207E81
:10205000617E8003C9030843A17E4B031843A36A32
:10206000012B02D001231B0300E000231843E36887
:1020700018432369022B09D0002318432B79E57EEE
:102080005B0018430123012D02D00AE00423F4E78A
:10209000002927D0A16B20252943A163E16B1943B7
:1020A000E163E1690D46FF3DC23D02D0256A294347
:1020B00008432168CD680543CD600125E16A2D07FD
:1020C000A94213D0012911D002290FD003290DD024
:1020D00004290BD0052909D0062907D0072905D0E6
:1020E00010E028E0012109040843DAE721684D697E
:1020F000ED08ED004D6121684D69A78D7F077F0FC9
:102100003D434D612168C9680E4D2940814207D188
:102110000020E063A06B80088000401CA06308E002
:10212000A06B022188431043A063E06B1843E06377
:1021300001263046F8BDA06B1043A063F8E700000D
:102140001902FEFFE7FF3F8310B50848C26841153A
:102150000A43C260C2688A43C26082698A4382615C
:1021600009200121C00600F06FF910BD00100240E7
:1021700070B5204986B04A690546012040040243F3
:102180004A614A69024005928A69001202438A61E3
:102190008A69024005924A69012002434A614969FD
:1021A0000026014005910090032001900920694616
:1021B0000296C00600F0ECFB0F48104C41C4802092
:1021C000266060604000A0608000E0602020206108
:1021D000C00160610948083C00F062F8204600F048
:1021E000D3F82C63002203210920656200F0DAFE97
:1021F00006B070BD001002400800024048040020F4
:10220000F7B5044600680025806840073DD426469F
:102210002036307D01280AD001273775607E0128DD
:1022200007D02046FEF7B4FC050002D02EE00220C5
:10223000FEBDA06B16490840FF2101310843A06391
:102240000020E0633075216B12488862216B1248D0
:10225000C862216B1148086321681C20086020684F
:1022600041681022114341602068C1683943C16050
:102270002168206B4031029B019A00F0AFF8206882
:10228000816804221143816000E002252846FEBDDA
:10229000FEF1FFFF9B0A0008210B0008070B000856
:1022A00070B504001FD0206801684908490001602A
:1022B00020680025056020684560206885602068EA
:1022C000C5602046FFF774F8216C01208840E16B5F
:1022D0004860A562E56225636563A5632034657087
:1022E0002570002070BD012070BDF0B4C16B0D6879
:1022F00001680C680422066C1346B3402B420DD0D3
:1023000063070BD50B689B0602D40B6893430B60E5
:10231000016C8A40C16B4A60C16A19E00227B7406C
:1023200002462F4001232032002F15D0A70713D5D6
:102330000C68A40604D40C680A25AC430C605370E6
:10234000036C02219940C36B596000211170816AAE
:10235000002916D0F0BC08470827B7402F4210D0FC
:1023600024070ED50C680E25AC430C60046C19468E
:10237000A140C46B61608363537000211170016BD5
:10238000E6E7F0BC7047000070B5040021D00221E0
:102390002046203005464170226811680E48A36827
:1023A0000140606826691843E36833431843636952
:1023B0001843A3691843E369184308431060204693
:1023C000FEF7F6FF0021A16301206870297008461E
:1023D00070BD012070BD00000FC0FFFFF8B50446BE
:1023E0008C46203001780025012909D0012606708D
:1023F00041780027012905D0077002252846F8BD3D
:102400000220F8BD02214170A763206801684908D5
:102410004900016061462046FEF7DCFFE06A0028C3
:102420002068016802D00E22114306E00A221143FF
:1024300001602068016804229143016020680168FE
:1024400031430160DAE70000F0B5002258E00123D3
:1024500093401C460C4052D096082B4DB60075197F
:10246000AF68AC4695072E0F0F25B540AE463D40F0
:102470000927FF06B84201D100270FE0234FB842D9
:1024800001D101270AE0224FB84201D1022705E01D
:10249000204FB84201D1032700E00527B740AF42E3
:1024A00012D11D4D2E68A6432E606E68A6436E6045
:1024B000AE68A643AE60EE68A643EE606546AD68C2
:1024C0007446A5436446A560056856000324B440DD
:1024D000A5430560D508AD002D182E6AAC465507FA
:1024E000EF0E0F25BD40AE4365462E628568A543BD
:1024F000856045689D434560C368A343C360521C23
:102500000B46D340A3D1F0BD0000014000040048B9
:1025100000080048000C004800040140F8B50646D9
:10252000C7A003F001FECA4800210446203401730D
:102530004173E17680792546203568710121844612
:10254000A871C9023046731A27460922012640376E
:1025500088422ED018DC08287ED080287DD001212A
:10256000890288427AD13A72B94800220276A27F63
:10257000012A73D0C078012870D0F8793043F871FF
:10258000207C01284FD081E0581AB24967D0401A08
:1025900066D003214903884260D1A677FFF734FA59
:1025A0006420FFF7CDF9AA48A6754671C6710420CC
:1025B0009EE0A748017E491C0176A17F01294DD0EC
:1025C000C17801294AD00121A175002141712972E8
:1025D000817306463972F87902210843F871B078A0
:1025E000012807D19A4F9CA08037B98803F09CFD41
:1025F000F88CB880607F012802D100206077F072EB
:10260000A88EE98E02460A4301D00122AA70002852
:1026100001D0022002E0002901D00420F071002046
:10262000707495A0A0E001218902964800F054FA48
:102630006872874F20E0387B401C387392A003F00B
:1026400073FD012189028F4800F046FA6872387BD9
:10265000A17A884210D904E0D6E088E049E02EE073
:10266000BCE0E07E002801D1FFF7A6F9E6768CA059
:1026700003F05AFDFFF7A0F9687A0028DBD0397B18
:102680008CA003F051FDE07E012803D06879022878
:1026900004D00DE0FFF7B8F98BA065E08FA003F040
:1026A00043FDFFF7B1F96420FFF74AF96848467027
:1026B000EE706748A6754671C6718FA054E03A72F5
:1026C000634800220276A27F012A12D0427C022AAD
:1026D0000FD0C07801280CD0607F012807D0F8798E
:1026E00004221043F871207C012803D027E0032046
:1026F0003872F8BD634800F0EFF96872544F14E087
:10270000387B401C38737FA003F00EFD51495D48B3
:1027100000F0E2F96872387BA17A884205D9E67642
:102720007EA003F001FDFFF71FF9687A0028E7D0CB
:10273000397B60A003F0F8FCE07E0128AAD068791C
:10274000012809D165A003F0EFFCFFF75DF96420D3
:10275000FFF7F6F83E4846702E713D48A6750221F7
:1027600041710321C17173A003F0DEFCF8BD74A0B8
:1027700003F0DAFC364900200876A07C0128F5D168
:102780008021724800F0A8F968721EE03048417B51
:102790006FA003F0C9FC2E482D49407B401C4873B4
:1027A00080216A4800F098F968722948E17A407BF4
:1027B00088420AD92648C17801290AD0C6706E72AB
:1027C0000520387269A003F0AFFC687A0028DDD0DC
:1027D000F8BD0021C1706E7268A0F4E7604602285F
:1027E00002D0E88E0028F3D00020E8866677FFF755
:1027F0000BF96420FFF7A4F81548A67546711E2151
:10280000C172C671022073E71148C179491CC9B26F
:10281000C171042900D9C6713A72C179012906D063
:1028200002290AD0032904D0042904D105E0467105
:1028300001E002214171A675F8BD0021FAE7000010
:102840000A0DB1B1A8EEBEB9ABFCA54F3A2000000D
:1028500000000020001000000A0DADABB773B8FCFB
:10286000A44AB5A5ABDDC3F6AAF9AEC9B6A13A2014
:102870002564206D730000000A0D53544F50210A47
:1028800000000000000800480A0D4F50454E206B24
:1028900065792E2E2E2E2E70726573730A0000003D
:1028A0000A0D4A4F47204D6F64653A4F50454E2EF2
:1028B0002E2E0A000A0D436F6E74696E7565203DF9
:1028C0002025640A000000000A0D446F6F72205337
:1028D000746F702E2E2E2E2E0A0000000A0D2D2D44
:1028E0002D2D2D2D2D2DA5DFA759A4CFC2E02D2DE7
:1028F0002D2D2D2D2D2D00000A0D4F50454E210A56
:10290000000000000A0D434C4F5345206B65792EA3
:102910002E2E2E2E70726573730A00000A0D4A4F18
:1029200047204D6F64653A434C4F53452E2E2E0A77
:10293000000000000A0D436C6F7365210A0000005F
:102940000A0D4C6F636B210A000000000014004860
:102950000A0D4C4F434B206B65792E2E2E2E2E7078
:10296000726573732025640A000000000A0D4C4F45
:10297000434B7E7E7E7E7E7E210A00000A0D554EF0
:102980004C4F434B7E7E7E7E7E7E210A00000000FF
:10299000F8B500238DE001249C40A44622407DD060
:1029A0004C68022C01D0122C0CD1DC08A400271892
:1029B0003C6A5D07ED0E0F26AE40B4430E69AE4093
:1029C00026433E6205685E000324B4400F79A543A8
:1029D000BF07BF0FB7402F4307604D68012D05D0DB
:1029E000022D03D0112D01D0122D0ED18568CF6894
:1029F000A543B7402F43876047686546AF430D79CD
:102A0000ED06ED0F9D403D434560C568A5438C68CC
:102A1000B4402C43C4604C68E40049D5284CA569F7
:102A200001263543A561A4699D0834400094254CD6
:102A3000AD002F19BC689D072E0F0F25B540AC4384
:102A40000925ED06A84201D100250FE01E4DA84240
:102A500001D101250AE01D4DA84201D1022505E062
:102A60001B4DA84201D1032500E00525B5402543B3
:102A7000BD60184C25684E689543F60300D5154394
:102A8000256065684E689543B60300D515436560BB
:102A9000A5684E689543F60202D500E008E01543AC
:102AA000A560E5684E689543B60200D51543E5601C
:102AB0005B1C0A681446DC4000D06CE7F8BD0000DF
:102AC00000100240000001400004004800080048D7
:102AD000000C0048000401400069084000D00120BB
:102AE0007047002A01D08161704781627047000001
:102AF00001488068704700003C01002070B5024624
:102B000040325378202B1CD11378012B19D001238C
:102B1000137024245470046825689D43256004685C
:102B200025681E03B5432560046825680D432560AC
:102B30000068016819430160202050700020107067
:102B400070BD022070BD406C7047000070B504007D
:102B500006D02546403568780026002802D005E0DA
:102B6000012070BD2E70204600F09AF92420687074
:102B7000206801684908490001600F216068090662
:102B800088432168086121688A680120C003824364
:102B90008A60E1680129A16808D0212292021143CC
:102BA00022689160E168022902D005E00143F7E75D
:102BB00001212268C902516021684A680F4B1A43FB
:102BC0004A602168CA688243CA6061692069084313
:102BD000A169090208432168C860216AE0690843C5
:102BE0002168086020680168012211430160666461
:102BF000202068702663AE70002070BD0080000247
:102C0000FFB5054604464035687883B0202875D165
:102C10000C98002814D00D98002811D0287801288D
:102C20006CD001202870FFF763FF07460122009057
:102C30001923D103204601F041F9002874D103E0A3
:102C40000120400260646FE0222068704020A8707C
:102C5000002666640C9860620D98608566630E9825
:102C60000090019704A90EC9204601F0B3F800288E
:102C700001D02E7058E0618D3448FF2905D9FF221C
:102C8000228501231B06009006E0618D21850090BE
:102C9000208D0123C2B25B062046049901F0FAF8A8
:102CA00000970022042120460E9B01F007F900281E
:102CB0003AD12068406A616A0870606A401C6062AC
:102CC000208D401E81B22185608D401E6085608D03
:102CD00000281FD000291DD1009700228021204606
:102CE0000E9B01F0EBF800281ED1608DFF2806D95D
:102CF000FF22228501231B06009607E024E0608D59
:102D000020850096208D0123C2B25B0620460499DF
:102D100001F0C0F8608D0028C2D13A4620460E99D5
:102D200001F0F3F8002802D0012007B0F0BD2068C0
:102D30002021C16120684268054B1A4042606970D9
:102D4000AE702E700020F0E70220EEE70024008035
:102D500000E800FEFFB5054604464035687883B0BC
:102D6000202872D10C98002814D00D98002811D07A
:102D70002878012869D001202870FFF7B9FE07469E
:102D8000012200901923D103204601F097F8002872
:102D900071D103E00120400260646CE02120687082
:102DA0004020A870002666640C9860620D986085CB
:102DB00066630E980090019704A90EC9204601F0A1
:102DC00039F8002801D02E7055E0608DFF2805D914
:102DD000FF22228501231B06009606E0608D2085D8
:102DE0000096208D0123C2B25B062046049901F0B3
:102DF00051F83A4620460E9901F0ADF800283AD134
:102E0000606A216800788862606A401C6062608D38
:102E1000401E6085208D401E80B22085618D002976
:102E20001FD000281DD100970022802120460E9B34
:102E300001F044F800281ED1608DFF2806D9FF223A
:102E4000228501231B06009607E024E0608D208583
:102E50000096208D0123C2B25B062046049901F042
:102E600019F8608D0028C4D13A4620460E9901F029
:102E70004CF8002802D0012007B0F0BD20682021C6
:102E8000C16120684268054B1A4042606970AE70AB
:102E90002E700020F0E70220EEE7000000E800FEC0
:102EA00030B58BB0202005901020089005A800F0C8
:102EB0007DF816484269012189040A43426142694A
:102EC0000A40099242690A43426142690A400992F2
:102ED000C269C9000A43C261C0690124084009905F
:102EE00040200090122001900320094D039002948D
:102EF000694604942846FFF74BFD80200090694600
:102F000004942846FFF744FD0BB030BD001002408A
:102F1000000400480248816802788918816070477F
:102F20003C01002010B506480168102211430160E1
:102F3000032000F007F800F027F8002010BD000083
:102F40000020024070B504460D4D7D202978C00058
:102F5000FDF7CAF801460B480068FDF7C5F800F018
:102F600031FB002809D1042C07D200222146401E43
:102F700000F018F800206C6070BD012070BD0000EA
:102F80003C0100203801002070470000002805DBCC
:102F9000C106C90E01208840014908607047000041
:102FA00000E100E010B503F00BF910BDF8B50546DF
:102FB0000068354CC00352D5E0690026C00007D434
:102FC000E16920040143E161E169014001260091CA
:102FD0002E480168C90510D40168821511430160AB
:102FE000FFF786FD074604E0FFF782FDC01B64285B
:102FF00024D826480068C005F6D5206A03273F027A
:10300000384020D06968394081421CD0206A226A49
:10301000B843012109040A432262226A8A432262D8
:103020002062C0070FD0FFF763FD009008E0FFF7B4
:103030005FFD0099411A1648814201D90320F8BD6D
:10304000206A8007F3D5206A6968B8430843206284
:10305000002E04D0E169012000078143E161287856
:10306000C00705D0206BA968800880000843206352
:103070002878800605D5206B10218843E96808432D
:1030800020630020F8BD00000010024000700040E6
:1030900088130000F8B50F46060059D03A4D28684D
:1030A000C007C00FB84209D2286840084000384322
:1030B00028602868C007C00FB84249D13068334C37
:1030C00081070CD5400704D5606807210902084331
:1030D00060606068F0218843B168084360603078C0
:1030E000C00726D0706801280ED0216802280ED0B3
:1030F000890700292CDA6168890889000143616029
:10310000FFF7F6FC00900DE021688903F1E78901E3
:10311000EFE7FFF7EDFC0099411A1D48814201D904
:103120000320F8BD60680C2108407168890088425E
:10313000EFD12868C007C00FB8420BD928684008F3
:103140004000384328602868C007C00FB84201D04B
:103150000120F8BD3078400706D5606807210902D4
:103160008843F1680843606000F028F86168094A04
:103170000906090F515CC840074908600320FFF7A2
:10318000E1FE0020F8BD00000020024000100240D7
:1031900088130000906E000838010020044805499B
:1031A00000684968044A4905490F515CC8407047A6
:1031B0003801002000100240A06E000810B514A3D2
:1031C0000FCB88B06C460FC415A30FCB0FC4184AA1
:1031D00051680C200B4603401648042B16D0082BD0
:1031E00014D18B021B0F6C46E45CD26A04AB12074D
:1031F000120F9A5CC90305D500231946FCF78AFF14
:10320000214601E020460C4902F0B5FF08B010BD90
:1032100002030405060708090A0B0C0D0E0F101017
:103220000102030405060708090A0B0C0D0E0F1016
:103230000010024000127A0000093D00FEB50400B3
:1032400070D02078DC4DC0074AD068680007800F36
:10325000012807D068680007800F022809D1686834
:10326000C00306D5286880033AD560680028E7D0F7
:1032700036E06168012914D001208004002901D0C2
:10328000052914D02A68012109048A432A60296883
:10329000814329606068002816D0FFF729FC0646A4
:1032A0000EE028680121090408432860F2E7296834
:1032B00001432960F5E7FFF71BFC801B64286ED8EB
:1032C00028688003F7D50BE0FFF712FC064604E000
:1032D000FFF70EFC801B6428F1D828688003F7D420
:1032E00020780126800700283CDA68680007800FF4
:1032F00007D068680007800F022809D16868C003FA
:1033000006D42868800716D5E06801280AD112E0A3
:10331000E0680028286816D030432860FFF7E8FBF3
:10332000074605E043E1FFF7E3FBC01B0228C6D8D0
:1033300028688007F7D52868F82188432169C900E3
:10334000084328600EE0400840002860FFF7D0FBEB
:10335000074604E0FFF7CCFBC01B0228AFD8286863
:103360008007F7D42078000722D5E0690028686A32
:103370000ED030436862FFF7BBFB074604E0FFF75F
:10338000B7FBC01B02289AD8686A8007F7D50FE000
:10339000400840006862FFF7ABFB074605E09DE090
:1033A000FFF7A6FBC01B022889D8686A8007F7D4FC
:1033B000207804274007002860DA00200190E8699F
:1033C000C00008D4E969B8060143E961E969014030
:1033D00001200091019079480168C90511D4016864
:1033E000821511430160FFF783FB009005E0FFF7B2
:1033F0007FFB0099401A642870D870480068C005A7
:10340000F5D5A06801280AD0002801D0052810D0E1
:10341000286A400840002862286AB84301E0286A08
:1034200030432862A068002812D0FFF761FB0090AB
:103430000AE0286A38432862F1E7FFF759FB009950
:10344000411A5F48814249D8286A8007F5D50DE0C6
:10345000FFF74EFB009006E0FFF74AFB0099411A88
:10346000574881423AD8286A8007F5D40198002845
:1034700004D0E969012000078143E9612078C00692
:1034800035D5606901280CD0401D686B23D03843C6
:103490006863686B400840006863FFF729FB0646D5
:1034A00022E0686B38436863686B30436863FFF7FA
:1034B0001FFB064604E0FFF71BFB801B02285BD8BE
:1034C000686B8007F7D5686BF8218843A169C9004C
:1034D000084368630BE0B8436863F4E74CE0FFF728
:1034E00007FB801B022847D8686B8007F7D4206A47
:1034F00000285ED069680907890F022942D0012699
:1035000036060228286805D0B0432860FFF7F0FA95
:10351000044633E0B0432860FFF7EAFA074604E0C8
:10352000FFF7E6FAC01B022826D828688001F7D4E6
:10353000E86AE16A000900010843E862616AA06A7A
:10354000084369683D221204914308436860286873
:1035500030432860FFF7CCFA044604E0FFF7C8FACE
:10356000001B022808D828688001F7D521E0FFF762
:10357000BFFA001B022801D90320FEBD2868800184
:10358000F5D416E00128F8D06868E96A012212042F
:10359000636A02409A420AD10907E26A090F91421E
:1035A00005D10F2189040840A16A884201D0012079
:1035B000FEBD0020FEBD0000001002400070004073
:1035C00088130000094910B5401E884201D9012026
:1035D00010BD074C60610321081F02F0F1FD0020BF
:1035E000A06107202061002010BD0000FFFFFF0048
:1035F00000E000E070B50446006801690025C94399
:103600008907002915DBC168C943890711D4E91E60
:10361000016101202077206880698007204602D060
:1036200000F01AF904E000F0C9F9204600F0C7F9EB
:10363000257720680169C943490717D4C168C94380
:10364000490713D40421C94301610220207720686F
:1036500080698005800F204602D000F0FDF804E06C
:1036600000F0ACF9204600F0AAF92577206801693E
:10367000C943090716D4C168C943090712D40821F0
:10368000C9430161042020772068C0698007204673
:1036900002D000F0E1F804E000F090F9204600F0DC
:1036A0008EF9257720680169C943C90617D4C16816
:1036B000C943C90613D41021C943016108202077EA
:1036C0002068C0698005800F204602D000F0C4F851
:1036D00004E000F073F9204600F071F925772068C6
:1036E0000169C943C90708D1C168C943C90704D1E1
:1036F000891E0161204600F02FF820680169C94346
:10370000090609D4C168C943090605D48021C94303
:103710000161204600F03AF820680169C943490672
:1037200009D4C168C943490605D44021C943016190
:10373000204600F0FFF920680169C943890609D4D1
:10374000C168C943890605D42021C94301612046C7
:1037500000F01DF870BD000010B50B48817A491CBF
:10376000C9B28172027A914201D100218172427AFA
:103770000920C9B2C006914201D2002200E0012214
:103780004021FFF7AEF910BD0000002070477047E0
:1037900070B5040005D025462035687F002802D08A
:1037A00006E0012070BD00202877204600F00AF8CE
:1037B00002206877211D206802F0EAFA012068776C
:1037C000002070BD08B510488269012149040A43F0
:1037D000826182690A400092826949000A438261DB
:1037E000806902220840009003211520FFF7DAFBD0
:1037F000002203211620FFF7D5FB1520FFF7C6FB9B
:103800001620FFF7C3FB08BD001002400268D36812
:1038100001210B43D360006882685207520F062AC9
:1038200002D002680A430260002070470168CA683B
:1038300052085200CA600068016A064A114207D164
:10384000016A9210114203D10168490849000160E0
:103850000020704711110000704770B504460068E1
:1038600001690025C9438907002915DBC168C943DF
:10387000890711D4E91E0161012020772068806941
:103880008007204602D0FFF7E7FF04E000F096F83B
:10389000204600F094F8257720680169C94349075C
:1038A00017D4C168C943490713D40421C94301612E
:1038B00002202077206880698005800F204602D092
:1038C000FFF7CAFF04E000F079F8204600F077F82F
:1038D000257720680169C943090716D4C168C9431F
:1038E000090712D40821C943016104202077206808
:1038F000C0698007204602D0FFF7AEFF04E000F069
:103900005DF8204600F05BF8257720680169C9431F
:10391000C90617D4C168C943C90613D41021C943C5
:103920000161082020772068C0698005800F20464B
:1039300002D0FFF791FF04E000F040F8204600F0CD
:103940003EF8257720680169C943C90708D1C168D5
:10395000C943C90704D1891E0161204600F030F82F
:1039600020680169C943090609D4C168C943090629
:1039700005D48021C94301612046FFF707FF206875
:103980000169C943490609D4C168C943490605D438
:103990004021C9430161204600F0CCF8206801694C
:1039A000C943890609D4C168C943890605D42021C1
:1039B000C94301612046FFF7EAFE70BD70477047BA
:1039C000F8B55A4C002760892646401C80B26081B9
:1039D0002189203E491C2181E188491CE1800A2877
:1039E00008D1B07A02F0CEF9B072307B02F0CAF999
:1039F000307367812089642878D14C4D403DA88E72
:103A000002F0C0F9A886E88E02F0BCF9E886A08D25
:103A100002F0B8F9A085E08D02F0B4F9E085208EBF
:103A200002F0B0F92086608E02F0ACF96086E88F73
:103A300002F0A8F9E887688E02F0A4F96886608C25
:103A400002F0A0F96084A08802F09CF9A080208A8E
:103A500002F098F92082A08A02F094F9A082288FBF
:103A600002F090F928878035688A02F08BF9688225
:103A7000688C02F087F96884688E02F083F96886A2
:103A8000A88902F07FF9A881E88902F07BF9E88132
:103A9000288A02F077F92882A88B02F073F9A883AC
:103AA000E88B02F06FF9E883288C02F06BF9288428
:103AB000A88D02F067F9A885E88D02F063F9E88522
:103AC000288E02F05FF92886E08A1949884201D0E1
:103AD000401C80B2E082288F02F054F92887134DF1
:103AE000803DA87D02F04EF9A8752781E0887D21F0
:103AF000C90088420ED10D4DE780803DE87A02F082
:103B000041F9E872608A02F03DF96082208B02F090
:103B100039F92083B07A002802D0FDF7ECF9F8BD1E
:103B2000307B0028FBD0FDF7DDF9F8BD80000020D8
:103B3000FFFF0000704770B5040017D024206067B5
:103B40002068016849084900016020680025056077
:103B50002068456020688560204600F03FF8E567F2
:103B60006567A56760342574002070BD012070BDB5
:103B700010B5040003D0606F002802D007E00120D8
:103B800010BD002170200155204600F03FF8242090
:103B9000606720680168490849000160204602F01A
:103BA000D1F90128ECD0606A002802D0204602F04A
:103BB00033F9206841680122D202914341602068B4
:103BC00081680822914381602068016801221143C5
:103BD0000160204602F086F910BD000010B50A48C9
:103BE000C268012189030A43C260C2688A43C26075
:103BF00009244115E4062046FEF726FC012189022E
:103C00002046FEF721FC10BD0010024030B51748D9
:103C100087B04269012149040A43426142690A406E
:103C2000059242690A43426142690A4005928269EB
:103C3000C9100A4382618069012408400590481137
:103C400000900220019003200925ED0603900294C4
:103C5000694604942846FEF79BFEA0020090694640
:103C600004942846FEF794FE07B030BD00100240D1
:103C7000FFB50446406F83B017460D4620285CD13F
:103C8000002D0AD0002F08D0A168C001814207D1C1
:103C90002069002804D1E80702D0012007B0F0BD58
:103CA000204660300290007C012846D00298012115
:103CB00001740020E06721206067FEF719FF2646A7
:103CC00040360190378277820120A168000381424B
:103CD00002D12069002802D02F46002511E00027DC
:103CE0000FE000228021204602F0D0F9002815D1F3
:103CF000002F15D02168387808857F1C708A401EF7
:103D00007082708A019B002806980090E9D10022F9
:103D10004021204602F0BAF9002808D00320BDE770
:103D200028882168C005C00D0885AD1CE6E7202065
:103D30006067029900200874B0E70220AEE7FEE752
:103D400001688A69D243920701D400228A6200681E
:103D50008169C943C90703D0816901221143816187
:103D600070470000F7B5044600680E468069C043FE
:103D7000C0062BD420272546403520688069C043E3
:103D8000800612D5701CF8D0FEF7B2FE0299401AD8
:103D9000B04201D8002EF0D1606C384360646F707F
:103DA0000020A87028700120FEBD21681020C86185
:103DB0002068C7612046FFF7C3FF20684168044AB6
:103DC00011404160606C04210843E7E70020FEBD1C
:103DD00000E800FEF8B50446164615481D46DAB25E
:103DE0000090079F0023204600F054F83A462046F2
:103DF000069900F0B0F8002818D12846F5B201283D
:103E000009D02168300A88623A462046069900F0B7
:103E1000A2F800280AD1206885620097002240217C
:103E20002046069B00F04AF8002800D00120F8BD8B
:103E300000200080F8B50446164615481D46DAB243
:103E4000C3020090079F204600F024F83A4620461F
:103E5000069900F080F8002818D12846F5B201280C
:103E600009D02168300A88623A462046069900F057
:103E700072F800280AD1206885620097002280210C
:103E80002046069B00F01AF8002800D00120F8BD5B
:103E900000200080F0B50668059C7568064F600D2F
:103EA000384385438805800D110408431843204397
:103EB00005437560F0BD0000FF63FF03F8B51D46C4
:103EC00017460E46044609E0681C07D0FEF710FEB0
:103ED0000699401AA8420BD8002D09D020688169A4
:103EE000304688430FD00020B842EDD00020F8BD06
:103EF000616C202001436164403460700020A07038
:103F000020700120F8BD0120EEE770B516460D4681
:103F100004460FE0324629462046FFF723FF0028DB
:103F200001D0012070BDFEF7E3FD801BA84208D838
:103F3000002D06D020688069C0438006EAD40020A6
:103F400070BD616C202001436164403460700020CA
:103F5000A0702070E5E770B516460D46044611E0E6
:103F6000324629462046FFF7FDFE002801D00120F9
:103F700070BD681C06D0FEF7BBFD801BA84208D8A8
:103F8000002D06D020688069C0438007E8D4002057
:103F900070BD616C2020014361644034607000207A
:103FA000A0702070E3E7000010B501210022490352
:103FB0000148FEF796FD10BD00080048F8B52548F9
:103FC000C07C012836D12349234C2031888ECA8EEB
:103FD0004B7810432FD008464030C68A8D7A01278F
:103FE00002228038AE4203D247720272C7740DE0DB
:103FF000C97A6918B14205D96321417264210172FD
:10400000C27403E0477202720321C174C07C012BA9
:1040100007D0022811D0E069FCF712FA0F4A104BC2
:1040200013E002280BD0E069FCF70AFA0D4A0E4BA8
:104030000BE0A061F8BD012B01D0E069F9E7E06970
:10404000FCF7FEF9054A094B5242FCF767F9FCF709
:104050000BFAEEE720000020000100203333333359
:104060003333EB3F9A9999999999F13FCCCCF43F2E
:1040700070B5164C012060600220A0600320E06053
:10408000134D206021462846FEF782FC4020092679
:10409000F606206021463046FEF77AFC01204003F8
:1040A000206021460B48FEF773FC01224021304678
:1040B000FEF717FD002201212846FEF712FD00221F
:1040C00002212846FEF70DFD70BD0000E40200202D
:1040D000000400480008004870470000F8B5414F50
:1040E0004048603F408EF979084320D13C46203C4F
:1040F0006078254601264035002814D0FCF748FC9E
:10410000FCF77CF9384A394BFCF708F9FCF7ACF9B5
:10411000E11DF93108638969FCF7CCF90AD2E88F0F
:10412000002805D006E00520E8876670A673F8BD74
:10413000E07DA0752B4880308169006BFCF7B0F9F9
:10414000F5D8E88F0028F2D1A07D0028EFD128A073
:1041500001F0EAFF2348A98E203800291CD0FA7B01
:10416000012A03D11F4AD38C9380A670627CA2746B
:10417000022A01D100226274FE7700222A70467161
:10418000827186731748C28B521A42830220E071F3
:10419000E88E002808D10EE0EA8E002A13D0002213
:1041A000FA772E70427186710E48EB8EC28BD21A4E
:1041B00082830420E071002905D00A488030026A19
:1041C000521C02626675F879012802D1002900D0DC
:1041D000EE710020A886E886287260700220A07325
:1041E000F8BD000080000020B4D934E70C684A3FD5
:1041F0000A0A0DAAF9A8ECA6EC2DB0B1A4EEB942BA
:10420000C2E0210A0A000000F8B55548408E002897
:104210002AD1534F603FF879012825D13D46203DF2
:1042200068782C464034002819D0A08E26462036C7
:10423000002855D0FCF7ACFBFCF7E0F8494A4A4BA4
:10424000FCF76CF8FCF710F92146C0310863896966
:10425000FCF730F90BD2E08F002806D007E00520EC
:10426000E08701206870A873F8BDE87DA8753C4818
:1042700080308169006BFCF713F9F5D8E08F0028D6
:10428000F2D1A87D0028EFD138A001F04DFFA28E19
:10429000002A0DD0F87B012804D13148C18C8180DF
:1042A0000120A870687CA874022801D100206874DD
:1042B0000121F977002020707171294BB071B17321
:1042C00080331E6A761C1E62E1712549CB8B9A1AD7
:1042D0004A83A086E086207268700220A87338E0C6
:1042E000E08E0028C0D0FCF753FBFCF787F81D4A8E
:1042F0001D4BFCF713F8FCF7B7F819498031086338
:104300008969FCF7D7F804D2E08F002801D1E87D55
:10431000A875134880308169006BFCF7C1F8A3D8F9
:10432000E08F0028A0D1A87D00289DD10FA001F02A
:10433000FBFE0020F877012121707071B171E179E5
:104340000129074907D08883A086E086207268701B
:104350000420E871F8BD0A8CE38ED21A8A83F3E751
:1043600080000020B4D934E70C684A3F0A0A0DAA3D
:10437000F9A8ECA6EC2DB0B1A4EEB942C2E0210A36
:104380000A000000F8B5324E34468034B17B254631
:10439000403500291ED02746403F012920D0022960
:1043A00017D12CA001F0C0FEA18A32A001F0BCFE02
:1043B000717C36A001F0B8FEB17C39A001F0B4FEEA
:1043C000A18AB07C01430020002929D0B073B074C9
:1043D000B073F8BDFCF7DCFA6087A087E0871DE0CA
:1043E000B07901280BD00228F3D1388F0028F0D003
:1043F000FCF7CEFAE18F88420DD9E087F8BDFCF7D3
:10440000C7FA618F884201D96087F8BDA18F8842C1
:10441000FBD2A087F8BD29888842FBD22880F8BD4E
:104420000B492031C97F01290AD039780129CED121
:10443000E18FE2899142CAD9E18129882187C6E7C3
:10444000618FA2899142C2D9A181A18FE186BEE785
:10445000000000200A0D204144435F4465746563F9
:10446000745F53746172745F466C6167203D2025F0
:10447000640000000A0D20544D5F4144435F5265C3
:104480006C616F64203D2025640000000A0D20410E
:104490006E74695F4576656E74203D20256400006A
:1044A0000A0D20416E74695F4576656E745F6275B2
:1044B00066203D2025640000FEB51C4E707D01285D
:1044C00033D1F01DF930006A194C010A2070617077
:1044D000010CA170000EE07030468030418B2171DC
:1044E000090A6171818BA171090AE17181892172C7
:1044F000090A6172C089A072000A0827E0720025CB
:104500000C4861192A46009102900123C832019794
:10451000A0210948FEF71EFC0620FDF711FA083518
:10452000EDB2102DECD300207075FEBD0000002010
:10453000380400201027000098020020F8B5514CE4
:1045400000252646403EE08E3746203700280AD018
:10455000A08E002807D0FDF757FAA586E5864AA069
:1045600001F0E2FD47E0012149034D48FEF7B4FAAE
:10457000E18E002902D0002800D1E586B079607173
:10458000F8790028A08E04D000280BD0FDF714FA8B
:1045900031E00028FAD1E08E002806D1FDF734FA88
:1045A000757027E0E08E002802D0FDF7DDF922E0EB
:1045B0007570FDF729FA04202072B079012816D011
:1045C000022817D1F87D012804D0E079012803D012
:1045D00002280CD1012009E032A001F0A5FD608F76
:1045E000002804D12FA001F09FFD0220E071FD758D
:1045F0003D767D76B571A18EE08E014304D0FFF744
:104600006DFDFFF701FE1EE0F97901291AD100289E
:1046100018D1608F002815D0707C002812D123A0FB
:1046200001F082FDE17924A001F07EFDE07901280E
:1046300002D0022806D006E0FD770120207002207B
:10464000B07300E0B573E08E6087A28E0121C902CD
:104650000924E4064D00002A05D000222046FEF77A
:1046600040FA012208E0002801D0012200E00022E7
:104670002046FEF736FA002229462046FEF731FA98
:10468000F8BD0000400000200A0A0D4E473AB9422A
:10469000C2E0AEC9B6A1A650AEC93E3000000000CF
:1046A0000004004854455354203031000A0A0D4894
:1046B000656C6C6F787878000A0A0D53545F436C10
:1046C0006F7365203D20256400000000F8B57AA0D6
:1046D00001F02AFD80A001F027FD77A001F024FD64
:1046E00085A001F021FD8D4C8DA0217A01F01CFDEB
:1046F000E17990A001F018FD617A93A001F014FD1A
:10470000E17B96A001F010FD217C9BA001F00CFD47
:10471000617C9EA001F008FDA17CA1A001F004FD38
:10472000617B7FA001F000FDA17BA2A001F0FCFC59
:10473000217FA5A001F0F8FCE17CA8A001F0F4FC29
:10474000ABA001F0F1FC25466035E88BFBF756FE87
:10475000AC4FAD4B3A46FBF7E1FD02460B46ABA032
:1047600001F0E2FCA88CFBF749FE3A46A64BFBF7AA
:10477000D5FD02460B46AFA001F0D6FC288CFBF716
:104780003DFE3A46A04BFBF7C9FD02460B46B3A0DF
:1047900001F0CAFCE88CFBF731FE3A469A4BFBF776
:1047A000BDFD02460B46B7A001F0BEFC288DFBF70D
:1047B00025FE3A46944BFBF7B1FD02460B46BBA0E3
:1047C00001F0B2FC20462038C07DFBF717FE3A46C8
:1047D0008D4BFBF7A3FD02460B46BEA001F0A4FCE7
:1047E000403DA87AFBF70AFE3A46874BFBF796FD59
:1047F00002460B46C1A001F097FCE87AFBF7FEFDEC
:104800003A46814BFBF78AFD02460B46C5A001F0F4
:104810008BFC2646E036B069FBF712FE02460B46DB
:10482000CAA001F081FC3069FBF70AFE02460B4684
:10483000D0A001F079FC7069FBF702FE02460B463E
:10484000D5A001F071FCA17ADCA001F06DFCE17A49
:10485000E0A001F069FC217BE4A001F065FCE9A087
:10486000316A01F061FCECA001F05EFCF3A001F004
:104870005BFC297BF6A001F057FC697BF9A001F0F5
:1048800053FCA97BFCA001F04FFCA034A088FBF7EF
:10489000B5FD3A465C4BFBF741FD02460B46FBA0DB
:1048A00001F042FCE088FBF7A9FD3A46564BFBF7C6
:1048B00035FD02460B46F5E10A0D3D3D3D3D3D3DD2
:1048C0003D3D3D3D3D3D3D3D3D3D3D3D3D3D3D3D18
:1048D0003D3D3D3D3D3D00000A0D3D3D3D3D3D3DE5
:1048E0003D3D3D3DB0D1BCC6B35DA9773D3D3D3DAD
:1048F0003D3D3D3D3D3D00000A0D2A2A2A2A2AA5BC
:104900005CAFE0B67DC3F628303AC3F6B3AC202FD7
:1049100020313AB67DB1D2290000000020000020ED
:104920000A0D20AAF8B4C1B4FAB8D520203A20253F
:10493000640000000A0D20B1B2B5A1AAF9A55CAFD0
:10494000E03A2025640000000A0D20A8BEA7A8A513
:104950005CAFE020203A2025640000000A0D20A66C
:10496000DBB0CAC3F6AAF920203A2025642028BC6F
:10497000D2A6A129000000000A0D20A654B0CAA5A5
:104980005CAFE020203A2025640000000A0D20B929
:1049900042C2E0A4E8A65620203A20256400000088
:1049A0000A0D20C2EAB971A55CAFE020203A2025AB
:1049B000640000000A0D20B4A3A5DCADB5202020C2
:1049C000203A2025640000000A0D20A6DBB0CAB7FB
:1049D000D3A9FA20203A2025640000000A0D20BD4A
:1049E00077B1D2B0CAA55CAFE03A202564000000E0
:1049F0000A0A0D2A2A2A2A2AB942C2E0B0D1BCC624
:104A0000000000009A9999999999B93F0A0D20B62A
:104A10007DC3F6AAF9B3CCA46AB942C2E0AEC9B666
:104A2000A12020202020203A2025342E316620ACE1
:104A3000ED0000000A0D20AAF8B4C1B4FAB8D5B64A
:104A40007DC3F6AAF9B6A1B96AAEC9B6A120203ACB
:104A50002025342E316620ACED0000000A0D20B177
:104A6000B2B5A1AAF9C3F6AAF9AEC9B6A128506198
:104A7000727420312920203A2025342E316620AC52
:104A8000ED0000000A0D20A6DBB0CAC3F6AAF9AEFD
:104A9000C9B6A12020202020202020202020203A3C
:104AA0002025342E316620ACED0000000A0D20B721
:104AB000D3A9FAAEC9B6A120202020202020202092
:104AC000202020202020203A2025342E316620ACC2
:104AD000ED0000000A0D20ABDDBEF7B971C0A3A642
:104AE000A8A5DFA9B5BFF0AEC9B6A1202020203A05
:104AF0002025342E316620ACED0000000A0D20BDCB
:104B000077A842B942C2E028B2C431AC7129202052
:104B1000202020202020203A2025342E316620AC71
:104B2000ED0000000A0D20BD77A842B942C2E0287E
:104B3000B2C432AC71292020202020202020203A2D
:104B40002025342E316620ACED0000000A0D20AB8C
:104B5000DDBEF7566F6C74202020202020202020FE
:104B6000202020202020203A2025312E3266285671
:104B7000290000000A0D20A8BEA7A8C576ADAB2865
:104B80004F50454E29202020202020202020203A50
:104B90002025322E336600000A0D20A8BEA7A8C526
:104BA00076ADAB28434C4F534529202020202020B0
:104BB0002020203A2025322E336600000A0D20A640
:104BC00054B0CAA750A977B0D1BCC6202020203A43
:104BD000202564000A0D20C2EAB971A750A977B058
:104BE000D1BCC6202020203A202564000A0D20B91F
:104BF00042C2E0B374ABD728317E32292020203A5C
:104C0000202564000A0A0DB942C2E0A6B8BCC6203D
:104C1000203A2564000000000A0A0D2A2A2A2A2ABE
:104C200053746174652D52656C6179207061726195
:104C30006D657465722A2A2A2A2A00000A0D3D3DF4
:104C40003D544D452D52656C61793D3D3D00000060
:104C50000A0D20A6A8A5DFB1F8A5F3413A202564E6
:104C6000000000000A0D20A6A8A5DFB1F8A5F342B8
:104C70003A202564000000000A0D20B8D1B0A3B18D
:104C8000F8A5F3203A202564000000000A0D20A6B4
:104C9000A8A5DFAEC9B6A1413A2025342E31662041
:104CA000ACED000062A001F03FFA2089FBF7A6FB03
:104CB0003A46654BFBF732FB02460B4663A001F018
:104CC00033FA6089FBF79AFB3A465F4BFBF726FB0A
:104CD00002460B4663A001F027FA68A001F024FA0F
:104CE000297D6B4801F020FA6948697D143001F094
:104CF0001BFA6748A97D283001F016FAA08AFBF755
:104D00007DFB3A46504BFBF709FB024660480B46D9
:104D10003C3001F009FAE08AFBF770FB3A464A4B57
:104D2000FBF7FCFA02460B4641A001F0FDF9208B8F
:104D3000FBF764FB3A46444BFBF7F0FA02460B469E
:104D400042A001F0F1F9608BFBF758FB3A463E4B6D
:104D5000FBF7E4FA02460B4642A001F0E5F94DA04C
:104D600001F0E2F9297F4A4801F0DEF94848697FFD
:104D7000143001F0D9F94648A97F283001F0D4F960
:104D8000A08CFBF73BFB3A462F4BFBF7C7FA0246DA
:104D90003F480B463C3001F0C7F9E08CFBF72EFB97
:104DA0003A46294BFBF7BAFA02460B4620A001F01F
:104DB000BBF9208DFBF722FB3A46234BFBF7AEFAFB
:104DC00002460B4621A001F0AFF9608DFBF716FB00
:104DD0003A461D4BFBF7A2FA02460B4621A001F012
:104DE000A3F931A001F0A0F937A001F09DF900204E
:104DF0003E4CB06201463EA001F096F9B06AC00098
:104E000005E0215C3DA001F08FF9F06A401CF062E2
:104E1000B06AC100F06A08318142F2DCB06A401C1D
:104E2000B0622028E6DB37A001F07EF9F8BD000073
:104E30000A0D20A6A8A5DFAEC9B6A1423A202534A6
:104E40002E316620ACED00009999B93F0A0D20B8CB
:104E5000D1B0A3AEC9B6A1203A2025342E316620A8
:104E6000ACED00000A0D20BFE9A558AEC9B6A120DF
:104E70003A2025342E316620ACED00000A0A0D3DA3
:104E80003D3D4143542D52656C61793D3D3D0000EF
:104E9000504C00080A0A0D3D3D3D504F532D5265C0
:104EA0006C61793D3D3D00000A0A0D3D3D3D3D3DB3
:104EB0003D3D3DB0D1BCC6B35DA97720456E643D94
:104EC0003D3D3D3D3D3D3D000A0A0D3D3D3D3D3DE5
:104ED0003D3D3D20454550524F4D205072696E7406
:104EE000203D3D3D3D3D3D3D3D000000F8020020A0
:104EF0000A0D2052253032643A2000002530325805
:104F00002C2000000A0A0D3D3D3D3D3D3D3D3D202C
:104F1000454550524F4D2046696E697368203D3DAE
:104F20003D3D3D3D3D3D0000FEB5FF21E648E54AE3
:104F300001316C4607C401230022A0216038FDF72F
:104F40005FFE002806D0E0486038FDF7FCFD04282D
:104F500000D0FEE78021DD48FDF7BEFDDC490C46B0
:104F600025460F46C03740352034087001287DD0D3
:104F7000D54ED7483178417671788176B178C1764F
:104F8000F17801773179417771798177B179C1779A
:104F9000F0792070307A6070707AA070B07AE0702A
:104FA000F07A2071307B6071707BA071307D20724F
:104FB000707DE071B07D6072F07DE073307E2074B2
:104FC000707E6074B07EA074F07E6073307FA073DA
:104FD000707F2077B07FE0743046018D20466030CE
:104FE000818430462A3041780278080221461043F5
:104FF000603108843046818D20466030C183304660
:105000002E30417802780802214610436031C8846E
:105010003046018E2046603001853220305CFBF73F
:10502000E5F9AC49FBF73CF92146E031C861332092
:10503000305C20753420305C60753520305CA072A7
:105040003620305CE0723720305C20732046318F90
:10505000603041853A20305CA8723B20305CE872B9
:10506000B08FB88030463E30417800E075E002787D
:1050700008021043F8804020805BB88230464230FE
:105080004178027808021043F8824420805BB8849B
:10509000304646304178027808021043F8844820B0
:1050A000805B788130464A304178027808021043AC
:1050B00078834C20805B788530464E30417802788A
:1050C0000802104338815020805B388330465230CC
:1050D000417802780802104338855420315C7C48BE
:1050E000C1756420305C28736520305C687366206D
:1050F000305C28756720305C68756820305C2877E4
:105100006920305C68776A20305CA8736B20305C63
:10511000A8756C20305CA8776D486D210175002161
:105120006D4E694A084631621318C0331B7AC700B6
:10513000BB40401C1943C0B20428F5D33162207D26
:10514000664A674F6749030001F02DF80B554D4F34
:1051500051535557595B5D5F550000202072E07137
:1051600001216172E07320746174A1746073A17392
:10517000FF22574920772D32E07480318A848222C1
:105180000A844B22D200CA836422CA84524E0A8502
:10519000F0610523237563753223A3724B23E372F9
:1051A0000223237301234B851421A9725023EB7230
:1051B00028736873A8730A26BE801E23FB800F2302
:1051C0003B817A8128756875A875B982F9823E831A
:1051D0007A8328776877A8771E20B884FE84052014
:1051E00038857A859BE7104611E038460FE03E4847
:1051F0000DE03E480BE0084609E03D4807E03D4829
:1052000005E03D4803E03D4801E03F2000063061F5
:10521000607D030000F0C7FF0B0F07090B0D0F1196
:10522000131517190F00104611E038460FE02E48ED
:105230000DE02E480BE0084609E02D4807E02D4818
:1052400005E02D4803E02D4801E03F200006706195
:10525000607B002801D102202073207B002803D02E
:10526000012806D0022811D01948012141720221DB
:1052700003E017480321417204210172F0694100E3
:10528000090E08D000216970B061FEBD104863218D
:1052900041726421F1E701206870FBF779FBFBF7AD
:1052A000ADF8174A174BFBF739F8FBF7DDF8F0615B
:1052B000FBF7C6F8144A154BFBF730F8FBF7D4F8A8
:1052C000E2E7000010270000F80200200008004874
:1052D0000000002000002041000100200AD7233CEC
:1052E0000AD7A33CCDCC4C3D8FC2F53C0AD7233D19
:1052F000CDCCCC3DCDCC4C3E9A99993ECDCCCC3E3C
:10530000B4D934E70C684A3FCDCCCCCCCCCCF43FFC
:105310007047000010B50121002289020148FDF705
:10532000E0FB10BD0004004810B5012291020248C4
:10533000FDF7D7FB10BD00000004004810B50022A7
:1053400004210248FDF7CDFB10BD00000004004819
:1053500010B5012204210248FDF7C3FB10BD000077
:105360000004004810B501210022C9020148FDF7E0
:10537000B8FB10BD0004004810B50122D10202485C
:10538000FDF7AFFB10BD000000040048FEB5354836
:10539000C17D00295ED1014640390C46077D60344D
:1053A00062790292A279019240318E8EC98E00916B
:1053B0000146E579012280313B0000F0F4FE0A3518
:1053C00006080C1A1E2326282C35029B00E0019BA0
:1053D000012B28D028E0009B1E4325D18B8ECC8E3C
:1053E000234321D0029B012B1ED0019B012B1AD1FC
:1053F0001AE0002E18D08B8E13E0009B002B13D0E8
:10540000CB8E0EE0EB070ED10EE0AB0700E06B0792
:10541000002B08DB08E0134B403BDB78012B03D16A
:105420002379002B00D14276437E002B12D0012B32
:1054300007D0022B09D0032B0CD14B8C002B0AD0A8
:105440000BE08A8A8A83022103E0898B002901D13B
:1054500003214176FEBD4B8B4B8400214176C27502
:10546000FEBD000040000020FEB53548017E002949
:105470005ED1014640390C46477D60346279029224
:10548000A279019240318E8EC98E00910146E57954
:10549000012280313B0000F086FE0A3506080C1A16
:1054A0001E2326282C35029B00E0019B012B28D0CF
:1054B00028E0009B1E4325D18B8ECC8E234321D028
:1054C000029B012B1ED0019B012B1AD11AE0002E4A
:1054D00018D08B8E13E0009B002B13D0CB8E0EE0E8
:1054E000EB070ED10EE0AB0700E06B07002B08DBEB
:1054F00008E0134B403BDB78012B03D12379002BD1
:1055000000D18276837E002B12D0012B07D0022B94
:1055100009D0032B0CD14B8C002B0AD00BE0CA8A8C
:10552000CA83022103E0C98B002901D103218176BE
:10553000FEBD4B8B4B84002181760276FEBD0000C0
:1055400040000020FEB534480290C07F00285BD1A7
:1055500002983149067F403908466030427901920D
:105560008279009240318C8ECD8EC77901228031B4
:10557000330000F018FE0A3306080C191D212426FA
:105580002A33019B00E0009B012B26D026E02C4310
:1055900024D18B8ECC8E234320D0019B012B1DD098
:1055A000009B012B19D119E0002C17D08B8E12E033
:1055B000002D13D0CB8E0EE0FB070ED10EE0BB0703
:1055C00000E07B07002B08DB08E0134B403BDB7857
:1055D000012B03D10379002B00D142704378002BBB
:1055E00012D0012B07D0022B09D0032B0CD14B8EEC
:1055F000002B0AD00BE08A8C8A85022103E0898D7A
:10560000002901D103214170FEBD4B8D4B86002145
:1056100041700298C277FEBD40000020FCB53248C0
:105620000178002958D10246203A0146577F4B792C
:1056300001938B790093958ED68ECC7901226031BF
:105640003B0000F0B0FD0A3306080C191D2124268A
:105650002A33019B00E0009B012B26D026E0354336
:1056600024D18B8ECC8E234320D0019B012B1DD0C7
:10567000009B012B19D119E0002D17D08B8E12E061
:10568000002E13D0CB8E0EE0E3070ED10EE0A30761
:1056900000E06307002B08DB08E0134B603BDB787E
:1056A000012B03D10379002B00D182708378002B6A
:1056B00012D0012B07D0022B09D0032B0CD14B8E1B
:1056C000002B0AD00BE0CA8CCA85022103E0C98DE9
:1056D000002901D103218170FCBD4B8D4B86002137
:1056E00081700270FCBD000060000020FEB53548EE
:1056F000C17B00295ED1014640390C46077B6034EE
:1057000062790292A279019240318E8EC98E009107
:105710000146E579012280313B0000F044FD0A3565
:1057200006080C1A1E2326282C35029B00E0019B3C
:10573000012B28D028E0009B1E4325D18B8ECC8ED8
:10574000234321D0029B012B1ED0019B012B1AD198
:105750001AE0002E18D08B8E13E0009B002B13D084
:10576000CB8E0EE0EB070ED10EE0AB0700E06B072F
:10577000002B08DB08E0134B403BDB78012B03D107
:105780002379002B00D14274437C002B12D0012BD3
:1057900007D0022B09D0032B0CD14B8A002B0AD047
:1057A0000BE08A888A81022103E08989002901D1DE
:1057B00003214174FEBD4B894B8200214174C273A9
:1057C000FEBD000040000020FEB53548017C0029E8
:1057D0005ED1014640390C46477B603462790292C3
:1057E000A279019240318E8EC98E00910146E579F1
:1057F000012280313B0000F0D6FC0A3506080C1A65
:105800001E2326282C35029B00E0019B012B28D06B
:1058100028E0009B1E4325D18B8ECC8E234321D0C4
:10582000029B012B1ED0019B012B1AD11AE0002EE6
:1058300018D08B8E13E0009B002B13D0CB8E0EE084
:10584000EB070ED10EE0AB0700E06B07002B08DB87
:1058500008E0134B403BDB78012B03D12379002B6D
:1058600000D18274837C002B12D0012B07D0022B35
:1058700009D0032B0CD14B8A002B0AD00BE0CA882D
:10588000CA81022103E0C989002901D10321817461
:10589000FEBD4B894B82002181740274FEBD000065
:1058A0004000002070B5144E0025708A3446803CBC
:1058B000002802D0FFF760FD04E0FFF753FDE57319
:1058C0002574E574708C002802D0FFF72DFD04E0EC
:1058D000FFF720FDE5752576E576708E002802D06D
:1058E000FFF736FD70BDFFF729FD0348E577603807
:1058F0000570C57070BD0000C00000200E4800217A
:105900004279012A00D141718279012A00D1817145
:10591000C179CA0702D049084900C171C9B28A07D2
:1059200002D5FD221140C171C9B24A0702D5FB223E
:105930001140C1717047000060000020FEB533487F
:10594000C17D012902D0017E012953D12F49877DD4
:1059500040390A466032537902939379019340317A
:105960008E8EC98E009129490124D57980313B0062
:1059700000F019FC0A3506080C1A1E2326282C35BF
:10598000029A00E0019A012A28D028E0009A1643E2
:1059900025D18A8ECB8E1A4321D0029A012A1ED09D
:1059A000019A012A1AD11AE0002E18D08A8E13E02B
:1059B000009A002A13D0CA8E0EE0EA070ED10EE03C
:1059C000AA0700E06A07002A08DB08E00F4B403B0B
:1059D000DB78012B03D11279002A00D1C476C27E74
:1059E000002A07D0012A06D0022A08D0032A01D1B2
:1059F00000204884FEBD0A8B0A84022103E0098C42
:105A00000029F7D10321C176FEBD0000400000202F
:105A1000FCB53249CA7F08462030012A02D00278FC
:105A2000012A50D12D4B8E7F403B194660314C7975
:105A300001948C7900944033CF7919469C8EDD8E89
:105A400001228031330000F0AEFB0A3306080C1946
:105A50001D2124262A33019B00E0009B012B26D028
:105A600026E02C4324D18B8ECC8E234320D0019B67
:105A7000012B1DD0009B012B19D119E0002C17D050
:105A80008B8E12E0002D13D0CB8E0EE0FB070ED1D3
:105A90000EE0BB0700E07B07002B08DB08E00F4BA4
:105AA000403BDB78012B03D10379002B00D1C2707E
:105AB000C278002A07D0012A06D0022A08D0032A79
:105AC00001D100204886FCBD0A8D0A86022103E030
:105AD000098E0029F7D10321C170FCBD40000020D0
