:020000040800F2
:1000000088040020CD000008B50D00085B0D000835
:1000100000000000000000000000000000000000E0
:10002000000000000000000000000000330E000887
:100030000000000000000000310E0008350E00082E
:10004000DF00000800000000DF000008DF000008FB
:10005000DF000008DF000008DF000008B10300082F
:1000600000000000DF000008DF000008DF000008DB
:10007000DF000008DF000008DF00000800000000CB
:10008000DF0000080000000000000000DF000008A2
:10009000DF000008990E0008DF000008DF000008FC
:1000A000DF000008DF000008DF000008DF000008B4
:1000B000DF0000080448854600F07EF8004800474D
:1000C00015100008C046C046880400200448804738
:1000D00004480047FEE7FEE7FEE7FEE7FEE7FEE72F
:1000E0003D0E0008B500000830B50B460146002063
:1000F0002022012409E00D46D5409D4205D31D462E
:100100009540491B2546954040191546521E002D25
:10011000F1DC30BDF0B51FB40646002082B00546C4
:100120004024019100901BE0019922460F46304681
:1001300000F030F8049A059B801A994110D31046BC
:100140001946224600F016F8361A8F4101972246CA
:1001500001200021009F00F00DF838184D4100905B
:100160002046641E0028DFDC019B009829463246A9
:1001700007B0F0BD10B5202A04DB0146203A9140BB
:10018000002010BD914020239C1A0346E3401943F0
:10019000904010BD10B5202A04DB0846203AD0401C
:1001A000002110BD0B46D340D0402024A21A91401C
:1001B0000843194610BD0000064C0125064E05E017
:1001C000E36807CC2B430C3C98471034B442F7D378
:1001D000FFF774FF5C1100087C1100087D21890184
:1001E0004843074948610020886101220A610A6981
:1001F000D30701D0D203FAD50861886170470000A7
:1002000000E000E070B50C4D01221146284600F0D8
:10021000A7F90A4CA069FFF7E1FF01220221284655
:1002200000F09EF9A069FFF7D9FF002220210448C1
:1002300000F096F970BD00000004004800000020A6
:100240000008004870B50C4D00220121284600F03E
:1002500087F90A4CA069FFF7C1FF01220221284655
:1002600000F07EF9A069FFF7B9FF002220210448C1
:1002700000F076F970BD0000000400480000002086
:100280000008004870B5012220210B4800F068F9F1
:100290000A4CA069FFF7A2FF094D0022022128465F
:1002A00000F05EF9A069FFF799FF002201212846BE
:1002B00000F056F970BD0000000800480000002062
:1002C0000004004870B539480021C278012A5DD188
:1002D000C1700246037856781289002B02D0012B98
:1002E0000DD053E0002E03D0012E03D0022E04D0F7
:1002F000418100E04281818148E0418145E02B4C11
:1003000001230225E479002E04D0012E2CD0022EE8
:100310003CD12EE08278012A02D0022A0BD021E0C3
:10032000428942824181002A01D003711AE00171A1
:100330004171817116E01D4A012C928902D0022C74
:1003400008D00EE08282002A01D0437109E0417199
:10035000C57106E08282002A01D0837101E08171BB
:10036000C3718181817011E083700171417181716C
:10037000C0E7857041810379012B06D00B4A012C1F
:10038000928A09D0022C0CD000E0828142898389B4
:100390001A4300D1417070BD4379002BF5D1C28959
:1003A000F3E78379002BF0D1028AEEE7000000200A
:1003B00010B50A494869C00501D588150CE048699F
:1003C000000604D58020486100F00AF810BD486995
:1003D0008005FBD5012040024861F5E7000401409B
:1003E00001220C4980280DD00B465B78FF38401E57
:1003F0000BD0FF38012804D1002B02D1CA70022093
:1004000048707047CA700020FAE7002BF9D1CA7013
:100410004A70704700000020F8B500238DE00124E9
:100420009C40A44622407DD04C68022C01D0122C66
:100430000CD1DC08A40027183C6A5D07ED0E0F26DE
:10044000AE40B4430E69AE4026433E6205685E008E
:100450000324B4400F79A543BF07BF0FB7402F4314
:1004600007604D68012D05D0022D03D0112D01D05C
:10047000122D0ED18568CF68A543B7402F43876002
:1004800047686546AF430D79ED06ED0F9D403D434E
:100490004560C568A5438C68B4402C43C4604C6873
:1004A000E40049D5284CA56901263543A561A46916
:1004B0009D0834400094254CAD002F19BC689D0761
:1004C0002E0F0F25B540AC430925ED06A84201D1FA
:1004D00000250FE01E4DA84201D101250AE01D4D67
:1004E000A84201D1022505E01B4DA84201D10325F8
:1004F00000E00525B5402543BD60184C25684E68D1
:100500009543F60300D51543256065684E6895430D
:10051000B60300D515436560A5684E689543F6029D
:1005200002D500E008E01543A560E5684E689543F4
:10053000B60200D51543E5605B1C0A681446DC4032
:1005400000D06CE7F8BD0000001002400000014040
:100550000004004800080048000C00480004014066
:10056000002A01D08161704781627047014880682C
:100570007047000024000020024881680278891832
:10058000816070472400002010B5064801681022E1
:1005900011430160032000F007F800F027F8002065
:1005A00010BD00000020024070B504460D4D7D20B6
:1005B0002978C000FFF798FD01460B480068FFF757
:1005C00093FD00F0ADFA002809D1042C07D20022D7
:1005D0002146401E00F018F800206C6070BD01201C
:1005E00070BD0000240000202000002070470000A3
:1005F000002805DBC106C90E0120884001490860BA
:100600007047000000E100E010B500F0D1FC10BD23
:10061000F8B50F46060059D03A4D2868C007C00FFC
:10062000B84209D22868400840003843286028684A
:10063000C007C00FB84249D13068334C81070CD590
:10064000400704D5606807210902084360606068BC
:10065000F0218843B168084360603078C00726D035
:10066000706801280ED0216802280ED08907002961
:100670002CDA61688908890001436160FFF776FF21
:1006800000900DE021688903F1E78901EFE7FFF7AA
:100690006DFF0099411A1D48814201D90320F8BD20
:1006A00060680C210840716889008842EFD1286891
:1006B000C007C00FB8420BD9286840084000384333
:1006C00028602868C007C00FB84201D00120F8BDDB
:1006D0003078400706D56068072109028843F16831
:1006E0000843606000F018F86168094A0906090FBC
:1006F000515CC840074908600320FFF755FF002000
:10070000F8BD0000002002400010024088130000E5
:100710004C1100082000002010B514A30FCB88B0A6
:100720006C460FC415A30FCB0FC4184A51680C2098
:100730000B4603401648042B16D0082B14D18B020D
:100740001B0F6C46E45CD26A04AB1207120F9A5C72
:10075000C90305D500231946FFF7DCFC214601E05B
:1007600020460C4900F00CFC08B010BD0203040543
:10077000060708090A0B0C0D0E0F101001020304E6
:1007800005060708090A0B0C0D0E0F100010024099
:1007900000127A0000093D00FEB5040070D02078F8
:1007A000DC4DC0074AD068680007800F012807D0D9
:1007B00068680007800F022809D16868C00306D561
:1007C000286880033AD560680028E7D036E0616881
:1007D000012914D001208004002901D0052914D05A
:1007E0002A68012109048A432A6029688143296013
:1007F0006068002816D0FFF7B9FE06460EE02868AC
:100800000121090408432860F2E7296801432960AF
:10081000F5E7FFF7ABFE801B64286ED828688003DD
:10082000F7D50BE0FFF7A2FE064604E0FFF79EFEB9
:10083000801B6428F1D828688003F7D4207801262B
:10084000800700283CDA68680007800F07D06868D6
:100850000007800F022809D16868C00306D4286801
:10086000800716D5E06801280AD112E0E068002868
:10087000286816D030432860FFF778FE074605E069
:1008800043E1FFF773FEC01B0228C6D82868800723
:10089000F7D52868F82188432169C90008432860F2
:1008A0000EE0400840002860FFF760FE074604E0C5
:1008B000FFF75CFEC01B0228AFD828688007F7D47A
:1008C0002078000722D5E0690028686A0ED03043FE
:1008D0006862FFF74BFE074604E0FFF747FEC01BC8
:1008E00002289AD8686A8007F7D50FE040084000D0
:1008F0006862FFF73BFE074605E09DE0FFF736FE26
:10090000C01B022889D8686A8007F7D4207804279A
:100910004007002860DA00200190E869C00008D490
:10092000E969B8060143E961E969014001200091E4
:10093000019079480168C90511D4016882151143F5
:100940000160FFF713FE009005E0FFF70FFE00992E
:10095000401A642870D870480068C005F5D5A068B2
:1009600001280AD0002801D0052810D0286A4008A4
:1009700040002862286AB84301E0286A30432862B0
:10098000A068002812D0FFF7F1FD00900AE0286A65
:1009900038432862F1E7FFF7E9FD0099411A5F4803
:1009A000814249D8286A8007F5D50DE0FFF7DEFDC2
:1009B000009006E0FFF7DAFD0099411A574881429E
:1009C0003AD8286A8007F5D40198002804D0E9694C
:1009D000012000078143E9612078C00635D56069B0
:1009E00001280CD0401D686B23D038436863686BC6
:1009F000400840006863FFF7B9FD064622E0686BD7
:100A000038436863686B30436863FFF7AFFD0646A1
:100A100004E0FFF7ABFD801B02285BD8686B800702
:100A2000F7D5686BF8218843A169C900084368635A
:100A30000BE0B8436863F4E74CE0FFF797FD801BD9
:100A4000022847D8686B8007F7D4206A00285ED058
:100A500069680907890F022942D001263606022853
:100A6000286805D0B0432860FFF780FD044633E0D6
:100A7000B0432860FFF77AFD074604E0FFF776FDF4
:100A8000C01B022826D828688001F7D4E86AE16AEA
:100A9000000900010843E862616AA06A08436968C6
:100AA0003D2212049143084368602868304328605F
:100AB000FFF75CFD044604E0FFF758FD001B022829
:100AC00008D828688001F7D521E0FFF74FFD001B0B
:100AD000022801D90320FEBD28688001F5D416E064
:100AE0000128F8D06868E96A01221204636A0240AA
:100AF0009A420AD10907E26A090F914205D10F21F2
:100B000089040840A16A884201D00120FEBD00206E
:100B1000FEBD00000010024000700040881300007D
:100B2000094910B5401E884201D9012010BD074C6B
:100B300060610321081F00F03BFA0020A06107203C
:100B40002061002010BD0000FFFFFF0000E000E07A
:100B50007047704770B5040005D025462035687F82
:100B6000002802D006E0012070BD00202877204632
:100B700000F00AF802206877211D206800F09AF939
:100B800001206877002070BD08B5094882690121FD
:100B900049040A43826180690022084000900321D1
:100BA0001520FFF731FD1520FFF722FD08BD0000DD
:100BB000001002400268D36801210B43D360006833
:100BC00082685207520F062A02D002680A43026066
:100BD00000207047704770B5044600680169002521
:100BE000C9438907002915DBC168C943890711D4A6
:100BF000E91E016101202077206880698007204676
:100C000002D0FFF7E7FF04E000F096F8204600F07E
:100C100094F8257720680169C943490717D4C1684A
:100C2000C943490713D40421C94301610220207735
:100C3000206880698005800F204602D0FFF7CAFF38
:100C400004E000F079F8204600F077F82577206876
:100C50000169C943090716D4C168C943090712D4F9
:100C60000821C9430161042020772068C0698007FA
:100C7000204602D0FFF7AEFF04E000F05DF820460A
:100C800000F05BF8257720680169C943C90617D4CD
:100C9000C168C943C90613D41021C94301610820A2
:100CA00020772068C0698005800F204602D0FFF7BA
:100CB00091FF04E000F040F8204600F03EF8257770
:100CC00020680169C943C90708D1C168C943C90778
:100CD00004D1891E0161204600F030F820680169C6
:100CE000C943090609D4C168C943090605D480214E
:100CF000C94301612046FFF72BFF20680169C94302
:100D0000490609D4C168C943490605D44021C943ED
:100D10000161204600F020F820680169C943890676
:100D200009D4C168C943890605D42021C94301619A
:100D30002046FFF70EFF70BD7047704710B5054C99
:100D4000608900F0B1F86081A08900F0ADF8A08161
:100D500010BD0000000000207047FEE770B5124C87
:100D6000012060600220A0600320E0600F4D206041
:100D700021462846FFF750FB2020214620600C4CDE
:100D80002046FFF749FB012220212046FFF7E8FB20
:100D9000002201212846FFF7E3FB0022022128461A
:100DA000FFF7DEFB70BD000070000020000400486B
:100DB000000800487047000010B51C4CA18920466F
:100DC0004089002901D0002809D12278002A02D0C8
:100DD000002802D10CE0002802D0FFF733FA10BD42
:100DE000002902D0FFF70EFA10BDFFF74BFA10BD35
:100DF0000029F7D1FFF746FAA178002001290CD08D
:100E00000229F4D1A07022790121012A08D0E279C7
:100E1000012A04D0022A03D003E0A07001E00221DD
:100E2000E17120716071A07110BD00000000002010
:100E30007047704710B5FFF79FFB10BD134801685E
:100E40000122114301604168114A1140416001686B
:100E5000104A11400160016801229204914301602F
:100E600041683F22120491434160C16A09090901A6
:100E7000C162016BFF22143291430163416B490847
:100E8000490041630021816070470000001002406A
:100E90000CB8FF08FFFFF6FE10B50248FFF79BFEF7
:100EA00010BD000030000020C1B2002801D0491E52
:100EB000C8B27047F0B502681A4B1B4C984201D07B
:100EC000A04203D17025AA434D682A43174D184EFE
:100ED000184F98420AD0A04208D0174CA04205D023
:100EE000A84203D0B04201D0B84205D11446032233
:100EF00012029443CA6822438024A2434C692243CD
:100F000002608A68C2620A688262984205D0A8427A
:100F100003D0B04201D0B84201D109690163012177
:100F20004161F0BD002C0140000400400040014040
:100F300000440140004801400020004010B50C482A
:100F40007D21C9000068FFF7CFF80A49401EC8613B
:100F50000A49094A0A606322CA60486000200861A1
:100F6000102248618A6088610846FFF7F3FD10BDD2
:100F7000200000200000002000440140300000203C
:100F8000F8B5040C8BB2264682B25E430D0C1046B7
:100F9000370C5843360480190021794116466E43B8
:100FA000370C36048019794126466E438919F8BDFD
:100FB0008307FF22DB0E9A408907090E994000281B
:100FC00008DB830809489B001B18186890430843F6
:100FD000186070470007000F0838830804489B001A
:100FE0001B18D86990430843D861704700E400E0BB
:100FF00000ED00E002E008C8121F08C1002AFAD183
:1010000070477047002001E001C1121F002AFBD188
:101010007047000090B0FFF7B7FA00250520009553
:10102000C00402260A90099508960B956846FFF7BA
:10103000B3FB002800D0FEE707200C900E9501219D
:101040000D960F950CA8FFF7E3FA002800D0FEE7F5
:10105000374C60690127FF0438436061606902957D
:1010600038400590334801900720C0010090694640
:101070003148FFF7D1F9002202210720FFF7C4FA17
:101080000720FFF7B5FA6169B81001436161616932
:101090000140009161694000014361616169014063
:1010A000009160693843606160693840009061690F
:1010B000780001436161616901400091FFF74EFED4
:1010C0001E4C0320A660E0601D480127214681C414
:1010D0001C48083CFFF7A0F90022B9021948FFF7A5
:1010E0003FFA0022F9021748FFF73AFA00220421DA
:1010F0001448FFF735FA67600320A660E060FFF749
:101100001DFF1148458185810189C289891A0182A3
:10111000C771FFF7B7F8FF20F530FFF75FF82046FB
:101120004038FFF747FDFFF7CDF8FFF745FEFAE738
:10113000001002400000211000080048700000204C
:10114000040C000000040048000000200000000023
:101150000000000001020304060708097C110008D2
:101160000000002030000000F40F0008AC1100085F
:1011700030000020580400000410000801000000A6
:101180000000000096000000000064000000000065
:10119000000000000A0000000000000000127A00B9
:0C11A0000100000004000000000000003E
:04000005080000B53A
:00000001FF
