:020000040800F2
:1000000080040020C90000082F0B00082D0B0008F9
:1000100000000000000000000000000000000000E0
:10002000000000000000000000000000330B00088A
:100030000000000000000000310B0008350B000834
:10004000DB00000800000000DB000008DB00000807
:10005000DB000008DB000008DB000008DB00000814
:1000600000000000DB000008DB000008DB000008E7
:10007000DB000008DB000008DB00000800000000D7
:10008000990B00080000000000000000DB000008E1
:10009000DB000008DB000008DB000008DB000008D4
:1000A000DB000008DB000008DB000008DB000008C4
:1000B000DB0000080348854600F07CF80048004754
:1000C000C50C00088004002004488047044800470D
:1000D000FEE7FEE7FEE7FEE7FEE7FEE73D0B000872
:1000E000B500000830B50B4601460020202201244F
:1000F00009E00D46D5409D4205D31D469540491B5C
:100100002546954040191546521E002DF1DC30BDA4
:10011000F0B51FB40646002082B005464024019188
:1001200000901BE0019922460F46304600F030F85F
:10013000049A059B801A994110D31046194622460D
:1001400000F016F8361A8F4101972246012000214F
:10015000009F00F00DF838184D4100902046641EB5
:100160000028DFDC019B00982946324607B0F0BD2D
:1001700010B5202A04DB0146203A9140002010BD32
:10018000914020239C1A0346E3401943904010BD40
:1001900010B5202A04DB0846203AD040002110BDCB
:1001A0000B46D340D0402024A21A91400843194660
:1001B00010BD0000064C0125064E05E0E36807CCA3
:1001C0002B430C3C98471034B442F7D3FFF776FF2B
:1001D0003C0F00085C0F000870B5044600F0BEF844
:1001E0000546601C02D004480078241800F0B6F8D8
:1001F000401BA042FAD370BD20000020F8B50023B8
:100200008DE001249C40A44622407DD04C68022C05
:1002100001D0122C0CD1DC08A40027183C6A5D0721
:10022000ED0E0F26AE40B4430E69AE4026433E624B
:1002300005685E000324B4400F79A543BF07BF0FD4
:10024000B7402F4307604D68012D05D0022D03D024
:10025000112D01D0122D0ED18568CF68A543B7406E
:100260002F43876047686546AF430D79ED06ED0F74
:100270009D403D434560C568A5438C68B4402C4310
:10028000C4604C68E40049D5284CA5690126354373
:10029000A561A4699D0834400094254CAD002F1938
:1002A000BC689D072E0F0F25B540AC430925ED0610
:1002B000A84201D100250FE01E4DA84201D1012521
:1002C0000AE01D4DA84201D1022505E01B4DA842C0
:1002D00001D1032500E00525B5402543BD60184C3C
:1002E00025684E689543F60300D51543256065687B
:1002F0004E689543B60300D515436560A5684E6802
:100300009543F60202D500E008E01543A560E568D4
:100310004E689543B60200D51543E5605B1C0A683C
:100320001446DC4000D06CE7F8BD0000001002402D
:10033000000001400004004800080048000C00488C
:10034000000401400069084000D001207047002AE5
:1003500001D0816170478162704700000148806868
:100360007047000020000020024881680278891848
:10037000816070472000002010B5064801681022F7
:1003800011430160032000F007F800F027F8002077
:1003900010BD00000020024070B504460D4D7D20C8
:1003A0002978C000FFF79EFE01460B480068FFF762
:1003B00099FE00F0ADFA002809D1042C07D20022E2
:1003C0002146401E00F018F800206C6070BD01202E
:1003D00070BD0000200000201C00002070470000BD
:1003E000002805DBC106C90E0120884001490860CC
:1003F0007047000000E100E010B500F031FC10BDD6
:10040000F8B50F46060059D03A4D2868C007C00F0E
:10041000B84209D22868400840003843286028685C
:10042000C007C00FB84249D13068334C81070CD5A2
:10043000400704D5606807210902084360606068CE
:10044000F0218843B168084360603078C00726D047
:10045000706801280ED0216802280ED08907002973
:100460002CDA61688908890001436160FFF776FF33
:1004700000900DE021688903F1E78901EFE7FFF7BC
:100480006DFF0099411A1D48814201D90320F8BD32
:1004900060680C210840716889008842EFD12868A3
:1004A000C007C00FB8420BD9286840084000384345
:1004B00028602868C007C00FB84201D00120F8BDED
:1004C0003078400706D56068072109028843F16843
:1004D0000843606000F018F86168094A0906090FCE
:1004E000515CC840074908600320FFF755FF002012
:1004F000F8BD0000002002400010024088130000F8
:100500002C0F00081C00002010B514A30FCB88B0DE
:100510006C460FC415A30FCB0FC4184A51680C20AA
:100520000B4603401648042B16D0082B14D18B021F
:100530001B0F6C46E45CD26A04AB1207120F9A5C84
:10054000C90305D500231946FFF7E2FD214601E066
:1005500020460C4900F06CFB08B010BD02030405F6
:10056000060708090A0B0C0D0E0F101001020304F8
:1005700005060708090A0B0C0D0E0F1000100240AB
:1005800000127A0000093D00FEB5040070D020780A
:10059000DC4DC0074AD068680007800F012807D0EB
:1005A00068680007800F022809D16868C00306D573
:1005B000286880033AD560680028E7D036E0616893
:1005C000012914D001208004002901D0052914D06C
:1005D0002A68012109048A432A6029688143296025
:1005E0006068002816D0FFF7B9FE06460EE02868BE
:1005F0000121090408432860F2E7296801432960C2
:10060000F5E7FFF7ABFE801B64286ED828688003EF
:10061000F7D50BE0FFF7A2FE064604E0FFF79EFECB
:10062000801B6428F1D828688003F7D4207801263D
:10063000800700283CDA68680007800F07D06868E8
:100640000007800F022809D16868C00306D4286813
:10065000800716D5E06801280AD112E0E06800287A
:10066000286816D030432860FFF778FE074605E07B
:1006700043E1FFF773FEC01B0228C6D82868800735
:10068000F7D52868F82188432169C9000843286004
:100690000EE0400840002860FFF760FE074604E0D7
:1006A000FFF75CFEC01B0228AFD828688007F7D48C
:1006B0002078000722D5E0690028686A0ED0304310
:1006C0006862FFF74BFE074604E0FFF747FEC01BDA
:1006D00002289AD8686A8007F7D50FE040084000E2
:1006E0006862FFF73BFE074605E09DE0FFF736FE38
:1006F000C01B022889D8686A8007F7D420780427AD
:100700004007002860DA00200190E869C00008D4A2
:10071000E969B8060143E961E969014001200091F6
:10072000019079480168C90511D401688215114307
:100730000160FFF713FE009005E0FFF70FFE009940
:10074000401A642870D870480068C005F5D5A068C4
:1007500001280AD0002801D0052810D0286A4008B6
:1007600040002862286AB84301E0286A30432862C2
:10077000A068002812D0FFF7F1FD00900AE0286A77
:1007800038432862F1E7FFF7E9FD0099411A5F4815
:10079000814249D8286A8007F5D50DE0FFF7DEFDD4
:1007A000009006E0FFF7DAFD0099411A57488142B0
:1007B0003AD8286A8007F5D40198002804D0E9695E
:1007C000012000078143E9612078C00635D56069C2
:1007D00001280CD0401D686B23D038436863686BD8
:1007E000400840006863FFF7B9FD064622E0686BE9
:1007F00038436863686B30436863FFF7AFFD0646B4
:1008000004E0FFF7ABFD801B02285BD8686B800714
:10081000F7D5686BF8218843A169C900084368636C
:100820000BE0B8436863F4E74CE0FFF797FD801BEB
:10083000022847D8686B8007F7D4206A00285ED06A
:1008400069680907890F022942D001263606022865
:10085000286805D0B0432860FFF780FD044633E0E8
:10086000B0432860FFF77AFD074604E0FFF776FD06
:10087000C01B022826D828688001F7D4E86AE16AFC
:10088000000900010843E862616AA06A08436968D8
:100890003D22120491430843686028683043286071
:1008A000FFF75CFD044604E0FFF758FD001B02283B
:1008B00008D828688001F7D521E0FFF74FFD001B1D
:1008C000022801D90320FEBD28688001F5D416E076
:1008D0000128F8D06868E96A01221204636A0240BC
:1008E0009A420AD10907E26A090F914205D10F2104
:1008F00089040840A16A884201D00120FEBD002081
:10090000FEBD00000010024000700040881300008F
:10091000094910B5401E884201D9012010BD074C7D
:1009200060610321081F00F09BF90020A0610720EF
:100930002061002010BD0000FFFFFF0000E000E08C
:100940007047704770B5040005D025462035687F94
:10095000002802D006E0012070BD00202877204644
:1009600000F00AF802206877211D206800F01CF9C9
:1009700001206877002070BD08B50848C2690221CF
:100980000A43C261C0690022084000900321102080
:10099000FFF732FD1020FFF723FD08BD00100240D5
:1009A0000268D36801210B43D36000688268520754
:1009B000520F062A02D002680A43026000207047E4
:1009C000704770B50446006801690025C94389076E
:1009D000002915DBC168C943890711D4E91E0161EB
:1009E00001202077206880698007204602D0FFF729
:1009F000E7FF04E000F096F8204600F094F8257731
:100A000020680169C943490717D4C168C943490728
:100A100013D40421C9430161022020772068806932
:100A20008005800F204602D0FFF7CAFF04E000F0E7
:100A300079F8204600F077F8257720680169C943E6
:100A4000090716D4C168C943090712D40821C9434C
:100A50000161042020772068C0698007204602D009
:100A6000FFF7AEFF04E000F05DF8204600F05BF811
:100A7000257720680169C943C90617D4C168C943ED
:100A8000C90613D41021C9430161082020772068CA
:100A9000C0698005800F204602D0FFF791FF04E077
:100AA00000F040F8204600F03EF825772068016904
:100AB000C943C90708D1C168C943C90704D1891E00
:100AC0000161204600F030F820680169C943090639
:100AD00009D4C168C943090605D48021C94301610D
:100AE0002046FFF72DFF20680169C943490609D454
:100AF000C168C943490605D44021C9430161204664
:100B000000F013F820680169C943890609D4C16857
:100B1000C943890605D42021C94301612046FFF756
:100B200010FF70BD7047704770477047FEE7704711
:100B30007047704710B5FFF717FC10BD13480168E8
:100B40000122114301604168114A1140416001686E
:100B5000104A114001600168012292049143016032
:100B600041683F22120491434160C16A09090901A9
:100B7000C162016BFF22143291430163416B49084A
:100B8000490041630021816070470000001002406D
:100B90000CB8FF08FFFFF6FE10B50248FFF711FF83
:100BA00010BD00002C000020F0B502681A4B1B4C51
:100BB000984201D0A04203D17025AA434D682A4330
:100BC000174D184E184F98420AD0A04208D0174C23
:100BD000A04205D0A84203D0B04201D0B84205D10E
:100BE0001446032212029443CA6822438024A2437B
:100BF0004C69224302608A68C2620A688262984233
:100C000005D0A84203D0B04201D0B84201D1096951
:100C1000016301214161F0BD002C0140000400404E
:100C200000400140004401400048014000200040D5
:100C3000F8B5040C8BB2264682B25E430D0C10460A
:100C4000370C5843360480190021794116466E430B
:100C5000370C36048019794126466E438919F8BD50
:100C60008307FF22DB0E9A408907090E994000286E
:100C700008DB830809489B001B1818689043084349
:100C8000186070470007000F0838830804489B006D
:100C90001B18D86990430843D861704700E400E00E
:100CA00000ED00E002E008C8121F08C1002AFAD1D6
:100CB00070477047002001E001C1121F002AFBD1DC
:100CC0007047000090B0FFF757FB00260520009604
:100CD000C00402240A9009960B9608946846FFF710
:100CE00053FC002800D0FEE707200CA951C10121C8
:100CF0000CA80F96FFF784FB002800D0FEE7804881
:100D00004269012149040A43426142690A40009252
:100D100042690A43426142690A40009242694900BD
:100D20000A43426142690A400092426949000A430B
:100D3000426142690A400092426949000A434261A5
:100D40004069704D08400090AC60012068604C1113
:100D500003202C60E86009202946C006FFF74EFA00
:100D600069486A4F286029463846FFF747FA20202D
:100D700029462860664D2846FFF740FA01222021C7
:100D80002846FFF7E4FA002201213846FFF7DFFA90
:100D9000002202213846FFF7DAFA002261113846B4
:100DA000FFF7D5FA002221113846FFF7D0FA0022CA
:100DB00004213846FFF7CBFA092000222146C0065D
:100DC000FFF7C5FA092001222146C006FFF7BFFA46
:100DD000092000222146C006FFF7B9FA4E484D49C6
:100DE0000068FFF77FF947494C4C4039401E4C4A98
:100DF00020600A6048600B464A4A1020083345C309
:100E00004E6108468E61FFF79DFD3E484038FFF772
:100E1000C7FD7D20C000FFF7DFF9FF260136314610
:100E20002846FFF78FFA606080212846FFF78AFA8C
:100E30000121A06049022846FFF784FAE0600421FE
:100E40003948FFF77FFA206131463846FFF77AFAD2
:100E5000606108213846FFF775FAA06160680028D4
:100E600002D02069012814D1002201213846FFF761
:100E70006EFAFA20FFF7B0F9012202213846FFF797
:100E800066FAFA20FFF7A8F9002220212846FFF78A
:100E90005EFAA068002802D06069012814D10122FE
:100EA00020212846FFF753FAFA20FFF795F9002290
:100EB00002213846FFF74BFAFA20FFF78DF900229E
:100EC00001213846FFF743FAE068002802D0A06904
:100ED0000128A4D1012211463846FFF738FAFA203A
:100EE000FFF77AF9012202213846FFF730FAFA209B
:100EF000FFF772F9002220212846FFF728FA8EE733
:100F0000001002406C000020070C000000040048A4
:100F100000080048409C00001C0000200000002049
:100F2000000400400F270000000C004800000000F3
:100F30000000000001020304060708095C0F000816
:100F4000000000202C000000A40C0008880F0008FE
:100F50002C00002054040000B40C00080000000025
:100F60000000000000000000000000000000000081
:100F7000000000000000000000127A0001000000E4
:080F8000040000000000000065
:04000005080000B53A
:00000001FF
