:020000040800F2
:1000000090070020CD000008212F00089B2C00083D
:1000100000000000000000000000000000000000E0
:10002000000000000000000000000000BF300008D9
:100030000000000000000000BD300008C1300008D2
:10004000DF00000800000000DF000008DF000008FB
:10005000DF000008DF000008DF000008951100083D
:1000600000000000590E0008DF000008DF00000853
:10007000DF000008DF000008DF00000800000000CB
:10008000DF0000080000000000000000DF000008A2
:10009000DF00000825310008DF000008DF0000084D
:1000A000DF000008DF000008DF000008DF000008B4
:1000B000DF0000080448854600F014FC00480047B3
:1000C000D13E0008C046C046900700200448804743
:1000D00004480047FEE7FEE7FEE7FEE7FEE7FEE72F
:1000E000C9300008B500000830B50B4601460020B5
:1000F0002022012409E00D46D5409D4205D31D462E
:100100009540491B2546954040191546521E002D25
:10011000F1DC30BDF0B51FB40646002082B00546C4
:100120004024019100901BE0019922460F46304681
:1001300000F0C6F9049A059B801A994110D3104625
:100140001946224600F0ACF9361A8F410197224633
:1001500001200021009F00F0A3F938184D410090C4
:100160002046641E0028DFDC019B009829463246A9
:1001700007B0F0BDF8B502464A40D40F42004B002C
:1001800052085B089A4202D20246084611464A00CB
:1001900023D0C30D4A00DDB2120EAD1A202D35DA80
:1001A00049020126490AF6058A19002C00D052425C
:1001B00020214F1B1146B9402A411018C20D9A4206
:1001C00021D0002C17D0012D08DCDA05801AD20FBF
:1001D0008019D207DBB200F08CF9F8BDDA05801A7D
:1001E000012340001B06C01880185A428018CA0F0D
:1001F0001043490007E04908C2071143DA05801A95
:1002000080194008801800F06CF9F8BD61000122E7
:10021000511A001BF7E70122D2075140AAE7012239
:10022000D2075040A6E7024670B54A40D30FDB071D
:1002300040002DD04A002AD0010E140E00021202F6
:100240000919400A520A8418E50104465443000A79
:10025000120A2E045043A4194219200CC543AA18AF
:10026000120C0125AD03521C521912047F392404CB
:1002700000D0521C104301D44000491EC2B20C06EB
:10028000C0092018401C4008802A02D003E000204A
:1002900070BD40084000002900DA0020184370BDFE
:1002A00070B502464A40D50F40004A00ED074008AD
:1002B0005208002814D0002A12D0C40DD30D4102D8
:1002C0000120C0055202490A520AE41A09181218FC
:1002D0007D34914201D3641C00E04900002C01DA16
:1002E000002070BD0023914201D3891A03434008C6
:1002F00049000028F7D100290AD0914202D10121FA
:10030000C90705E0914201D2012101E00121C94361
:10031000E005C018401900F0E4F870BDF0B51FB456
:1003200088B00B990998002448400999C00F4900EA
:1003300049080991C0070B990090490049080B91A1
:1003400009990898A64608431CD00B990A980843B7
:1003500018D0099801244000420D4800410D099829
:1003600024050003000B204309900B980003000BA9
:1003700020430B9050181C4940180022019014464D
:10038000104605E0002001460DB0F0BD032801DA5B
:10039000034600E003239C46C11A0AAE0AE05F0050
:1003A00008ADED5B4F00F75B7D430027AA187C4149
:1003B000491C5B1E6145F2DD410004AB5A52210429
:1003C000120C0A43240C401C0828DFDB0198029021
:1003D0000099704601910090059B049A0799069830
:1003E00000F0CDF8D0E700000DFCFFFF10B50022B3
:1003F0009623114600F07DF810BD00000EB50549AA
:100400000291002100910A460B46019100F0B7F8D5
:1004100003B000BD33040000C20FD2074000400803
:100420000BD0C10D0723DB01C91840020905400AA2
:100430001143C2084007114370470020014670472E
:10044000CB0FDB07490010B5490802460A4307D025
:100450000A0D07240903E401090B121B002A01DC21
:10046000002010BDC900440F0C43C100E018D205A4
:10047000801800F036F810BD0122D207002800DBFA
:10048000101A002900DB511A814270470122D2075D
:10049000002800DB101A002900DB511A884270473F
:1004A00010B5202A04DB0146203A9140002010BDFF
:1004B000914020239C1A0346E3401943904010BD0D
:1004C00010B5202A04DB0846203AD040002110BD98
:1004D0000B46D340D0402024A21A9140084319462D
:1004E00010BD002904DA401C490001D14008400039
:1004F000704770B40024050C05D11024000402D10B
:10050000002921D01124050E01D100020834050F65
:1005100001D10001241D850F01D18000A41C0028F9
:1005200001DB4000641C002908D020252E1B0D464D
:10053000F540A14000D001212943084301061B1BBF
:10054000000ADB1D02D5002070BC7047DB051818BF
:1005500080180029F8DA401C4900F5D170BC400829
:100560004000704710B5002B08DA0024401C6141A0
:1005700092185B411A4301D14008400010BDF0B50C
:100580001FB482B005460C0003D0084602F0DAFF23
:1005900002E002F0D7FF20300246009021462846B4
:1005A000FFF77EFF049B059A04460F46184311434C
:1005B000084314D0184610431BD0009840210A1A53
:1005C00018460599FFF77CFF05460E46009A0599E7
:1005D0000498FFF765FF084305D0012004E020469A
:1005E000394607B0F0BD0020C11705430E432C4328
:1005F000374300990E986305401A7905E40A0022F2
:100600000C43FD0A0A3002D500200146E9E7010546
:10061000101969410C9C0D9D00196941FFF7A2FF5B
:10062000DFE70000F0B507460846584087B0C00F26
:10063000049048000E46590040084908BC1A8841F9
:1006400005D2384631461E4617460B46024658002C
:10065000400810434DD0300D039040055900400D27
:10066000490D0590401A0290402873DA18030121C1
:10067000000B09050843019004980092002806D059
:100680001146019A49420020904100910190029840
:1006900040210A1A01990098FFF702FF05460C460F
:1006A0006B4607CB00F030F9C0197141039A0E0D6B
:1006B0000023D71756401A467A40164344D0049A6E
:1006C000002A2DD0029A012A039A15DC1205C01ABD
:1006D000914101263605001C7141D20F059ED207BB
:1006E0000093019202962A462346FFF748FF07B07F
:1006F000F0BD38463146FAE71605234A0F46B218D0
:10070000C01AB74101210905001C4F4100187F4163
:10071000114618187941E20F10436D19644113E036
:10072000E2076D0815436408C2071443039A0126C3
:100730001205C01A91413605001C7141CE074008D0
:1007400030434908C01851412A462346FFF70AFFA3
:10075000CDE7FFE7049801224000C117121A0023D9
:100760008B4104983146C417381AA141EEE730B4E2
:100770000124E407634030BC54E730B40124E407AB
:10078000614030BC4EE700000000E0FFF0B50C46D1
:100790005C4085B0E40FE40703944C000026640835
:1007A00059009446490802460296224321D06246E7
:1007B0000A431ED06200570D4A000E032303550D55
:1007C000012402462C492405781B1B0B360B4018CC
:1007D00023432643614600901C46501AB44103D37C
:1007E0000098401C009002E0921800985B4100289D
:1007F00003DA0020014605B0F0BD00200121090503
:100800000746864611E064461D46141BB54106D3D3
:100810006546521BB341744607430C43A646CD07B9
:1008200040084908284392185B4105460D43EAD128
:100830001046184313D06046194650407140084393
:1008400006D06046101AB34106D20122002306E00A
:1008500000220123DB0702E00122D243531000985B
:1008600074460105381C6141029C039D00196941D1
:10087000FFF778FEBFE70000FD0300004A00090310
:100880000123090B1B0519430A4B10B5520D9A425F
:1008900002DA0020014610BD064B34339A4203DCD5
:1008A0009A1AFFF70DFE10BD034BD218FFF7F8FDA3
:1008B00010BD0000FF030000CDFBFFFF10B50029B5
:1008C00004DB0124E40740428C412146002B04DB79
:1008D0001C460123DB075242A341994200D19042BA
:1008E00010BD0000064C0125064E05E0E36807CC6C
:1008F0002B430C3C98471034B442F7D3FFF7DEFB90
:10090000F44500081446000810B5202A06DBCB1772
:100910000846203A1041C1170B4306E00B4613412D
:10092000D0402024A21A91400843194610BD00006F
:100930000021064A08464300D35A401C591880B289
:100940001F28F8D9C802000C704700000C030020D3
:1009500010B5234C21482060204600F06FFD002890
:1009600000D0FEE7012080076060002023460121BF
:1009700004220C33A06007C360762076A176FF22A4
:10098000E076C232E261164A206220321171A06222
:100990000807E062124800F0A3FD002800D0FEE73F
:1009A0000F4800F069FC002800D0FEE70C48032146
:1009B000403001600121090341600146403800F0E8
:1009C000B3FC002800D0FEE720220649044800F0CE
:1009D0009FFE002800D0FEE710BD0000002401406B
:1009E000A00000200C03002070B504460068816858
:1009F000490720D5816810264907002905DA816852
:100A0000890702D481683143816001F017FA0546F5
:100A10000DE001F013FA401B022808D9A06B304307
:100A2000A063E06B01210843E063084670BD2068C5
:100A300080684007EDD4002070BD10B50146406AC3
:100A4000826B50231A420AD1816B01225202114358
:100A500081630168CA681205920F05D020E0006B1F
:100A6000026B0846904710BD827E002A18D10A68A2
:100A7000120715D58A6853070122002B09DB4B6842
:100A80000C24A3434B60816B130299431143816390
:100A900006E0816B202319438163C16B1143C1635D
:100AA00000F0CAFC10BD10B5406A816B40221143B2
:100AB0008163C16B04221143C16300F00FFD10BDBF
:100AC00010B5406A00F0B9FC10BDF8B504460068E6
:100AD00081688907890F012928D10168C90702D1D6
:100AE000C168090422D5816805221140102501261C
:100AF00001290FD1816802221143816021680320FE
:100B0000086001F09BF907460CE001F097F9C01B63
:100B1000022807D9A06B2843A063E06B3043E06351
:100B20000120F8BD20688068C007EED10020F8BD24
:100B3000F8B5044600200090206881688907890F75
:100B4000012905D10168C9072CD1C168090429D43C
:100B50008168154A102611400125002915D18168A8
:100B600029438160124811490068FFF7BDFA00E08F
:100B7000401E00900028FBD101F060F907460CE010
:100B800001F05CF9C01B022807D9A06B3043A063B9
:100B9000E06B2843E0630120F8BD20680068C04393
:100BA000C007EDD10020F8BD1700008040420F00C3
:100BB0008C000020F0B5754E8FB0B07801281BD1A5
:100BC0003446727E403401212089002A16D003ADBC
:100BD000012A17D03046007B022A47D0032A0BD1C6
:100BE0006289002A08D1F27D012A7DD0022A03D130
:100BF000F0753173208830840FB0F0BD0028FBD031
:100C00007176F9E7002802D00020E080F4E70027A1
:100C1000FFF78EFE79007F1CBFB268520A2FF7D310
:100C20000A2103A800F0DAF80027E780012008ABCA
:100C300041006A5AC9184039CA87E188401C5118D6
:100C400080B2E1800928F3D30804C00CFFF7D6FB7B
:100C50004F4A504BFFF762FBFFF7F2FB7067022031
:100C60007076F08CA0817773F783C5E7474F8037A4
:100C7000012802D0022802D003E0B06E00E0F06E3E
:100C80003860A0890028B7D14048C18B0C91002161
:100C9000C1830E46FFF74CFE7100761CB6B2685257
:100CA0000A2EF7D30A2103A800F098F80026E68060
:100CB000012008AB41006A5AC9184039CA87E18847
:100CC000401C511880B2E1800928F3D30804C00CFD
:100CD000FFF794FB2E4A2F4BFFF720FBFFF7B0FBEB
:100CE0002A4DA867019000E04DE00C98FFF77EFBCD
:100CF0000290696F0C910198FFF78DFA2649FFF772
:100D000092FA0299FFF7CCFAE867E88CA0810C9878
:100D1000FFF782FB02460B4620A002F003FCA86FFF
:100D2000FFF77AFB02460B461FA002F0FBFBE86FC1
:100D3000FFF772FB02460B461EA002F0F3FB396878
:100D4000E86FFFF7A3FB08D8687B401CC1B269734A
:100D5000A6801CA002F0E6FB00E06E73687BA97B16
:100D6000884208D103206876287BE8752E846E843B
:100D70000A20608140E702206876A86F6867A68035
:100D80000520A08138E7F07536E70000000000205C
:100D9000B4D934E70C684A3F000020410A0D566F71
:100DA00031203D20256600000A0D566F32203D207F
:100DB000256600000A0D565F44696666203D2025C1
:100DC000660000000A0DA8BEC0A3A6A8A5DFA6B8AD
:100DD000BCC6203D20256420A6B80000F0B5002444
:100DE0008E464A1E12E0714600230D1B6D1E0AE05E
:100DF0005F0039188C46C65B49888E4202D9C153C0
:100E000061464E805B1C9D42F2DC641C9442EADB2E
:100E1000F0BD000008B50F484269012149040A43AA
:100E2000426142690A400092426949000A434261B4
:100E300042690A400092426949000A43426142699C
:100E40000A400092426949000A43426140690840F1
:100E5000009008BD0010024010B50248006B00F081
:100E6000CCFC10BDA000002010B504460068054968
:100E700040181421FFF738F9800020640248E0632D
:100E800010BD0000F8FFFDBF0000024030B5056C4A
:100E90000124AC40C56B6C60046863604368102B30
:100EA000036803D099600068C26030BD9A60006832
:100EB000C16030BD7D218901484307494861002058
:100EC000886101220A610A69D30701D0D203FAD5E9
:100ED000086188617047000000E000E070B50F4CC9
:100EE0000F4D6079012816D001220121284600F01B
:100EF0009EFF606DFFF7DEFF01220221284600F011
:100F000096FF606DFFF7D6FF092000224021C00642
:100F100000F08DFF70BD0022E7E700000000002018
:100F20000004004870B50F4C0F4D6079012816D0B1
:100F300000220121284600F07AFF606DFFF7BAFF1A
:100F400001220221284600F072FF606DFFF7B2FF18
:100F5000092000224021C00600F069FF70BD012277
:100F6000E7E70000000000200004004870B50920F9
:100F700001224021C00600F05AFF094C606DFFF7C6
:100F800099FF084D00220221284600F050FF606DB5
:100F9000FFF790FF00220121284600F048FF70BDB6
:100FA0000000002000040048F8B56748664D407C0A
:100FB0002A78012600244035012840D1624F7C74F4
:100FC00039464B7EC87A403109889C46002A02D0B7
:100FD000012A2AD033E0002809D05B4B01289B8CE2
:100FE0000DD0022813D058480484448427E0564882
:100FF00004734476048444846988C1851FE05248A0
:101000000673448401842B810A20E88117E04E484E
:10101000022707736746032F11D0048441842B8174
:101020000A21E9810472048609E0474B00281B7EEF
:101030000AD0012831D0022836D03C847C84424F2B
:10104000787801284FD051E0387B012802D002285F
:101050000BD020E0388C78853C84002801D0BE7409
:1010600019E0BC74FC743C7515E0788CB885012BD4
:1010700002D0022B08D00DE0002801D0FE7409E058
:10108000FC740220387605E0002801D03E7501E0AE
:101090003C753E767C843C73D1E73E73BC74FC7433
:1010A0003C757C843984CAE760460328C7D0022097
:1010B00038733C84B87C012806D02348012B808DEE
:1010C00004D0022B07D00BE0798409E0F97C0029D9
:1010D00005D1388F03E0397D002900D1288A788432
:1010E0000A202881ABE7B87E012821D0F8780128B2
:1010F0001ED1002A1CD1387B002802D1B87D0128DE
:1011000003D0387A012807D012E010A002F00AFAC2
:10111000F88F38863E720BE0388E002808D113A075
:1011200002F000FA17A002F0FDF93C7228887884DA
:10113000388C002803D069884018F885F8BD788C71
:101140000028F8D1F8BD0000000000200A0DA6DB41
:10115000B0CAC3F6AAF9BA58BCD0202620B5A5ABB0
:10116000DDAEC9B6A1B35DA5DF0000000A0DA6DBA8
:10117000B0CAC3F6AAF9B5A5ABDDAEC9B6A1A8EC55
:10118000B94600000A0DC3F6AAF9AEC9B6A1B35D0F
:10119000A5DF000010B50D494869400501D50815C7
:1011A00004E04869000505D50120C002486100F04F
:1011B0003DFC10BD4869C00402D501200003F5E7DD
:1011C00048690006F5D580204861F0E70004014039
:1011D00000B5144887B042690121C9040A4342613D
:1011E00042690A400592426949000A4342614069E6
:1011F000084005900C4801900020029007208002D2
:1012000000906946094800F069FD80200090694619
:10121000074800F063FD00220221072000F0C2FF12
:1012200007B000BD00100240000021100008004877
:101230000014004870B50AA002F074F901220C4DA8
:10124000D4022146284600F0F2FD0A48406DFFF71F
:1012500031FE00222146284600F0E9FD70BD000065
:101260000A0D2D2D2D2D4558545F434E540000007E
:101270000004004800000020F8B50546044620356B
:10128000287D0026012808D0012028752068816863
:101290008907890F012908D101E00220F8BD016802
:1012A000C90738D1C168090435D4A16BFF220132C6
:1012B000914302221143A163C1688907890F0091FC
:1012C000C16889088900C16020688168920711435C
:1012D000816000F0B3FD07460EE000F0AFFDC01BDB
:1012E000022809D9A06B0221884310210843A0637A
:1012F000002028750120F8BD206880680028ECDBFC
:101300002068C168009A1143C160A06B800880000A
:10131000401CA06304E0A06B20210843A0630126C9
:10132000002028753046F8BDF8B500250446203465
:101330000095227D012A39D00122227503689E681A
:10134000760767D4384F4E68BE424DD09E6A0F78FC
:10135000BA4016439E620123C26A1B079A421FD0FD
:10136000012A1DD0022A1BD0032A19D0042A17D023
:10137000052A15D0062A13D0072A11D002688B68D7
:1013800056697607760FB3420AD05369DB08DB0053
:101390005361006842690B7A5B075B0F1A43426135
:1013A0000A68102A04D0112A02D038E00220F8BDC1
:1013B0001E488368102A07D00122920513438360D8
:1013C0000868102803D02AE00122D205F6E7194860
:1013D00017490068FEF788FE0A21484300E0401ED6
:1013E00000900028FBD11AE0986A0E78B240904332
:1013F00098620968102901D0112910D10B48826820
:10140000102904D0012189058A43826007E0012167
:10141000C905F9E7816B2022114381630125002072
:1014200020752846F8BD000001100000002701408B
:1014300040420F008C0000207047704770B50400D8
:101440003BD0A06B02210843A0632046FFF7CCFAF3
:1014500000260546002832D0012D2AD021684A688E
:101460009F2082434A60216808602068C168184A4A
:101470001140C16020680169890089080161206804
:101480004169C908C90041612068016A114A1140D7
:1014900001622068816AC90CC90481620E488168B2
:1014A0000322920591438160204600F0D5F8E6635F
:1014B000A66320342675284670BD012070BD2046E5
:1014C000FFF703FB05460128F3D00120A063C5E721
:1014D00000023E8300F000F000270140704700004A
:1014E000F8B500260446002805D0A06B2546203517
:1014F000002802D007E00120F8BD0020E063287535
:10150000204600F0BDF8A06B1022C006002870DB5A
:101510002068816849076CD4A16B130199430223A9
:101520001943A16381688907890F012905D10168E1
:10153000C9070FD1C16809040CD4C16818239943A5
:10154000A3681943C160206801696368890089083C
:10155000194301612068C1683D4B1940C160207E7C
:10156000617E8003C9030843A17E4B031843A36A2D
:10157000012B02D001231B0300E000231843E36882
:1015800018432369022B09D0002318432B79E57EE9
:101590005B0018430123012D02D00AE00423F4E785
:1015A000002927D0A16B20252943A163E16B1943B2
:1015B000E163E1690D46FF3DC23D02D0256A294342
:1015C00008432168CD680543CD600125E16A2D07F8
:1015D000A94213D0012911D002290FD003290DD01F
:1015E00004290BD0052909D0062907D0072905D0E1
:1015F00010E028E0012109040843DAE721684D6979
:10160000ED08ED004D6121684D69A78D7F077F0FC3
:101610003D434D612168C9680E4D2940814207D183
:101620000020E063A06B80088000401CA06308E0FD
:10163000A06B022188431043A063E06B1843E06372
:1016400001263046F8BDA06B1043A063F8E7000008
:101650001902FEFFE7FF3F8310B50848C268411535
:101660000A43C260C2688A43C26082698A43826157
:1016700009200121C00600F06FF910BD00100240E2
:1016800070B5204986B04A690546012040040243EE
:101690004A614A69024005928A69001202438A61DE
:1016A0008A69024005924A69012002434A614969F8
:1016B0000026014005910090032001900920694611
:1016C0000296C00600F00AFB0F48104C41C480206F
:1016D000266060604000A0608000E0602020206103
:1016E000C00160610948083C00F062F8204600F043
:1016F000D3F82C63002203210920656200F052FD1B
:1017000006B070BD00100240080002404C030020EB
:10171000F7B5044600680025806840073DD426469A
:101720002036307D01280AD001273775607E0128D8
:1017300007D02046FFF7FCF9050002D02EE002207A
:10174000FEBDA06B16490840FF2101310843A0638C
:101750000020E0633075216B12488862216B1248CB
:10176000C862216B1148086321681C20086020684A
:1017700041681022114341602068C1683943C1604B
:101780002168206B4031029B019A00F0AFF820687D
:10179000816804221143816000E002252846FEBDD5
:1017A000FEF1FFFF3B0A0008C10A0008A70A000873
:1017B00070B504001FD02068016849084900016025
:1017C00020680025056020684560206885602068E5
:1017D000C5602046FFF748FB216C01208840E16B83
:1017E0004860A562E56225636563A5632034657082
:1017F0002570002070BD012070BDF0B4C16B0D6874
:1018000001680C680422066C1346B3402B420DD0CD
:1018100063070BD50B689B0602D40B6893430B60E0
:10182000016C8A40C16B4A60C16A19E00227B74067
:1018300002462F4001232032002F15D0A70713D5D1
:101840000C68A40604D40C680A25AC430C605370E1
:10185000036C02219940C36B596000211170816AA9
:10186000002916D0F0BC08470827B7402F4210D0F7
:1018700024070ED50C680E25AC430C60046C194689
:10188000A140C46B61608363537000211170016BD0
:10189000E6E7F0BC7047000070B5040021D00221DB
:1018A0002046203005464170226811680E48A36822
:1018B0000140606826691843E3683343184363694D
:1018C0001843A3691843E36918430843106020468E
:1018D000FFF7CAFA0021A163012068702970084649
:1018E00070BD012070BD00000FC0FFFFF8B50446B9
:1018F0008C46203001780025012909D00126067088
:1019000041780027012905D0077002252846F8BD37
:101910000220F8BD02214170A763206801684908D0
:101920004900016061462046FFF7B0FAE06A0028EE
:101930002068016802D00E22114306E00A221143FA
:1019400001602068016804229143016020680168F9
:1019500031430160DAE70000F0B5002258E00123CE
:1019600093401C460C4052D096082B4DB60075197A
:10197000AF68AC4695072E0F0F25B540AE463D40EB
:101980000927FF06B84201D100270FE0234FB842D4
:1019900001D101270AE0224FB84201D1022705E018
:1019A000204FB84201D1032700E00527B740AF42DE
:1019B00012D11D4D2E68A6432E606E68A6436E6040
:1019C000AE68A643AE60EE68A643EE606546AD68BD
:1019D0007446A5436446A560056856000324B440D8
:1019E000A5430560D508AD002D182E6AAC465507F5
:1019F000EF0E0F25BD40AE4365462E628568A543B8
:101A0000856045689D434560C368A343C360521C1D
:101A10000B46D340A3D1F0BD0000014000040048B4
:101A200000080048000C004800040140F8B50646D4
:101A300061A001F077FD0021634C0125E173A172E3
:101A4000207BA075802E74D0AF02F21B5F4E6048E1
:101A50001CD0D21B09D0E9028A426BD1617A0129DC
:101A600068D0217901295CD086E0607A012861D0B4
:101A70006574E1726176207A012805D1E18F55A065
:101A800001F050FDE08F20865AA085E0617A01299F
:101A900050D0217901292DD139464D4800F0C2F9A5
:101AA000E0764B4F1CE0E07B401CE07354A001F05B
:101AB00039FD01218902384600F0B4F9E076E07B77
:101AC000217C88420CD9A07A002801D1FFF72AFA9C
:101AD000A57251A001F026FDFFF724FA01F0ECF900
:101AE000E07E0028DFD0E17B50A001F01BFDA07A52
:101AF000012803D0A07D022806D00EE0FFF736FAB9
:101B00007088E0854EA047E052A001F00BFDFFF782
:101B10002DFA6420FFF7CEF9E5716574E57254A0E3
:101B20003AE00121090300F07DF90127E0763F0347
:101B300018E034E032E0E07B401CE0734FA001F09D
:101B4000F1FC3946224800F06DF9E076E07B227C1A
:101B5000904207D9A5724FA001F0E4FCFFF7BEF94F
:101B600001F0AAF9E07E0028E5D0E17B2FA001F08A
:101B7000D9FCA07A0128C1D0A07D012808D135A0C8
:101B800001F0D0FCFFF7F2F96420FFF793F9E5715B
:101B900065740220E07245A001F0C4FCF8BDA07994
:101BA0000128FBD1607A012802D0657242A0F3E7D8
:101BB000617245A0F0E700000A0DB1B1A8EEBEB910
:101BC000ABFCA54F3A2000000000002040000020A0
:101BD000000800480A0DADABB773B8FCA44AB5A520
:101BE000ABDDC3F6AAF9AEC9B6A13A202564206DD3
:101BF000730000000A0D53544F50210A00000000EA
:101C00000A0D4F50454E206B65792E2E2E2E2E70CC
:101C1000726573730A0000000A0D4A4F47204D6F2A
:101C200064653A4F50454E2E2E2E0A000A0D436F22
:101C30006E74696E7565203D2025640A0000000001
:101C40000A0D446F6F722053746F702E2E2E2E2E3D
:101C50000A0000000A0D2D2D2D2D2D2D2D2DA5DF77
:101C6000A759A4CFC2E02D2D2D2D2D2D2D2D0000F7
:101C70000A0D4F50454E210A000000000A0D434C4A
:101C80004F5345206B65792E2E2E2E2E7072657364
:101C9000730A00000A0D4A4F47204D6F64653A43AE
:101CA0004C4F53452E2E2E0A000000000A0D436CA7
:101CB0006F7365210A0000000A0D4C4F434B7E7E76
:101CC0007E7E7E7E210A00000A0D554E4C4F434B0E
:101CD0007E7E7E7E7E7E210A00000000F8B5002315
:101CE0008DE001249C40A44622407DD04C68022C0B
:101CF00001D0122C0CD1DC08A40027183C6A5D0727
:101D0000ED0E0F26AE40B4430E69AE4026433E6250
:101D100005685E000324B4400F79A543BF07BF0FD9
:101D2000B7402F4307604D68012D05D0022D03D029
:101D3000112D01D0122D0ED18568CF68A543B74073
:101D40002F43876047686546AF430D79ED06ED0F79
:101D50009D403D434560C568A5438C68B4402C4315
:101D6000C4604C68E40049D5284CA5690126354378
:101D7000A561A4699D0834400094254CAD002F193D
:101D8000BC689D072E0F0F25B540AC430925ED0615
:101D9000A84201D100250FE01E4DA84201D1012526
:101DA0000AE01D4DA84201D1022505E01B4DA842C5
:101DB00001D1032500E00525B5402543BD60184C41
:101DC00025684E689543F60300D515432560656880
:101DD0004E689543B60300D515436560A5684E6807
:101DE0009543F60202D500E008E01543A560E568DA
:101DF0004E689543B60200D51543E5605B1C0A6842
:101E00001446DC4000D06CE7F8BD00000010024032
:101E1000000001400004004800080048000C004891
:101E2000000401400069084000D001207047002AEA
:101E300001D081617047816270470000014880686D
:101E4000704700009000002070B502464032537881
:101E5000202B1CD11378012B19D0012313702424BB
:101E60005470046825689D432560046825681E0336
:101E7000B5432560046825680D4325600068016846
:101E800019430160202050700020107070BD0220A6
:101E900070BD406C7047000070B5040006D0254648
:101EA000403568780026002802D005E0012070BD8A
:101EB0002E70204600F0F4F8242068702068016835
:101EC0004908490001600F216068090688432168BC
:101ED000086121688A680120C00382438A60E16842
:101EE0000129A16808D02122920211432268916041
:101EF000E168022902D005E00143F7E701212268E9
:101F0000C902516021684A680F4B1A434A60216830
:101F1000CA688243CA60616920690843A1690902ED
:101F200008432168C860216AE069084321680860A5
:101F300020680168012211430160666420206870F6
:101F40002663AE70002070BD00800002FFB505461C
:101F500004464035687883B0202875D10C98002855
:101F600014D00D98002811D0287801286CD00120B9
:101F70002870FFF763FF0746012200901923D10361
:101F8000204600F019FF002874D103E00120400230
:101F900060646FE0222068704020A87000266664AC
:101FA0000C9860620D98608566630E9800900197AA
:101FB00004A90EC9204600F0BBFE002801D02E70F7
:101FC00058E0618D3448FF2905D9FF22228501237D
:101FD0001B06009006E0618D21850090208D012375
:101FE000C2B25B062046049900F0D2FE00970022A0
:101FF000042120460E9B00F0DFFE00283AD1206825
:10200000406A616A0870606A401C6062208D401EF0
:1020100081B22185608D401E6085608D00281FD0B3
:1020200000291DD100970022802120460E9B00F040
:10203000C3FE00281ED1608DFF2806D9FF2222850D
:1020400001231B06009607E024E0608D20850096A2
:10205000208D0123C2B25B062046049900F098FE51
:10206000608D0028C2D13A4620460E9900F0CBFE82
:10207000002802D0012007B0F0BD20682021C161F6
:1020800020684268054B1A4042606970AE702E703D
:102090000020F0E70220EEE70024008000E800FEC8
:1020A00030B58BB0202005901020089005A800F0D6
:1020B0007DF816484269012189040A434261426958
:1020C0000A40099242690A43426142690A40099200
:1020D000C269C9000A43C261C0690124084009906D
:1020E00040200090122001900320094D039002949B
:1020F000694604942846FFF7F1FD80200090694668
:1021000004942846FFF7EAFD0BB030BD00100240F2
:10211000000400480248816802788918816070478D
:102120009000002010B5064801681022114301609C
:10213000032000F007F800F027F8002010BD000091
:102140000020024070B504460D4D7D202978C00066
:10215000FDF7CAFF01460B480068FDF7C5FF00F018
:1021600031FB002809D1042C07D200222146401E51
:1021700000F018F800206C6070BD012070BD0000F8
:10218000900000208C00002070470000002805DB34
:10219000C106C90E0120884001490860704700004F
:1021A00000E100E010B501F0FDF910BDF8B50546FD
:1021B0000068354CC00352D5E0690026C00007D442
:1021C000E16920040143E161E169014001260091D8
:1021D0002E480168C90510D40168821511430160B9
:1021E000FFF72CFE074604E0FFF728FEC01B64281B
:1021F00024D826480068C005F6D5206A03273F0288
:10220000384020D06968394081421CD0206A226A57
:10221000B843012109040A432262226A8A432262E6
:102220002062C0070FD0FFF709FE009008E0FFF71B
:1022300005FE0099411A1648814201D90320F8BDD4
:10224000206A8007F3D5206A6968B8430843206292
:10225000002E04D0E169012000078143E161287864
:10226000C00705D0206BA968800880000843206360
:102270002878800605D5206B10218843E96808433B
:1022800020630020F8BD00000010024000700040F4
:1022900088130000F8B50F46060059D03A4D28685B
:1022A000C007C00FB84209D2286840084000384330
:1022B00028602868C007C00FB84249D13068334C45
:1022C00081070CD5400704D560680721090208433F
:1022D00060606068F0218843B168084360603078CE
:1022E000C00726D0706801280ED0216802280ED0C1
:1022F000890700292CDA6168890889000143616037
:10230000FFF79CFD00900DE021688903F1E789014A
:10231000EFE7FFF793FD0099411A1D48814201D96B
:102320000320F8BD60680C2108407168890088426C
:10233000EFD12868C007C00FB8420BD92868400801
:102340004000384328602868C007C00FB84201D059
:102350000120F8BD3078400706D5606807210902E2
:102360008843F1680843606000F028F86168094A12
:102370000906090F515CC840074908600320FFF7B0
:10238000E1FE0020F8BD00000020024000100240E5
:1023900088130000DC4500088C0000200448054933
:1023A00000684968044A4905490F515CC8407047B4
:1023B0008C00002000100240EC45000810B514A36A
:1023C0000FCB88B06C460FC415A30FCB0FC4184AAF
:1023D00051680C200B4603401648042B16D0082BDE
:1023E00014D18B021B0F6C46E45CD26A04AB12075B
:1023F000120F9A5CC90305D500231946FDF78AFE22
:10240000214601E020460C4901F0B3F808B010BDA8
:1024100002030405060708090A0B0C0D0E0F101025
:102420000102030405060708090A0B0C0D0E0F1024
:102430000010024000127A0000093D00FEB50400C1
:1024400070D02078DC4DC0074AD068680007800F44
:10245000012807D068680007800F022809D1686842
:10246000C00306D5286880033AD560680028E7D005
:1024700036E06168012914D001208004002901D0D0
:10248000052914D02A68012109048A432A60296891
:10249000814329606068002816D0FFF7CFFC06460C
:1024A0000EE028680121090408432860F2E7296842
:1024B00001432960F5E7FFF7C1FC801B64286ED853
:1024C00028688003F7D50BE0FFF7B8FC064604E068
:1024D000FFF7B4FC801B6428F1D828688003F7D488
:1024E00020780126800700283CDA68680007800F02
:1024F00007D068680007800F022809D16868C00308
:1025000006D42868800716D5E06801280AD112E0B1
:10251000E0680028286816D030432860FFF78EFC5A
:10252000074605E043E1FFF789FCC01B0228C6D837
:1025300028688007F7D52868F82188432169C900F1
:10254000084328600EE0400840002860FFF776FC52
:10255000074604E0FFF772FCC01B0228AFD82868CA
:102560008007F7D42078000722D5E0690028686A40
:102570000ED030436862FFF761FC074604E0FFF7C6
:102580005DFCC01B02289AD8686A8007F7D50FE067
:10259000400840006862FFF751FC074605E09DE0F7
:1025A000FFF74CFCC01B022889D8686A8007F7D463
:1025B000207804274007002860DA00200190E869AD
:1025C000C00008D4E969B8060143E961E96901403E
:1025D00001200091019079480168C90511D4016872
:1025E000821511430160FFF729FC009005E0FFF719
:1025F00025FC0099401A642870D870480068C0050E
:10260000F5D5A06801280AD0002801D0052810D0EF
:10261000286A400840002862286AB84301E0286A16
:1026200030432862A068002812D0FFF707FC009012
:102630000AE0286A38432862F1E7FFF7FFFB0099B8
:10264000411A5F48814249D8286A8007F5D50DE0D4
:10265000FFF7F4FB009006E0FFF7F0FB0099411A4A
:10266000574881423AD8286A8007F5D40198002853
:1026700004D0E969012000078143E9612078C006A0
:1026800035D5606901280CD0401D686B23D03843D4
:102690006863686B400840006863FFF7CFFB06463D
:1026A00022E0686B38436863686B30436863FFF708
:1026B000C5FB064604E0FFF7C1FB801B02285BD880
:1026C000686B8007F7D5686BF8218843A169C9005A
:1026D000084368630BE0B8436863F4E74CE0FFF736
:1026E000ADFB801B022847D8686B8007F7D4206AAF
:1026F00000285ED069680907890F022942D00126A7
:1027000036060228286805D0B0432860FFF796FBFC
:10271000044633E0B0432860FFF790FB074604E02F
:10272000FFF78CFBC01B022826D828688001F7D44D
:10273000E86AE16A000900010843E862616AA06A88
:10274000084369683D221204914308436860286881
:1027500030432860FFF772FB044604E0FFF76EFB8E
:10276000001B022808D828688001F7D521E0FFF770
:1027700065FB001B022801D90320FEBD28688001EB
:10278000F5D416E00128F8D06868E96A012212043D
:10279000636A02409A420AD10907E26A090F91422C
:1027A00005D10F2189040840A16A884201D0012087
:1027B000FEBD0020FEBD0000001002400070004081
:1027C00088130000094910B5401E884201D9012034
:1027D00010BD074C60610321081F00F0E3FE0020DC
:1027E000A06107202061002010BD0000FFFFFF0056
:1027F00000E000E07047704770B5040005D0254642
:102800002035687F002802D006E0012070BD00203E
:102810002877204600F00AF802206877211D2068FA
:1028200000F08EFC01206877002070BD08B50948D3
:102830008269012149040A438261806901220840BA
:10284000009003211520FFF7ADFC1520FFF79EFC3B
:1028500008BD0000001002400268D36801210B434C
:10286000D360006882685207520F062A02D00268BD
:102870000A43026000207047704770B50446006844
:1028800001690025C9438907002915DBC168C943CF
:10289000890711D4E91E0161012020772068806931
:1028A0008007204602D0FFF7E7FF04E000F096F82B
:1028B000204600F094F8257720680169C94349074C
:1028C00017D4C168C943490713D40421C94301611E
:1028D00002202077206880698005800F204602D082
:1028E000FFF7CAFF04E000F079F8204600F077F81F
:1028F000257720680169C943090716D4C168C9430F
:10290000090712D40821C9430161042020772068F7
:10291000C0698007204602D0FFF7AEFF04E000F058
:102920005DF8204600F05BF8257720680169C9430F
:10293000C90617D4C168C943C90613D41021C943B5
:102940000161082020772068C0698005800F20463B
:1029500002D0FFF791FF04E000F040F8204600F0BD
:102960003EF8257720680169C943C90708D1C168C5
:10297000C943C90704D1891E0161204600F030F81F
:1029800020680169C943090609D4C168C943090619
:1029900005D48021C94301612046FFF72BFF206841
:1029A0000169C943490609D4C168C943490605D428
:1029B0004021C9430161204600F06AF8206801699E
:1029C000C943890609D4C168C943890605D42021B1
:1029D000C94301612046FFF70EFF70BD7047704785
:1029E00070B5294C0026E08E401C81B2E186A08E95
:1029F000401C80B2A086628E521C62860A2900D1D9
:102A0000E68664283AD1208C00F094FB2084608C08
:102A100000F090FB1C4D60844035288900F08AFB53
:102A20002881688900F086FB6881A88900F082FB14
:102A3000A881E88900F07EFBE881208D00F07AFB18
:102A40002085A08B00F076FBA083608F00F072FBE6
:102A50006087E08D00F06EFBE085208E00F06AFB61
:102A60002086607E012801D0022806D1E08B07492C
:102A7000884201D0401C80B2E083A686608E642824
:102A800000D1668670BD000000000020FFFF00003E
:102A9000704770B5040017D0242060672068016873
:102AA00049084900016020680025056020684560EC
:102AB00020688560204600F03FF8E5676567A567F8
:102AC00060342574002070BD012070BD10B5040075
:102AD00003D0606F002802D007E0012010BD002164
:102AE00070200155204600F03FF8242060672068E0
:102AF0000168490849000160204600F021FC0128D6
:102B0000ECD0606A002802D0204600F083FB2068E9
:102B100041680122D2029143416020688168082205
:102B200091438160206801680122114301602046C1
:102B300000F0D6FB10BD000010B50A48C2680121A4
:102B400089030A43C260C2688A43C26009244115EE
:102B5000E4062046FEF700FF012189022046FEF729
:102B6000FBFE10BD0010024030B5174887B0426927
:102B7000012149040A43426142690A4005924269BF
:102B80000A43426142690A4005928269C9100A43B8
:102B9000826180690124084005904811009002205C
:102BA000019003200925ED060390029469460494E0
:102BB0002846FFF793F8A00200906946049428463F
:102BC000FFF78CF807B030BD00100240FFB5044697
:102BD000406F83B017460D4620285CD1002D0AD0E7
:102BE000002F08D0A168C001814207D120690028C8
:102BF00004D1E80702D0012007B0F0BD20466030C4
:102C00000290007C012846D0029801210174002026
:102C1000E06721206067FFF711F9264640360190F2
:102C2000378277820120A1680003814202D12069A6
:102C3000002802D02F46002511E000270FE00022D7
:102C40008021204600F020FC002815D1002F15D04F
:102C50002168387808857F1C708A401E7082708ACF
:102C6000019B002806980090E9D1002240212046CF
:102C700000F00AFC002808D00320BDE7288821685E
:102C8000C005C00D0885AD1CE6E7202060670299ED
:102C900000200874B0E70220AEE7FEE701688A6909
:102CA000D243920701D400228A6200688169C94335
:102CB000C90703D081690122114381617047000077
:102CC000F7B5044600680E468069C043C0062BD4A1
:102CD00020272546403520688069C043800612D5EC
:102CE000701CF8D0FFF7AAF80299401AB04201D838
:102CF000002EF0D1606C384360646F700020A870C3
:102D000028700120FEBD21681020C8612068C761BD
:102D10002046FFF7C3FF20684168044A1140416024
:102D2000606C04210843E7E70020FEBD00E800FED8
:102D3000F8B50446164615481D46DAB20090079FBE
:102D40000023204600F024F83A462046069900F079
:102D500080F8002818D12846F5B2012809D021684A
:102D6000300A88623A462046069900F072F8002838
:102D70000AD1206885620097002240212046069BE8
:102D800000F01AF8002800D00120F8BD00200080D3
:102D9000F0B50668059C7568064F600D384385439D
:102DA0008805800D110408431843204305437560CE
:102DB000F0BD0000FF63FF03F8B51D4617460E4641
:102DC000044609E0681C07D0FFF738F80699401A56
:102DD000A8420BD8002D09D020688169304688436D
:102DE0000FD00020B842EDD00020F8BD616C20204B
:102DF00001436164403460700020A07020700120A5
:102E0000F8BD0120EEE770B516460D4604460FE00A
:102E1000324629462046FFF753FF002801D0012003
:102E200070BDFFF70BF8801BA84208D8002D06D014
:102E300020688069C0438006EAD4002070BD616CC0
:102E4000202001436164403460700020A070207035
:102E5000E5E770B516460D46044611E032462946B0
:102E60002046FFF72DFF002801D0012070BD681C0F
:102E700006D0FEF7E3FF801BA84208D8002D06D03D
:102E800020688069C0438007E8D4002070BD616C71
:102E9000202001436164403460700020A0702070E5
:102EA000E3E7000010B50121002289020148FEF786
:102EB000BEFF10BD0004004810B501229102024877
:102EC000FEF7B5FF10BD00000004004870B5124CBD
:102ED000012060600220A0600320E0600F4D2060B0
:102EE00021462846FEF7FAFE4020214620600924AC
:102EF000E4062046FEF7F2FE012240212046FEF7BE
:102F000096FF002201212846FEF791FF00220221B0
:102F10002846FEF78CFF70BDF80100200004004831
:102F20007047000070B5164DE889002822D12C4664
:102F3000403CE07900281ED0FDF7FAFCFDF75EFA70
:102F4000104A114BFDF7EAF9FDF77AFA2146803174
:102F50004860216FFDF790FA0CD8208D002809D128
:102F60000AA000F0DFFA0020208460846988E185EF
:102F70006076E07170BD052020850120F9E7000032
:102F800040000020B4D934E70C684A3F0A0A0DAA71
:102F9000F9A8ECA6EC2DB0B1A4EEB942C2E0210A2A
:102FA0000A00000070B5354C0025618C2046008C6D
:102FB000002911D000280FD0FDF7D8FF30A000F075
:102FC000B1FA218C35A000F0ADFA618C37A000F089
:102FD000A9FA2584658448E0227BA2752278002A1C
:102FE00002D0002802D119E0002802D0FDF79AFF94
:102FF00003E0002904D0FDF771FFFFF793FF34E0F1
:10300000FDF7B4FFE571207B012804D0022803D12D
:10301000607E032800D26576257326E00029EAD178
:10302000E571FDF7A3FF207B012802D0022808D01C
:103030001BE02573A574E5742575607E002813D107
:1030400013E02573A17C0120012906D0217E0129EE
:1030500002D0022901D001E002202076A574E57497
:103060002575607E032800D26576E08D002802D0A9
:10307000FFF722FF70BDFFF715FF70BD00000020B5
:103080000A0A0D3D3D3D3D3D3D3D3D3D3D3D4E47EB
:103090003D3D3D3D3D3D3D3D3D3D3D000A0D5469BD
:1030A0006D655F4F70656E203D2564000A0D5469A3
:1030B0006D655F436C6F73653D25640070477047B5
:1030C00010B5FFF727F810BD13480168012211431E
:1030D00001604168114A114041600168104A114085
:1030E00001600168012292049143016041683F221E
:1030F000120491434160C16A09090901C162016B6F
:10310000FF22143291430163416B49084900416336
:103110000021816070470000001002400CB8FF08D9
:10312000FFFFF6FE10B50248FFF7A7FB10BD000039
:10313000EC000020002801D0401E80B27047000043
:10314000F0B502681A4B1B4C984201D0A04203D143
:103150007025AA434D682A43174D184E184F9842C0
:103160000AD0A04208D0174CA04205D0A84203D0F4
:10317000B04201D0B84205D1144603221202944352
:10318000CA6822438024A2434C69224302608A68B1
:10319000C2620A688262984205D0A84203D0B04257
:1031A00001D0B84201D10969016301214161F0BD3B
:1031B000002C014000040040004001400044014058
:1031C000004801400020004010B50E480C4900683E
:1031D000FCF78AFF0C49401E88650D490B4A0A60BE
:1031E0000922CA60486000200861102248618A6094
:1031F00088610846FFF700FB002800D0FEE710BDFD
:10320000102700008C000020000000200044014036
:10321000EC00002010B5818CC90707D001684A680E
:1032200001235B049A43836A1A434A60818C8907AD
:1032300007D501684A6801231B049A43C36A1A43ED
:103240004A60818C490707D501684A6801239B04BD
:103250009A43036B1A434A60818C090707D50168BA
:103260004A680123DB039A43436B1A434A60818C0B
:10327000C90607D50268916801231B039943836B34
:1032800019439160818C890607D501688A680123FA
:103290005B039A43C36B1A438A60818C490612D53B
:1032A00003685A6801210905046C8A4322435A6065
:1032B000026C8A4207D10268516803235B05994377
:1032C000436C19435160818C090607D501684A682F
:1032D0000123DB04806C9A4302434A6010BD000066
:1032E000F8B500260446C667FEF7A8FD0546206827
:1032F0000068124F000709D501212B46002249051D
:103300002046009700F0C0F800280DD12068006822
:1033100040070BD501212B46002289052046009746
:1033200000F0B2F8002801D00320F8BD202060672B
:10333000A067603426740020F8BD0000FFFFFF0185
:1033400070B5044680682169E26908436169002517
:103350001143226808431168444B1940014311602E
:1033600021684868032212039043E26810434860D2
:10337000A169206A2268084391680B231B029943C4
:10338000014391603A492068884210D13948006B66
:103390008007800F11D0012805D0022805D003280E
:1033A0000AD1022009E0042007E0082005E03249A4
:1033B000884201D1002000E010200122E169D203FF
:1033C0002E4E914228D1002806D0022807D004288A
:1033D00017D0082844D11AE0FEF7E0FF13E0616837
:1033E000274A48088018FCF77FFE80B20146103952
:1033F000B14235D82149491C01400007400F08431C
:1034000021E0FEF7DBFF616840004A08EAE76168F7
:10341000012248081204E5E7002806D0022807D058
:10342000042813D008281BD116E0FEF7B7FF0FE0E1
:103430006168144A480811E0FCF756FE80B2014664
:103440001039B1420CD82168C8600AE0FEF7B6FF17
:1034500061684A081018EFE7616848088018EBE7D0
:103460000125002020666066284670BDF369FFFFD5
:10347000003801400010024000440040EFFF00000F
:103480000024F40000127A00FFB581B005460F4613
:10349000044660350A9E38E0701C36D0FEF7CEFC3C
:1034A0000499401AB04221D8002E1FD0206801682C
:1034B00049072AD5C069C043000526D401202168E8
:1034C000C002086220680168FF22A13291430160B6
:1034D0002068816849084900816020206067A067F2
:1034E000E06700202874032005B0F0BD2068016863
:1034F000FF22A13291430160206881684908490098
:10350000816020206067A067EBE72068C1693846CA
:10351000884305D0002103988142BDD00020E3E715
:103520000121F8E70FB410B503A9044B044A02982F
:1035300000F024F910BC08BC04B01847B93E0008DC
:103540009C0000202021020C01D010211046020A0C
:1035500001D010460839020901D01046091F82081F
:1035600001D01046891E420801D0881E7047081AF3
:103570007047F8B5040C8BB2264682B25E430D0C40
:103580001046370C584336048019002179411646FD
:103590006E43370C36048019794126466E438919EB
:1035A000F8BD00008307FF22DB0E9A408907090E51
:1035B0009940002808DB830809489B001B181868FD
:1035C00090430843186070470007000F08388308CD
:1035D00004489B001B18D86990430843D861704782
:1035E00000E400E000ED00E002E008C8121F08C19E
:1035F000002AFAD170477047002001E001C1121F74
:10360000002AFBD170470000F0B51FB486B00998BE
:10361000089A030D0021024314D05148514A18184A
:10362000504305141198012810981AD0281A401CEC
:1036300000264D4F4D49009601910490002812DA62
:10364000444211E01198012449A3012801D11098A6
:10365000C1430698119A84600360C26041600BB058
:10366000F0BD4042E4E70446210500203F4A001C2B
:1036700051410391029012E0E00707D032463B46E9
:1036800001990098FCF74AFE0191009032463B46B2
:1036900010461946FCF742FE06460F466410002C01
:1036A000EAD10498039B0028029A0999089806DA3F
:1036B000FCF734FE019B009AFCF730FE05E0FDF7B5
:1036C00065F8019B009AFDF761F804460E4600225A
:1036D000284BFDF7F3F803D80020C043014607E06C
:1036E0000022254B20463146FCF79CFFFDF7C6F82B
:1036F000102409E0002C0ADB0A220023FCF70AFD53
:10370000079B30321A55641E02460A43F2D1112239
:10371000641C079B121B1C19119B012B03D0012356
:1037200008430ED10AE0084304D011201090002075
:10373000119077E71098151A6D1E0BE010988242D1
:1037400002DD00236D1C03E0824201DA00236D1EBE
:10375000002BEED0069811998260C16030C07EE7E0
:1037600001FCFFFF104D0000000014400000F03F7E
:10377000300000000000F0430000E03FFFB597B0CC
:10378000064600251BE2252876D100242746F74966
:10379000049400E00443761C32780120203A9040E3
:1037A0000842F7D130782A280ED00222307801461C
:1037B0003039092916D804990A2359433039401859
:1037C0001443761C0490F1E7189802C804911890ED
:1037D000002904DA012040030443484204900220F7
:1037E0000443761C30782E2814D1042004437078CA
:1037F000761C2A2809D11898761C80C8189009E0F0
:103800000A214F43303FC719761C307801463039C2
:103810000929F5D930786C2810D006DC4C281AD04C
:1038200068280ED06A2817D104E0742813D07A28AB
:1038300012D110E00120400504430CE001210905EC
:1038400001E0032109050C437178814203D1012075
:1038500000052418761C761C307866280BD013DC03
:1038600058287DD009DC00287BD04528F6D0462892
:10387000F4D047281AD1A9E118E0632835D064288C
:1038800070D0652812D1A1E170286CD008DC6728BF
:10389000F1D069287DD06E280DD06F2806D1BCE00C
:1038A00073282ED0752873D0782859D01A9A199970
:1038B00090476D1C82E16002400F022809D0032866
:1038C0000DD00428189801680DD00D60001D1890C7
:1038D00074E11898EA1701680D604A60F6E71898D5
:1038E00001680D80F2E70D70F0E718986A460178DC
:1038F0001172001D18900020507202A80090012043
:1039000005E0189802C8189000200091C043610794
:103910000ED5002101E00199491C0191B94213DA49
:103920008142F8DB019A0099895C0029F3D10BE010
:10393000002101E00199491C01918142FADB019AC1
:103940000099895C0029F5D1019904981A9B471ABE
:1039500021463846199A00F099FA4019019903E076
:1039600051E030E115E050E0451807E0009800997B
:103970000078491C00911A9A199990470198401EA5
:103980000190401CF2D1214638461A9B199A12E147
:1039900037E00A200021009001916002410F0229C6
:1039A00007D0189A01CA1892C2179446032908D062
:1039B0000AE01898C01DC108C90005C918919446AD
:1039C00007E000B2C2179446042902D140B2C117E1
:1039D0008C4600226146944506DA0A4600214042A0
:1039E00091418C462D2102E0210504D52B216A4608
:1039F0001173012103E0E10701D02021F7E70291D3
:103A000056E00A200AE0102008E010200090002173
:103A1000042004430191082703E0082000210191BC
:103A200000906002410F022907D0189A01CA18922B
:103A300000229446032908D008E01898C01DC10848
:103A4000C90005C91891944603E080B2042900D149
:103A5000C0B20021029121072AD531780D91702939
:103A600006D0009A1021019B4A401A4305D00EE06F
:103A700040216A461173012108E06146014306D0E6
:103A800030216A4611730D99517302210291009AF7
:103A90000821019B4A401A430AD16146014301D1E2
:103AA000610705D530216A46117301217F1E0291FD
:103AB0003178582904D02EA10E910DA90D910DE059
:103AC00030A1F9E76146019B009AFCF723FB0E9BAE
:103AD0008C469B5C0D9A521E0D92137061460143F9
:103AE000F0D10D9805A9081A20300190600703D580
:103AF00001200004844300E001270198874201DD92
:103B0000381A00E000200199009041180298091825
:103B10000498401A0490E00306D421461A9B199A8F
:103B2000049800F0B3F94519002706E003A81A9A93
:103B3000C05D199990476D1C7F1C02988742F5DB88
:103B4000E0030CD521461A9B199A049800F09EF9BF
:103B5000451904E01A9A3020199990476D1C009974
:103B6000481E00900029F5DC1FE000000928010034
:103B700030313233343536373839616263646566E3
:103B800000000000303132333435363738394142A5
:103B900043444546000000000D980D990078491CEB
:103BA0000D911A9A199990476D1C0199481E019020
:103BB0000029F1DC4DE100F059F94519761C307807
:103BC000002800D0DFE528461BB0F0BD600700D418
:103BD00006271898C01DC108C90048680A6808313E
:103BE000C30FDB071891190001D09CA108E0210543
:103BF00001D59BA104E0E10701D09AA100E09AA1C0
:103C00004300109130785B0865280CD006DC45280D
:103C100009D046281DD0472841D141E0662818D058
:103C200067283CD13CE00021112F01DB112000E08E
:103C3000781C0191009008A911A8FFF7E5FC1399E1
:103C400005910021119A15927F1C129801970091FD
:103C500050E00120C00703900120019008A90097BF
:103C600011A8FFF7D1FC139A149905920022119B19
:103C7000009212981593059A0192002901D01046DE
:103C800002E0791C40180190381A01D5019804E02F
:103C90004042401E0090781C0190C01B029043E0FF
:103CA000012F00DA01270021112F01DD112000E092
:103CB00038460191009008A911A8FFF7A5FC1399B7
:103CC0000591119A002112981592009101972107F0
:103CD0000CD40599B94201DB019900E00191012959
:103CE00004DD159A491E515C302906D0B84201DA2C
:103CF000011D05DA0121029115E00199491EEDE748
:103D0000002805DC0099411800910199091A03E087
:103D1000019A411C914200DD01910099401A401C1A
:103D200002900120C0070390200706D40299019851
:103D3000814202DB0020C043029000206946C87720
:103D400007AF012103980337C907884224D0022016
:103D500011902B201290039800280CDA4042039017
:103D60002D20129007E00A210398FCF7BDF93031AD
:103D70007F1E039039701199481E11900029F2DCC2
:103D800003980028EFD1791E12980870307820210E
:103D900008404530BF1E387006A8C01BC01D0390E8
:103DA00010980078002800D001200199411802984D
:103DB000C0170918039809180498401A401E049067
:103DC000E00306D421461A9B199A049800F05EF885
:103DD000451910980078002803D01A9A199990472D
:103DE0006D1CE00324D521461A9B199A049800F013
:103DF0004DF845191CE00098002807DB009905984C
:103E0000884203DD1598405C199901E0199930202A
:103E10001A9A904700986D1C401C00900298401E12
:103E20000290002804D11A9A2E20199990476D1CEF
:103E30000199481E01900029DDDC05E038781A9AC6
:103E40007F1C199990476D1C0399481E0390002907
:103E5000F4DC21461A9B199A0498ACE62D00000068
:103E60002B0000002000000000000000F8B5044610
:103E700000251E461746880404D405E03946202054
:103E8000B0476D1C641EF9D52846F8BDFFB5044641
:103E9000002581B01E46C80301D5302700E0202749
:103EA000880404D505E038460399B0476D1C641EAC
:103EB000F9D5284605B0F0BD13B57D23DB000122FE
:103EC00069460248FEF782FE00981CBD2C010020C6
:103ED00090B0FEF727F9002405200094C0040225C5
:103EE0000A90099408950B946846FEF7A7FA0028F3
:103EF00000D0FEE707200C900E9401210D950F9441
:103F00000CA8FEF7C7F9002800D0FEE7FCF720FD5B
:103F1000FDF75EF9FFF758F9FC48FB490160846042
:103F2000C4604B210461C901846141600C21446279
:103F30004161FEF7AEFD002800D0FEE7F348FEF732
:103F4000C5FD002800D0FEE7F048F149803001604F
:103F5000F049416004610126C461C660FF22046229
:103F6000A021426127468160FDF796FF002800D01E
:103F7000FEE7E64800218030FDF766FFFCF74AFFC8
:103F8000FEF7A4FFE1480121CC30416002218160AD
:103F90000321C160E0490160E04C01462046FDF785
:103FA0009DFE0121002289022046FDF740FF0121EC
:103FB0000022C9022046FDF73AFF002204212046D4
:103FC000FDF735FFD14DD648FF21E0350131029094
:103FD00001912846012300220095A0216038FDF7B9
:103FE000B5FF002806D028466038FDF752FF0428A8
:103FF00000D0FEE7CB4CA87A6070E87A207002907F
:10400000287BA070687BE070A87B2071E87B6071E2
:10401000A071BE482646E030C17F827F080210436F
:10402000A087BA484036E0300546008C20870190D2
:10403000BD48203541780278090211433180009152
:10404000A988E18741790279080210437080287AB3
:10405000FCF7CCF9B549FCF723F92067687AFCF73F
:10406000C5F9B249FCF71CF9A066A87AFCF7BEF9BD
:10407000AE49FCF715F9E066E87A20742784678476
:1040800000990198081A81B231820298012805D15D
:10409000002903D12770A6A0FFF744FA0125257651
:1040A0000720FEF773F80920FEF770F8FCF75EFFB3
:1040B000FF20F530FCF7FEFE94484038FEF7CCFBBD
:1040C000002800D0FEE7206F4000000E0AD1FCF768
:1040D0002FFCFCF793F99B4A9B4BFCF71FF9FCF76D
:1040E000AFF9206780219948FDF79CFEA07698A043
:1040F000616EFFF717FA607801280DD1A07E0128C4
:104100000DD14B20C000308020846575E572944845
:10411000206794A0FFF706FA6078002808D0A07EF8
:10412000002805D0218C608C0A46024354D059E007
:10413000FCF73AFFFEF736FFFCF73CFDA08B0028AA
:10414000EAD16078002802D0A07E0028E4D189A0BE
:10415000FFF7E8F9208C618C08431BD0FCF7E8FBE3
:10416000FCF74CF9774A784BFCF7D8F8FCF768F97C
:104170006C4980318860FCF74FF902460B4689A0F4
:10418000FFF7D0F9206FFCF747F902460B468AA0EB
:10419000FFF7C8F9217B8DA0FFF7C4F9218C002916
:1041A00002D08FA0FFF7BEF9618C002902D092A047
:1041B000FFF7B8F9E18D002902D095A0FFF7B2F919
:1041C000218E002902D098A0FFF7ACF9617E022968
:1041D0007ED003297DD0C2E1627D012A02D1A28F67
:1041E00062876775002905D1E17A012902D1618FC3
:1041F000002902D000280ED021E0FCF7B7FE30885D
:1042000060840220E0726575206E401C2066FDF718
:1042100011F88BA011E0E07A022810D1608F0028FD
:104220000DD1FCF7A3FE30882084E5726575E06D42
:10423000401CE065FCF7FEFF85A0FFF773F9FCF773
:10424000B3FEFEF7AFFEA08B002800D064E784A089
:10425000FFF768F98EA0FFF765F9FCF769FBFCF73B
:10426000CDF8384A384BFCF759F8FCF7E9F82D49F6
:1042700080318860FCF7D0F802460B4649A0FFF772
:1042800051F9206FFCF7C8F802460B464AA0FFF729
:1042900049F9E17A89A0FFF745F9218C002906D078
:1042A0004FA0FFF73FF989A0216EFFF73BF9618C22
:1042B000002906D050A0FFF735F989A0216EFFF73D
:1042C00031F9618F002902D08AA0FFF72BF901E0B4
:1042D00003E033E10A20A0831EE78AA0FFF722F95A
:1042E000104880300068FCF797F802460B468AA019
:1042F000FFF718F9E06FFCF78FF802460B468BA02A
:10430000FFF710F92BE10000003801402C010020DC
:10431000005400401413A500040C000000040048E1
:1043200010270000000000202E0200200000204185
:104330000A0DB1B2B5A1AAF9A55CAFE03A204F468B
:10434000460A0000B4D934E70C684A3F0008004828
:104350000A0D5665725F646174652E3A202564000B
:104360009A99993E0A0DB460C0F4B4FAB8D53AA649
:10437000B30A00000A0D3D3D3D3D3D3D3D3D3D3D07
:104380003D3D3D3DAAACBA417363616E323D3D3D5A
:104390003D3D3D3D3D3D3D3D3D3D3D3D3D3D3D3D4D
:1043A000000000000A0DA5D8AB65B971C0A3ADC867
:1043B000203D2025662056000A0DABDDBEF7B97101
:1043C000C0A32020203D2025662056000A0A0DA506
:1043D000D8AB65AAF9AAACBA41203D2025640000FB
:1043E0000A0A0DB67DAAF9B3D1BE6CAEC9B6A1203A
:1043F0003D202564206D73000A0A0DC3F6AAF9B3A7
:10440000D1BE6CAEC9B6A1203D202564206D7300DD
:104410000A0A0DB7D3A9FAB5B2A7F4AEC9B6A1205E
:104420003D202564206D73000A0A0DC3F6AAF9B574
:10443000A5ABDDAEC9B6A1203D202564206D73007B
:104440000A0D4E6F69736520746573742031000026
:104450000A0D4E6F69736520746573742032000015
:104460000A0D3D3D3D3D3D3D3D3D3D3D3D3D3D3DDF
:10447000AAACBA417363616E313D3D3D3D3D3D3D6A
:104480003D3D3D3D3D3D3D3D3D3D3D3D0000000050
:104490000A0D3D3D3D3D3D3D3D3D3D3D3D3D3D3DAF
:1044A000B460C0F4B4FAB8D53D3D3D3D3D3D3D3D21
:1044B0003D3D3D3D3D3D3D3D3D3D3D000A0D4143C2
:1044C000545F446F6F72203D202564000A0DB67D55
:1044D000AAF9A6B8BCC6203D2025640A0000000049
:1044E0000A0DC3F6AAF9A6B8BCC6203D2025640A69
:1044F000000000000A0D544D5F444C59203D20251A
:10450000640000000A0A0DA8BEC0A3AAACBA4120EC
:104510003D202564000000000A0DC5DCA4C6B2766B
:10452000B0F2B7C7203D2025660000000A0DC5DCAB
:10453000A4C6B276203D202566000000207B02281C
:1045400002D0012805D00AE00C48FEF7EBFF0CA0D2
:1045500003E00A48FEF7E6FF10A0FEF7E3FF20782D
:10456000012806D113A0FEF7DDFF217E16A0FEF77D
:10457000D9FF19A0FEF7D6FFA9E600000445000800
:104580000A0A0DC3F6AAF9A8BEC0A3C4B2B56F3A11
:1045900020B16AA8EEB67DAAF9A4A4000A0A0DB655
:1045A0007DAAF9A8BEC0A3C4B2B56F3A20B0B1A429
:1045B000EE0000000A0A0DA8E2AC71A6A1C3F6AA9B
:1045C000F9AAACBA410000000A0D53545F434C4FA6
:1045D00053453D20256400000A0D00000000000046
:1045E00000000000010203040607080900000000A3
:1045F000010203041446000800000020A00000008F
:10460000E8350008B4460008A0000020F0060000CD
:10461000F835000800000100000000000000000064
:104620000000020000000000000000000000000088
:104630000A00000000000000140001001400000047
:10464000000000000000000000000000000000006A
:10465000000000000000000000000000000000005A
:104660000000000000000000140000000000000036
:104670000000000000000000C461340100000000E0
:10468000000000000000000000000000000000002A
:10469000000000000000000000000000000000001A
:1046A00000127A0001000000040000000000000079
:0446B0000000000006
:04000005080000B53A
:00000001FF
